{"contracts/TreeFarm(1).sol":{"TreeFarm":{"abi":[{"inputs":[],"stateMutability":"nonpayable","type":"constructor"},{"anonymous":false,"inputs":[{"indexed":true,"internalType":"address","name":"owner","type":"address"},{"indexed":true,"internalType":"address","name":"spender","type":"address"},{"indexed":false,"internalType":"uint256","name":"value","type":"uint256"}],"name":"Approval","type":"event"},{"anonymous":false,"inputs":[{"indexed":true,"internalType":"address","name":"owner","type":"address"},{"indexed":true,"internalType":"uint256","name":"plot","type":"uint256"},{"indexed":false,"internalType":"uint256","name":"amount","type":"uint256"}],"name":"Compounded","type":"event"},{"anonymous":false,"inputs":[{"indexed":true,"internalType":"address","name":"owner","type":"address"},{"indexed":true,"internalType":"address","name":"spender","type":"address"},{"indexed":false,"internalType":"bool","name":"allowed","type":"bool"}],"name":"FarmBuckApproval","type":"event"},{"anonymous":false,"inputs":[{"indexed":true,"internalType":"address","name":"buyer","type":"address"},{"indexed":false,"internalType":"uint256","name":"amount","type":"uint256"}],"name":"FarmBuckPurchase","type":"event"},{"anonymous":false,"inputs":[{"indexed":true,"internalType":"address","name":"owner","type":"address"},{"indexed":true,"internalType":"uint256","name":"plot","type":"uint256"},{"indexed":false,"internalType":"uint256","name":"amount","type":"uint256"}],"name":"Invested","type":"event"},{"anonymous":false,"inputs":[{"indexed":false,"internalType":"address","name":"owner","type":"address"}],"name":"OwnershipTransferred","type":"event"},{"anonymous":false,"inputs":[{"indexed":true,"internalType":"address","name":"owner","type":"address"},{"indexed":true,"internalType":"uint256","name":"plot","type":"uint256"},{"indexed":false,"internalType":"uint256","name":"amount","type":"uint256"}],"name":"RedeemBUSD","type":"event"},{"anonymous":false,"inputs":[{"indexed":true,"internalType":"address","name":"owner","type":"address"},{"indexed":true,"internalType":"uint256","name":"plot","type":"uint256"},{"indexed":false,"internalType":"uint256","name":"amount","type":"uint256"}],"name":"RedeemFarmBuck","type":"event"},{"anonymous":false,"inputs":[{"indexed":true,"internalType":"address","name":"from","type":"address"},{"indexed":true,"internalType":"address","name":"to","type":"address"},{"indexed":false,"internalType":"uint256","name":"value","type":"uint256"}],"name":"Transfer","type":"event"},{"anonymous":false,"inputs":[{"indexed":true,"internalType":"address","name":"owner","type":"address"},{"indexed":true,"internalType":"uint256","name":"plot","type":"uint256"}],"name":"TreePlant","type":"event"},{"inputs":[{"components":[{"internalType":"uint32","name":"start","type":"uint32"},{"internalType":"uint32","name":"duration","type":"uint32"},{"internalType":"uint256","name":"price","type":"uint256"},{"components":[{"internalType":"uint16","name":"numerator","type":"uint16"},{"internalType":"uint16","name":"denominator","type":"uint16"}],"internalType":"struct Fraction","name":"percentage","type":"tuple"}],"internalType":"struct Boost","name":"btype","type":"tuple"}],"name":"addBoostType","outputs":[],"stateMutability":"nonpayable","type":"function"},{"inputs":[{"internalType":"address","name":"spender","type":"address"},{"internalType":"bool","name":"allowed","type":"bool"}],"name":"allowSpending","outputs":[],"stateMutability":"nonpayable","type":"function"},{"inputs":[{"internalType":"address","name":"_owner","type":"address"},{"internalType":"address","name":"spender","type":"address"}],"name":"allowance","outputs":[{"internalType":"uint256","name":"","type":"uint256"}],"stateMutability":"view","type":"function"},{"inputs":[{"internalType":"address","name":"_owner","type":"address"},{"internalType":"address","name":"spender","type":"address"}],"name":"allowedToSpend","outputs":[{"internalType":"bool","name":"","type":"bool"}],"stateMutability":"view","type":"function"},{"inputs":[{"internalType":"address","name":"spender","type":"address"},{"internalType":"uint256","name":"amount","type":"uint256"}],"name":"approve","outputs":[{"internalType":"bool","name":"","type":"bool"}],"stateMutability":"nonpayable","type":"function"},{"inputs":[{"internalType":"address","name":"adr","type":"address"}],"name":"authorize","outputs":[],"stateMutability":"nonpayable","type":"function"},{"inputs":[{"internalType":"address","name":"farmer","type":"address"}],"name":"balanceOf","outputs":[{"internalType":"uint256","name":"","type":"uint256"}],"stateMutability":"view","type":"function"},{"inputs":[{"internalType":"uint256","name":"","type":"uint256"}],"name":"boostTypes","outputs":[{"internalType":"uint32","name":"start","type":"uint32"},{"internalType":"uint32","name":"duration","type":"uint32"},{"internalType":"uint256","name":"price","type":"uint256"},{"components":[{"internalType":"uint16","name":"numerator","type":"uint16"},{"internalType":"uint16","name":"denominator","type":"uint16"}],"internalType":"struct Fraction","name":"percentage","type":"tuple"}],"stateMutability":"view","type":"function"},{"inputs":[{"internalType":"uint256","name":"index","type":"uint256"}],"name":"buyBoost","outputs":[],"stateMutability":"nonpayable","type":"function"},{"inputs":[{"internalType":"uint256","name":"plot","type":"uint256"},{"internalType":"uint256","name":"currentLevel","type":"uint256"}],"name":"canTreeLevelUp","outputs":[{"internalType":"bool","name":"","type":"bool"}],"stateMutability":"view","type":"function"},{"inputs":[{"internalType":"uint256","name":"plot","type":"uint256"}],"name":"compound","outputs":[],"stateMutability":"nonpayable","type":"function"},{"inputs":[{"internalType":"address","name":"receiver","type":"address"},{"internalType":"uint256","name":"plot","type":"uint256"}],"name":"compoundFor","outputs":[],"stateMutability":"nonpayable","type":"function"},{"inputs":[],"name":"decimals","outputs":[{"internalType":"uint8","name":"","type":"uint8"}],"stateMutability":"pure","type":"function"},{"inputs":[{"internalType":"uint256","name":"amount","type":"uint256"}],"name":"deposit","outputs":[],"stateMutability":"nonpayable","type":"function"},{"inputs":[{"internalType":"uint256","name":"amount","type":"uint256"},{"internalType":"address","name":"referer","type":"address"}],"name":"depositWithRefer","outputs":[],"stateMutability":"nonpayable","type":"function"},{"inputs":[{"internalType":"uint256","name":"index","type":"uint256"},{"components":[{"internalType":"uint32","name":"start","type":"uint32"},{"internalType":"uint32","name":"duration","type":"uint32"},{"internalType":"uint256","name":"price","type":"uint256"},{"components":[{"internalType":"uint16","name":"numerator","type":"uint16"},{"internalType":"uint16","name":"denominator","type":"uint16"}],"internalType":"struct Fraction","name":"percentage","type":"tuple"}],"internalType":"struct Boost","name":"btype","type":"tuple"}],"name":"editBoostType","outputs":[],"stateMutability":"nonpayable","type":"function"},{"inputs":[{"internalType":"uint256[]","name":"indexes","type":"uint256[]"},{"components":[{"internalType":"uint256[]","name":"pricePerLevel","type":"uint256[]"},{"components":[{"internalType":"uint16","name":"numerator","type":"uint16"},{"internalType":"uint16","name":"denominator","type":"uint16"}],"internalType":"struct Fraction[]","name":"yieldPerLevel","type":"tuple[]"},{"components":[{"internalType":"uint16","name":"numerator","type":"uint16"},{"internalType":"uint16","name":"denominator","type":"uint16"}],"internalType":"struct Fraction[]","name":"taxPerLevel","type":"tuple[]"}],"internalType":"struct TreeType[]","name":"ttypes","type":"tuple[]"}],"name":"editMultipleTreeTypes","outputs":[],"stateMutability":"nonpayable","type":"function"},{"inputs":[{"internalType":"uint256","name":"index","type":"uint256"},{"components":[{"internalType":"uint256[]","name":"pricePerLevel","type":"uint256[]"},{"components":[{"internalType":"uint16","name":"numerator","type":"uint16"},{"internalType":"uint16","name":"denominator","type":"uint16"}],"internalType":"struct Fraction[]","name":"yieldPerLevel","type":"tuple[]"},{"components":[{"internalType":"uint16","name":"numerator","type":"uint16"},{"internalType":"uint16","name":"denominator","type":"uint16"}],"internalType":"struct Fraction[]","name":"taxPerLevel","type":"tuple[]"}],"internalType":"struct TreeType","name":"ttype","type":"tuple"}],"name":"editTreeType","outputs":[],"stateMutability":"nonpayable","type":"function"},{"inputs":[{"internalType":"uint256","name":"plot","type":"uint256"}],"name":"getAvailableYield","outputs":[{"internalType":"uint256","name":"","type":"uint256"}],"stateMutability":"view","type":"function"},{"inputs":[{"internalType":"address","name":"booster","type":"address"}],"name":"getCurrentBoost","outputs":[{"components":[{"internalType":"uint32","name":"start","type":"uint32"},{"internalType":"uint32","name":"duration","type":"uint32"},{"internalType":"uint256","name":"price","type":"uint256"},{"components":[{"internalType":"uint16","name":"numerator","type":"uint16"},{"internalType":"uint16","name":"denominator","type":"uint16"}],"internalType":"struct Fraction","name":"percentage","type":"tuple"}],"internalType":"struct Boost","name":"","type":"tuple"}],"stateMutability":"view","type":"function"},{"inputs":[{"internalType":"uint256","name":"plot","type":"uint256"}],"name":"getMyPlotState","outputs":[{"components":[{"internalType":"uint24","name":"currentLevel","type":"uint24"},{"internalType":"uint32","name":"lastYield","type":"uint32"},{"internalType":"uint256","name":"investedBucks","type":"uint256"},{"internalType":"uint256","name":"yieldedBucks","type":"uint256"},{"internalType":"uint256","name":"yieldedBUSD","type":"uint256"}],"internalType":"struct Tree","name":"","type":"tuple"}],"stateMutability":"view","type":"function"},{"inputs":[{"internalType":"address","name":"owner","type":"address"},{"internalType":"uint256","name":"plot","type":"uint256"}],"name":"getPlotState","outputs":[{"components":[{"internalType":"uint24","name":"currentLevel","type":"uint24"},{"internalType":"uint32","name":"lastYield","type":"uint32"},{"internalType":"uint256","name":"investedBucks","type":"uint256"},{"internalType":"uint256","name":"yieldedBucks","type":"uint256"},{"internalType":"uint256","name":"yieldedBUSD","type":"uint256"}],"internalType":"struct Tree","name":"","type":"tuple"}],"stateMutability":"view","type":"function"},{"inputs":[{"internalType":"uint256","name":"plot","type":"uint256"}],"name":"getTreeType","outputs":[{"components":[{"internalType":"uint256[]","name":"pricePerLevel","type":"uint256[]"},{"components":[{"internalType":"uint16","name":"numerator","type":"uint16"},{"internalType":"uint16","name":"denominator","type":"uint16"}],"internalType":"struct Fraction[]","name":"yieldPerLevel","type":"tuple[]"},{"components":[{"internalType":"uint16","name":"numerator","type":"uint16"},{"internalType":"uint16","name":"denominator","type":"uint16"}],"internalType":"struct Fraction[]","name":"taxPerLevel","type":"tuple[]"}],"internalType":"struct TreeType","name":"","type":"tuple"}],"stateMutability":"view","type":"function"},{"inputs":[{"internalType":"uint256","name":"plot","type":"uint256"},{"internalType":"uint256","name":"level","type":"uint256"}],"name":"getTreeTypePrice","outputs":[{"internalType":"uint256","name":"","type":"uint256"}],"stateMutability":"view","type":"function"},{"inputs":[{"internalType":"uint256","name":"investment","type":"uint256"},{"internalType":"uint256","name":"time","type":"uint256"},{"components":[{"internalType":"uint16","name":"numerator","type":"uint16"},{"internalType":"uint16","name":"denominator","type":"uint16"}],"internalType":"struct Fraction","name":"yield","type":"tuple"}],"name":"getYieldByTime","outputs":[{"internalType":"uint256","name":"","type":"uint256"}],"stateMutability":"pure","type":"function"},{"inputs":[{"internalType":"uint256","name":"plot","type":"uint256"},{"internalType":"uint256","name":"amount","type":"uint256"}],"name":"investInTree","outputs":[],"stateMutability":"nonpayable","type":"function"},{"inputs":[{"internalType":"address","name":"adr","type":"address"}],"name":"isAuthorized","outputs":[{"internalType":"bool","name":"","type":"bool"}],"stateMutability":"view","type":"function"},{"inputs":[{"internalType":"address","name":"account","type":"address"}],"name":"isOwner","outputs":[{"internalType":"bool","name":"","type":"bool"}],"stateMutability":"view","type":"function"},{"inputs":[],"name":"maxYieldTime","outputs":[{"internalType":"uint40","name":"","type":"uint40"}],"stateMutability":"view","type":"function"},{"inputs":[],"name":"mintPrivateSaleBucks","outputs":[],"stateMutability":"nonpayable","type":"function"},{"inputs":[],"name":"name","outputs":[{"internalType":"string","name":"","type":"string"}],"stateMutability":"pure","type":"function"},{"inputs":[{"internalType":"uint256","name":"plot","type":"uint256"}],"name":"plantFirstTree","outputs":[],"stateMutability":"nonpayable","type":"function"},{"inputs":[{"internalType":"uint256","name":"plot","type":"uint256"}],"name":"redeemBUSD","outputs":[],"stateMutability":"nonpayable","type":"function"},{"inputs":[{"internalType":"address","name":"receiver","type":"address"},{"internalType":"uint256","name":"plot","type":"uint256"}],"name":"redeemBUSDFor","outputs":[],"stateMutability":"nonpayable","type":"function"},{"inputs":[{"internalType":"uint256","name":"plot","type":"uint256"}],"name":"redeemFarmbuck","outputs":[],"stateMutability":"nonpayable","type":"function"},{"inputs":[{"internalType":"address","name":"receiver","type":"address"},{"internalType":"uint256","name":"plot","type":"uint256"}],"name":"redeemFarmbuckFor","outputs":[],"stateMutability":"nonpayable","type":"function"},{"inputs":[{"internalType":"uint256","name":"index","type":"uint256"}],"name":"removeBoostType","outputs":[],"stateMutability":"nonpayable","type":"function"},{"inputs":[{"internalType":"bool","name":"active","type":"bool"}],"name":"setBoostsAvailable","outputs":[],"stateMutability":"nonpayable","type":"function"},{"inputs":[{"internalType":"uint256","name":"amount","type":"uint256"}],"name":"setPrivateSaleMintAmount","outputs":[],"stateMutability":"nonpayable","type":"function"},{"inputs":[{"components":[{"internalType":"uint16","name":"numerator","type":"uint16"},{"internalType":"uint16","name":"denominator","type":"uint16"}],"internalType":"struct Fraction","name":"fr","type":"tuple"}],"name":"setRefererAmount","outputs":[],"stateMutability":"nonpayable","type":"function"},{"inputs":[{"internalType":"bool","name":"allow","type":"bool"}],"name":"setTransferAllowed","outputs":[],"stateMutability":"nonpayable","type":"function"},{"inputs":[{"internalType":"address","name":"_owner","type":"address"},{"internalType":"address","name":"spender","type":"address"}],"name":"spendingAllowed","outputs":[{"internalType":"bool","name":"","type":"bool"}],"stateMutability":"view","type":"function"},{"inputs":[],"name":"symbol","outputs":[{"internalType":"string","name":"","type":"string"}],"stateMutability":"pure","type":"function"},{"inputs":[],"name":"totalSupply","outputs":[{"internalType":"uint256","name":"","type":"uint256"}],"stateMutability":"view","type":"function"},{"inputs":[{"internalType":"address","name":"recipient","type":"address"},{"internalType":"uint256","name":"amount","type":"uint256"}],"name":"transfer","outputs":[{"internalType":"bool","name":"","type":"bool"}],"stateMutability":"nonpayable","type":"function"},{"inputs":[{"internalType":"address","name":"sender","type":"address"},{"internalType":"address","name":"recipient","type":"address"},{"internalType":"uint256","name":"amount","type":"uint256"}],"name":"transferFrom","outputs":[{"internalType":"bool","name":"","type":"bool"}],"stateMutability":"nonpayable","type":"function"},{"inputs":[{"internalType":"address payable","name":"adr","type":"address"}],"name":"transferOwnership","outputs":[],"stateMutability":"nonpayable","type":"function"},{"inputs":[{"internalType":"address","name":"adr","type":"address"}],"name":"unauthorize","outputs":[],"stateMutability":"nonpayable","type":"function"}],"evm":{"bytecode":{"linkReferences":{},"object":"60a060405262015180600360006101000a81548164ffffffffff021916908364ffffffffff160217905550683635c9adc5dea00000602a556040518060400160405280600561ffff168152602001606461ffff16815250602b60008201518160000160006101000a81548161ffff021916908361ffff16021790555060208201518160000160026101000a81548161ffff021916908361ffff16021790555050506000603160006101000a81548160ff021916908315150217905550348015620000c857600080fd5b5033806000806101000a81548173ffffffffffffffffffffffffffffffffffffffff021916908373ffffffffffffffffffffffffffffffffffffffff16021790555060018060008373ffffffffffffffffffffffffffffffffffffffff1673ffffffffffffffffffffffffffffffffffffffff16815260200190815260200160002060006101000a81548160ff02191690831515021790555050600060614614156200018b5773ed24fc36d5ee211ea25a80239fb8c4cfd80f12ee9050620001a3565b73e9e7cea3dedca5984780bafc599bd69add087d5690505b8073ffffffffffffffffffffffffffffffffffffffff1660808173ffffffffffffffffffffffffffffffffffffffff1681525050506080516175c26200020260003960008181610c960152818161412b0152614c0901526175c26000f3fe608060405234801561001057600080fd5b50600436106102a05760003560e01c80637fe6b8b611610167578063d9d5fc96116100ce578063f1abe2ca11610087578063f1abe2ca14610875578063f1f032f014610891578063f2fde38b146108c4578063f929c98b146108e0578063fe9be086146108fc578063fe9fbb8014610918576102a0565b8063d9d5fc961461078f578063dc4fd819146107bf578063dd62ed3e146107dd578063df7cbee11461080d578063e3eba06014610829578063f0b37c0414610859576102a0565b8063aa5f7e2611610120578063aa5f7e26146106e7578063ae90102114610703578063b3942cbd1461071f578063b6a5d7de1461073b578063b6b55f2514610757578063d1225a9b14610773576102a0565b80637fe6b8b6146106015780638b1069261461061d5780639388e3a41461064d57806395d89b41146106695780639e7af3c714610687578063a9059cbb146106b7576102a0565b8063451f3caf1161020b57806370a08231116101c457806370a082311461051d578063718abfba1461054d57806371b322dc14610569578063730417dc1461058557806373af2e29146105b55780637776bbbd146105d1576102a0565b8063451f3caf1461044d5780634c4a6dd0146104695780635347856214610499578063558ac136146104b557806357f43f8d146104e55780635c3c958714610501576102a0565b806323b872dd1161025d57806323b872dd146103795780632f54bf6e146103a9578063313ce567146103d95780633d3cae07146103f757806340e44267146104275780634416c3b414610431576102a0565b8063032c9dca146102a557806306fdde03146102c1578063095ea7b3146102df5780630b1d76051461030f57806318160ddd1461032b57806318aac6df14610349575b600080fd5b6102bf60048036038101906102ba9190615040565b610948565b005b6102c9610e81565b6040516102d69190615119565b60405180910390f35b6102f960048036038101906102f49190615040565b610ebe565b6040516103069190615156565b60405180910390f35b6103296004803603810190610324919061522c565b610f43565b005b610333611244565b60405161034091906152bc565b60405180910390f35b610363600480360381019061035e91906152d7565b61124e565b60405161037091906152bc565b60405180910390f35b610393600480360381019061038e9190615317565b6114ba565b6040516103a09190615156565b60405180910390f35b6103c360048036038101906103be919061536a565b6115c0565b6040516103d09190615156565b60405180910390f35b6103e1611619565b6040516103ee91906153b3565b60405180910390f35b610411600480360381019061040c91906152d7565b611622565b60405161041e9190615156565b60405180910390f35b61042f61182f565b005b61044b600480360381019061044691906153f2565b611945565b005b61046760048036038101906104629190615040565b6119a2565b005b610483600480360381019061047e919061541f565b611a69565b6040516104909190615156565b60405180910390f35b6104b360048036038101906104ae919061548b565b611afd565b005b6104cf60048036038101906104ca919061536a565b611bfa565b6040516104dc919061559a565b60405180910390f35b6104ff60048036038101906104fa91906155b5565b611cfd565b005b61051b60048036038101906105169190615601565b611f16565b005b6105376004803603810190610532919061536a565b611f9b565b60405161054491906152bc565b60405180910390f35b6105676004803603810190610562919061564d565b611fe4565b005b610583600480360381019061057e91906156a9565b6122cf565b005b61059f600480360381019061059a91906155b5565b61234d565b6040516105ac91906152bc565b60405180910390f35b6105cf60048036038101906105ca91906155b5565b6123a5565b005b6105eb60048036038101906105e691906155b5565b61281c565b6040516105f891906158a5565b60405180910390f35b61061b600480360381019061061691906158c7565b6129dc565b005b61063760048036038101906106329190615a03565b612a67565b60405161064491906152bc565b60405180910390f35b610667600480360381019061066291906155b5565b612b09565b005b610671612ba8565b60405161067e9190615119565b60405180910390f35b6106a1600480360381019061069c91906155b5565b612be5565b6040516106ae9190615adc565b60405180910390f35b6106d160048036038101906106cc9190615040565b612bfe565b6040516106de9190615156565b60405180910390f35b61070160048036038101906106fc91906155b5565b612cba565b005b61071d60048036038101906107189190615040565b612d6c565b005b61073960048036038101906107349190615af7565b613033565b005b6107556004803603810190610750919061536a565b613098565b005b610771600480360381019061076c91906155b5565b61313a565b005b61078d600480360381019061078891906155b5565b613146565b005b6107a960048036038101906107a49190615040565b613513565b6040516107b69190615adc565b60405180910390f35b6107c761362f565b6040516107d49190615b44565b60405180910390f35b6107f760048036038101906107f2919061541f565b613646565b60405161080491906152bc565b60405180910390f35b610827600480360381019061082291906152d7565b61366c565b005b610843600480360381019061083e919061541f565b6137e0565b6040516108509190615156565b60405180910390f35b610873600480360381019061086e919061536a565b613874565b005b61088f600480360381019061088a9190615af7565b613917565b005b6108ab60048036038101906108a691906155b5565b61397c565b6040516108bb9493929190615b9d565b60405180910390f35b6108de60048036038101906108d99190615c20565b613a26565b005b6108fa60048036038101906108f591906155b5565b613b3f565b005b610916600480360381019061091191906155b5565b613df1565b005b610932600480360381019061092d919061536a565b614315565b60405161093f9190615156565b60405180910390f35b80600c811061098c576040517f08c379a000000000000000000000000000000000000000000000000000000000815260040161098390615c99565b60405180910390fd5b6109968333611a69565b61099f57600080fd5b60006109ab848461436b565b90506000600484600c81106109c3576109c2615cb9565b5b6003020160405180606001604052908160008201805480602002602001604051908101604052809291908181526020018280548015610a2157602002820191906000526020600020905b815481526020019060010190808311610a0d575b5050505050815260200160018201805480602002602001604051908101604052809291908181526020016000905b82821015610abd578382906000526020600020016040518060400160405290816000820160009054906101000a900461ffff1661ffff1661ffff1681526020016000820160029054906101000a900461ffff1661ffff1661ffff168152505081526020019060010190610a4f565b50505050815260200160028201805480602002602001604051908101604052809291908181526020016000905b82821015610b58578382906000526020600020016040518060400160405290816000820160009054906101000a900461ffff1661ffff1661ffff1681526020016000820160029054906101000a900461ffff1661ffff1661ffff168152505081526020019060010190610aea565b505050508152505090506000602e60008773ffffffffffffffffffffffffffffffffffffffff1673ffffffffffffffffffffffffffffffffffffffff16815260200190815260200160002085600c8110610bb557610bb4615cb9565b5b600402016040518060a00160405290816000820160009054906101000a900462ffffff1662ffffff1662ffffff1681526020016000820160039054906101000a900463ffffffff1663ffffffff1663ffffffff1681526020016001820154815260200160028201548152602001600382015481525050905060008260400151826000015162ffffff1681518110610c4f57610c4e615cb9565b5b602002602001015190506000816020015161ffff16826000015161ffff1686610c789190615d17565b610c829190615da0565b905060008186610c929190615dd1565b90507f000000000000000000000000000000000000000000000000000000000000000073ffffffffffffffffffffffffffffffffffffffff1663a9059cbb8a836040518363ffffffff1660e01b8152600401610cef929190615e14565b6020604051808303816000875af1158015610d0e573d6000803e3d6000fd5b505050506040513d601f19601f82011682018060405250810190610d329190615e52565b508084608001818151610d459190615e7f565b9150818152505042846020019063ffffffff16908163ffffffff168152505083602e60008b73ffffffffffffffffffffffffffffffffffffffff1673ffffffffffffffffffffffffffffffffffffffff16815260200190815260200160002089600c8110610db657610db5615cb9565b5b6004020160008201518160000160006101000a81548162ffffff021916908362ffffff16021790555060208201518160000160036101000a81548163ffffffff021916908363ffffffff160217905550604082015181600101556060820151816002015560808201518160030155905050878973ffffffffffffffffffffffffffffffffffffffff167f888f19217ddad5c6a51226c6812abe28b4400e72206c3b170ae84829bd03a7a088604051610e6e91906152bc565b60405180910390a3505050505050505050565b60606040518060400160405280600881526020017f4661726d4275636b000000000000000000000000000000000000000000000000815250905090565b600080600083119050610ed18482611afd565b8373ffffffffffffffffffffffffffffffffffffffff163373ffffffffffffffffffffffffffffffffffffffff167f8c5be1e5ebec7d5bd14f71427d1e84f3dd0314c0f7b2291e5b200ac8c7c3b925600254604051610f3091906152bc565b60405180910390a3600191505092915050565b610f4c33614315565b610f8b576040517f08c379a0000000000000000000000000000000000000000000000000000000008152600401610f8290615f21565b60405180910390fd5b818190508484905014610fd3576040517f08c379a0000000000000000000000000000000000000000000000000000000008152600401610fca90615f8d565b60405180910390fd5b60005b8484905081101561123d576000838383818110610ff657610ff5615cb9565b5b90506020028101906110089190615fbc565b80600001906110179190615fe4565b905011801561105b5750600083838381811061103657611035615cb9565b5b90506020028101906110489190615fbc565b80602001906110579190616047565b9050115b801561109c5750600083838381811061107757611076615cb9565b5b90506020028101906110899190615fbc565b80604001906110989190616047565b9050115b801561111157508282828181106110b6576110b5615cb9565b5b90506020028101906110c89190615fbc565b80602001906110d79190616047565b90508383838181106110ec576110eb615cb9565b5b90506020028101906110fe9190615fbc565b806000019061110d9190615fe4565b9050145b8015611186575082828281811061112b5761112a615cb9565b5b905060200281019061113d9190615fbc565b806040019061114c9190616047565b905083838381811061116157611160615cb9565b5b90506020028101906111739190615fbc565b80602001906111829190616047565b9050145b6111c5576040517f08c379a00000000000000000000000000000000000000000000000000000000081526004016111bc90616168565b60405180910390fd5b8282828181106111d8576111d7615cb9565b5b90506020028101906111ea9190615fbc565b60048686848181106111ff576111fe615cb9565b5b90506020020135600c811061121757611216615cb9565b5b600302018181611227919061672f565b90505080806112359061673d565b915050610fd6565b5050505050565b6000600254905090565b600082600c8110611294576040517f08c379a000000000000000000000000000000000000000000000000000000000815260040161128b90615c99565b60405180910390fd5b6000600485600c81106112aa576112a9615cb9565b5b600302016040518060600160405290816000820180548060200260200160405190810160405280929190818152602001828054801561130857602002820191906000526020600020905b8154815260200190600101908083116112f4575b5050505050815260200160018201805480602002602001604051908101604052809291908181526020016000905b828210156113a4578382906000526020600020016040518060400160405290816000820160009054906101000a900461ffff1661ffff1661ffff1681526020016000820160029054906101000a900461ffff1661ffff1661ffff168152505081526020019060010190611336565b50505050815260200160028201805480602002602001604051908101604052809291908181526020016000905b8282101561143f578382906000526020600020016040518060400160405290816000820160009054906101000a900461ffff1661ffff1661ffff1681526020016000820160029054906101000a900461ffff1661ffff1661ffff1681525050815260200190600101906113d1565b50505050815250509050838160000151511015611491576040517f08c379a0000000000000000000000000000000000000000000000000000000008152600401611488906167d2565b60405180910390fd5b806000015184815181106114a8576114a7615cb9565b5b60200260200101519250505092915050565b6000603160009054906101000a900460ff1680611522575060008054906101000a900473ffffffffffffffffffffffffffffffffffffffff1673ffffffffffffffffffffffffffffffffffffffff163373ffffffffffffffffffffffffffffffffffffffff16145b611561576040517f08c379a000000000000000000000000000000000000000000000000000000000815260040161155890616864565b60405180910390fd5b61156c8484846146d0565b6115768433611a69565b6115b5576040517f08c379a00000000000000000000000000000000000000000000000000000000081526004016115ac906168f6565b60405180910390fd5b600190509392505050565b60008060009054906101000a900473ffffffffffffffffffffffffffffffffffffffff1673ffffffffffffffffffffffffffffffffffffffff168273ffffffffffffffffffffffffffffffffffffffff16149050919050565b60006012905090565b600082600c8110611668576040517f08c379a000000000000000000000000000000000000000000000000000000000815260040161165f90615c99565b60405180910390fd5b6000600485600c811061167e5761167d615cb9565b5b60030201604051806060016040529081600082018054806020026020016040519081016040528092919081815260200182805480156116dc57602002820191906000526020600020905b8154815260200190600101908083116116c8575b5050505050815260200160018201805480602002602001604051908101604052809291908181526020016000905b82821015611778578382906000526020600020016040518060400160405290816000820160009054906101000a900461ffff1661ffff1661ffff1681526020016000820160029054906101000a900461ffff1661ffff1661ffff16815250508152602001906001019061170a565b50505050815260200160028201805480602002602001604051908101604052809291908181526020016000905b82821015611813578382906000526020600020016040518060400160405290816000820160009054906101000a900461ffff1661ffff1661ffff1681526020016000820160029054906101000a900461ffff1661ffff1661ffff1681525050815260200190600101906117a5565b5050505081525050905080600001515184109250505092915050565b61183833614315565b611877576040517f08c379a000000000000000000000000000000000000000000000000000000000815260040161186e90615f21565b60405180910390fd5b602960019054906101000a900460ff16156118c7576040517f08c379a00000000000000000000000000000000000000000000000000000000081526004016118be90616988565b60405180910390fd5b602a54602c60003373ffffffffffffffffffffffffffffffffffffffff1673ffffffffffffffffffffffffffffffffffffffff16815260200190815260200160002060008282540192505081905550602a546002600082825401925050819055506001602960016101000a81548160ff021916908315150217905550565b61194e33614315565b61198d576040517f08c379a000000000000000000000000000000000000000000000000000000000815260040161198490615f21565b60405180910390fd5b80602b818161199c91906169a8565b90505050565b80600c81106119e6576040517f08c379a00000000000000000000000000000000000000000000000000000000081526004016119dd90615c99565b60405180910390fd5b6119f08333611a69565b6119f957600080fd5b6000611a05848461436b565b9050611a148385836001614978565b828473ffffffffffffffffffffffffffffffffffffffff167f820cea42e8517cf1ec6d4e9db93909255f07c45f7eb0a7c7b5a0f8bdcfc2e5bf83604051611a5b91906152bc565b60405180910390a350505050565b6000602d60008473ffffffffffffffffffffffffffffffffffffffff1673ffffffffffffffffffffffffffffffffffffffff16815260200190815260200160002060008373ffffffffffffffffffffffffffffffffffffffff1673ffffffffffffffffffffffffffffffffffffffff16815260200190815260200160002060009054906101000a900460ff16905092915050565b80602d60003373ffffffffffffffffffffffffffffffffffffffff1673ffffffffffffffffffffffffffffffffffffffff16815260200190815260200160002060008473ffffffffffffffffffffffffffffffffffffffff1673ffffffffffffffffffffffffffffffffffffffff16815260200190815260200160002060006101000a81548160ff0219169083151502179055508173ffffffffffffffffffffffffffffffffffffffff163373ffffffffffffffffffffffffffffffffffffffff167f0c8df66a7b22af6c2076e2c0586bca7548f9584b071221f363cde24bdbd9e62f83604051611bee9190615156565b60405180910390a35050565b611c02614ee1565b602f60008373ffffffffffffffffffffffffffffffffffffffff1673ffffffffffffffffffffffffffffffffffffffff1681526020019081526020016000206040518060800160405290816000820160009054906101000a900463ffffffff1663ffffffff1663ffffffff1681526020016000820160049054906101000a900463ffffffff1663ffffffff1663ffffffff16815260200160018201548152602001600282016040518060400160405290816000820160009054906101000a900461ffff1661ffff1661ffff1681526020016000820160029054906101000a900461ffff1661ffff1661ffff1681525050815250509050919050565b611d0633614315565b611d45576040517f08c379a0000000000000000000000000000000000000000000000000000000008152600401611d3c90615f21565b60405180910390fd5b60286001602880549050611d599190615dd1565b81548110611d6a57611d69615cb9565b5b906000526020600020906003020160288281548110611d8c57611d8b615cb9565b5b90600052602060002090600302016000820160009054906101000a900463ffffffff168160000160006101000a81548163ffffffff021916908363ffffffff1602179055506000820160049054906101000a900463ffffffff168160000160046101000a81548163ffffffff021916908363ffffffff1602179055506001820154816001015560028201816002016000820160009054906101000a900461ffff168160000160006101000a81548161ffff021916908361ffff1602179055506000820160029054906101000a900461ffff168160000160026101000a81548161ffff021916908361ffff16021790555050509050506028805480611e9357611e926169b6565b5b6001900381819060005260206000209060030201600080820160006101000a81549063ffffffff02191690556000820160046101000a81549063ffffffff0219169055600182016000905560028201600080820160006101000a81549061ffff02191690556000820160026101000a81549061ffff021916905550505050905550565b611f1f33614315565b611f5e576040517f08c379a0000000000000000000000000000000000000000000000000000000008152600401611f5590615f21565b60405180910390fd5b60288190806001815401808255809150506001900390600052602060002090600302016000909190919091508181611f969190616bc3565b505050565b6000602c60008373ffffffffffffffffffffffffffffffffffffffff1673ffffffffffffffffffffffffffffffffffffffff168152602001908152602001600020549050919050565b611fed33614315565b61202c576040517f08c379a000000000000000000000000000000000000000000000000000000000815260040161202390615f21565b60405180910390fd5b80600081806000019061203f9190615fe4565b905011612081576040517f08c379a000000000000000000000000000000000000000000000000000000000815260040161207890616c43565b60405180910390fd5b60008180602001906120939190616047565b9050116120d5576040517f08c379a00000000000000000000000000000000000000000000000000000000081526004016120cc90616cd5565b60405180910390fd5b60008180604001906120e79190616047565b905011612129576040517f08c379a000000000000000000000000000000000000000000000000000000000815260040161212090616d67565b60405180910390fd5b8080602001906121399190616047565b905081806000019061214b9190615fe4565b905014801561217b57508080604001906121659190616047565b90508180602001906121779190616047565b9050145b6121ba576040517f08c379a00000000000000000000000000000000000000000000000000000000081526004016121b190616df9565b60405180910390fd5b60008280600001906121cc9190615fe4565b90501180156121ec575060008280602001906121e89190616047565b9050115b8015612209575060008280604001906122059190616047565b9050115b801561223657508180602001906122209190616047565b90508280600001906122329190615fe4565b9050145b8015612263575081806040019061224d9190616047565b905082806020019061225f9190616047565b9050145b6122a2576040517f08c379a000000000000000000000000000000000000000000000000000000000815260040161229990616168565b60405180910390fd5b81600484600c81106122b7576122b6615cb9565b5b6003020181816122c7919061672f565b905050505050565b6122d833614315565b612317576040517f08c379a000000000000000000000000000000000000000000000000000000000815260040161230e90615f21565b60405180910390fd5b806028838154811061232c5761232b615cb9565b5b906000526020600020906003020181816123469190616bc3565b9050505050565b600081600c8110612393576040517f08c379a000000000000000000000000000000000000000000000000000000000815260040161238a90615c99565b60405180910390fd5b61239d338461436b565b915050919050565b602960009054906101000a900460ff166123f4576040517f08c379a00000000000000000000000000000000000000000000000000000000081526004016123eb90616e8b565b60405180910390fd5b6000602f60003373ffffffffffffffffffffffffffffffffffffffff1673ffffffffffffffffffffffffffffffffffffffff1681526020019081526020016000206040518060800160405290816000820160009054906101000a900463ffffffff1663ffffffff1663ffffffff1681526020016000820160049054906101000a900463ffffffff1663ffffffff1663ffffffff16815260200160018201548152602001600282016040518060400160405290816000820160009054906101000a900461ffff1661ffff1661ffff1681526020016000820160029054906101000a900461ffff1661ffff1661ffff16815250508152505090506000816000015163ffffffff16111561255b5742816020015182600001516125149190616eab565b63ffffffff161061255a576040517f08c379a000000000000000000000000000000000000000000000000000000000815260040161255190616f31565b60405180910390fd5b5b60006028838154811061257157612570615cb9565b5b90600052602060002090600302016040518060800160405290816000820160009054906101000a900463ffffffff1663ffffffff1663ffffffff1681526020016000820160049054906101000a900463ffffffff1663ffffffff1663ffffffff16815260200160018201548152602001600282016040518060400160405290816000820160009054906101000a900461ffff1661ffff1661ffff1681526020016000820160029054906101000a900461ffff1661ffff1661ffff16815250508152505090508060400151602c60003373ffffffffffffffffffffffffffffffffffffffff1673ffffffffffffffffffffffffffffffffffffffff1681526020019081526020016000205410156126bc576040517f08c379a00000000000000000000000000000000000000000000000000000000081526004016126b390616fc3565b60405180910390fd5b8060400151602c60003373ffffffffffffffffffffffffffffffffffffffff1673ffffffffffffffffffffffffffffffffffffffff16815260200190815260200160002060008282540392505081905550600081905042816000019063ffffffff16908163ffffffff168152505080602f60003373ffffffffffffffffffffffffffffffffffffffff1673ffffffffffffffffffffffffffffffffffffffff16815260200190815260200160002060008201518160000160006101000a81548163ffffffff021916908363ffffffff16021790555060208201518160000160046101000a81548163ffffffff021916908363ffffffff1602179055506040820151816001015560608201518160020160008201518160000160006101000a81548161ffff021916908361ffff16021790555060208201518160000160026101000a81548161ffff021916908361ffff160217905550505090505050505050565b612824614f1b565b600482600c811061283857612837615cb9565b5b600302016040518060600160405290816000820180548060200260200160405190810160405280929190818152602001828054801561289657602002820191906000526020600020905b815481526020019060010190808311612882575b5050505050815260200160018201805480602002602001604051908101604052809291908181526020016000905b82821015612932578382906000526020600020016040518060400160405290816000820160009054906101000a900461ffff1661ffff1661ffff1681526020016000820160029054906101000a900461ffff1661ffff1661ffff1681525050815260200190600101906128c4565b50505050815260200160028201805480602002602001604051908101604052809291908181526020016000905b828210156129cd578382906000526020600020016040518060400160405290816000820160009054906101000a900461ffff1661ffff1661ffff1681526020016000820160029054906101000a900461ffff1661ffff1661ffff16815250508152602001906001019061295f565b50505050815250509050919050565b80603060003373ffffffffffffffffffffffffffffffffffffffff1673ffffffffffffffffffffffffffffffffffffffff16815260200190815260200160002060006101000a81548173ffffffffffffffffffffffffffffffffffffffff021916908373ffffffffffffffffffffffffffffffffffffffff160217905550612a6382614c07565b5050565b600080612710905060006201518060648387612a839190615d17565b612a8d9190615d17565b612a979190615da0565b90506000846020015161ffff16856000015161ffff168489612ab99190615d17565b612ac39190615d17565b612acd9190615da0565b9050828360648484612adf9190615d17565b612ae99190615da0565b612af39190615da0565b612afd9190615da0565b93505050509392505050565b612b1233614315565b612b51576040517f08c379a0000000000000000000000000000000000000000000000000000000008152600401612b4890615f21565b60405180910390fd5b6a084595161401484a0000008110612b9e576040517f08c379a0000000000000000000000000000000000000000000000000000000008152600401612b9590617055565b60405180910390fd5b80602a8190555050565b60606040518060400160405280600581526020017f464255434b000000000000000000000000000000000000000000000000000000815250905090565b612bed614f3c565b612bf73383613513565b9050919050565b6000603160009054906101000a900460ff1680612c66575060008054906101000a900473ffffffffffffffffffffffffffffffffffffffff1673ffffffffffffffffffffffffffffffffffffffff163373ffffffffffffffffffffffffffffffffffffffff16145b612ca5576040517f08c379a0000000000000000000000000000000000000000000000000000000008152600401612c9c90616864565b60405180910390fd5b612cb03384846146d0565b6001905092915050565b80600c8110612cfe576040517f08c379a0000000000000000000000000000000000000000000000000000000008152600401612cf590615c99565b60405180910390fd5b6000612d098361234d565b9050612d188333836001614978565b823373ffffffffffffffffffffffffffffffffffffffff167f820cea42e8517cf1ec6d4e9db93909255f07c45f7eb0a7c7b5a0f8bdcfc2e5bf83604051612d5f91906152bc565b60405180910390a3505050565b80600c8110612db0576040517f08c379a0000000000000000000000000000000000000000000000000000000008152600401612da790615c99565b60405180910390fd5b612dba8333611a69565b612dc357600080fd5b6000612dcf848461436b565b90506000602e60008673ffffffffffffffffffffffffffffffffffffffff1673ffffffffffffffffffffffffffffffffffffffff16815260200190815260200160002084600c8110612e2457612e23615cb9565b5b600402016040518060a00160405290816000820160009054906101000a900462ffffff1662ffffff1662ffffff1681526020016000820160039054906101000a900463ffffffff1663ffffffff1663ffffffff1681526020016001820154815260200160028201548152602001600382015481525050905081602c60008773ffffffffffffffffffffffffffffffffffffffff1673ffffffffffffffffffffffffffffffffffffffff168152602001908152602001600020600082825401925050819055508181606001818151612efb9190615e7f565b9150818152505042816020019063ffffffff16908163ffffffff168152505080602e60008773ffffffffffffffffffffffffffffffffffffffff1673ffffffffffffffffffffffffffffffffffffffff16815260200190815260200160002085600c8110612f6c57612f6b615cb9565b5b6004020160008201518160000160006101000a81548162ffffff021916908362ffffff16021790555060208201518160000160036101000a81548163ffffffff021916908363ffffffff160217905550604082015181600101556060820151816002015560808201518160030155905050838573ffffffffffffffffffffffffffffffffffffffff167fd4c220a036e494dc8d9e171d2a06a37f490ec132e69a1ff788e87d75ba6865688460405161302491906152bc565b60405180910390a35050505050565b61303c33614315565b61307b576040517f08c379a000000000000000000000000000000000000000000000000000000000815260040161307290615f21565b60405180910390fd5b80603160006101000a81548160ff02191690831515021790555050565b6130a1336115c0565b6130e0576040517f08c379a00000000000000000000000000000000000000000000000000000000081526004016130d7906170c1565b60405180910390fd5b60018060008373ffffffffffffffffffffffffffffffffffffffff1673ffffffffffffffffffffffffffffffffffffffff16815260200190815260200160002060006101000a81548160ff02191690831515021790555050565b61314381614c07565b50565b80600c811061318a576040517f08c379a000000000000000000000000000000000000000000000000000000000815260040161318190615c99565b60405180910390fd5b600061319783600061124e565b905080602c60003373ffffffffffffffffffffffffffffffffffffffff1673ffffffffffffffffffffffffffffffffffffffff16815260200190815260200160002054101561321b576040517f08c379a00000000000000000000000000000000000000000000000000000000081526004016132129061712d565b60405180910390fd5b6000602e60003373ffffffffffffffffffffffffffffffffffffffff1673ffffffffffffffffffffffffffffffffffffffff16815260200190815260200160002084600c811061326e5761326d615cb9565b5b600402016040518060a00160405290816000820160009054906101000a900462ffffff1662ffffff1662ffffff1681526020016000820160039054906101000a900463ffffffff1663ffffffff1663ffffffff168152602001600182015481526020016002820154815260200160038201548152505090506000816000015162ffffff1614613332576040517f08c379a0000000000000000000000000000000000000000000000000000000008152600401613329906171bf565b60405180910390fd5b81602c60003373ffffffffffffffffffffffffffffffffffffffff1673ffffffffffffffffffffffffffffffffffffffff168152602001908152602001600020600082825403925050819055506001602e60003373ffffffffffffffffffffffffffffffffffffffff1673ffffffffffffffffffffffffffffffffffffffff16815260200190815260200160002085600c81106133d2576133d1615cb9565b5b6004020160000160006101000a81548162ffffff021916908362ffffff16021790555081602e60003373ffffffffffffffffffffffffffffffffffffffff1673ffffffffffffffffffffffffffffffffffffffff16815260200190815260200160002085600c811061344757613446615cb9565b5b600402016001018190555042602e60003373ffffffffffffffffffffffffffffffffffffffff1673ffffffffffffffffffffffffffffffffffffffff16815260200190815260200160002085600c81106134a4576134a3615cb9565b5b6004020160000160036101000a81548163ffffffff021916908363ffffffff160217905550833373ffffffffffffffffffffffffffffffffffffffff167fbfec54def49903f34ca9cf2128a54145e70ab76a425316fad737a5901cf820d460405160405180910390a350505050565b61351b614f3c565b81600c811061355f576040517f08c379a000000000000000000000000000000000000000000000000000000000815260040161355690615c99565b60405180910390fd5b602e60008573ffffffffffffffffffffffffffffffffffffffff1673ffffffffffffffffffffffffffffffffffffffff16815260200190815260200160002083600c81106135b0576135af615cb9565b5b600402016040518060a00160405290816000820160009054906101000a900462ffffff1662ffffff1662ffffff1681526020016000820160039054906101000a900463ffffffff1663ffffffff1663ffffffff168152602001600182015481526020016002820154815260200160038201548152505091505092915050565b600360009054906101000a900464ffffffffff1681565b60006136528383611a69565b15613661576002549050613666565b600090505b92915050565b81600c81106136b0576040517f08c379a00000000000000000000000000000000000000000000000000000000081526004016136a790615c99565b60405180910390fd5b81602c60003373ffffffffffffffffffffffffffffffffffffffff1673ffffffffffffffffffffffffffffffffffffffff168152602001908152602001600020541015613732576040517f08c379a00000000000000000000000000000000000000000000000000000000081526004016137299061712d565b60405180910390fd5b61373f8333846000614978565b81602c60003373ffffffffffffffffffffffffffffffffffffffff1673ffffffffffffffffffffffffffffffffffffffff16815260200190815260200160002060008282540392505081905550823373ffffffffffffffffffffffffffffffffffffffff167f9e9d071824fd57d062ca63fd8b786d8da48a6807eebbcb2d83f9e8d21398e28c846040516137d391906152bc565b60405180910390a3505050565b6000602d60008473ffffffffffffffffffffffffffffffffffffffff1673ffffffffffffffffffffffffffffffffffffffff16815260200190815260200160002060008373ffffffffffffffffffffffffffffffffffffffff1673ffffffffffffffffffffffffffffffffffffffff16815260200190815260200160002060009054906101000a900460ff16905092915050565b61387d336115c0565b6138bc576040517f08c379a00000000000000000000000000000000000000000000000000000000081526004016138b3906170c1565b60405180910390fd5b6000600160008373ffffffffffffffffffffffffffffffffffffffff1673ffffffffffffffffffffffffffffffffffffffff16815260200190815260200160002060006101000a81548160ff02191690831515021790555050565b61392033614315565b61395f576040517f08c379a000000000000000000000000000000000000000000000000000000000815260040161395690615f21565b60405180910390fd5b80602960006101000a81548160ff02191690831515021790555050565b6028818154811061398c57600080fd5b90600052602060002090600302016000915090508060000160009054906101000a900463ffffffff16908060000160049054906101000a900463ffffffff1690806001015490806002016040518060400160405290816000820160009054906101000a900461ffff1661ffff1661ffff1681526020016000820160029054906101000a900461ffff1661ffff1661ffff1681525050905084565b613a2f336115c0565b613a6e576040517f08c379a0000000000000000000000000000000000000000000000000000000008152600401613a65906170c1565b60405180910390fd5b806000806101000a81548173ffffffffffffffffffffffffffffffffffffffff021916908373ffffffffffffffffffffffffffffffffffffffff16021790555060018060008373ffffffffffffffffffffffffffffffffffffffff1673ffffffffffffffffffffffffffffffffffffffff16815260200190815260200160002060006101000a81548160ff0219169083151502179055507f04dba622d284ed0014ee4b9a6a68386be1a4c08a4913ae272de89199cc68616381604051613b349190617234565b60405180910390a150565b80600c8110613b83576040517f08c379a0000000000000000000000000000000000000000000000000000000008152600401613b7a90615c99565b60405180910390fd5b6000613b8e8361234d565b90506000602e60003373ffffffffffffffffffffffffffffffffffffffff1673ffffffffffffffffffffffffffffffffffffffff16815260200190815260200160002084600c8110613be357613be2615cb9565b5b600402016040518060a00160405290816000820160009054906101000a900462ffffff1662ffffff1662ffffff1681526020016000820160039054906101000a900463ffffffff1663ffffffff1663ffffffff1681526020016001820154815260200160028201548152602001600382015481525050905081602c60003373ffffffffffffffffffffffffffffffffffffffff1673ffffffffffffffffffffffffffffffffffffffff168152602001908152602001600020600082825401925050819055508181606001818151613cba9190615e7f565b9150818152505042816020019063ffffffff16908163ffffffff168152505080602e60003373ffffffffffffffffffffffffffffffffffffffff1673ffffffffffffffffffffffffffffffffffffffff16815260200190815260200160002085600c8110613d2b57613d2a615cb9565b5b6004020160008201518160000160006101000a81548162ffffff021916908362ffffff16021790555060208201518160000160036101000a81548163ffffffff021916908363ffffffff160217905550604082015181600101556060820151816002015560808201518160030155905050833373ffffffffffffffffffffffffffffffffffffffff167fd4c220a036e494dc8d9e171d2a06a37f490ec132e69a1ff788e87d75ba68656884604051613de391906152bc565b60405180910390a350505050565b80600c8110613e35576040517f08c379a0000000000000000000000000000000000000000000000000000000008152600401613e2c90615c99565b60405180910390fd5b6000613e408361234d565b90506000600484600c8110613e5857613e57615cb9565b5b6003020160405180606001604052908160008201805480602002602001604051908101604052809291908181526020018280548015613eb657602002820191906000526020600020905b815481526020019060010190808311613ea2575b5050505050815260200160018201805480602002602001604051908101604052809291908181526020016000905b82821015613f52578382906000526020600020016040518060400160405290816000820160009054906101000a900461ffff1661ffff1661ffff1681526020016000820160029054906101000a900461ffff1661ffff1661ffff168152505081526020019060010190613ee4565b50505050815260200160028201805480602002602001604051908101604052809291908181526020016000905b82821015613fed578382906000526020600020016040518060400160405290816000820160009054906101000a900461ffff1661ffff1661ffff1681526020016000820160029054906101000a900461ffff1661ffff1661ffff168152505081526020019060010190613f7f565b505050508152505090506000602e60003373ffffffffffffffffffffffffffffffffffffffff1673ffffffffffffffffffffffffffffffffffffffff16815260200190815260200160002085600c811061404a57614049615cb9565b5b600402016040518060a00160405290816000820160009054906101000a900462ffffff1662ffffff1662ffffff1681526020016000820160039054906101000a900463ffffffff1663ffffffff1663ffffffff1681526020016001820154815260200160028201548152602001600382015481525050905060008260400151826000015162ffffff16815181106140e4576140e3615cb9565b5b602002602001015190506000816020015161ffff16826000015161ffff168661410d9190615d17565b6141179190615da0565b9050600081866141279190615dd1565b90507f000000000000000000000000000000000000000000000000000000000000000073ffffffffffffffffffffffffffffffffffffffff1663a9059cbb33836040518363ffffffff1660e01b8152600401614184929190615e14565b6020604051808303816000875af11580156141a3573d6000803e3d6000fd5b505050506040513d601f19601f820116820180604052508101906141c79190615e52565b5080846080018181516141da9190615e7f565b9150818152505042846020019063ffffffff16908163ffffffff168152505083602e60003373ffffffffffffffffffffffffffffffffffffffff1673ffffffffffffffffffffffffffffffffffffffff16815260200190815260200160002089600c811061424b5761424a615cb9565b5b6004020160008201518160000160006101000a81548162ffffff021916908362ffffff16021790555060208201518160000160036101000a81548163ffffffff021916908363ffffffff160217905550604082015181600101556060820151816002015560808201518160030155905050873373ffffffffffffffffffffffffffffffffffffffff167f888f19217ddad5c6a51226c6812abe28b4400e72206c3b170ae84829bd03a7a08860405161430391906152bc565b60405180910390a35050505050505050565b6000600160008373ffffffffffffffffffffffffffffffffffffffff1673ffffffffffffffffffffffffffffffffffffffff16815260200190815260200160002060009054906101000a900460ff169050919050565b600080602e60008573ffffffffffffffffffffffffffffffffffffffff1673ffffffffffffffffffffffffffffffffffffffff16815260200190815260200160002083600c81106143bf576143be615cb9565b5b600402016040518060a00160405290816000820160009054906101000a900462ffffff1662ffffff1662ffffff1681526020016000820160039054906101000a900463ffffffff1663ffffffff1663ffffffff168152602001600182015481526020016002820154815260200160038201548152505090506000816020015163ffffffff164261444f9190615dd1565b90506000811415614465576000925050506146ca565b6000600485600c811061447b5761447a615cb9565b5b60030201600101836000015162ffffff168154811061449d5761449c615cb9565b5b906000526020600020016040518060400160405290816000820160009054906101000a900461ffff1661ffff1661ffff1681526020016000820160029054906101000a900461ffff1661ffff1661ffff168152505090506000600360009054906101000a900464ffffffffff1664ffffffffff16831161451d5782614539565b600360009054906101000a900464ffffffffff1664ffffffffff165b9050600061454c85604001518385612a67565b9050602960009054906101000a900460ff16156146c1576000602f60008a73ffffffffffffffffffffffffffffffffffffffff1673ffffffffffffffffffffffffffffffffffffffff1681526020019081526020016000206040518060800160405290816000820160009054906101000a900463ffffffff1663ffffffff1663ffffffff1681526020016000820160049054906101000a900463ffffffff1663ffffffff1663ffffffff16815260200160018201548152602001600282016040518060400160405290816000820160009054906101000a900461ffff1661ffff1661ffff1681526020016000820160029054906101000a900461ffff1661ffff1661ffff168152505081525050905042816020015182600001516146709190616eab565b63ffffffff1611156146bf57600081606001516020015161ffff1682606001516000015161ffff16846146a39190615d17565b6146ad9190615da0565b905080836146bb9190615e7f565b9250505b505b80955050505050505b92915050565b600073ffffffffffffffffffffffffffffffffffffffff168373ffffffffffffffffffffffffffffffffffffffff161415614740576040517f08c379a0000000000000000000000000000000000000000000000000000000008152600401614737906172c1565b60405180910390fd5b600073ffffffffffffffffffffffffffffffffffffffff168273ffffffffffffffffffffffffffffffffffffffff1614156147b0576040517f08c379a00000000000000000000000000000000000000000000000000000000081526004016147a790617353565b60405180910390fd5b600081116147f3576040517f08c379a00000000000000000000000000000000000000000000000000000000081526004016147ea906173e5565b60405180910390fd5b6000602c60008573ffffffffffffffffffffffffffffffffffffffff1673ffffffffffffffffffffffffffffffffffffffff1681526020019081526020016000205490508181101561487a576040517f08c379a000000000000000000000000000000000000000000000000000000000815260040161487190617477565b60405180910390fd5b818103602c60008673ffffffffffffffffffffffffffffffffffffffff1673ffffffffffffffffffffffffffffffffffffffff1681526020019081526020016000208190555081602c60008573ffffffffffffffffffffffffffffffffffffffff1673ffffffffffffffffffffffffffffffffffffffff168152602001908152602001600020600082825401925050819055508273ffffffffffffffffffffffffffffffffffffffff168473ffffffffffffffffffffffffffffffffffffffff167fddf252ad1be2c89b69c2b068fc378daa952ba7f163c4a11628f55a4df523b3ef8460405161496a91906152bc565b60405180910390a350505050565b6000602e60008573ffffffffffffffffffffffffffffffffffffffff1673ffffffffffffffffffffffffffffffffffffffff16815260200190815260200160002085600c81106149cb576149ca615cb9565b5b600402016040518060a00160405290816000820160009054906101000a900462ffffff1662ffffff1662ffffff1681526020016000820160039054906101000a900463ffffffff1663ffffffff1663ffffffff168152602001600182015481526020016002820154815260200160038201548152505090506000816000015162ffffff1611614a8f576040517f08c379a0000000000000000000000000000000000000000000000000000000008152600401614a8690617509565b60405180910390fd5b8281604001818151614aa19190615e7f565b91508181525050614abb85826000015162ffffff16611622565b15614b05576000614ad586836000015162ffffff1661124e565b905080826040015110614b0357816000018051809190614af490617529565b62ffffff1662ffffff16815250505b505b8115614b3d578281606001818151614b1d9190615e7f565b9150818152505042816020019063ffffffff16908163ffffffff16815250505b80602e60008673ffffffffffffffffffffffffffffffffffffffff1673ffffffffffffffffffffffffffffffffffffffff16815260200190815260200160002086600c8110614b8f57614b8e615cb9565b5b6004020160008201518160000160006101000a81548162ffffff021916908362ffffff16021790555060208201518160000160036101000a81548163ffffffff021916908363ffffffff1602179055506040820151816001015560608201518160020155608082015181600301559050505050505050565b7f000000000000000000000000000000000000000000000000000000000000000073ffffffffffffffffffffffffffffffffffffffff166323b872dd3330846040518463ffffffff1660e01b8152600401614c6493929190617555565b6020604051808303816000875af1158015614c83573d6000803e3d6000fd5b505050506040513d601f19601f82011682018060405250810190614ca79190615e52565b614cb057600080fd5b80602c60003373ffffffffffffffffffffffffffffffffffffffff1673ffffffffffffffffffffffffffffffffffffffff16815260200190815260200160002060008282540192505081905550600073ffffffffffffffffffffffffffffffffffffffff16603060003373ffffffffffffffffffffffffffffffffffffffff1673ffffffffffffffffffffffffffffffffffffffff16815260200190815260200160002060009054906101000a900473ffffffffffffffffffffffffffffffffffffffff1673ffffffffffffffffffffffffffffffffffffffff1614614e90576000602b60000160029054906101000a900461ffff1661ffff16602b60000160009054906101000a900461ffff1661ffff1683614dcd9190615d17565b614dd79190615da0565b905080602c6000603060003373ffffffffffffffffffffffffffffffffffffffff1673ffffffffffffffffffffffffffffffffffffffff16815260200190815260200160002060009054906101000a900473ffffffffffffffffffffffffffffffffffffffff1673ffffffffffffffffffffffffffffffffffffffff1673ffffffffffffffffffffffffffffffffffffffff1681526020019081526020016000206000828254614e879190615e7f565b92505081905550505b3373ffffffffffffffffffffffffffffffffffffffff167f9b5ce49ffbc992ee67baad9481ff227141a5c0c1a324c22392a4581857d3e21582604051614ed691906152bc565b60405180910390a250565b6040518060800160405280600063ffffffff168152602001600063ffffffff16815260200160008152602001614f15614f76565b81525090565b60405180606001604052806060815260200160608152602001606081525090565b6040518060a00160405280600062ffffff168152602001600063ffffffff1681526020016000815260200160008152602001600081525090565b6040518060400160405280600061ffff168152602001600061ffff1681525090565b6000604051905090565b600080fd5b600080fd5b600073ffffffffffffffffffffffffffffffffffffffff82169050919050565b6000614fd782614fac565b9050919050565b614fe781614fcc565b8114614ff257600080fd5b50565b60008135905061500481614fde565b92915050565b6000819050919050565b61501d8161500a565b811461502857600080fd5b50565b60008135905061503a81615014565b92915050565b6000806040838503121561505757615056614fa2565b5b600061506585828601614ff5565b92505060206150768582860161502b565b9150509250929050565b600081519050919050565b600082825260208201905092915050565b60005b838110156150ba57808201518184015260208101905061509f565b838111156150c9576000848401525b50505050565b6000601f19601f8301169050919050565b60006150eb82615080565b6150f5818561508b565b935061510581856020860161509c565b61510e816150cf565b840191505092915050565b6000602082019050818103600083015261513381846150e0565b905092915050565b60008115159050919050565b6151508161513b565b82525050565b600060208201905061516b6000830184615147565b92915050565b600080fd5b600080fd5b600080fd5b60008083601f84011261519657615195615171565b5b8235905067ffffffffffffffff8111156151b3576151b2615176565b5b6020830191508360208202830111156151cf576151ce61517b565b5b9250929050565b60008083601f8401126151ec576151eb615171565b5b8235905067ffffffffffffffff81111561520957615208615176565b5b6020830191508360208202830111156152255761522461517b565b5b9250929050565b6000806000806040858703121561524657615245614fa2565b5b600085013567ffffffffffffffff81111561526457615263614fa7565b5b61527087828801615180565b9450945050602085013567ffffffffffffffff81111561529357615292614fa7565b5b61529f878288016151d6565b925092505092959194509250565b6152b68161500a565b82525050565b60006020820190506152d160008301846152ad565b92915050565b600080604083850312156152ee576152ed614fa2565b5b60006152fc8582860161502b565b925050602061530d8582860161502b565b9150509250929050565b6000806000606084860312156153305761532f614fa2565b5b600061533e86828701614ff5565b935050602061534f86828701614ff5565b92505060406153608682870161502b565b9150509250925092565b6000602082840312156153805761537f614fa2565b5b600061538e84828501614ff5565b91505092915050565b600060ff82169050919050565b6153ad81615397565b82525050565b60006020820190506153c860008301846153a4565b92915050565b600080fd5b6000604082840312156153e9576153e86153ce565b5b81905092915050565b60006040828403121561540857615407614fa2565b5b6000615416848285016153d3565b91505092915050565b6000806040838503121561543657615435614fa2565b5b600061544485828601614ff5565b925050602061545585828601614ff5565b9150509250929050565b6154688161513b565b811461547357600080fd5b50565b6000813590506154858161545f565b92915050565b600080604083850312156154a2576154a1614fa2565b5b60006154b085828601614ff5565b92505060206154c185828601615476565b9150509250929050565b600063ffffffff82169050919050565b6154e4816154cb565b82525050565b6154f38161500a565b82525050565b600061ffff82169050919050565b615510816154f9565b82525050565b60408201600082015161552c6000850182615507565b50602082015161553f6020850182615507565b50505050565b60a08201600082015161555b60008501826154db565b50602082015161556e60208501826154db565b50604082015161558160408501826154ea565b5060608201516155946060850182615516565b50505050565b600060a0820190506155af6000830184615545565b92915050565b6000602082840312156155cb576155ca614fa2565b5b60006155d98482850161502b565b91505092915050565b600060a082840312156155f8576155f76153ce565b5b81905092915050565b600060a0828403121561561757615616614fa2565b5b6000615625848285016155e2565b91505092915050565b600060608284031215615644576156436153ce565b5b81905092915050565b6000806040838503121561566457615663614fa2565b5b60006156728582860161502b565b925050602083013567ffffffffffffffff81111561569357615692614fa7565b5b61569f8582860161562e565b9150509250929050565b60008060c083850312156156c0576156bf614fa2565b5b60006156ce8582860161502b565b92505060206156df858286016155e2565b9150509250929050565b600081519050919050565b600082825260208201905092915050565b6000819050602082019050919050565b600061572183836154ea565b60208301905092915050565b6000602082019050919050565b6000615745826156e9565b61574f81856156f4565b935061575a83615705565b8060005b8381101561578b5781516157728882615715565b975061577d8361572d565b92505060018101905061575e565b5085935050505092915050565b600081519050919050565b600082825260208201905092915050565b6000819050602082019050919050565b60006157d08383615516565b60408301905092915050565b6000602082019050919050565b60006157f482615798565b6157fe81856157a3565b9350615809836157b4565b8060005b8381101561583a57815161582188826157c4565b975061582c836157dc565b92505060018101905061580d565b5085935050505092915050565b60006060830160008301518482036000860152615864828261573a565b9150506020830151848203602086015261587e82826157e9565b9150506040830151848203604086015261589882826157e9565b9150508091505092915050565b600060208201905081810360008301526158bf8184615847565b905092915050565b600080604083850312156158de576158dd614fa2565b5b60006158ec8582860161502b565b92505060206158fd85828601614ff5565b9150509250929050565b600080fd5b7f4e487b7100000000000000000000000000000000000000000000000000000000600052604160045260246000fd5b615944826150cf565b810181811067ffffffffffffffff821117156159635761596261590c565b5b80604052505050565b6000615976614f98565b9050615982828261593b565b919050565b615990816154f9565b811461599b57600080fd5b50565b6000813590506159ad81615987565b92915050565b6000604082840312156159c9576159c8615907565b5b6159d3604061596c565b905060006159e38482850161599e565b60008301525060206159f78482850161599e565b60208301525092915050565b600080600060808486031215615a1c57615a1b614fa2565b5b6000615a2a8682870161502b565b9350506020615a3b8682870161502b565b9250506040615a4c868287016159b3565b9150509250925092565b600062ffffff82169050919050565b615a6e81615a56565b82525050565b60a082016000820151615a8a6000850182615a65565b506020820151615a9d60208501826154db565b506040820151615ab060408501826154ea565b506060820151615ac360608501826154ea565b506080820151615ad660808501826154ea565b50505050565b600060a082019050615af16000830184615a74565b92915050565b600060208284031215615b0d57615b0c614fa2565b5b6000615b1b84828501615476565b91505092915050565b600064ffffffffff82169050919050565b615b3e81615b24565b82525050565b6000602082019050615b596000830184615b35565b92915050565b615b68816154cb565b82525050565b604082016000820151615b846000850182615507565b506020820151615b976020850182615507565b50505050565b600060a082019050615bb26000830187615b5f565b615bbf6020830186615b5f565b615bcc60408301856152ad565b615bd96060830184615b6e565b95945050505050565b6000615bed82614fac565b9050919050565b615bfd81615be2565b8114615c0857600080fd5b50565b600081359050615c1a81615bf4565b92915050565b600060208284031215615c3657615c35614fa2565b5b6000615c4484828501615c0b565b91505092915050565b7f5468617420706c6f7420646f6573206e6f742065786973742e00000000000000600082015250565b6000615c8360198361508b565b9150615c8e82615c4d565b602082019050919050565b60006020820190508181036000830152615cb281615c76565b9050919050565b7f4e487b7100000000000000000000000000000000000000000000000000000000600052603260045260246000fd5b7f4e487b7100000000000000000000000000000000000000000000000000000000600052601160045260246000fd5b6000615d228261500a565b9150615d2d8361500a565b9250817fffffffffffffffffffffffffffffffffffffffffffffffffffffffffffffffff0483118215151615615d6657615d65615ce8565b5b828202905092915050565b7f4e487b7100000000000000000000000000000000000000000000000000000000600052601260045260246000fd5b6000615dab8261500a565b9150615db68361500a565b925082615dc657615dc5615d71565b5b828204905092915050565b6000615ddc8261500a565b9150615de78361500a565b925082821015615dfa57615df9615ce8565b5b828203905092915050565b615e0e81614fcc565b82525050565b6000604082019050615e296000830185615e05565b615e3660208301846152ad565b9392505050565b600081519050615e4c8161545f565b92915050565b600060208284031215615e6857615e67614fa2565b5b6000615e7684828501615e3d565b91505092915050565b6000615e8a8261500a565b9150615e958361500a565b9250827fffffffffffffffffffffffffffffffffffffffffffffffffffffffffffffffff03821115615eca57615ec9615ce8565b5b828201905092915050565b7f21415554484f52495a4544000000000000000000000000000000000000000000600082015250565b6000615f0b600b8361508b565b9150615f1682615ed5565b602082019050919050565b60006020820190508181036000830152615f3a81615efe565b9050919050565b7f4172726179206d69736d617463682e0000000000000000000000000000000000600082015250565b6000615f77600f8361508b565b9150615f8282615f41565b602082019050919050565b60006020820190508181036000830152615fa681615f6a565b9050919050565b600080fd5b600080fd5b600080fd5b600082356001606003833603038112615fd857615fd7615fad565b5b80830191505092915050565b6000808335600160200384360303811261600157616000615fad565b5b80840192508235915067ffffffffffffffff82111561602357616022615fb2565b5b60208301925060208202360383131561603f5761603e615fb7565b5b509250929050565b6000808335600160200384360303811261606457616063615fad565b5b80840192508235915067ffffffffffffffff82111561608657616085615fb2565b5b6020830192506040820236038313156160a2576160a1615fb7565b5b509250929050565b7f57726f6e67207472656520636f6e66696775726174696f6e2e204d757374206860008201527f617665206174206c65617374206f6e65206c6576656c20616e642073616d652060208201527f656e747269657320666f722070726963652c207969656c642c20616e6420746160408201527f782e000000000000000000000000000000000000000000000000000000000000606082015250565b600061615260628361508b565b915061615d826160aa565b608082019050919050565b6000602082019050818103600083015261618181616145565b9050919050565b7f4e487b7100000000000000000000000000000000000000000000000000000000600052600060045260246000fd5b6000819050919050565b600081549050919050565b60008190506001806001038301049050919050565b60008190508160005260206000209050919050565b600082821b905092915050565b6000600883026162337fffffffffffffffffffffffffffffffffffffffffffffffffffffffffffffffff826161f6565b61623d86836161f6565b95508019841693508086168417925050509392505050565b6000819050919050565b600061627a6162756162708461500a565b616255565b61500a565b9050919050565b6000819050919050565b6162948361625f565b6162a86162a082616281565b848454616203565b825550505050565b600090565b6162bd6162b0565b6162c881848461628b565b505050565b5b818110156162ec576162e16000826162b5565b6001810190506162ce565b5050565b8183101561632957616301826161cc565b61630a846161cc565b616313836161e1565b81810183820161632381836162cd565b50505050505b505050565b680100000000000000008211156163485761634761590c565b5b616351816161c1565b82825561635f8382846162f0565b505050565b600082905092915050565b6000813561637c81615014565b80915050919050565b61638f8383616364565b616399818361632e565b6163a2836161b7565b6163ab836161e1565b6000805b848110156163e657836163c18161636f565b90506163ce81848661628b565b602085019450600184019350506001810190506163af565b5050505050505050565b6163fb838383616385565b505050565b6000819050919050565b600081549050919050565b60008190506001806001038301049050919050565b60008190508160005260206000209050919050565b60008082015550565b6000821461645957616458616188565b5b6164628161643f565b5050565b5b818110156164855761647a600082616448565b600181019050616467565b5050565b818310156164c25761649a82616415565b6164a384616415565b6164ac8361642a565b8181018382016164bc8183616466565b50505050505b505050565b680100000000000000008211156164e1576164e061590c565b5b6164ea8161640a565b8282556164f8838284616489565b505050565b600082905092915050565b6000813561651581615987565b80915050919050565b60008160001b9050919050565b600061ffff6165398461651e565b9350801983169250808416831791505092915050565b600061656a616565616560846154f9565b616255565b6154f9565b9050919050565b6000819050919050565b6165848261654f565b61659761659082616571565b835461652b565b8255505050565b60008160101b9050919050565b600063ffff00006165bb8461659e565b9350801983169250808416831791505092915050565b6165da8261654f565b6165ed6165e682616571565b83546165ab565b8255505050565b60008101600083018061660681616508565b9050616612818461657b565b50505060008101602083018061662781616508565b905061663381846165d1565b5050505050565b811561664957616648616188565b5b61665383826165f4565b505050565b61666283836164fd565b61666c81836164c7565b61667583616400565b61667e8361642a565b6000805b848110156166ae578361669681848661663a565b60408501945060018401935050600181019050616682565b5050505050505050565b6166c3838383616658565b505050565b60008101600083016166da8185615fe4565b6166e58183866163f0565b5050505060018101602083016166fb8185616047565b6167068183866166b8565b50505050600281016040830161671c8185616047565b6167278183866166b8565b505050505050565b61673982826166c8565b5050565b60006167488261500a565b91507fffffffffffffffffffffffffffffffffffffffffffffffffffffffffffffffff82141561677b5761677a615ce8565b5b600182019050919050565b7f496e76616c6964206c6576656c2071756572792e000000000000000000000000600082015250565b60006167bc60148361508b565b91506167c782616786565b602082019050919050565b600060208201905081810360008301526167eb816167af565b9050919050565b7f4661726d4275636b207472616e73666572206973206e6f742063757272656e7460008201527f6c7920616c6c6f7765642e000000000000000000000000000000000000000000602082015250565b600061684e602b8361508b565b9150616859826167f2565b604082019050919050565b6000602082019050818103600083015261687d81616841565b9050919050565b7f596f7520617265206e6f7420616c6c6f77656420746f207370656e642074686f60008201527f7365204661726d4275636b732e00000000000000000000000000000000000000602082015250565b60006168e0602d8361508b565b91506168eb82616884565b604082019050919050565b6000602082019050818103600083015261690f816168d3565b9050919050565b7f507269766174652073616c65204661726d4275636b7320616c7265616479206d60008201527f696e7465642e0000000000000000000000000000000000000000000000000000602082015250565b600061697260268361508b565b915061697d82616916565b604082019050919050565b600060208201905081810360008301526169a181616965565b9050919050565b6169b282826165f4565b5050565b7f4e487b7100000000000000000000000000000000000000000000000000000000600052603160045260246000fd5b6169ee816154cb565b81146169f957600080fd5b50565b60008135616a09816169e5565b80915050919050565b600063ffffffff616a228461651e565b9350801983169250808416831791505092915050565b6000616a53616a4e616a49846154cb565b616255565b6154cb565b9050919050565b6000819050919050565b616a6d82616a38565b616a80616a7982616a5a565b8354616a12565b8255505050565b60008160201b9050919050565b600067ffffffff00000000616aa884616a87565b9350801983169250808416831791505092915050565b616ac782616a38565b616ada616ad382616a5a565b8354616a94565b8255505050565b60007fffffffffffffffffffffffffffffffffffffffffffffffffffffffffffffffff616b0d8461651e565b9350801983169250808416831791505092915050565b616b2c8261625f565b616b3f616b3882616281565b8354616ae1565b8255505050565b600081016000830180616b58816169fc565b9050616b648184616a64565b505050600081016020830180616b79816169fc565b9050616b858184616abe565b505050600181016040830180616b9a8161636f565b9050616ba68184616b23565b505050600281016060830180616bbc81846169a8565b5050505050565b616bcd8282616b46565b5050565b7f50726963652077726f6e673a2054726565206e6565647320746f20686176652060008201527f6174206c65617374206f6e65206c6576656c2e00000000000000000000000000602082015250565b6000616c2d60338361508b565b9150616c3882616bd1565b604082019050919050565b60006020820190508181036000830152616c5c81616c20565b9050919050565b7f5969656c642077726f6e673a2054726565206e6565647320746f20686176652060008201527f6174206c65617374206f6e65206c6576656c2e00000000000000000000000000602082015250565b6000616cbf60338361508b565b9150616cca82616c63565b604082019050919050565b60006020820190508181036000830152616cee81616cb2565b9050919050565b7f5461782077726f6e673a2054726565206e6565647320746f206861766520617460008201527f206c65617374206f6e65206c6576656c2e000000000000000000000000000000602082015250565b6000616d5160318361508b565b9150616d5c82616cf5565b604082019050919050565b60006020820190508181036000830152616d8081616d44565b9050919050565b7f54726565206d75737420686176652073616d6520656e7472696573206f6e207060008201527f726963652c207969656c642c20616e642074617820706572206c6576656c2e00602082015250565b6000616de3603f8361508b565b9150616dee82616d87565b604082019050919050565b60006020820190508181036000830152616e1281616dd6565b9050919050565b7f426f6f737420617265206e6f742063757272656e746c7920617661696c61626c60008201527f652e000000000000000000000000000000000000000000000000000000000000602082015250565b6000616e7560228361508b565b9150616e8082616e19565b604082019050919050565b60006020820190508181036000830152616ea481616e68565b9050919050565b6000616eb6826154cb565b9150616ec1836154cb565b92508263ffffffff03821115616eda57616ed9615ce8565b5b828201905092915050565b7f596f75207374696c6c206861766520616e2061637469766520626f6f73742e00600082015250565b6000616f1b601f8361508b565b9150616f2682616ee5565b602082019050919050565b60006020820190508181036000830152616f4a81616f0e565b9050919050565b7f596f7520646f206e6f74206f776e20656e6f756768206661726d6275636b732060008201527f746f20626f6f73742e0000000000000000000000000000000000000000000000602082015250565b6000616fad60298361508b565b9150616fb882616f51565b604082019050919050565b60006020820190508181036000830152616fdc81616fa0565b9050919050565b7f50726573616c65206d696e7420616d6f756e74206973206c696d69746564207460008201527f6f20612073656e7369626c65206e756d6265722e000000000000000000000000602082015250565b600061703f60348361508b565b915061704a82616fe3565b604082019050919050565b6000602082019050818103600083015261706e81617032565b9050919050565b7f214f574e45520000000000000000000000000000000000000000000000000000600082015250565b60006170ab60068361508b565b91506170b682617075565b602082019050919050565b600060208201905081810360008301526170da8161709e565b9050919050565b7f596f7520646f206e6f74206f776e20656e6f756768206661726d6275636b732e600082015250565b600061711760208361508b565b9150617122826170e1565b602082019050919050565b600060208201905081810360008301526171468161710a565b9050919050565b7f596f75206861766520616c726561647920706c616e746564207468652066697260008201527f7374207472656520696e207468617420706c6f74210000000000000000000000602082015250565b60006171a960358361508b565b91506171b48261714d565b604082019050919050565b600060208201905081810360008301526171d88161719c565b9050919050565b60006171fa6171f56171f084614fac565b616255565b614fac565b9050919050565b600061720c826171df565b9050919050565b600061721e82617201565b9050919050565b61722e81617213565b82525050565b60006020820190506172496000830184617225565b92915050565b7f4661726d4275636b3a207472616e736665722066726f6d20746865207a65726f60008201527f20616464726573732e0000000000000000000000000000000000000000000000602082015250565b60006172ab60298361508b565b91506172b68261724f565b604082019050919050565b600060208201905081810360008301526172da8161729e565b9050919050565b7f4661726d4275636b3a207472616e7366657220746f20746865207a65726f206160008201527f6464726573732e00000000000000000000000000000000000000000000000000602082015250565b600061733d60278361508b565b9150617348826172e1565b604082019050919050565b6000602082019050818103600083015261736c81617330565b9050919050565b7f4661726d4275636b3a205472616e7366657220616d6f756e74206d757374206260008201527f652067726561746572207468616e207a65726f2e000000000000000000000000602082015250565b60006173cf60348361508b565b91506173da82617373565b604082019050919050565b600060208201905081810360008301526173fe816173c2565b9050919050565b7f53656e64657220646f6573206e6f74206f776e20656e6f756768204661726d4260008201527f75636b732e000000000000000000000000000000000000000000000000000000602082015250565b600061746160258361508b565b915061746c82617405565b604082019050919050565b6000602082019050818103600083015261749081617454565b9050919050565b7f4e6f2074726565206f6e207468697320706c6f742c20796f752068617665207460008201527f6f20706c616e742069742066697273742e000000000000000000000000000000602082015250565b60006174f360318361508b565b91506174fe82617497565b604082019050919050565b60006020820190508181036000830152617522816174e6565b9050919050565b600061753482615a56565b915062ffffff82141561754a57617549615ce8565b5b600182019050919050565b600060608201905061756a6000830186615e05565b6175776020830185615e05565b61758460408301846152ad565b94935050505056fea2646970667358221220a60b8de54c9e6f51c5921fcb4bf77c126b4110c85a3effb3574d23f7d4bde7b064736f6c634300080a0033","opcodes":"PUSH1 0xA0 PUSH1 0x40 MSTORE PUSH3 0x15180 PUSH1 0x3 PUSH1 0x0 PUSH2 0x100 EXP DUP2 SLOAD DUP2 PUSH5 0xFFFFFFFFFF MUL NOT AND SWAP1 DUP4 PUSH5 0xFFFFFFFFFF AND MUL OR SWAP1 SSTORE POP PUSH9 0x3635C9ADC5DEA00000 PUSH1 0x2A SSTORE PUSH1 0x40 MLOAD DUP1 PUSH1 0x40 ADD PUSH1 0x40 MSTORE DUP1 PUSH1 0x5 PUSH2 0xFFFF AND DUP2 MSTORE PUSH1 0x20 ADD PUSH1 0x64 PUSH2 0xFFFF AND DUP2 MSTORE POP PUSH1 0x2B PUSH1 0x0 DUP3 ADD MLOAD DUP2 PUSH1 0x0 ADD PUSH1 0x0 PUSH2 0x100 EXP DUP2 SLOAD DUP2 PUSH2 0xFFFF MUL NOT AND SWAP1 DUP4 PUSH2 0xFFFF AND MUL OR SWAP1 SSTORE POP PUSH1 0x20 DUP3 ADD MLOAD DUP2 PUSH1 0x0 ADD PUSH1 0x2 PUSH2 0x100 EXP DUP2 SLOAD DUP2 PUSH2 0xFFFF MUL NOT AND SWAP1 DUP4 PUSH2 0xFFFF AND MUL OR SWAP1 SSTORE POP POP POP PUSH1 0x0 PUSH1 0x31 PUSH1 0x0 PUSH2 0x100 EXP DUP2 SLOAD DUP2 PUSH1 0xFF MUL NOT AND SWAP1 DUP4 ISZERO ISZERO MUL OR SWAP1 SSTORE POP CALLVALUE DUP1 ISZERO PUSH3 0xC8 JUMPI PUSH1 0x0 DUP1 REVERT JUMPDEST POP CALLER DUP1 PUSH1 0x0 DUP1 PUSH2 0x100 EXP DUP2 SLOAD DUP2 PUSH20 0xFFFFFFFFFFFFFFFFFFFFFFFFFFFFFFFFFFFFFFFF MUL NOT AND SWAP1 DUP4 PUSH20 0xFFFFFFFFFFFFFFFFFFFFFFFFFFFFFFFFFFFFFFFF AND MUL OR SWAP1 SSTORE POP PUSH1 0x1 DUP1 PUSH1 0x0 DUP4 PUSH20 0xFFFFFFFFFFFFFFFFFFFFFFFFFFFFFFFFFFFFFFFF AND PUSH20 0xFFFFFFFFFFFFFFFFFFFFFFFFFFFFFFFFFFFFFFFF AND DUP2 MSTORE PUSH1 0x20 ADD SWAP1 DUP2 MSTORE PUSH1 0x20 ADD PUSH1 0x0 KECCAK256 PUSH1 0x0 PUSH2 0x100 EXP DUP2 SLOAD DUP2 PUSH1 0xFF MUL NOT AND SWAP1 DUP4 ISZERO ISZERO MUL OR SWAP1 SSTORE POP POP PUSH1 0x0 PUSH1 0x61 CHAINID EQ ISZERO PUSH3 0x18B JUMPI PUSH20 0xED24FC36D5EE211EA25A80239FB8C4CFD80F12EE SWAP1 POP PUSH3 0x1A3 JUMP JUMPDEST PUSH20 0xE9E7CEA3DEDCA5984780BAFC599BD69ADD087D56 SWAP1 POP JUMPDEST DUP1 PUSH20 0xFFFFFFFFFFFFFFFFFFFFFFFFFFFFFFFFFFFFFFFF AND PUSH1 0x80 DUP2 PUSH20 0xFFFFFFFFFFFFFFFFFFFFFFFFFFFFFFFFFFFFFFFF AND DUP2 MSTORE POP POP POP PUSH1 0x80 MLOAD PUSH2 0x75C2 PUSH3 0x202 PUSH1 0x0 CODECOPY PUSH1 0x0 DUP2 DUP2 PUSH2 0xC96 ADD MSTORE DUP2 DUP2 PUSH2 0x412B ADD MSTORE PUSH2 0x4C09 ADD MSTORE PUSH2 0x75C2 PUSH1 0x0 RETURN INVALID PUSH1 0x80 PUSH1 0x40 MSTORE CALLVALUE DUP1 ISZERO PUSH2 0x10 JUMPI PUSH1 0x0 DUP1 REVERT JUMPDEST POP PUSH1 0x4 CALLDATASIZE LT PUSH2 0x2A0 JUMPI PUSH1 0x0 CALLDATALOAD PUSH1 0xE0 SHR DUP1 PUSH4 0x7FE6B8B6 GT PUSH2 0x167 JUMPI DUP1 PUSH4 0xD9D5FC96 GT PUSH2 0xCE JUMPI DUP1 PUSH4 0xF1ABE2CA GT PUSH2 0x87 JUMPI DUP1 PUSH4 0xF1ABE2CA EQ PUSH2 0x875 JUMPI DUP1 PUSH4 0xF1F032F0 EQ PUSH2 0x891 JUMPI DUP1 PUSH4 0xF2FDE38B EQ PUSH2 0x8C4 JUMPI DUP1 PUSH4 0xF929C98B EQ PUSH2 0x8E0 JUMPI DUP1 PUSH4 0xFE9BE086 EQ PUSH2 0x8FC JUMPI DUP1 PUSH4 0xFE9FBB80 EQ PUSH2 0x918 JUMPI PUSH2 0x2A0 JUMP JUMPDEST DUP1 PUSH4 0xD9D5FC96 EQ PUSH2 0x78F JUMPI DUP1 PUSH4 0xDC4FD819 EQ PUSH2 0x7BF JUMPI DUP1 PUSH4 0xDD62ED3E EQ PUSH2 0x7DD JUMPI DUP1 PUSH4 0xDF7CBEE1 EQ PUSH2 0x80D JUMPI DUP1 PUSH4 0xE3EBA060 EQ PUSH2 0x829 JUMPI DUP1 PUSH4 0xF0B37C04 EQ PUSH2 0x859 JUMPI PUSH2 0x2A0 JUMP JUMPDEST DUP1 PUSH4 0xAA5F7E26 GT PUSH2 0x120 JUMPI DUP1 PUSH4 0xAA5F7E26 EQ PUSH2 0x6E7 JUMPI DUP1 PUSH4 0xAE901021 EQ PUSH2 0x703 JUMPI DUP1 PUSH4 0xB3942CBD EQ PUSH2 0x71F JUMPI DUP1 PUSH4 0xB6A5D7DE EQ PUSH2 0x73B JUMPI DUP1 PUSH4 0xB6B55F25 EQ PUSH2 0x757 JUMPI DUP1 PUSH4 0xD1225A9B EQ PUSH2 0x773 JUMPI PUSH2 0x2A0 JUMP JUMPDEST DUP1 PUSH4 0x7FE6B8B6 EQ PUSH2 0x601 JUMPI DUP1 PUSH4 0x8B106926 EQ PUSH2 0x61D JUMPI DUP1 PUSH4 0x9388E3A4 EQ PUSH2 0x64D JUMPI DUP1 PUSH4 0x95D89B41 EQ PUSH2 0x669 JUMPI DUP1 PUSH4 0x9E7AF3C7 EQ PUSH2 0x687 JUMPI DUP1 PUSH4 0xA9059CBB EQ PUSH2 0x6B7 JUMPI PUSH2 0x2A0 JUMP JUMPDEST DUP1 PUSH4 0x451F3CAF GT PUSH2 0x20B JUMPI DUP1 PUSH4 0x70A08231 GT PUSH2 0x1C4 JUMPI DUP1 PUSH4 0x70A08231 EQ PUSH2 0x51D JUMPI DUP1 PUSH4 0x718ABFBA EQ PUSH2 0x54D JUMPI DUP1 PUSH4 0x71B322DC EQ PUSH2 0x569 JUMPI DUP1 PUSH4 0x730417DC EQ PUSH2 0x585 JUMPI DUP1 PUSH4 0x73AF2E29 EQ PUSH2 0x5B5 JUMPI DUP1 PUSH4 0x7776BBBD EQ PUSH2 0x5D1 JUMPI PUSH2 0x2A0 JUMP JUMPDEST DUP1 PUSH4 0x451F3CAF EQ PUSH2 0x44D JUMPI DUP1 PUSH4 0x4C4A6DD0 EQ PUSH2 0x469 JUMPI DUP1 PUSH4 0x53478562 EQ PUSH2 0x499 JUMPI DUP1 PUSH4 0x558AC136 EQ PUSH2 0x4B5 JUMPI DUP1 PUSH4 0x57F43F8D EQ PUSH2 0x4E5 JUMPI DUP1 PUSH4 0x5C3C9587 EQ PUSH2 0x501 JUMPI PUSH2 0x2A0 JUMP JUMPDEST DUP1 PUSH4 0x23B872DD GT PUSH2 0x25D JUMPI DUP1 PUSH4 0x23B872DD EQ PUSH2 0x379 JUMPI DUP1 PUSH4 0x2F54BF6E EQ PUSH2 0x3A9 JUMPI DUP1 PUSH4 0x313CE567 EQ PUSH2 0x3D9 JUMPI DUP1 PUSH4 0x3D3CAE07 EQ PUSH2 0x3F7 JUMPI DUP1 PUSH4 0x40E44267 EQ PUSH2 0x427 JUMPI DUP1 PUSH4 0x4416C3B4 EQ PUSH2 0x431 JUMPI PUSH2 0x2A0 JUMP JUMPDEST DUP1 PUSH4 0x32C9DCA EQ PUSH2 0x2A5 JUMPI DUP1 PUSH4 0x6FDDE03 EQ PUSH2 0x2C1 JUMPI DUP1 PUSH4 0x95EA7B3 EQ PUSH2 0x2DF JUMPI DUP1 PUSH4 0xB1D7605 EQ PUSH2 0x30F JUMPI DUP1 PUSH4 0x18160DDD EQ PUSH2 0x32B JUMPI DUP1 PUSH4 0x18AAC6DF EQ PUSH2 0x349 JUMPI JUMPDEST PUSH1 0x0 DUP1 REVERT JUMPDEST PUSH2 0x2BF PUSH1 0x4 DUP1 CALLDATASIZE SUB DUP2 ADD SWAP1 PUSH2 0x2BA SWAP2 SWAP1 PUSH2 0x5040 JUMP JUMPDEST PUSH2 0x948 JUMP JUMPDEST STOP JUMPDEST PUSH2 0x2C9 PUSH2 0xE81 JUMP JUMPDEST PUSH1 0x40 MLOAD PUSH2 0x2D6 SWAP2 SWAP1 PUSH2 0x5119 JUMP JUMPDEST PUSH1 0x40 MLOAD DUP1 SWAP2 SUB SWAP1 RETURN JUMPDEST PUSH2 0x2F9 PUSH1 0x4 DUP1 CALLDATASIZE SUB DUP2 ADD SWAP1 PUSH2 0x2F4 SWAP2 SWAP1 PUSH2 0x5040 JUMP JUMPDEST PUSH2 0xEBE JUMP JUMPDEST PUSH1 0x40 MLOAD PUSH2 0x306 SWAP2 SWAP1 PUSH2 0x5156 JUMP JUMPDEST PUSH1 0x40 MLOAD DUP1 SWAP2 SUB SWAP1 RETURN JUMPDEST PUSH2 0x329 PUSH1 0x4 DUP1 CALLDATASIZE SUB DUP2 ADD SWAP1 PUSH2 0x324 SWAP2 SWAP1 PUSH2 0x522C JUMP JUMPDEST PUSH2 0xF43 JUMP JUMPDEST STOP JUMPDEST PUSH2 0x333 PUSH2 0x1244 JUMP JUMPDEST PUSH1 0x40 MLOAD PUSH2 0x340 SWAP2 SWAP1 PUSH2 0x52BC JUMP JUMPDEST PUSH1 0x40 MLOAD DUP1 SWAP2 SUB SWAP1 RETURN JUMPDEST PUSH2 0x363 PUSH1 0x4 DUP1 CALLDATASIZE SUB DUP2 ADD SWAP1 PUSH2 0x35E SWAP2 SWAP1 PUSH2 0x52D7 JUMP JUMPDEST PUSH2 0x124E JUMP JUMPDEST PUSH1 0x40 MLOAD PUSH2 0x370 SWAP2 SWAP1 PUSH2 0x52BC JUMP JUMPDEST PUSH1 0x40 MLOAD DUP1 SWAP2 SUB SWAP1 RETURN JUMPDEST PUSH2 0x393 PUSH1 0x4 DUP1 CALLDATASIZE SUB DUP2 ADD SWAP1 PUSH2 0x38E SWAP2 SWAP1 PUSH2 0x5317 JUMP JUMPDEST PUSH2 0x14BA JUMP JUMPDEST PUSH1 0x40 MLOAD PUSH2 0x3A0 SWAP2 SWAP1 PUSH2 0x5156 JUMP JUMPDEST PUSH1 0x40 MLOAD DUP1 SWAP2 SUB SWAP1 RETURN JUMPDEST PUSH2 0x3C3 PUSH1 0x4 DUP1 CALLDATASIZE SUB DUP2 ADD SWAP1 PUSH2 0x3BE SWAP2 SWAP1 PUSH2 0x536A JUMP JUMPDEST PUSH2 0x15C0 JUMP JUMPDEST PUSH1 0x40 MLOAD PUSH2 0x3D0 SWAP2 SWAP1 PUSH2 0x5156 JUMP JUMPDEST PUSH1 0x40 MLOAD DUP1 SWAP2 SUB SWAP1 RETURN JUMPDEST PUSH2 0x3E1 PUSH2 0x1619 JUMP JUMPDEST PUSH1 0x40 MLOAD PUSH2 0x3EE SWAP2 SWAP1 PUSH2 0x53B3 JUMP JUMPDEST PUSH1 0x40 MLOAD DUP1 SWAP2 SUB SWAP1 RETURN JUMPDEST PUSH2 0x411 PUSH1 0x4 DUP1 CALLDATASIZE SUB DUP2 ADD SWAP1 PUSH2 0x40C SWAP2 SWAP1 PUSH2 0x52D7 JUMP JUMPDEST PUSH2 0x1622 JUMP JUMPDEST PUSH1 0x40 MLOAD PUSH2 0x41E SWAP2 SWAP1 PUSH2 0x5156 JUMP JUMPDEST PUSH1 0x40 MLOAD DUP1 SWAP2 SUB SWAP1 RETURN JUMPDEST PUSH2 0x42F PUSH2 0x182F JUMP JUMPDEST STOP JUMPDEST PUSH2 0x44B PUSH1 0x4 DUP1 CALLDATASIZE SUB DUP2 ADD SWAP1 PUSH2 0x446 SWAP2 SWAP1 PUSH2 0x53F2 JUMP JUMPDEST PUSH2 0x1945 JUMP JUMPDEST STOP JUMPDEST PUSH2 0x467 PUSH1 0x4 DUP1 CALLDATASIZE SUB DUP2 ADD SWAP1 PUSH2 0x462 SWAP2 SWAP1 PUSH2 0x5040 JUMP JUMPDEST PUSH2 0x19A2 JUMP JUMPDEST STOP JUMPDEST PUSH2 0x483 PUSH1 0x4 DUP1 CALLDATASIZE SUB DUP2 ADD SWAP1 PUSH2 0x47E SWAP2 SWAP1 PUSH2 0x541F JUMP JUMPDEST PUSH2 0x1A69 JUMP JUMPDEST PUSH1 0x40 MLOAD PUSH2 0x490 SWAP2 SWAP1 PUSH2 0x5156 JUMP JUMPDEST PUSH1 0x40 MLOAD DUP1 SWAP2 SUB SWAP1 RETURN JUMPDEST PUSH2 0x4B3 PUSH1 0x4 DUP1 CALLDATASIZE SUB DUP2 ADD SWAP1 PUSH2 0x4AE SWAP2 SWAP1 PUSH2 0x548B JUMP JUMPDEST PUSH2 0x1AFD JUMP JUMPDEST STOP JUMPDEST PUSH2 0x4CF PUSH1 0x4 DUP1 CALLDATASIZE SUB DUP2 ADD SWAP1 PUSH2 0x4CA SWAP2 SWAP1 PUSH2 0x536A JUMP JUMPDEST PUSH2 0x1BFA JUMP JUMPDEST PUSH1 0x40 MLOAD PUSH2 0x4DC SWAP2 SWAP1 PUSH2 0x559A JUMP JUMPDEST PUSH1 0x40 MLOAD DUP1 SWAP2 SUB SWAP1 RETURN JUMPDEST PUSH2 0x4FF PUSH1 0x4 DUP1 CALLDATASIZE SUB DUP2 ADD SWAP1 PUSH2 0x4FA SWAP2 SWAP1 PUSH2 0x55B5 JUMP JUMPDEST PUSH2 0x1CFD JUMP JUMPDEST STOP JUMPDEST PUSH2 0x51B PUSH1 0x4 DUP1 CALLDATASIZE SUB DUP2 ADD SWAP1 PUSH2 0x516 SWAP2 SWAP1 PUSH2 0x5601 JUMP JUMPDEST PUSH2 0x1F16 JUMP JUMPDEST STOP JUMPDEST PUSH2 0x537 PUSH1 0x4 DUP1 CALLDATASIZE SUB DUP2 ADD SWAP1 PUSH2 0x532 SWAP2 SWAP1 PUSH2 0x536A JUMP JUMPDEST PUSH2 0x1F9B JUMP JUMPDEST PUSH1 0x40 MLOAD PUSH2 0x544 SWAP2 SWAP1 PUSH2 0x52BC JUMP JUMPDEST PUSH1 0x40 MLOAD DUP1 SWAP2 SUB SWAP1 RETURN JUMPDEST PUSH2 0x567 PUSH1 0x4 DUP1 CALLDATASIZE SUB DUP2 ADD SWAP1 PUSH2 0x562 SWAP2 SWAP1 PUSH2 0x564D JUMP JUMPDEST PUSH2 0x1FE4 JUMP JUMPDEST STOP JUMPDEST PUSH2 0x583 PUSH1 0x4 DUP1 CALLDATASIZE SUB DUP2 ADD SWAP1 PUSH2 0x57E SWAP2 SWAP1 PUSH2 0x56A9 JUMP JUMPDEST PUSH2 0x22CF JUMP JUMPDEST STOP JUMPDEST PUSH2 0x59F PUSH1 0x4 DUP1 CALLDATASIZE SUB DUP2 ADD SWAP1 PUSH2 0x59A SWAP2 SWAP1 PUSH2 0x55B5 JUMP JUMPDEST PUSH2 0x234D JUMP JUMPDEST PUSH1 0x40 MLOAD PUSH2 0x5AC SWAP2 SWAP1 PUSH2 0x52BC JUMP JUMPDEST PUSH1 0x40 MLOAD DUP1 SWAP2 SUB SWAP1 RETURN JUMPDEST PUSH2 0x5CF PUSH1 0x4 DUP1 CALLDATASIZE SUB DUP2 ADD SWAP1 PUSH2 0x5CA SWAP2 SWAP1 PUSH2 0x55B5 JUMP JUMPDEST PUSH2 0x23A5 JUMP JUMPDEST STOP JUMPDEST PUSH2 0x5EB PUSH1 0x4 DUP1 CALLDATASIZE SUB DUP2 ADD SWAP1 PUSH2 0x5E6 SWAP2 SWAP1 PUSH2 0x55B5 JUMP JUMPDEST PUSH2 0x281C JUMP JUMPDEST PUSH1 0x40 MLOAD PUSH2 0x5F8 SWAP2 SWAP1 PUSH2 0x58A5 JUMP JUMPDEST PUSH1 0x40 MLOAD DUP1 SWAP2 SUB SWAP1 RETURN JUMPDEST PUSH2 0x61B PUSH1 0x4 DUP1 CALLDATASIZE SUB DUP2 ADD SWAP1 PUSH2 0x616 SWAP2 SWAP1 PUSH2 0x58C7 JUMP JUMPDEST PUSH2 0x29DC JUMP JUMPDEST STOP JUMPDEST PUSH2 0x637 PUSH1 0x4 DUP1 CALLDATASIZE SUB DUP2 ADD SWAP1 PUSH2 0x632 SWAP2 SWAP1 PUSH2 0x5A03 JUMP JUMPDEST PUSH2 0x2A67 JUMP JUMPDEST PUSH1 0x40 MLOAD PUSH2 0x644 SWAP2 SWAP1 PUSH2 0x52BC JUMP JUMPDEST PUSH1 0x40 MLOAD DUP1 SWAP2 SUB SWAP1 RETURN JUMPDEST PUSH2 0x667 PUSH1 0x4 DUP1 CALLDATASIZE SUB DUP2 ADD SWAP1 PUSH2 0x662 SWAP2 SWAP1 PUSH2 0x55B5 JUMP JUMPDEST PUSH2 0x2B09 JUMP JUMPDEST STOP JUMPDEST PUSH2 0x671 PUSH2 0x2BA8 JUMP JUMPDEST PUSH1 0x40 MLOAD PUSH2 0x67E SWAP2 SWAP1 PUSH2 0x5119 JUMP JUMPDEST PUSH1 0x40 MLOAD DUP1 SWAP2 SUB SWAP1 RETURN JUMPDEST PUSH2 0x6A1 PUSH1 0x4 DUP1 CALLDATASIZE SUB DUP2 ADD SWAP1 PUSH2 0x69C SWAP2 SWAP1 PUSH2 0x55B5 JUMP JUMPDEST PUSH2 0x2BE5 JUMP JUMPDEST PUSH1 0x40 MLOAD PUSH2 0x6AE SWAP2 SWAP1 PUSH2 0x5ADC JUMP JUMPDEST PUSH1 0x40 MLOAD DUP1 SWAP2 SUB SWAP1 RETURN JUMPDEST PUSH2 0x6D1 PUSH1 0x4 DUP1 CALLDATASIZE SUB DUP2 ADD SWAP1 PUSH2 0x6CC SWAP2 SWAP1 PUSH2 0x5040 JUMP JUMPDEST PUSH2 0x2BFE JUMP JUMPDEST PUSH1 0x40 MLOAD PUSH2 0x6DE SWAP2 SWAP1 PUSH2 0x5156 JUMP JUMPDEST PUSH1 0x40 MLOAD DUP1 SWAP2 SUB SWAP1 RETURN JUMPDEST PUSH2 0x701 PUSH1 0x4 DUP1 CALLDATASIZE SUB DUP2 ADD SWAP1 PUSH2 0x6FC SWAP2 SWAP1 PUSH2 0x55B5 JUMP JUMPDEST PUSH2 0x2CBA JUMP JUMPDEST STOP JUMPDEST PUSH2 0x71D PUSH1 0x4 DUP1 CALLDATASIZE SUB DUP2 ADD SWAP1 PUSH2 0x718 SWAP2 SWAP1 PUSH2 0x5040 JUMP JUMPDEST PUSH2 0x2D6C JUMP JUMPDEST STOP JUMPDEST PUSH2 0x739 PUSH1 0x4 DUP1 CALLDATASIZE SUB DUP2 ADD SWAP1 PUSH2 0x734 SWAP2 SWAP1 PUSH2 0x5AF7 JUMP JUMPDEST PUSH2 0x3033 JUMP JUMPDEST STOP JUMPDEST PUSH2 0x755 PUSH1 0x4 DUP1 CALLDATASIZE SUB DUP2 ADD SWAP1 PUSH2 0x750 SWAP2 SWAP1 PUSH2 0x536A JUMP JUMPDEST PUSH2 0x3098 JUMP JUMPDEST STOP JUMPDEST PUSH2 0x771 PUSH1 0x4 DUP1 CALLDATASIZE SUB DUP2 ADD SWAP1 PUSH2 0x76C SWAP2 SWAP1 PUSH2 0x55B5 JUMP JUMPDEST PUSH2 0x313A JUMP JUMPDEST STOP JUMPDEST PUSH2 0x78D PUSH1 0x4 DUP1 CALLDATASIZE SUB DUP2 ADD SWAP1 PUSH2 0x788 SWAP2 SWAP1 PUSH2 0x55B5 JUMP JUMPDEST PUSH2 0x3146 JUMP JUMPDEST STOP JUMPDEST PUSH2 0x7A9 PUSH1 0x4 DUP1 CALLDATASIZE SUB DUP2 ADD SWAP1 PUSH2 0x7A4 SWAP2 SWAP1 PUSH2 0x5040 JUMP JUMPDEST PUSH2 0x3513 JUMP JUMPDEST PUSH1 0x40 MLOAD PUSH2 0x7B6 SWAP2 SWAP1 PUSH2 0x5ADC JUMP JUMPDEST PUSH1 0x40 MLOAD DUP1 SWAP2 SUB SWAP1 RETURN JUMPDEST PUSH2 0x7C7 PUSH2 0x362F JUMP JUMPDEST PUSH1 0x40 MLOAD PUSH2 0x7D4 SWAP2 SWAP1 PUSH2 0x5B44 JUMP JUMPDEST PUSH1 0x40 MLOAD DUP1 SWAP2 SUB SWAP1 RETURN JUMPDEST PUSH2 0x7F7 PUSH1 0x4 DUP1 CALLDATASIZE SUB DUP2 ADD SWAP1 PUSH2 0x7F2 SWAP2 SWAP1 PUSH2 0x541F JUMP JUMPDEST PUSH2 0x3646 JUMP JUMPDEST PUSH1 0x40 MLOAD PUSH2 0x804 SWAP2 SWAP1 PUSH2 0x52BC JUMP JUMPDEST PUSH1 0x40 MLOAD DUP1 SWAP2 SUB SWAP1 RETURN JUMPDEST PUSH2 0x827 PUSH1 0x4 DUP1 CALLDATASIZE SUB DUP2 ADD SWAP1 PUSH2 0x822 SWAP2 SWAP1 PUSH2 0x52D7 JUMP JUMPDEST PUSH2 0x366C JUMP JUMPDEST STOP JUMPDEST PUSH2 0x843 PUSH1 0x4 DUP1 CALLDATASIZE SUB DUP2 ADD SWAP1 PUSH2 0x83E SWAP2 SWAP1 PUSH2 0x541F JUMP JUMPDEST PUSH2 0x37E0 JUMP JUMPDEST PUSH1 0x40 MLOAD PUSH2 0x850 SWAP2 SWAP1 PUSH2 0x5156 JUMP JUMPDEST PUSH1 0x40 MLOAD DUP1 SWAP2 SUB SWAP1 RETURN JUMPDEST PUSH2 0x873 PUSH1 0x4 DUP1 CALLDATASIZE SUB DUP2 ADD SWAP1 PUSH2 0x86E SWAP2 SWAP1 PUSH2 0x536A JUMP JUMPDEST PUSH2 0x3874 JUMP JUMPDEST STOP JUMPDEST PUSH2 0x88F PUSH1 0x4 DUP1 CALLDATASIZE SUB DUP2 ADD SWAP1 PUSH2 0x88A SWAP2 SWAP1 PUSH2 0x5AF7 JUMP JUMPDEST PUSH2 0x3917 JUMP JUMPDEST STOP JUMPDEST PUSH2 0x8AB PUSH1 0x4 DUP1 CALLDATASIZE SUB DUP2 ADD SWAP1 PUSH2 0x8A6 SWAP2 SWAP1 PUSH2 0x55B5 JUMP JUMPDEST PUSH2 0x397C JUMP JUMPDEST PUSH1 0x40 MLOAD PUSH2 0x8BB SWAP5 SWAP4 SWAP3 SWAP2 SWAP1 PUSH2 0x5B9D JUMP JUMPDEST PUSH1 0x40 MLOAD DUP1 SWAP2 SUB SWAP1 RETURN JUMPDEST PUSH2 0x8DE PUSH1 0x4 DUP1 CALLDATASIZE SUB DUP2 ADD SWAP1 PUSH2 0x8D9 SWAP2 SWAP1 PUSH2 0x5C20 JUMP JUMPDEST PUSH2 0x3A26 JUMP JUMPDEST STOP JUMPDEST PUSH2 0x8FA PUSH1 0x4 DUP1 CALLDATASIZE SUB DUP2 ADD SWAP1 PUSH2 0x8F5 SWAP2 SWAP1 PUSH2 0x55B5 JUMP JUMPDEST PUSH2 0x3B3F JUMP JUMPDEST STOP JUMPDEST PUSH2 0x916 PUSH1 0x4 DUP1 CALLDATASIZE SUB DUP2 ADD SWAP1 PUSH2 0x911 SWAP2 SWAP1 PUSH2 0x55B5 JUMP JUMPDEST PUSH2 0x3DF1 JUMP JUMPDEST STOP JUMPDEST PUSH2 0x932 PUSH1 0x4 DUP1 CALLDATASIZE SUB DUP2 ADD SWAP1 PUSH2 0x92D SWAP2 SWAP1 PUSH2 0x536A JUMP JUMPDEST PUSH2 0x4315 JUMP JUMPDEST PUSH1 0x40 MLOAD PUSH2 0x93F SWAP2 SWAP1 PUSH2 0x5156 JUMP JUMPDEST PUSH1 0x40 MLOAD DUP1 SWAP2 SUB SWAP1 RETURN JUMPDEST DUP1 PUSH1 0xC DUP2 LT PUSH2 0x98C JUMPI PUSH1 0x40 MLOAD PUSH32 0x8C379A000000000000000000000000000000000000000000000000000000000 DUP2 MSTORE PUSH1 0x4 ADD PUSH2 0x983 SWAP1 PUSH2 0x5C99 JUMP JUMPDEST PUSH1 0x40 MLOAD DUP1 SWAP2 SUB SWAP1 REVERT JUMPDEST PUSH2 0x996 DUP4 CALLER PUSH2 0x1A69 JUMP JUMPDEST PUSH2 0x99F JUMPI PUSH1 0x0 DUP1 REVERT JUMPDEST PUSH1 0x0 PUSH2 0x9AB DUP5 DUP5 PUSH2 0x436B JUMP JUMPDEST SWAP1 POP PUSH1 0x0 PUSH1 0x4 DUP5 PUSH1 0xC DUP2 LT PUSH2 0x9C3 JUMPI PUSH2 0x9C2 PUSH2 0x5CB9 JUMP JUMPDEST JUMPDEST PUSH1 0x3 MUL ADD PUSH1 0x40 MLOAD DUP1 PUSH1 0x60 ADD PUSH1 0x40 MSTORE SWAP1 DUP2 PUSH1 0x0 DUP3 ADD DUP1 SLOAD DUP1 PUSH1 0x20 MUL PUSH1 0x20 ADD PUSH1 0x40 MLOAD SWAP1 DUP2 ADD PUSH1 0x40 MSTORE DUP1 SWAP3 SWAP2 SWAP1 DUP2 DUP2 MSTORE PUSH1 0x20 ADD DUP3 DUP1 SLOAD DUP1 ISZERO PUSH2 0xA21 JUMPI PUSH1 0x20 MUL DUP3 ADD SWAP2 SWAP1 PUSH1 0x0 MSTORE PUSH1 0x20 PUSH1 0x0 KECCAK256 SWAP1 JUMPDEST DUP2 SLOAD DUP2 MSTORE PUSH1 0x20 ADD SWAP1 PUSH1 0x1 ADD SWAP1 DUP1 DUP4 GT PUSH2 0xA0D JUMPI JUMPDEST POP POP POP POP POP DUP2 MSTORE PUSH1 0x20 ADD PUSH1 0x1 DUP3 ADD DUP1 SLOAD DUP1 PUSH1 0x20 MUL PUSH1 0x20 ADD PUSH1 0x40 MLOAD SWAP1 DUP2 ADD PUSH1 0x40 MSTORE DUP1 SWAP3 SWAP2 SWAP1 DUP2 DUP2 MSTORE PUSH1 0x20 ADD PUSH1 0x0 SWAP1 JUMPDEST DUP3 DUP3 LT ISZERO PUSH2 0xABD JUMPI DUP4 DUP3 SWAP1 PUSH1 0x0 MSTORE PUSH1 0x20 PUSH1 0x0 KECCAK256 ADD PUSH1 0x40 MLOAD DUP1 PUSH1 0x40 ADD PUSH1 0x40 MSTORE SWAP1 DUP2 PUSH1 0x0 DUP3 ADD PUSH1 0x0 SWAP1 SLOAD SWAP1 PUSH2 0x100 EXP SWAP1 DIV PUSH2 0xFFFF AND PUSH2 0xFFFF AND PUSH2 0xFFFF AND DUP2 MSTORE PUSH1 0x20 ADD PUSH1 0x0 DUP3 ADD PUSH1 0x2 SWAP1 SLOAD SWAP1 PUSH2 0x100 EXP SWAP1 DIV PUSH2 0xFFFF AND PUSH2 0xFFFF AND PUSH2 0xFFFF AND DUP2 MSTORE POP POP DUP2 MSTORE PUSH1 0x20 ADD SWAP1 PUSH1 0x1 ADD SWAP1 PUSH2 0xA4F JUMP JUMPDEST POP POP POP POP DUP2 MSTORE PUSH1 0x20 ADD PUSH1 0x2 DUP3 ADD DUP1 SLOAD DUP1 PUSH1 0x20 MUL PUSH1 0x20 ADD PUSH1 0x40 MLOAD SWAP1 DUP2 ADD PUSH1 0x40 MSTORE DUP1 SWAP3 SWAP2 SWAP1 DUP2 DUP2 MSTORE PUSH1 0x20 ADD PUSH1 0x0 SWAP1 JUMPDEST DUP3 DUP3 LT ISZERO PUSH2 0xB58 JUMPI DUP4 DUP3 SWAP1 PUSH1 0x0 MSTORE PUSH1 0x20 PUSH1 0x0 KECCAK256 ADD PUSH1 0x40 MLOAD DUP1 PUSH1 0x40 ADD PUSH1 0x40 MSTORE SWAP1 DUP2 PUSH1 0x0 DUP3 ADD PUSH1 0x0 SWAP1 SLOAD SWAP1 PUSH2 0x100 EXP SWAP1 DIV PUSH2 0xFFFF AND PUSH2 0xFFFF AND PUSH2 0xFFFF AND DUP2 MSTORE PUSH1 0x20 ADD PUSH1 0x0 DUP3 ADD PUSH1 0x2 SWAP1 SLOAD SWAP1 PUSH2 0x100 EXP SWAP1 DIV PUSH2 0xFFFF AND PUSH2 0xFFFF AND PUSH2 0xFFFF AND DUP2 MSTORE POP POP DUP2 MSTORE PUSH1 0x20 ADD SWAP1 PUSH1 0x1 ADD SWAP1 PUSH2 0xAEA JUMP JUMPDEST POP POP POP POP DUP2 MSTORE POP POP SWAP1 POP PUSH1 0x0 PUSH1 0x2E PUSH1 0x0 DUP8 PUSH20 0xFFFFFFFFFFFFFFFFFFFFFFFFFFFFFFFFFFFFFFFF AND PUSH20 0xFFFFFFFFFFFFFFFFFFFFFFFFFFFFFFFFFFFFFFFF AND DUP2 MSTORE PUSH1 0x20 ADD SWAP1 DUP2 MSTORE PUSH1 0x20 ADD PUSH1 0x0 KECCAK256 DUP6 PUSH1 0xC DUP2 LT PUSH2 0xBB5 JUMPI PUSH2 0xBB4 PUSH2 0x5CB9 JUMP JUMPDEST JUMPDEST PUSH1 0x4 MUL ADD PUSH1 0x40 MLOAD DUP1 PUSH1 0xA0 ADD PUSH1 0x40 MSTORE SWAP1 DUP2 PUSH1 0x0 DUP3 ADD PUSH1 0x0 SWAP1 SLOAD SWAP1 PUSH2 0x100 EXP SWAP1 DIV PUSH3 0xFFFFFF AND PUSH3 0xFFFFFF AND PUSH3 0xFFFFFF AND DUP2 MSTORE PUSH1 0x20 ADD PUSH1 0x0 DUP3 ADD PUSH1 0x3 SWAP1 SLOAD SWAP1 PUSH2 0x100 EXP SWAP1 DIV PUSH4 0xFFFFFFFF AND PUSH4 0xFFFFFFFF AND PUSH4 0xFFFFFFFF AND DUP2 MSTORE PUSH1 0x20 ADD PUSH1 0x1 DUP3 ADD SLOAD DUP2 MSTORE PUSH1 0x20 ADD PUSH1 0x2 DUP3 ADD SLOAD DUP2 MSTORE PUSH1 0x20 ADD PUSH1 0x3 DUP3 ADD SLOAD DUP2 MSTORE POP POP SWAP1 POP PUSH1 0x0 DUP3 PUSH1 0x40 ADD MLOAD DUP3 PUSH1 0x0 ADD MLOAD PUSH3 0xFFFFFF AND DUP2 MLOAD DUP2 LT PUSH2 0xC4F JUMPI PUSH2 0xC4E PUSH2 0x5CB9 JUMP JUMPDEST JUMPDEST PUSH1 0x20 MUL PUSH1 0x20 ADD ADD MLOAD SWAP1 POP PUSH1 0x0 DUP2 PUSH1 0x20 ADD MLOAD PUSH2 0xFFFF AND DUP3 PUSH1 0x0 ADD MLOAD PUSH2 0xFFFF AND DUP7 PUSH2 0xC78 SWAP2 SWAP1 PUSH2 0x5D17 JUMP JUMPDEST PUSH2 0xC82 SWAP2 SWAP1 PUSH2 0x5DA0 JUMP JUMPDEST SWAP1 POP PUSH1 0x0 DUP2 DUP7 PUSH2 0xC92 SWAP2 SWAP1 PUSH2 0x5DD1 JUMP JUMPDEST SWAP1 POP PUSH32 0x0 PUSH20 0xFFFFFFFFFFFFFFFFFFFFFFFFFFFFFFFFFFFFFFFF AND PUSH4 0xA9059CBB DUP11 DUP4 PUSH1 0x40 MLOAD DUP4 PUSH4 0xFFFFFFFF AND PUSH1 0xE0 SHL DUP2 MSTORE PUSH1 0x4 ADD PUSH2 0xCEF SWAP3 SWAP2 SWAP1 PUSH2 0x5E14 JUMP JUMPDEST PUSH1 0x20 PUSH1 0x40 MLOAD DUP1 DUP4 SUB DUP2 PUSH1 0x0 DUP8 GAS CALL ISZERO DUP1 ISZERO PUSH2 0xD0E JUMPI RETURNDATASIZE PUSH1 0x0 DUP1 RETURNDATACOPY RETURNDATASIZE PUSH1 0x0 REVERT JUMPDEST POP POP POP POP PUSH1 0x40 MLOAD RETURNDATASIZE PUSH1 0x1F NOT PUSH1 0x1F DUP3 ADD AND DUP3 ADD DUP1 PUSH1 0x40 MSTORE POP DUP2 ADD SWAP1 PUSH2 0xD32 SWAP2 SWAP1 PUSH2 0x5E52 JUMP JUMPDEST POP DUP1 DUP5 PUSH1 0x80 ADD DUP2 DUP2 MLOAD PUSH2 0xD45 SWAP2 SWAP1 PUSH2 0x5E7F JUMP JUMPDEST SWAP2 POP DUP2 DUP2 MSTORE POP POP TIMESTAMP DUP5 PUSH1 0x20 ADD SWAP1 PUSH4 0xFFFFFFFF AND SWAP1 DUP2 PUSH4 0xFFFFFFFF AND DUP2 MSTORE POP POP DUP4 PUSH1 0x2E PUSH1 0x0 DUP12 PUSH20 0xFFFFFFFFFFFFFFFFFFFFFFFFFFFFFFFFFFFFFFFF AND PUSH20 0xFFFFFFFFFFFFFFFFFFFFFFFFFFFFFFFFFFFFFFFF AND DUP2 MSTORE PUSH1 0x20 ADD SWAP1 DUP2 MSTORE PUSH1 0x20 ADD PUSH1 0x0 KECCAK256 DUP10 PUSH1 0xC DUP2 LT PUSH2 0xDB6 JUMPI PUSH2 0xDB5 PUSH2 0x5CB9 JUMP JUMPDEST JUMPDEST PUSH1 0x4 MUL ADD PUSH1 0x0 DUP3 ADD MLOAD DUP2 PUSH1 0x0 ADD PUSH1 0x0 PUSH2 0x100 EXP DUP2 SLOAD DUP2 PUSH3 0xFFFFFF MUL NOT AND SWAP1 DUP4 PUSH3 0xFFFFFF AND MUL OR SWAP1 SSTORE POP PUSH1 0x20 DUP3 ADD MLOAD DUP2 PUSH1 0x0 ADD PUSH1 0x3 PUSH2 0x100 EXP DUP2 SLOAD DUP2 PUSH4 0xFFFFFFFF MUL NOT AND SWAP1 DUP4 PUSH4 0xFFFFFFFF AND MUL OR SWAP1 SSTORE POP PUSH1 0x40 DUP3 ADD MLOAD DUP2 PUSH1 0x1 ADD SSTORE PUSH1 0x60 DUP3 ADD MLOAD DUP2 PUSH1 0x2 ADD SSTORE PUSH1 0x80 DUP3 ADD MLOAD DUP2 PUSH1 0x3 ADD SSTORE SWAP1 POP POP DUP8 DUP10 PUSH20 0xFFFFFFFFFFFFFFFFFFFFFFFFFFFFFFFFFFFFFFFF AND PUSH32 0x888F19217DDAD5C6A51226C6812ABE28B4400E72206C3B170AE84829BD03A7A0 DUP9 PUSH1 0x40 MLOAD PUSH2 0xE6E SWAP2 SWAP1 PUSH2 0x52BC JUMP JUMPDEST PUSH1 0x40 MLOAD DUP1 SWAP2 SUB SWAP1 LOG3 POP POP POP POP POP POP POP POP POP JUMP JUMPDEST PUSH1 0x60 PUSH1 0x40 MLOAD DUP1 PUSH1 0x40 ADD PUSH1 0x40 MSTORE DUP1 PUSH1 0x8 DUP2 MSTORE PUSH1 0x20 ADD PUSH32 0x4661726D4275636B000000000000000000000000000000000000000000000000 DUP2 MSTORE POP SWAP1 POP SWAP1 JUMP JUMPDEST PUSH1 0x0 DUP1 PUSH1 0x0 DUP4 GT SWAP1 POP PUSH2 0xED1 DUP5 DUP3 PUSH2 0x1AFD JUMP JUMPDEST DUP4 PUSH20 0xFFFFFFFFFFFFFFFFFFFFFFFFFFFFFFFFFFFFFFFF AND CALLER PUSH20 0xFFFFFFFFFFFFFFFFFFFFFFFFFFFFFFFFFFFFFFFF AND PUSH32 0x8C5BE1E5EBEC7D5BD14F71427D1E84F3DD0314C0F7B2291E5B200AC8C7C3B925 PUSH1 0x2 SLOAD PUSH1 0x40 MLOAD PUSH2 0xF30 SWAP2 SWAP1 PUSH2 0x52BC JUMP JUMPDEST PUSH1 0x40 MLOAD DUP1 SWAP2 SUB SWAP1 LOG3 PUSH1 0x1 SWAP2 POP POP SWAP3 SWAP2 POP POP JUMP JUMPDEST PUSH2 0xF4C CALLER PUSH2 0x4315 JUMP JUMPDEST PUSH2 0xF8B JUMPI PUSH1 0x40 MLOAD PUSH32 0x8C379A000000000000000000000000000000000000000000000000000000000 DUP2 MSTORE PUSH1 0x4 ADD PUSH2 0xF82 SWAP1 PUSH2 0x5F21 JUMP JUMPDEST PUSH1 0x40 MLOAD DUP1 SWAP2 SUB SWAP1 REVERT JUMPDEST DUP2 DUP2 SWAP1 POP DUP5 DUP5 SWAP1 POP EQ PUSH2 0xFD3 JUMPI PUSH1 0x40 MLOAD PUSH32 0x8C379A000000000000000000000000000000000000000000000000000000000 DUP2 MSTORE PUSH1 0x4 ADD PUSH2 0xFCA SWAP1 PUSH2 0x5F8D JUMP JUMPDEST PUSH1 0x40 MLOAD DUP1 SWAP2 SUB SWAP1 REVERT JUMPDEST PUSH1 0x0 JUMPDEST DUP5 DUP5 SWAP1 POP DUP2 LT ISZERO PUSH2 0x123D JUMPI PUSH1 0x0 DUP4 DUP4 DUP4 DUP2 DUP2 LT PUSH2 0xFF6 JUMPI PUSH2 0xFF5 PUSH2 0x5CB9 JUMP JUMPDEST JUMPDEST SWAP1 POP PUSH1 0x20 MUL DUP2 ADD SWAP1 PUSH2 0x1008 SWAP2 SWAP1 PUSH2 0x5FBC JUMP JUMPDEST DUP1 PUSH1 0x0 ADD SWAP1 PUSH2 0x1017 SWAP2 SWAP1 PUSH2 0x5FE4 JUMP JUMPDEST SWAP1 POP GT DUP1 ISZERO PUSH2 0x105B JUMPI POP PUSH1 0x0 DUP4 DUP4 DUP4 DUP2 DUP2 LT PUSH2 0x1036 JUMPI PUSH2 0x1035 PUSH2 0x5CB9 JUMP JUMPDEST JUMPDEST SWAP1 POP PUSH1 0x20 MUL DUP2 ADD SWAP1 PUSH2 0x1048 SWAP2 SWAP1 PUSH2 0x5FBC JUMP JUMPDEST DUP1 PUSH1 0x20 ADD SWAP1 PUSH2 0x1057 SWAP2 SWAP1 PUSH2 0x6047 JUMP JUMPDEST SWAP1 POP GT JUMPDEST DUP1 ISZERO PUSH2 0x109C JUMPI POP PUSH1 0x0 DUP4 DUP4 DUP4 DUP2 DUP2 LT PUSH2 0x1077 JUMPI PUSH2 0x1076 PUSH2 0x5CB9 JUMP JUMPDEST JUMPDEST SWAP1 POP PUSH1 0x20 MUL DUP2 ADD SWAP1 PUSH2 0x1089 SWAP2 SWAP1 PUSH2 0x5FBC JUMP JUMPDEST DUP1 PUSH1 0x40 ADD SWAP1 PUSH2 0x1098 SWAP2 SWAP1 PUSH2 0x6047 JUMP JUMPDEST SWAP1 POP GT JUMPDEST DUP1 ISZERO PUSH2 0x1111 JUMPI POP DUP3 DUP3 DUP3 DUP2 DUP2 LT PUSH2 0x10B6 JUMPI PUSH2 0x10B5 PUSH2 0x5CB9 JUMP JUMPDEST JUMPDEST SWAP1 POP PUSH1 0x20 MUL DUP2 ADD SWAP1 PUSH2 0x10C8 SWAP2 SWAP1 PUSH2 0x5FBC JUMP JUMPDEST DUP1 PUSH1 0x20 ADD SWAP1 PUSH2 0x10D7 SWAP2 SWAP1 PUSH2 0x6047 JUMP JUMPDEST SWAP1 POP DUP4 DUP4 DUP4 DUP2 DUP2 LT PUSH2 0x10EC JUMPI PUSH2 0x10EB PUSH2 0x5CB9 JUMP JUMPDEST JUMPDEST SWAP1 POP PUSH1 0x20 MUL DUP2 ADD SWAP1 PUSH2 0x10FE SWAP2 SWAP1 PUSH2 0x5FBC JUMP JUMPDEST DUP1 PUSH1 0x0 ADD SWAP1 PUSH2 0x110D SWAP2 SWAP1 PUSH2 0x5FE4 JUMP JUMPDEST SWAP1 POP EQ JUMPDEST DUP1 ISZERO PUSH2 0x1186 JUMPI POP DUP3 DUP3 DUP3 DUP2 DUP2 LT PUSH2 0x112B JUMPI PUSH2 0x112A PUSH2 0x5CB9 JUMP JUMPDEST JUMPDEST SWAP1 POP PUSH1 0x20 MUL DUP2 ADD SWAP1 PUSH2 0x113D SWAP2 SWAP1 PUSH2 0x5FBC JUMP JUMPDEST DUP1 PUSH1 0x40 ADD SWAP1 PUSH2 0x114C SWAP2 SWAP1 PUSH2 0x6047 JUMP JUMPDEST SWAP1 POP DUP4 DUP4 DUP4 DUP2 DUP2 LT PUSH2 0x1161 JUMPI PUSH2 0x1160 PUSH2 0x5CB9 JUMP JUMPDEST JUMPDEST SWAP1 POP PUSH1 0x20 MUL DUP2 ADD SWAP1 PUSH2 0x1173 SWAP2 SWAP1 PUSH2 0x5FBC JUMP JUMPDEST DUP1 PUSH1 0x20 ADD SWAP1 PUSH2 0x1182 SWAP2 SWAP1 PUSH2 0x6047 JUMP JUMPDEST SWAP1 POP EQ JUMPDEST PUSH2 0x11C5 JUMPI PUSH1 0x40 MLOAD PUSH32 0x8C379A000000000000000000000000000000000000000000000000000000000 DUP2 MSTORE PUSH1 0x4 ADD PUSH2 0x11BC SWAP1 PUSH2 0x6168 JUMP JUMPDEST PUSH1 0x40 MLOAD DUP1 SWAP2 SUB SWAP1 REVERT JUMPDEST DUP3 DUP3 DUP3 DUP2 DUP2 LT PUSH2 0x11D8 JUMPI PUSH2 0x11D7 PUSH2 0x5CB9 JUMP JUMPDEST JUMPDEST SWAP1 POP PUSH1 0x20 MUL DUP2 ADD SWAP1 PUSH2 0x11EA SWAP2 SWAP1 PUSH2 0x5FBC JUMP JUMPDEST PUSH1 0x4 DUP7 DUP7 DUP5 DUP2 DUP2 LT PUSH2 0x11FF JUMPI PUSH2 0x11FE PUSH2 0x5CB9 JUMP JUMPDEST JUMPDEST SWAP1 POP PUSH1 0x20 MUL ADD CALLDATALOAD PUSH1 0xC DUP2 LT PUSH2 0x1217 JUMPI PUSH2 0x1216 PUSH2 0x5CB9 JUMP JUMPDEST JUMPDEST PUSH1 0x3 MUL ADD DUP2 DUP2 PUSH2 0x1227 SWAP2 SWAP1 PUSH2 0x672F JUMP JUMPDEST SWAP1 POP POP DUP1 DUP1 PUSH2 0x1235 SWAP1 PUSH2 0x673D JUMP JUMPDEST SWAP2 POP POP PUSH2 0xFD6 JUMP JUMPDEST POP POP POP POP POP JUMP JUMPDEST PUSH1 0x0 PUSH1 0x2 SLOAD SWAP1 POP SWAP1 JUMP JUMPDEST PUSH1 0x0 DUP3 PUSH1 0xC DUP2 LT PUSH2 0x1294 JUMPI PUSH1 0x40 MLOAD PUSH32 0x8C379A000000000000000000000000000000000000000000000000000000000 DUP2 MSTORE PUSH1 0x4 ADD PUSH2 0x128B SWAP1 PUSH2 0x5C99 JUMP JUMPDEST PUSH1 0x40 MLOAD DUP1 SWAP2 SUB SWAP1 REVERT JUMPDEST PUSH1 0x0 PUSH1 0x4 DUP6 PUSH1 0xC DUP2 LT PUSH2 0x12AA JUMPI PUSH2 0x12A9 PUSH2 0x5CB9 JUMP JUMPDEST JUMPDEST PUSH1 0x3 MUL ADD PUSH1 0x40 MLOAD DUP1 PUSH1 0x60 ADD PUSH1 0x40 MSTORE SWAP1 DUP2 PUSH1 0x0 DUP3 ADD DUP1 SLOAD DUP1 PUSH1 0x20 MUL PUSH1 0x20 ADD PUSH1 0x40 MLOAD SWAP1 DUP2 ADD PUSH1 0x40 MSTORE DUP1 SWAP3 SWAP2 SWAP1 DUP2 DUP2 MSTORE PUSH1 0x20 ADD DUP3 DUP1 SLOAD DUP1 ISZERO PUSH2 0x1308 JUMPI PUSH1 0x20 MUL DUP3 ADD SWAP2 SWAP1 PUSH1 0x0 MSTORE PUSH1 0x20 PUSH1 0x0 KECCAK256 SWAP1 JUMPDEST DUP2 SLOAD DUP2 MSTORE PUSH1 0x20 ADD SWAP1 PUSH1 0x1 ADD SWAP1 DUP1 DUP4 GT PUSH2 0x12F4 JUMPI JUMPDEST POP POP POP POP POP DUP2 MSTORE PUSH1 0x20 ADD PUSH1 0x1 DUP3 ADD DUP1 SLOAD DUP1 PUSH1 0x20 MUL PUSH1 0x20 ADD PUSH1 0x40 MLOAD SWAP1 DUP2 ADD PUSH1 0x40 MSTORE DUP1 SWAP3 SWAP2 SWAP1 DUP2 DUP2 MSTORE PUSH1 0x20 ADD PUSH1 0x0 SWAP1 JUMPDEST DUP3 DUP3 LT ISZERO PUSH2 0x13A4 JUMPI DUP4 DUP3 SWAP1 PUSH1 0x0 MSTORE PUSH1 0x20 PUSH1 0x0 KECCAK256 ADD PUSH1 0x40 MLOAD DUP1 PUSH1 0x40 ADD PUSH1 0x40 MSTORE SWAP1 DUP2 PUSH1 0x0 DUP3 ADD PUSH1 0x0 SWAP1 SLOAD SWAP1 PUSH2 0x100 EXP SWAP1 DIV PUSH2 0xFFFF AND PUSH2 0xFFFF AND PUSH2 0xFFFF AND DUP2 MSTORE PUSH1 0x20 ADD PUSH1 0x0 DUP3 ADD PUSH1 0x2 SWAP1 SLOAD SWAP1 PUSH2 0x100 EXP SWAP1 DIV PUSH2 0xFFFF AND PUSH2 0xFFFF AND PUSH2 0xFFFF AND DUP2 MSTORE POP POP DUP2 MSTORE PUSH1 0x20 ADD SWAP1 PUSH1 0x1 ADD SWAP1 PUSH2 0x1336 JUMP JUMPDEST POP POP POP POP DUP2 MSTORE PUSH1 0x20 ADD PUSH1 0x2 DUP3 ADD DUP1 SLOAD DUP1 PUSH1 0x20 MUL PUSH1 0x20 ADD PUSH1 0x40 MLOAD SWAP1 DUP2 ADD PUSH1 0x40 MSTORE DUP1 SWAP3 SWAP2 SWAP1 DUP2 DUP2 MSTORE PUSH1 0x20 ADD PUSH1 0x0 SWAP1 JUMPDEST DUP3 DUP3 LT ISZERO PUSH2 0x143F JUMPI DUP4 DUP3 SWAP1 PUSH1 0x0 MSTORE PUSH1 0x20 PUSH1 0x0 KECCAK256 ADD PUSH1 0x40 MLOAD DUP1 PUSH1 0x40 ADD PUSH1 0x40 MSTORE SWAP1 DUP2 PUSH1 0x0 DUP3 ADD PUSH1 0x0 SWAP1 SLOAD SWAP1 PUSH2 0x100 EXP SWAP1 DIV PUSH2 0xFFFF AND PUSH2 0xFFFF AND PUSH2 0xFFFF AND DUP2 MSTORE PUSH1 0x20 ADD PUSH1 0x0 DUP3 ADD PUSH1 0x2 SWAP1 SLOAD SWAP1 PUSH2 0x100 EXP SWAP1 DIV PUSH2 0xFFFF AND PUSH2 0xFFFF AND PUSH2 0xFFFF AND DUP2 MSTORE POP POP DUP2 MSTORE PUSH1 0x20 ADD SWAP1 PUSH1 0x1 ADD SWAP1 PUSH2 0x13D1 JUMP JUMPDEST POP POP POP POP DUP2 MSTORE POP POP SWAP1 POP DUP4 DUP2 PUSH1 0x0 ADD MLOAD MLOAD LT ISZERO PUSH2 0x1491 JUMPI PUSH1 0x40 MLOAD PUSH32 0x8C379A000000000000000000000000000000000000000000000000000000000 DUP2 MSTORE PUSH1 0x4 ADD PUSH2 0x1488 SWAP1 PUSH2 0x67D2 JUMP JUMPDEST PUSH1 0x40 MLOAD DUP1 SWAP2 SUB SWAP1 REVERT JUMPDEST DUP1 PUSH1 0x0 ADD MLOAD DUP5 DUP2 MLOAD DUP2 LT PUSH2 0x14A8 JUMPI PUSH2 0x14A7 PUSH2 0x5CB9 JUMP JUMPDEST JUMPDEST PUSH1 0x20 MUL PUSH1 0x20 ADD ADD MLOAD SWAP3 POP POP POP SWAP3 SWAP2 POP POP JUMP JUMPDEST PUSH1 0x0 PUSH1 0x31 PUSH1 0x0 SWAP1 SLOAD SWAP1 PUSH2 0x100 EXP SWAP1 DIV PUSH1 0xFF AND DUP1 PUSH2 0x1522 JUMPI POP PUSH1 0x0 DUP1 SLOAD SWAP1 PUSH2 0x100 EXP SWAP1 DIV PUSH20 0xFFFFFFFFFFFFFFFFFFFFFFFFFFFFFFFFFFFFFFFF AND PUSH20 0xFFFFFFFFFFFFFFFFFFFFFFFFFFFFFFFFFFFFFFFF AND CALLER PUSH20 0xFFFFFFFFFFFFFFFFFFFFFFFFFFFFFFFFFFFFFFFF AND EQ JUMPDEST PUSH2 0x1561 JUMPI PUSH1 0x40 MLOAD PUSH32 0x8C379A000000000000000000000000000000000000000000000000000000000 DUP2 MSTORE PUSH1 0x4 ADD PUSH2 0x1558 SWAP1 PUSH2 0x6864 JUMP JUMPDEST PUSH1 0x40 MLOAD DUP1 SWAP2 SUB SWAP1 REVERT JUMPDEST PUSH2 0x156C DUP5 DUP5 DUP5 PUSH2 0x46D0 JUMP JUMPDEST PUSH2 0x1576 DUP5 CALLER PUSH2 0x1A69 JUMP JUMPDEST PUSH2 0x15B5 JUMPI PUSH1 0x40 MLOAD PUSH32 0x8C379A000000000000000000000000000000000000000000000000000000000 DUP2 MSTORE PUSH1 0x4 ADD PUSH2 0x15AC SWAP1 PUSH2 0x68F6 JUMP JUMPDEST PUSH1 0x40 MLOAD DUP1 SWAP2 SUB SWAP1 REVERT JUMPDEST PUSH1 0x1 SWAP1 POP SWAP4 SWAP3 POP POP POP JUMP JUMPDEST PUSH1 0x0 DUP1 PUSH1 0x0 SWAP1 SLOAD SWAP1 PUSH2 0x100 EXP SWAP1 DIV PUSH20 0xFFFFFFFFFFFFFFFFFFFFFFFFFFFFFFFFFFFFFFFF AND PUSH20 0xFFFFFFFFFFFFFFFFFFFFFFFFFFFFFFFFFFFFFFFF AND DUP3 PUSH20 0xFFFFFFFFFFFFFFFFFFFFFFFFFFFFFFFFFFFFFFFF AND EQ SWAP1 POP SWAP2 SWAP1 POP JUMP JUMPDEST PUSH1 0x0 PUSH1 0x12 SWAP1 POP SWAP1 JUMP JUMPDEST PUSH1 0x0 DUP3 PUSH1 0xC DUP2 LT PUSH2 0x1668 JUMPI PUSH1 0x40 MLOAD PUSH32 0x8C379A000000000000000000000000000000000000000000000000000000000 DUP2 MSTORE PUSH1 0x4 ADD PUSH2 0x165F SWAP1 PUSH2 0x5C99 JUMP JUMPDEST PUSH1 0x40 MLOAD DUP1 SWAP2 SUB SWAP1 REVERT JUMPDEST PUSH1 0x0 PUSH1 0x4 DUP6 PUSH1 0xC DUP2 LT PUSH2 0x167E JUMPI PUSH2 0x167D PUSH2 0x5CB9 JUMP JUMPDEST JUMPDEST PUSH1 0x3 MUL ADD PUSH1 0x40 MLOAD DUP1 PUSH1 0x60 ADD PUSH1 0x40 MSTORE SWAP1 DUP2 PUSH1 0x0 DUP3 ADD DUP1 SLOAD DUP1 PUSH1 0x20 MUL PUSH1 0x20 ADD PUSH1 0x40 MLOAD SWAP1 DUP2 ADD PUSH1 0x40 MSTORE DUP1 SWAP3 SWAP2 SWAP1 DUP2 DUP2 MSTORE PUSH1 0x20 ADD DUP3 DUP1 SLOAD DUP1 ISZERO PUSH2 0x16DC JUMPI PUSH1 0x20 MUL DUP3 ADD SWAP2 SWAP1 PUSH1 0x0 MSTORE PUSH1 0x20 PUSH1 0x0 KECCAK256 SWAP1 JUMPDEST DUP2 SLOAD DUP2 MSTORE PUSH1 0x20 ADD SWAP1 PUSH1 0x1 ADD SWAP1 DUP1 DUP4 GT PUSH2 0x16C8 JUMPI JUMPDEST POP POP POP POP POP DUP2 MSTORE PUSH1 0x20 ADD PUSH1 0x1 DUP3 ADD DUP1 SLOAD DUP1 PUSH1 0x20 MUL PUSH1 0x20 ADD PUSH1 0x40 MLOAD SWAP1 DUP2 ADD PUSH1 0x40 MSTORE DUP1 SWAP3 SWAP2 SWAP1 DUP2 DUP2 MSTORE PUSH1 0x20 ADD PUSH1 0x0 SWAP1 JUMPDEST DUP3 DUP3 LT ISZERO PUSH2 0x1778 JUMPI DUP4 DUP3 SWAP1 PUSH1 0x0 MSTORE PUSH1 0x20 PUSH1 0x0 KECCAK256 ADD PUSH1 0x40 MLOAD DUP1 PUSH1 0x40 ADD PUSH1 0x40 MSTORE SWAP1 DUP2 PUSH1 0x0 DUP3 ADD PUSH1 0x0 SWAP1 SLOAD SWAP1 PUSH2 0x100 EXP SWAP1 DIV PUSH2 0xFFFF AND PUSH2 0xFFFF AND PUSH2 0xFFFF AND DUP2 MSTORE PUSH1 0x20 ADD PUSH1 0x0 DUP3 ADD PUSH1 0x2 SWAP1 SLOAD SWAP1 PUSH2 0x100 EXP SWAP1 DIV PUSH2 0xFFFF AND PUSH2 0xFFFF AND PUSH2 0xFFFF AND DUP2 MSTORE POP POP DUP2 MSTORE PUSH1 0x20 ADD SWAP1 PUSH1 0x1 ADD SWAP1 PUSH2 0x170A JUMP JUMPDEST POP POP POP POP DUP2 MSTORE PUSH1 0x20 ADD PUSH1 0x2 DUP3 ADD DUP1 SLOAD DUP1 PUSH1 0x20 MUL PUSH1 0x20 ADD PUSH1 0x40 MLOAD SWAP1 DUP2 ADD PUSH1 0x40 MSTORE DUP1 SWAP3 SWAP2 SWAP1 DUP2 DUP2 MSTORE PUSH1 0x20 ADD PUSH1 0x0 SWAP1 JUMPDEST DUP3 DUP3 LT ISZERO PUSH2 0x1813 JUMPI DUP4 DUP3 SWAP1 PUSH1 0x0 MSTORE PUSH1 0x20 PUSH1 0x0 KECCAK256 ADD PUSH1 0x40 MLOAD DUP1 PUSH1 0x40 ADD PUSH1 0x40 MSTORE SWAP1 DUP2 PUSH1 0x0 DUP3 ADD PUSH1 0x0 SWAP1 SLOAD SWAP1 PUSH2 0x100 EXP SWAP1 DIV PUSH2 0xFFFF AND PUSH2 0xFFFF AND PUSH2 0xFFFF AND DUP2 MSTORE PUSH1 0x20 ADD PUSH1 0x0 DUP3 ADD PUSH1 0x2 SWAP1 SLOAD SWAP1 PUSH2 0x100 EXP SWAP1 DIV PUSH2 0xFFFF AND PUSH2 0xFFFF AND PUSH2 0xFFFF AND DUP2 MSTORE POP POP DUP2 MSTORE PUSH1 0x20 ADD SWAP1 PUSH1 0x1 ADD SWAP1 PUSH2 0x17A5 JUMP JUMPDEST POP POP POP POP DUP2 MSTORE POP POP SWAP1 POP DUP1 PUSH1 0x0 ADD MLOAD MLOAD DUP5 LT SWAP3 POP POP POP SWAP3 SWAP2 POP POP JUMP JUMPDEST PUSH2 0x1838 CALLER PUSH2 0x4315 JUMP JUMPDEST PUSH2 0x1877 JUMPI PUSH1 0x40 MLOAD PUSH32 0x8C379A000000000000000000000000000000000000000000000000000000000 DUP2 MSTORE PUSH1 0x4 ADD PUSH2 0x186E SWAP1 PUSH2 0x5F21 JUMP JUMPDEST PUSH1 0x40 MLOAD DUP1 SWAP2 SUB SWAP1 REVERT JUMPDEST PUSH1 0x29 PUSH1 0x1 SWAP1 SLOAD SWAP1 PUSH2 0x100 EXP SWAP1 DIV PUSH1 0xFF AND ISZERO PUSH2 0x18C7 JUMPI PUSH1 0x40 MLOAD PUSH32 0x8C379A000000000000000000000000000000000000000000000000000000000 DUP2 MSTORE PUSH1 0x4 ADD PUSH2 0x18BE SWAP1 PUSH2 0x6988 JUMP JUMPDEST PUSH1 0x40 MLOAD DUP1 SWAP2 SUB SWAP1 REVERT JUMPDEST PUSH1 0x2A SLOAD PUSH1 0x2C PUSH1 0x0 CALLER PUSH20 0xFFFFFFFFFFFFFFFFFFFFFFFFFFFFFFFFFFFFFFFF AND PUSH20 0xFFFFFFFFFFFFFFFFFFFFFFFFFFFFFFFFFFFFFFFF AND DUP2 MSTORE PUSH1 0x20 ADD SWAP1 DUP2 MSTORE PUSH1 0x20 ADD PUSH1 0x0 KECCAK256 PUSH1 0x0 DUP3 DUP3 SLOAD ADD SWAP3 POP POP DUP2 SWAP1 SSTORE POP PUSH1 0x2A SLOAD PUSH1 0x2 PUSH1 0x0 DUP3 DUP3 SLOAD ADD SWAP3 POP POP DUP2 SWAP1 SSTORE POP PUSH1 0x1 PUSH1 0x29 PUSH1 0x1 PUSH2 0x100 EXP DUP2 SLOAD DUP2 PUSH1 0xFF MUL NOT AND SWAP1 DUP4 ISZERO ISZERO MUL OR SWAP1 SSTORE POP JUMP JUMPDEST PUSH2 0x194E CALLER PUSH2 0x4315 JUMP JUMPDEST PUSH2 0x198D JUMPI PUSH1 0x40 MLOAD PUSH32 0x8C379A000000000000000000000000000000000000000000000000000000000 DUP2 MSTORE PUSH1 0x4 ADD PUSH2 0x1984 SWAP1 PUSH2 0x5F21 JUMP JUMPDEST PUSH1 0x40 MLOAD DUP1 SWAP2 SUB SWAP1 REVERT JUMPDEST DUP1 PUSH1 0x2B DUP2 DUP2 PUSH2 0x199C SWAP2 SWAP1 PUSH2 0x69A8 JUMP JUMPDEST SWAP1 POP POP POP JUMP JUMPDEST DUP1 PUSH1 0xC DUP2 LT PUSH2 0x19E6 JUMPI PUSH1 0x40 MLOAD PUSH32 0x8C379A000000000000000000000000000000000000000000000000000000000 DUP2 MSTORE PUSH1 0x4 ADD PUSH2 0x19DD SWAP1 PUSH2 0x5C99 JUMP JUMPDEST PUSH1 0x40 MLOAD DUP1 SWAP2 SUB SWAP1 REVERT JUMPDEST PUSH2 0x19F0 DUP4 CALLER PUSH2 0x1A69 JUMP JUMPDEST PUSH2 0x19F9 JUMPI PUSH1 0x0 DUP1 REVERT JUMPDEST PUSH1 0x0 PUSH2 0x1A05 DUP5 DUP5 PUSH2 0x436B JUMP JUMPDEST SWAP1 POP PUSH2 0x1A14 DUP4 DUP6 DUP4 PUSH1 0x1 PUSH2 0x4978 JUMP JUMPDEST DUP3 DUP5 PUSH20 0xFFFFFFFFFFFFFFFFFFFFFFFFFFFFFFFFFFFFFFFF AND PUSH32 0x820CEA42E8517CF1EC6D4E9DB93909255F07C45F7EB0A7C7B5A0F8BDCFC2E5BF DUP4 PUSH1 0x40 MLOAD PUSH2 0x1A5B SWAP2 SWAP1 PUSH2 0x52BC JUMP JUMPDEST PUSH1 0x40 MLOAD DUP1 SWAP2 SUB SWAP1 LOG3 POP POP POP POP JUMP JUMPDEST PUSH1 0x0 PUSH1 0x2D PUSH1 0x0 DUP5 PUSH20 0xFFFFFFFFFFFFFFFFFFFFFFFFFFFFFFFFFFFFFFFF AND PUSH20 0xFFFFFFFFFFFFFFFFFFFFFFFFFFFFFFFFFFFFFFFF AND DUP2 MSTORE PUSH1 0x20 ADD SWAP1 DUP2 MSTORE PUSH1 0x20 ADD PUSH1 0x0 KECCAK256 PUSH1 0x0 DUP4 PUSH20 0xFFFFFFFFFFFFFFFFFFFFFFFFFFFFFFFFFFFFFFFF AND PUSH20 0xFFFFFFFFFFFFFFFFFFFFFFFFFFFFFFFFFFFFFFFF AND DUP2 MSTORE PUSH1 0x20 ADD SWAP1 DUP2 MSTORE PUSH1 0x20 ADD PUSH1 0x0 KECCAK256 PUSH1 0x0 SWAP1 SLOAD SWAP1 PUSH2 0x100 EXP SWAP1 DIV PUSH1 0xFF AND SWAP1 POP SWAP3 SWAP2 POP POP JUMP JUMPDEST DUP1 PUSH1 0x2D PUSH1 0x0 CALLER PUSH20 0xFFFFFFFFFFFFFFFFFFFFFFFFFFFFFFFFFFFFFFFF AND PUSH20 0xFFFFFFFFFFFFFFFFFFFFFFFFFFFFFFFFFFFFFFFF AND DUP2 MSTORE PUSH1 0x20 ADD SWAP1 DUP2 MSTORE PUSH1 0x20 ADD PUSH1 0x0 KECCAK256 PUSH1 0x0 DUP5 PUSH20 0xFFFFFFFFFFFFFFFFFFFFFFFFFFFFFFFFFFFFFFFF AND PUSH20 0xFFFFFFFFFFFFFFFFFFFFFFFFFFFFFFFFFFFFFFFF AND DUP2 MSTORE PUSH1 0x20 ADD SWAP1 DUP2 MSTORE PUSH1 0x20 ADD PUSH1 0x0 KECCAK256 PUSH1 0x0 PUSH2 0x100 EXP DUP2 SLOAD DUP2 PUSH1 0xFF MUL NOT AND SWAP1 DUP4 ISZERO ISZERO MUL OR SWAP1 SSTORE POP DUP2 PUSH20 0xFFFFFFFFFFFFFFFFFFFFFFFFFFFFFFFFFFFFFFFF AND CALLER PUSH20 0xFFFFFFFFFFFFFFFFFFFFFFFFFFFFFFFFFFFFFFFF AND PUSH32 0xC8DF66A7B22AF6C2076E2C0586BCA7548F9584B071221F363CDE24BDBD9E62F DUP4 PUSH1 0x40 MLOAD PUSH2 0x1BEE SWAP2 SWAP1 PUSH2 0x5156 JUMP JUMPDEST PUSH1 0x40 MLOAD DUP1 SWAP2 SUB SWAP1 LOG3 POP POP JUMP JUMPDEST PUSH2 0x1C02 PUSH2 0x4EE1 JUMP JUMPDEST PUSH1 0x2F PUSH1 0x0 DUP4 PUSH20 0xFFFFFFFFFFFFFFFFFFFFFFFFFFFFFFFFFFFFFFFF AND PUSH20 0xFFFFFFFFFFFFFFFFFFFFFFFFFFFFFFFFFFFFFFFF AND DUP2 MSTORE PUSH1 0x20 ADD SWAP1 DUP2 MSTORE PUSH1 0x20 ADD PUSH1 0x0 KECCAK256 PUSH1 0x40 MLOAD DUP1 PUSH1 0x80 ADD PUSH1 0x40 MSTORE SWAP1 DUP2 PUSH1 0x0 DUP3 ADD PUSH1 0x0 SWAP1 SLOAD SWAP1 PUSH2 0x100 EXP SWAP1 DIV PUSH4 0xFFFFFFFF AND PUSH4 0xFFFFFFFF AND PUSH4 0xFFFFFFFF AND DUP2 MSTORE PUSH1 0x20 ADD PUSH1 0x0 DUP3 ADD PUSH1 0x4 SWAP1 SLOAD SWAP1 PUSH2 0x100 EXP SWAP1 DIV PUSH4 0xFFFFFFFF AND PUSH4 0xFFFFFFFF AND PUSH4 0xFFFFFFFF AND DUP2 MSTORE PUSH1 0x20 ADD PUSH1 0x1 DUP3 ADD SLOAD DUP2 MSTORE PUSH1 0x20 ADD PUSH1 0x2 DUP3 ADD PUSH1 0x40 MLOAD DUP1 PUSH1 0x40 ADD PUSH1 0x40 MSTORE SWAP1 DUP2 PUSH1 0x0 DUP3 ADD PUSH1 0x0 SWAP1 SLOAD SWAP1 PUSH2 0x100 EXP SWAP1 DIV PUSH2 0xFFFF AND PUSH2 0xFFFF AND PUSH2 0xFFFF AND DUP2 MSTORE PUSH1 0x20 ADD PUSH1 0x0 DUP3 ADD PUSH1 0x2 SWAP1 SLOAD SWAP1 PUSH2 0x100 EXP SWAP1 DIV PUSH2 0xFFFF AND PUSH2 0xFFFF AND PUSH2 0xFFFF AND DUP2 MSTORE POP POP DUP2 MSTORE POP POP SWAP1 POP SWAP2 SWAP1 POP JUMP JUMPDEST PUSH2 0x1D06 CALLER PUSH2 0x4315 JUMP JUMPDEST PUSH2 0x1D45 JUMPI PUSH1 0x40 MLOAD PUSH32 0x8C379A000000000000000000000000000000000000000000000000000000000 DUP2 MSTORE PUSH1 0x4 ADD PUSH2 0x1D3C SWAP1 PUSH2 0x5F21 JUMP JUMPDEST PUSH1 0x40 MLOAD DUP1 SWAP2 SUB SWAP1 REVERT JUMPDEST PUSH1 0x28 PUSH1 0x1 PUSH1 0x28 DUP1 SLOAD SWAP1 POP PUSH2 0x1D59 SWAP2 SWAP1 PUSH2 0x5DD1 JUMP JUMPDEST DUP2 SLOAD DUP2 LT PUSH2 0x1D6A JUMPI PUSH2 0x1D69 PUSH2 0x5CB9 JUMP JUMPDEST JUMPDEST SWAP1 PUSH1 0x0 MSTORE PUSH1 0x20 PUSH1 0x0 KECCAK256 SWAP1 PUSH1 0x3 MUL ADD PUSH1 0x28 DUP3 DUP2 SLOAD DUP2 LT PUSH2 0x1D8C JUMPI PUSH2 0x1D8B PUSH2 0x5CB9 JUMP JUMPDEST JUMPDEST SWAP1 PUSH1 0x0 MSTORE PUSH1 0x20 PUSH1 0x0 KECCAK256 SWAP1 PUSH1 0x3 MUL ADD PUSH1 0x0 DUP3 ADD PUSH1 0x0 SWAP1 SLOAD SWAP1 PUSH2 0x100 EXP SWAP1 DIV PUSH4 0xFFFFFFFF AND DUP2 PUSH1 0x0 ADD PUSH1 0x0 PUSH2 0x100 EXP DUP2 SLOAD DUP2 PUSH4 0xFFFFFFFF MUL NOT AND SWAP1 DUP4 PUSH4 0xFFFFFFFF AND MUL OR SWAP1 SSTORE POP PUSH1 0x0 DUP3 ADD PUSH1 0x4 SWAP1 SLOAD SWAP1 PUSH2 0x100 EXP SWAP1 DIV PUSH4 0xFFFFFFFF AND DUP2 PUSH1 0x0 ADD PUSH1 0x4 PUSH2 0x100 EXP DUP2 SLOAD DUP2 PUSH4 0xFFFFFFFF MUL NOT AND SWAP1 DUP4 PUSH4 0xFFFFFFFF AND MUL OR SWAP1 SSTORE POP PUSH1 0x1 DUP3 ADD SLOAD DUP2 PUSH1 0x1 ADD SSTORE PUSH1 0x2 DUP3 ADD DUP2 PUSH1 0x2 ADD PUSH1 0x0 DUP3 ADD PUSH1 0x0 SWAP1 SLOAD SWAP1 PUSH2 0x100 EXP SWAP1 DIV PUSH2 0xFFFF AND DUP2 PUSH1 0x0 ADD PUSH1 0x0 PUSH2 0x100 EXP DUP2 SLOAD DUP2 PUSH2 0xFFFF MUL NOT AND SWAP1 DUP4 PUSH2 0xFFFF AND MUL OR SWAP1 SSTORE POP PUSH1 0x0 DUP3 ADD PUSH1 0x2 SWAP1 SLOAD SWAP1 PUSH2 0x100 EXP SWAP1 DIV PUSH2 0xFFFF AND DUP2 PUSH1 0x0 ADD PUSH1 0x2 PUSH2 0x100 EXP DUP2 SLOAD DUP2 PUSH2 0xFFFF MUL NOT AND SWAP1 DUP4 PUSH2 0xFFFF AND MUL OR SWAP1 SSTORE POP POP POP SWAP1 POP POP PUSH1 0x28 DUP1 SLOAD DUP1 PUSH2 0x1E93 JUMPI PUSH2 0x1E92 PUSH2 0x69B6 JUMP JUMPDEST JUMPDEST PUSH1 0x1 SWAP1 SUB DUP2 DUP2 SWAP1 PUSH1 0x0 MSTORE PUSH1 0x20 PUSH1 0x0 KECCAK256 SWAP1 PUSH1 0x3 MUL ADD PUSH1 0x0 DUP1 DUP3 ADD PUSH1 0x0 PUSH2 0x100 EXP DUP2 SLOAD SWAP1 PUSH4 0xFFFFFFFF MUL NOT AND SWAP1 SSTORE PUSH1 0x0 DUP3 ADD PUSH1 0x4 PUSH2 0x100 EXP DUP2 SLOAD SWAP1 PUSH4 0xFFFFFFFF MUL NOT AND SWAP1 SSTORE PUSH1 0x1 DUP3 ADD PUSH1 0x0 SWAP1 SSTORE PUSH1 0x2 DUP3 ADD PUSH1 0x0 DUP1 DUP3 ADD PUSH1 0x0 PUSH2 0x100 EXP DUP2 SLOAD SWAP1 PUSH2 0xFFFF MUL NOT AND SWAP1 SSTORE PUSH1 0x0 DUP3 ADD PUSH1 0x2 PUSH2 0x100 EXP DUP2 SLOAD SWAP1 PUSH2 0xFFFF MUL NOT AND SWAP1 SSTORE POP POP POP POP SWAP1 SSTORE POP JUMP JUMPDEST PUSH2 0x1F1F CALLER PUSH2 0x4315 JUMP JUMPDEST PUSH2 0x1F5E JUMPI PUSH1 0x40 MLOAD PUSH32 0x8C379A000000000000000000000000000000000000000000000000000000000 DUP2 MSTORE PUSH1 0x4 ADD PUSH2 0x1F55 SWAP1 PUSH2 0x5F21 JUMP JUMPDEST PUSH1 0x40 MLOAD DUP1 SWAP2 SUB SWAP1 REVERT JUMPDEST PUSH1 0x28 DUP2 SWAP1 DUP1 PUSH1 0x1 DUP2 SLOAD ADD DUP1 DUP3 SSTORE DUP1 SWAP2 POP POP PUSH1 0x1 SWAP1 SUB SWAP1 PUSH1 0x0 MSTORE PUSH1 0x20 PUSH1 0x0 KECCAK256 SWAP1 PUSH1 0x3 MUL ADD PUSH1 0x0 SWAP1 SWAP2 SWAP1 SWAP2 SWAP1 SWAP2 POP DUP2 DUP2 PUSH2 0x1F96 SWAP2 SWAP1 PUSH2 0x6BC3 JUMP JUMPDEST POP POP POP JUMP JUMPDEST PUSH1 0x0 PUSH1 0x2C PUSH1 0x0 DUP4 PUSH20 0xFFFFFFFFFFFFFFFFFFFFFFFFFFFFFFFFFFFFFFFF AND PUSH20 0xFFFFFFFFFFFFFFFFFFFFFFFFFFFFFFFFFFFFFFFF AND DUP2 MSTORE PUSH1 0x20 ADD SWAP1 DUP2 MSTORE PUSH1 0x20 ADD PUSH1 0x0 KECCAK256 SLOAD SWAP1 POP SWAP2 SWAP1 POP JUMP JUMPDEST PUSH2 0x1FED CALLER PUSH2 0x4315 JUMP JUMPDEST PUSH2 0x202C JUMPI PUSH1 0x40 MLOAD PUSH32 0x8C379A000000000000000000000000000000000000000000000000000000000 DUP2 MSTORE PUSH1 0x4 ADD PUSH2 0x2023 SWAP1 PUSH2 0x5F21 JUMP JUMPDEST PUSH1 0x40 MLOAD DUP1 SWAP2 SUB SWAP1 REVERT JUMPDEST DUP1 PUSH1 0x0 DUP2 DUP1 PUSH1 0x0 ADD SWAP1 PUSH2 0x203F SWAP2 SWAP1 PUSH2 0x5FE4 JUMP JUMPDEST SWAP1 POP GT PUSH2 0x2081 JUMPI PUSH1 0x40 MLOAD PUSH32 0x8C379A000000000000000000000000000000000000000000000000000000000 DUP2 MSTORE PUSH1 0x4 ADD PUSH2 0x2078 SWAP1 PUSH2 0x6C43 JUMP JUMPDEST PUSH1 0x40 MLOAD DUP1 SWAP2 SUB SWAP1 REVERT JUMPDEST PUSH1 0x0 DUP2 DUP1 PUSH1 0x20 ADD SWAP1 PUSH2 0x2093 SWAP2 SWAP1 PUSH2 0x6047 JUMP JUMPDEST SWAP1 POP GT PUSH2 0x20D5 JUMPI PUSH1 0x40 MLOAD PUSH32 0x8C379A000000000000000000000000000000000000000000000000000000000 DUP2 MSTORE PUSH1 0x4 ADD PUSH2 0x20CC SWAP1 PUSH2 0x6CD5 JUMP JUMPDEST PUSH1 0x40 MLOAD DUP1 SWAP2 SUB SWAP1 REVERT JUMPDEST PUSH1 0x0 DUP2 DUP1 PUSH1 0x40 ADD SWAP1 PUSH2 0x20E7 SWAP2 SWAP1 PUSH2 0x6047 JUMP JUMPDEST SWAP1 POP GT PUSH2 0x2129 JUMPI PUSH1 0x40 MLOAD PUSH32 0x8C379A000000000000000000000000000000000000000000000000000000000 DUP2 MSTORE PUSH1 0x4 ADD PUSH2 0x2120 SWAP1 PUSH2 0x6D67 JUMP JUMPDEST PUSH1 0x40 MLOAD DUP1 SWAP2 SUB SWAP1 REVERT JUMPDEST DUP1 DUP1 PUSH1 0x20 ADD SWAP1 PUSH2 0x2139 SWAP2 SWAP1 PUSH2 0x6047 JUMP JUMPDEST SWAP1 POP DUP2 DUP1 PUSH1 0x0 ADD SWAP1 PUSH2 0x214B SWAP2 SWAP1 PUSH2 0x5FE4 JUMP JUMPDEST SWAP1 POP EQ DUP1 ISZERO PUSH2 0x217B JUMPI POP DUP1 DUP1 PUSH1 0x40 ADD SWAP1 PUSH2 0x2165 SWAP2 SWAP1 PUSH2 0x6047 JUMP JUMPDEST SWAP1 POP DUP2 DUP1 PUSH1 0x20 ADD SWAP1 PUSH2 0x2177 SWAP2 SWAP1 PUSH2 0x6047 JUMP JUMPDEST SWAP1 POP EQ JUMPDEST PUSH2 0x21BA JUMPI PUSH1 0x40 MLOAD PUSH32 0x8C379A000000000000000000000000000000000000000000000000000000000 DUP2 MSTORE PUSH1 0x4 ADD PUSH2 0x21B1 SWAP1 PUSH2 0x6DF9 JUMP JUMPDEST PUSH1 0x40 MLOAD DUP1 SWAP2 SUB SWAP1 REVERT JUMPDEST PUSH1 0x0 DUP3 DUP1 PUSH1 0x0 ADD SWAP1 PUSH2 0x21CC SWAP2 SWAP1 PUSH2 0x5FE4 JUMP JUMPDEST SWAP1 POP GT DUP1 ISZERO PUSH2 0x21EC JUMPI POP PUSH1 0x0 DUP3 DUP1 PUSH1 0x20 ADD SWAP1 PUSH2 0x21E8 SWAP2 SWAP1 PUSH2 0x6047 JUMP JUMPDEST SWAP1 POP GT JUMPDEST DUP1 ISZERO PUSH2 0x2209 JUMPI POP PUSH1 0x0 DUP3 DUP1 PUSH1 0x40 ADD SWAP1 PUSH2 0x2205 SWAP2 SWAP1 PUSH2 0x6047 JUMP JUMPDEST SWAP1 POP GT JUMPDEST DUP1 ISZERO PUSH2 0x2236 JUMPI POP DUP2 DUP1 PUSH1 0x20 ADD SWAP1 PUSH2 0x2220 SWAP2 SWAP1 PUSH2 0x6047 JUMP JUMPDEST SWAP1 POP DUP3 DUP1 PUSH1 0x0 ADD SWAP1 PUSH2 0x2232 SWAP2 SWAP1 PUSH2 0x5FE4 JUMP JUMPDEST SWAP1 POP EQ JUMPDEST DUP1 ISZERO PUSH2 0x2263 JUMPI POP DUP2 DUP1 PUSH1 0x40 ADD SWAP1 PUSH2 0x224D SWAP2 SWAP1 PUSH2 0x6047 JUMP JUMPDEST SWAP1 POP DUP3 DUP1 PUSH1 0x20 ADD SWAP1 PUSH2 0x225F SWAP2 SWAP1 PUSH2 0x6047 JUMP JUMPDEST SWAP1 POP EQ JUMPDEST PUSH2 0x22A2 JUMPI PUSH1 0x40 MLOAD PUSH32 0x8C379A000000000000000000000000000000000000000000000000000000000 DUP2 MSTORE PUSH1 0x4 ADD PUSH2 0x2299 SWAP1 PUSH2 0x6168 JUMP JUMPDEST PUSH1 0x40 MLOAD DUP1 SWAP2 SUB SWAP1 REVERT JUMPDEST DUP2 PUSH1 0x4 DUP5 PUSH1 0xC DUP2 LT PUSH2 0x22B7 JUMPI PUSH2 0x22B6 PUSH2 0x5CB9 JUMP JUMPDEST JUMPDEST PUSH1 0x3 MUL ADD DUP2 DUP2 PUSH2 0x22C7 SWAP2 SWAP1 PUSH2 0x672F JUMP JUMPDEST SWAP1 POP POP POP POP POP JUMP JUMPDEST PUSH2 0x22D8 CALLER PUSH2 0x4315 JUMP JUMPDEST PUSH2 0x2317 JUMPI PUSH1 0x40 MLOAD PUSH32 0x8C379A000000000000000000000000000000000000000000000000000000000 DUP2 MSTORE PUSH1 0x4 ADD PUSH2 0x230E SWAP1 PUSH2 0x5F21 JUMP JUMPDEST PUSH1 0x40 MLOAD DUP1 SWAP2 SUB SWAP1 REVERT JUMPDEST DUP1 PUSH1 0x28 DUP4 DUP2 SLOAD DUP2 LT PUSH2 0x232C JUMPI PUSH2 0x232B PUSH2 0x5CB9 JUMP JUMPDEST JUMPDEST SWAP1 PUSH1 0x0 MSTORE PUSH1 0x20 PUSH1 0x0 KECCAK256 SWAP1 PUSH1 0x3 MUL ADD DUP2 DUP2 PUSH2 0x2346 SWAP2 SWAP1 PUSH2 0x6BC3 JUMP JUMPDEST SWAP1 POP POP POP POP JUMP JUMPDEST PUSH1 0x0 DUP2 PUSH1 0xC DUP2 LT PUSH2 0x2393 JUMPI PUSH1 0x40 MLOAD PUSH32 0x8C379A000000000000000000000000000000000000000000000000000000000 DUP2 MSTORE PUSH1 0x4 ADD PUSH2 0x238A SWAP1 PUSH2 0x5C99 JUMP JUMPDEST PUSH1 0x40 MLOAD DUP1 SWAP2 SUB SWAP1 REVERT JUMPDEST PUSH2 0x239D CALLER DUP5 PUSH2 0x436B JUMP JUMPDEST SWAP2 POP POP SWAP2 SWAP1 POP JUMP JUMPDEST PUSH1 0x29 PUSH1 0x0 SWAP1 SLOAD SWAP1 PUSH2 0x100 EXP SWAP1 DIV PUSH1 0xFF AND PUSH2 0x23F4 JUMPI PUSH1 0x40 MLOAD PUSH32 0x8C379A000000000000000000000000000000000000000000000000000000000 DUP2 MSTORE PUSH1 0x4 ADD PUSH2 0x23EB SWAP1 PUSH2 0x6E8B JUMP JUMPDEST PUSH1 0x40 MLOAD DUP1 SWAP2 SUB SWAP1 REVERT JUMPDEST PUSH1 0x0 PUSH1 0x2F PUSH1 0x0 CALLER PUSH20 0xFFFFFFFFFFFFFFFFFFFFFFFFFFFFFFFFFFFFFFFF AND PUSH20 0xFFFFFFFFFFFFFFFFFFFFFFFFFFFFFFFFFFFFFFFF AND DUP2 MSTORE PUSH1 0x20 ADD SWAP1 DUP2 MSTORE PUSH1 0x20 ADD PUSH1 0x0 KECCAK256 PUSH1 0x40 MLOAD DUP1 PUSH1 0x80 ADD PUSH1 0x40 MSTORE SWAP1 DUP2 PUSH1 0x0 DUP3 ADD PUSH1 0x0 SWAP1 SLOAD SWAP1 PUSH2 0x100 EXP SWAP1 DIV PUSH4 0xFFFFFFFF AND PUSH4 0xFFFFFFFF AND PUSH4 0xFFFFFFFF AND DUP2 MSTORE PUSH1 0x20 ADD PUSH1 0x0 DUP3 ADD PUSH1 0x4 SWAP1 SLOAD SWAP1 PUSH2 0x100 EXP SWAP1 DIV PUSH4 0xFFFFFFFF AND PUSH4 0xFFFFFFFF AND PUSH4 0xFFFFFFFF AND DUP2 MSTORE PUSH1 0x20 ADD PUSH1 0x1 DUP3 ADD SLOAD DUP2 MSTORE PUSH1 0x20 ADD PUSH1 0x2 DUP3 ADD PUSH1 0x40 MLOAD DUP1 PUSH1 0x40 ADD PUSH1 0x40 MSTORE SWAP1 DUP2 PUSH1 0x0 DUP3 ADD PUSH1 0x0 SWAP1 SLOAD SWAP1 PUSH2 0x100 EXP SWAP1 DIV PUSH2 0xFFFF AND PUSH2 0xFFFF AND PUSH2 0xFFFF AND DUP2 MSTORE PUSH1 0x20 ADD PUSH1 0x0 DUP3 ADD PUSH1 0x2 SWAP1 SLOAD SWAP1 PUSH2 0x100 EXP SWAP1 DIV PUSH2 0xFFFF AND PUSH2 0xFFFF AND PUSH2 0xFFFF AND DUP2 MSTORE POP POP DUP2 MSTORE POP POP SWAP1 POP PUSH1 0x0 DUP2 PUSH1 0x0 ADD MLOAD PUSH4 0xFFFFFFFF AND GT ISZERO PUSH2 0x255B JUMPI TIMESTAMP DUP2 PUSH1 0x20 ADD MLOAD DUP3 PUSH1 0x0 ADD MLOAD PUSH2 0x2514 SWAP2 SWAP1 PUSH2 0x6EAB JUMP JUMPDEST PUSH4 0xFFFFFFFF AND LT PUSH2 0x255A JUMPI PUSH1 0x40 MLOAD PUSH32 0x8C379A000000000000000000000000000000000000000000000000000000000 DUP2 MSTORE PUSH1 0x4 ADD PUSH2 0x2551 SWAP1 PUSH2 0x6F31 JUMP JUMPDEST PUSH1 0x40 MLOAD DUP1 SWAP2 SUB SWAP1 REVERT JUMPDEST JUMPDEST PUSH1 0x0 PUSH1 0x28 DUP4 DUP2 SLOAD DUP2 LT PUSH2 0x2571 JUMPI PUSH2 0x2570 PUSH2 0x5CB9 JUMP JUMPDEST JUMPDEST SWAP1 PUSH1 0x0 MSTORE PUSH1 0x20 PUSH1 0x0 KECCAK256 SWAP1 PUSH1 0x3 MUL ADD PUSH1 0x40 MLOAD DUP1 PUSH1 0x80 ADD PUSH1 0x40 MSTORE SWAP1 DUP2 PUSH1 0x0 DUP3 ADD PUSH1 0x0 SWAP1 SLOAD SWAP1 PUSH2 0x100 EXP SWAP1 DIV PUSH4 0xFFFFFFFF AND PUSH4 0xFFFFFFFF AND PUSH4 0xFFFFFFFF AND DUP2 MSTORE PUSH1 0x20 ADD PUSH1 0x0 DUP3 ADD PUSH1 0x4 SWAP1 SLOAD SWAP1 PUSH2 0x100 EXP SWAP1 DIV PUSH4 0xFFFFFFFF AND PUSH4 0xFFFFFFFF AND PUSH4 0xFFFFFFFF AND DUP2 MSTORE PUSH1 0x20 ADD PUSH1 0x1 DUP3 ADD SLOAD DUP2 MSTORE PUSH1 0x20 ADD PUSH1 0x2 DUP3 ADD PUSH1 0x40 MLOAD DUP1 PUSH1 0x40 ADD PUSH1 0x40 MSTORE SWAP1 DUP2 PUSH1 0x0 DUP3 ADD PUSH1 0x0 SWAP1 SLOAD SWAP1 PUSH2 0x100 EXP SWAP1 DIV PUSH2 0xFFFF AND PUSH2 0xFFFF AND PUSH2 0xFFFF AND DUP2 MSTORE PUSH1 0x20 ADD PUSH1 0x0 DUP3 ADD PUSH1 0x2 SWAP1 SLOAD SWAP1 PUSH2 0x100 EXP SWAP1 DIV PUSH2 0xFFFF AND PUSH2 0xFFFF AND PUSH2 0xFFFF AND DUP2 MSTORE POP POP DUP2 MSTORE POP POP SWAP1 POP DUP1 PUSH1 0x40 ADD MLOAD PUSH1 0x2C PUSH1 0x0 CALLER PUSH20 0xFFFFFFFFFFFFFFFFFFFFFFFFFFFFFFFFFFFFFFFF AND PUSH20 0xFFFFFFFFFFFFFFFFFFFFFFFFFFFFFFFFFFFFFFFF AND DUP2 MSTORE PUSH1 0x20 ADD SWAP1 DUP2 MSTORE PUSH1 0x20 ADD PUSH1 0x0 KECCAK256 SLOAD LT ISZERO PUSH2 0x26BC JUMPI PUSH1 0x40 MLOAD PUSH32 0x8C379A000000000000000000000000000000000000000000000000000000000 DUP2 MSTORE PUSH1 0x4 ADD PUSH2 0x26B3 SWAP1 PUSH2 0x6FC3 JUMP JUMPDEST PUSH1 0x40 MLOAD DUP1 SWAP2 SUB SWAP1 REVERT JUMPDEST DUP1 PUSH1 0x40 ADD MLOAD PUSH1 0x2C PUSH1 0x0 CALLER PUSH20 0xFFFFFFFFFFFFFFFFFFFFFFFFFFFFFFFFFFFFFFFF AND PUSH20 0xFFFFFFFFFFFFFFFFFFFFFFFFFFFFFFFFFFFFFFFF AND DUP2 MSTORE PUSH1 0x20 ADD SWAP1 DUP2 MSTORE PUSH1 0x20 ADD PUSH1 0x0 KECCAK256 PUSH1 0x0 DUP3 DUP3 SLOAD SUB SWAP3 POP POP DUP2 SWAP1 SSTORE POP PUSH1 0x0 DUP2 SWAP1 POP TIMESTAMP DUP2 PUSH1 0x0 ADD SWAP1 PUSH4 0xFFFFFFFF AND SWAP1 DUP2 PUSH4 0xFFFFFFFF AND DUP2 MSTORE POP POP DUP1 PUSH1 0x2F PUSH1 0x0 CALLER PUSH20 0xFFFFFFFFFFFFFFFFFFFFFFFFFFFFFFFFFFFFFFFF AND PUSH20 0xFFFFFFFFFFFFFFFFFFFFFFFFFFFFFFFFFFFFFFFF AND DUP2 MSTORE PUSH1 0x20 ADD SWAP1 DUP2 MSTORE PUSH1 0x20 ADD PUSH1 0x0 KECCAK256 PUSH1 0x0 DUP3 ADD MLOAD DUP2 PUSH1 0x0 ADD PUSH1 0x0 PUSH2 0x100 EXP DUP2 SLOAD DUP2 PUSH4 0xFFFFFFFF MUL NOT AND SWAP1 DUP4 PUSH4 0xFFFFFFFF AND MUL OR SWAP1 SSTORE POP PUSH1 0x20 DUP3 ADD MLOAD DUP2 PUSH1 0x0 ADD PUSH1 0x4 PUSH2 0x100 EXP DUP2 SLOAD DUP2 PUSH4 0xFFFFFFFF MUL NOT AND SWAP1 DUP4 PUSH4 0xFFFFFFFF AND MUL OR SWAP1 SSTORE POP PUSH1 0x40 DUP3 ADD MLOAD DUP2 PUSH1 0x1 ADD SSTORE PUSH1 0x60 DUP3 ADD MLOAD DUP2 PUSH1 0x2 ADD PUSH1 0x0 DUP3 ADD MLOAD DUP2 PUSH1 0x0 ADD PUSH1 0x0 PUSH2 0x100 EXP DUP2 SLOAD DUP2 PUSH2 0xFFFF MUL NOT AND SWAP1 DUP4 PUSH2 0xFFFF AND MUL OR SWAP1 SSTORE POP PUSH1 0x20 DUP3 ADD MLOAD DUP2 PUSH1 0x0 ADD PUSH1 0x2 PUSH2 0x100 EXP DUP2 SLOAD DUP2 PUSH2 0xFFFF MUL NOT AND SWAP1 DUP4 PUSH2 0xFFFF AND MUL OR SWAP1 SSTORE POP POP POP SWAP1 POP POP POP POP POP POP JUMP JUMPDEST PUSH2 0x2824 PUSH2 0x4F1B JUMP JUMPDEST PUSH1 0x4 DUP3 PUSH1 0xC DUP2 LT PUSH2 0x2838 JUMPI PUSH2 0x2837 PUSH2 0x5CB9 JUMP JUMPDEST JUMPDEST PUSH1 0x3 MUL ADD PUSH1 0x40 MLOAD DUP1 PUSH1 0x60 ADD PUSH1 0x40 MSTORE SWAP1 DUP2 PUSH1 0x0 DUP3 ADD DUP1 SLOAD DUP1 PUSH1 0x20 MUL PUSH1 0x20 ADD PUSH1 0x40 MLOAD SWAP1 DUP2 ADD PUSH1 0x40 MSTORE DUP1 SWAP3 SWAP2 SWAP1 DUP2 DUP2 MSTORE PUSH1 0x20 ADD DUP3 DUP1 SLOAD DUP1 ISZERO PUSH2 0x2896 JUMPI PUSH1 0x20 MUL DUP3 ADD SWAP2 SWAP1 PUSH1 0x0 MSTORE PUSH1 0x20 PUSH1 0x0 KECCAK256 SWAP1 JUMPDEST DUP2 SLOAD DUP2 MSTORE PUSH1 0x20 ADD SWAP1 PUSH1 0x1 ADD SWAP1 DUP1 DUP4 GT PUSH2 0x2882 JUMPI JUMPDEST POP POP POP POP POP DUP2 MSTORE PUSH1 0x20 ADD PUSH1 0x1 DUP3 ADD DUP1 SLOAD DUP1 PUSH1 0x20 MUL PUSH1 0x20 ADD PUSH1 0x40 MLOAD SWAP1 DUP2 ADD PUSH1 0x40 MSTORE DUP1 SWAP3 SWAP2 SWAP1 DUP2 DUP2 MSTORE PUSH1 0x20 ADD PUSH1 0x0 SWAP1 JUMPDEST DUP3 DUP3 LT ISZERO PUSH2 0x2932 JUMPI DUP4 DUP3 SWAP1 PUSH1 0x0 MSTORE PUSH1 0x20 PUSH1 0x0 KECCAK256 ADD PUSH1 0x40 MLOAD DUP1 PUSH1 0x40 ADD PUSH1 0x40 MSTORE SWAP1 DUP2 PUSH1 0x0 DUP3 ADD PUSH1 0x0 SWAP1 SLOAD SWAP1 PUSH2 0x100 EXP SWAP1 DIV PUSH2 0xFFFF AND PUSH2 0xFFFF AND PUSH2 0xFFFF AND DUP2 MSTORE PUSH1 0x20 ADD PUSH1 0x0 DUP3 ADD PUSH1 0x2 SWAP1 SLOAD SWAP1 PUSH2 0x100 EXP SWAP1 DIV PUSH2 0xFFFF AND PUSH2 0xFFFF AND PUSH2 0xFFFF AND DUP2 MSTORE POP POP DUP2 MSTORE PUSH1 0x20 ADD SWAP1 PUSH1 0x1 ADD SWAP1 PUSH2 0x28C4 JUMP JUMPDEST POP POP POP POP DUP2 MSTORE PUSH1 0x20 ADD PUSH1 0x2 DUP3 ADD DUP1 SLOAD DUP1 PUSH1 0x20 MUL PUSH1 0x20 ADD PUSH1 0x40 MLOAD SWAP1 DUP2 ADD PUSH1 0x40 MSTORE DUP1 SWAP3 SWAP2 SWAP1 DUP2 DUP2 MSTORE PUSH1 0x20 ADD PUSH1 0x0 SWAP1 JUMPDEST DUP3 DUP3 LT ISZERO PUSH2 0x29CD JUMPI DUP4 DUP3 SWAP1 PUSH1 0x0 MSTORE PUSH1 0x20 PUSH1 0x0 KECCAK256 ADD PUSH1 0x40 MLOAD DUP1 PUSH1 0x40 ADD PUSH1 0x40 MSTORE SWAP1 DUP2 PUSH1 0x0 DUP3 ADD PUSH1 0x0 SWAP1 SLOAD SWAP1 PUSH2 0x100 EXP SWAP1 DIV PUSH2 0xFFFF AND PUSH2 0xFFFF AND PUSH2 0xFFFF AND DUP2 MSTORE PUSH1 0x20 ADD PUSH1 0x0 DUP3 ADD PUSH1 0x2 SWAP1 SLOAD SWAP1 PUSH2 0x100 EXP SWAP1 DIV PUSH2 0xFFFF AND PUSH2 0xFFFF AND PUSH2 0xFFFF AND DUP2 MSTORE POP POP DUP2 MSTORE PUSH1 0x20 ADD SWAP1 PUSH1 0x1 ADD SWAP1 PUSH2 0x295F JUMP JUMPDEST POP POP POP POP DUP2 MSTORE POP POP SWAP1 POP SWAP2 SWAP1 POP JUMP JUMPDEST DUP1 PUSH1 0x30 PUSH1 0x0 CALLER PUSH20 0xFFFFFFFFFFFFFFFFFFFFFFFFFFFFFFFFFFFFFFFF AND PUSH20 0xFFFFFFFFFFFFFFFFFFFFFFFFFFFFFFFFFFFFFFFF AND DUP2 MSTORE PUSH1 0x20 ADD SWAP1 DUP2 MSTORE PUSH1 0x20 ADD PUSH1 0x0 KECCAK256 PUSH1 0x0 PUSH2 0x100 EXP DUP2 SLOAD DUP2 PUSH20 0xFFFFFFFFFFFFFFFFFFFFFFFFFFFFFFFFFFFFFFFF MUL NOT AND SWAP1 DUP4 PUSH20 0xFFFFFFFFFFFFFFFFFFFFFFFFFFFFFFFFFFFFFFFF AND MUL OR SWAP1 SSTORE POP PUSH2 0x2A63 DUP3 PUSH2 0x4C07 JUMP JUMPDEST POP POP JUMP JUMPDEST PUSH1 0x0 DUP1 PUSH2 0x2710 SWAP1 POP PUSH1 0x0 PUSH3 0x15180 PUSH1 0x64 DUP4 DUP8 PUSH2 0x2A83 SWAP2 SWAP1 PUSH2 0x5D17 JUMP JUMPDEST PUSH2 0x2A8D SWAP2 SWAP1 PUSH2 0x5D17 JUMP JUMPDEST PUSH2 0x2A97 SWAP2 SWAP1 PUSH2 0x5DA0 JUMP JUMPDEST SWAP1 POP PUSH1 0x0 DUP5 PUSH1 0x20 ADD MLOAD PUSH2 0xFFFF AND DUP6 PUSH1 0x0 ADD MLOAD PUSH2 0xFFFF AND DUP5 DUP10 PUSH2 0x2AB9 SWAP2 SWAP1 PUSH2 0x5D17 JUMP JUMPDEST PUSH2 0x2AC3 SWAP2 SWAP1 PUSH2 0x5D17 JUMP JUMPDEST PUSH2 0x2ACD SWAP2 SWAP1 PUSH2 0x5DA0 JUMP JUMPDEST SWAP1 POP DUP3 DUP4 PUSH1 0x64 DUP5 DUP5 PUSH2 0x2ADF SWAP2 SWAP1 PUSH2 0x5D17 JUMP JUMPDEST PUSH2 0x2AE9 SWAP2 SWAP1 PUSH2 0x5DA0 JUMP JUMPDEST PUSH2 0x2AF3 SWAP2 SWAP1 PUSH2 0x5DA0 JUMP JUMPDEST PUSH2 0x2AFD SWAP2 SWAP1 PUSH2 0x5DA0 JUMP JUMPDEST SWAP4 POP POP POP POP SWAP4 SWAP3 POP POP POP JUMP JUMPDEST PUSH2 0x2B12 CALLER PUSH2 0x4315 JUMP JUMPDEST PUSH2 0x2B51 JUMPI PUSH1 0x40 MLOAD PUSH32 0x8C379A000000000000000000000000000000000000000000000000000000000 DUP2 MSTORE PUSH1 0x4 ADD PUSH2 0x2B48 SWAP1 PUSH2 0x5F21 JUMP JUMPDEST PUSH1 0x40 MLOAD DUP1 SWAP2 SUB SWAP1 REVERT JUMPDEST PUSH11 0x84595161401484A000000 DUP2 LT PUSH2 0x2B9E JUMPI PUSH1 0x40 MLOAD PUSH32 0x8C379A000000000000000000000000000000000000000000000000000000000 DUP2 MSTORE PUSH1 0x4 ADD PUSH2 0x2B95 SWAP1 PUSH2 0x7055 JUMP JUMPDEST PUSH1 0x40 MLOAD DUP1 SWAP2 SUB SWAP1 REVERT JUMPDEST DUP1 PUSH1 0x2A DUP2 SWAP1 SSTORE POP POP JUMP JUMPDEST PUSH1 0x60 PUSH1 0x40 MLOAD DUP1 PUSH1 0x40 ADD PUSH1 0x40 MSTORE DUP1 PUSH1 0x5 DUP2 MSTORE PUSH1 0x20 ADD PUSH32 0x464255434B000000000000000000000000000000000000000000000000000000 DUP2 MSTORE POP SWAP1 POP SWAP1 JUMP JUMPDEST PUSH2 0x2BED PUSH2 0x4F3C JUMP JUMPDEST PUSH2 0x2BF7 CALLER DUP4 PUSH2 0x3513 JUMP JUMPDEST SWAP1 POP SWAP2 SWAP1 POP JUMP JUMPDEST PUSH1 0x0 PUSH1 0x31 PUSH1 0x0 SWAP1 SLOAD SWAP1 PUSH2 0x100 EXP SWAP1 DIV PUSH1 0xFF AND DUP1 PUSH2 0x2C66 JUMPI POP PUSH1 0x0 DUP1 SLOAD SWAP1 PUSH2 0x100 EXP SWAP1 DIV PUSH20 0xFFFFFFFFFFFFFFFFFFFFFFFFFFFFFFFFFFFFFFFF AND PUSH20 0xFFFFFFFFFFFFFFFFFFFFFFFFFFFFFFFFFFFFFFFF AND CALLER PUSH20 0xFFFFFFFFFFFFFFFFFFFFFFFFFFFFFFFFFFFFFFFF AND EQ JUMPDEST PUSH2 0x2CA5 JUMPI PUSH1 0x40 MLOAD PUSH32 0x8C379A000000000000000000000000000000000000000000000000000000000 DUP2 MSTORE PUSH1 0x4 ADD PUSH2 0x2C9C SWAP1 PUSH2 0x6864 JUMP JUMPDEST PUSH1 0x40 MLOAD DUP1 SWAP2 SUB SWAP1 REVERT JUMPDEST PUSH2 0x2CB0 CALLER DUP5 DUP5 PUSH2 0x46D0 JUMP JUMPDEST PUSH1 0x1 SWAP1 POP SWAP3 SWAP2 POP POP JUMP JUMPDEST DUP1 PUSH1 0xC DUP2 LT PUSH2 0x2CFE JUMPI PUSH1 0x40 MLOAD PUSH32 0x8C379A000000000000000000000000000000000000000000000000000000000 DUP2 MSTORE PUSH1 0x4 ADD PUSH2 0x2CF5 SWAP1 PUSH2 0x5C99 JUMP JUMPDEST PUSH1 0x40 MLOAD DUP1 SWAP2 SUB SWAP1 REVERT JUMPDEST PUSH1 0x0 PUSH2 0x2D09 DUP4 PUSH2 0x234D JUMP JUMPDEST SWAP1 POP PUSH2 0x2D18 DUP4 CALLER DUP4 PUSH1 0x1 PUSH2 0x4978 JUMP JUMPDEST DUP3 CALLER PUSH20 0xFFFFFFFFFFFFFFFFFFFFFFFFFFFFFFFFFFFFFFFF AND PUSH32 0x820CEA42E8517CF1EC6D4E9DB93909255F07C45F7EB0A7C7B5A0F8BDCFC2E5BF DUP4 PUSH1 0x40 MLOAD PUSH2 0x2D5F SWAP2 SWAP1 PUSH2 0x52BC JUMP JUMPDEST PUSH1 0x40 MLOAD DUP1 SWAP2 SUB SWAP1 LOG3 POP POP POP JUMP JUMPDEST DUP1 PUSH1 0xC DUP2 LT PUSH2 0x2DB0 JUMPI PUSH1 0x40 MLOAD PUSH32 0x8C379A000000000000000000000000000000000000000000000000000000000 DUP2 MSTORE PUSH1 0x4 ADD PUSH2 0x2DA7 SWAP1 PUSH2 0x5C99 JUMP JUMPDEST PUSH1 0x40 MLOAD DUP1 SWAP2 SUB SWAP1 REVERT JUMPDEST PUSH2 0x2DBA DUP4 CALLER PUSH2 0x1A69 JUMP JUMPDEST PUSH2 0x2DC3 JUMPI PUSH1 0x0 DUP1 REVERT JUMPDEST PUSH1 0x0 PUSH2 0x2DCF DUP5 DUP5 PUSH2 0x436B JUMP JUMPDEST SWAP1 POP PUSH1 0x0 PUSH1 0x2E PUSH1 0x0 DUP7 PUSH20 0xFFFFFFFFFFFFFFFFFFFFFFFFFFFFFFFFFFFFFFFF AND PUSH20 0xFFFFFFFFFFFFFFFFFFFFFFFFFFFFFFFFFFFFFFFF AND DUP2 MSTORE PUSH1 0x20 ADD SWAP1 DUP2 MSTORE PUSH1 0x20 ADD PUSH1 0x0 KECCAK256 DUP5 PUSH1 0xC DUP2 LT PUSH2 0x2E24 JUMPI PUSH2 0x2E23 PUSH2 0x5CB9 JUMP JUMPDEST JUMPDEST PUSH1 0x4 MUL ADD PUSH1 0x40 MLOAD DUP1 PUSH1 0xA0 ADD PUSH1 0x40 MSTORE SWAP1 DUP2 PUSH1 0x0 DUP3 ADD PUSH1 0x0 SWAP1 SLOAD SWAP1 PUSH2 0x100 EXP SWAP1 DIV PUSH3 0xFFFFFF AND PUSH3 0xFFFFFF AND PUSH3 0xFFFFFF AND DUP2 MSTORE PUSH1 0x20 ADD PUSH1 0x0 DUP3 ADD PUSH1 0x3 SWAP1 SLOAD SWAP1 PUSH2 0x100 EXP SWAP1 DIV PUSH4 0xFFFFFFFF AND PUSH4 0xFFFFFFFF AND PUSH4 0xFFFFFFFF AND DUP2 MSTORE PUSH1 0x20 ADD PUSH1 0x1 DUP3 ADD SLOAD DUP2 MSTORE PUSH1 0x20 ADD PUSH1 0x2 DUP3 ADD SLOAD DUP2 MSTORE PUSH1 0x20 ADD PUSH1 0x3 DUP3 ADD SLOAD DUP2 MSTORE POP POP SWAP1 POP DUP2 PUSH1 0x2C PUSH1 0x0 DUP8 PUSH20 0xFFFFFFFFFFFFFFFFFFFFFFFFFFFFFFFFFFFFFFFF AND PUSH20 0xFFFFFFFFFFFFFFFFFFFFFFFFFFFFFFFFFFFFFFFF AND DUP2 MSTORE PUSH1 0x20 ADD SWAP1 DUP2 MSTORE PUSH1 0x20 ADD PUSH1 0x0 KECCAK256 PUSH1 0x0 DUP3 DUP3 SLOAD ADD SWAP3 POP POP DUP2 SWAP1 SSTORE POP DUP2 DUP2 PUSH1 0x60 ADD DUP2 DUP2 MLOAD PUSH2 0x2EFB SWAP2 SWAP1 PUSH2 0x5E7F JUMP JUMPDEST SWAP2 POP DUP2 DUP2 MSTORE POP POP TIMESTAMP DUP2 PUSH1 0x20 ADD SWAP1 PUSH4 0xFFFFFFFF AND SWAP1 DUP2 PUSH4 0xFFFFFFFF AND DUP2 MSTORE POP POP DUP1 PUSH1 0x2E PUSH1 0x0 DUP8 PUSH20 0xFFFFFFFFFFFFFFFFFFFFFFFFFFFFFFFFFFFFFFFF AND PUSH20 0xFFFFFFFFFFFFFFFFFFFFFFFFFFFFFFFFFFFFFFFF AND DUP2 MSTORE PUSH1 0x20 ADD SWAP1 DUP2 MSTORE PUSH1 0x20 ADD PUSH1 0x0 KECCAK256 DUP6 PUSH1 0xC DUP2 LT PUSH2 0x2F6C JUMPI PUSH2 0x2F6B PUSH2 0x5CB9 JUMP JUMPDEST JUMPDEST PUSH1 0x4 MUL ADD PUSH1 0x0 DUP3 ADD MLOAD DUP2 PUSH1 0x0 ADD PUSH1 0x0 PUSH2 0x100 EXP DUP2 SLOAD DUP2 PUSH3 0xFFFFFF MUL NOT AND SWAP1 DUP4 PUSH3 0xFFFFFF AND MUL OR SWAP1 SSTORE POP PUSH1 0x20 DUP3 ADD MLOAD DUP2 PUSH1 0x0 ADD PUSH1 0x3 PUSH2 0x100 EXP DUP2 SLOAD DUP2 PUSH4 0xFFFFFFFF MUL NOT AND SWAP1 DUP4 PUSH4 0xFFFFFFFF AND MUL OR SWAP1 SSTORE POP PUSH1 0x40 DUP3 ADD MLOAD DUP2 PUSH1 0x1 ADD SSTORE PUSH1 0x60 DUP3 ADD MLOAD DUP2 PUSH1 0x2 ADD SSTORE PUSH1 0x80 DUP3 ADD MLOAD DUP2 PUSH1 0x3 ADD SSTORE SWAP1 POP POP DUP4 DUP6 PUSH20 0xFFFFFFFFFFFFFFFFFFFFFFFFFFFFFFFFFFFFFFFF AND PUSH32 0xD4C220A036E494DC8D9E171D2A06A37F490EC132E69A1FF788E87D75BA686568 DUP5 PUSH1 0x40 MLOAD PUSH2 0x3024 SWAP2 SWAP1 PUSH2 0x52BC JUMP JUMPDEST PUSH1 0x40 MLOAD DUP1 SWAP2 SUB SWAP1 LOG3 POP POP POP POP POP JUMP JUMPDEST PUSH2 0x303C CALLER PUSH2 0x4315 JUMP JUMPDEST PUSH2 0x307B JUMPI PUSH1 0x40 MLOAD PUSH32 0x8C379A000000000000000000000000000000000000000000000000000000000 DUP2 MSTORE PUSH1 0x4 ADD PUSH2 0x3072 SWAP1 PUSH2 0x5F21 JUMP JUMPDEST PUSH1 0x40 MLOAD DUP1 SWAP2 SUB SWAP1 REVERT JUMPDEST DUP1 PUSH1 0x31 PUSH1 0x0 PUSH2 0x100 EXP DUP2 SLOAD DUP2 PUSH1 0xFF MUL NOT AND SWAP1 DUP4 ISZERO ISZERO MUL OR SWAP1 SSTORE POP POP JUMP JUMPDEST PUSH2 0x30A1 CALLER PUSH2 0x15C0 JUMP JUMPDEST PUSH2 0x30E0 JUMPI PUSH1 0x40 MLOAD PUSH32 0x8C379A000000000000000000000000000000000000000000000000000000000 DUP2 MSTORE PUSH1 0x4 ADD PUSH2 0x30D7 SWAP1 PUSH2 0x70C1 JUMP JUMPDEST PUSH1 0x40 MLOAD DUP1 SWAP2 SUB SWAP1 REVERT JUMPDEST PUSH1 0x1 DUP1 PUSH1 0x0 DUP4 PUSH20 0xFFFFFFFFFFFFFFFFFFFFFFFFFFFFFFFFFFFFFFFF AND PUSH20 0xFFFFFFFFFFFFFFFFFFFFFFFFFFFFFFFFFFFFFFFF AND DUP2 MSTORE PUSH1 0x20 ADD SWAP1 DUP2 MSTORE PUSH1 0x20 ADD PUSH1 0x0 KECCAK256 PUSH1 0x0 PUSH2 0x100 EXP DUP2 SLOAD DUP2 PUSH1 0xFF MUL NOT AND SWAP1 DUP4 ISZERO ISZERO MUL OR SWAP1 SSTORE POP POP JUMP JUMPDEST PUSH2 0x3143 DUP2 PUSH2 0x4C07 JUMP JUMPDEST POP JUMP JUMPDEST DUP1 PUSH1 0xC DUP2 LT PUSH2 0x318A JUMPI PUSH1 0x40 MLOAD PUSH32 0x8C379A000000000000000000000000000000000000000000000000000000000 DUP2 MSTORE PUSH1 0x4 ADD PUSH2 0x3181 SWAP1 PUSH2 0x5C99 JUMP JUMPDEST PUSH1 0x40 MLOAD DUP1 SWAP2 SUB SWAP1 REVERT JUMPDEST PUSH1 0x0 PUSH2 0x3197 DUP4 PUSH1 0x0 PUSH2 0x124E JUMP JUMPDEST SWAP1 POP DUP1 PUSH1 0x2C PUSH1 0x0 CALLER PUSH20 0xFFFFFFFFFFFFFFFFFFFFFFFFFFFFFFFFFFFFFFFF AND PUSH20 0xFFFFFFFFFFFFFFFFFFFFFFFFFFFFFFFFFFFFFFFF AND DUP2 MSTORE PUSH1 0x20 ADD SWAP1 DUP2 MSTORE PUSH1 0x20 ADD PUSH1 0x0 KECCAK256 SLOAD LT ISZERO PUSH2 0x321B JUMPI PUSH1 0x40 MLOAD PUSH32 0x8C379A000000000000000000000000000000000000000000000000000000000 DUP2 MSTORE PUSH1 0x4 ADD PUSH2 0x3212 SWAP1 PUSH2 0x712D JUMP JUMPDEST PUSH1 0x40 MLOAD DUP1 SWAP2 SUB SWAP1 REVERT JUMPDEST PUSH1 0x0 PUSH1 0x2E PUSH1 0x0 CALLER PUSH20 0xFFFFFFFFFFFFFFFFFFFFFFFFFFFFFFFFFFFFFFFF AND PUSH20 0xFFFFFFFFFFFFFFFFFFFFFFFFFFFFFFFFFFFFFFFF AND DUP2 MSTORE PUSH1 0x20 ADD SWAP1 DUP2 MSTORE PUSH1 0x20 ADD PUSH1 0x0 KECCAK256 DUP5 PUSH1 0xC DUP2 LT PUSH2 0x326E JUMPI PUSH2 0x326D PUSH2 0x5CB9 JUMP JUMPDEST JUMPDEST PUSH1 0x4 MUL ADD PUSH1 0x40 MLOAD DUP1 PUSH1 0xA0 ADD PUSH1 0x40 MSTORE SWAP1 DUP2 PUSH1 0x0 DUP3 ADD PUSH1 0x0 SWAP1 SLOAD SWAP1 PUSH2 0x100 EXP SWAP1 DIV PUSH3 0xFFFFFF AND PUSH3 0xFFFFFF AND PUSH3 0xFFFFFF AND DUP2 MSTORE PUSH1 0x20 ADD PUSH1 0x0 DUP3 ADD PUSH1 0x3 SWAP1 SLOAD SWAP1 PUSH2 0x100 EXP SWAP1 DIV PUSH4 0xFFFFFFFF AND PUSH4 0xFFFFFFFF AND PUSH4 0xFFFFFFFF AND DUP2 MSTORE PUSH1 0x20 ADD PUSH1 0x1 DUP3 ADD SLOAD DUP2 MSTORE PUSH1 0x20 ADD PUSH1 0x2 DUP3 ADD SLOAD DUP2 MSTORE PUSH1 0x20 ADD PUSH1 0x3 DUP3 ADD SLOAD DUP2 MSTORE POP POP SWAP1 POP PUSH1 0x0 DUP2 PUSH1 0x0 ADD MLOAD PUSH3 0xFFFFFF AND EQ PUSH2 0x3332 JUMPI PUSH1 0x40 MLOAD PUSH32 0x8C379A000000000000000000000000000000000000000000000000000000000 DUP2 MSTORE PUSH1 0x4 ADD PUSH2 0x3329 SWAP1 PUSH2 0x71BF JUMP JUMPDEST PUSH1 0x40 MLOAD DUP1 SWAP2 SUB SWAP1 REVERT JUMPDEST DUP2 PUSH1 0x2C PUSH1 0x0 CALLER PUSH20 0xFFFFFFFFFFFFFFFFFFFFFFFFFFFFFFFFFFFFFFFF AND PUSH20 0xFFFFFFFFFFFFFFFFFFFFFFFFFFFFFFFFFFFFFFFF AND DUP2 MSTORE PUSH1 0x20 ADD SWAP1 DUP2 MSTORE PUSH1 0x20 ADD PUSH1 0x0 KECCAK256 PUSH1 0x0 DUP3 DUP3 SLOAD SUB SWAP3 POP POP DUP2 SWAP1 SSTORE POP PUSH1 0x1 PUSH1 0x2E PUSH1 0x0 CALLER PUSH20 0xFFFFFFFFFFFFFFFFFFFFFFFFFFFFFFFFFFFFFFFF AND PUSH20 0xFFFFFFFFFFFFFFFFFFFFFFFFFFFFFFFFFFFFFFFF AND DUP2 MSTORE PUSH1 0x20 ADD SWAP1 DUP2 MSTORE PUSH1 0x20 ADD PUSH1 0x0 KECCAK256 DUP6 PUSH1 0xC DUP2 LT PUSH2 0x33D2 JUMPI PUSH2 0x33D1 PUSH2 0x5CB9 JUMP JUMPDEST JUMPDEST PUSH1 0x4 MUL ADD PUSH1 0x0 ADD PUSH1 0x0 PUSH2 0x100 EXP DUP2 SLOAD DUP2 PUSH3 0xFFFFFF MUL NOT AND SWAP1 DUP4 PUSH3 0xFFFFFF AND MUL OR SWAP1 SSTORE POP DUP2 PUSH1 0x2E PUSH1 0x0 CALLER PUSH20 0xFFFFFFFFFFFFFFFFFFFFFFFFFFFFFFFFFFFFFFFF AND PUSH20 0xFFFFFFFFFFFFFFFFFFFFFFFFFFFFFFFFFFFFFFFF AND DUP2 MSTORE PUSH1 0x20 ADD SWAP1 DUP2 MSTORE PUSH1 0x20 ADD PUSH1 0x0 KECCAK256 DUP6 PUSH1 0xC DUP2 LT PUSH2 0x3447 JUMPI PUSH2 0x3446 PUSH2 0x5CB9 JUMP JUMPDEST JUMPDEST PUSH1 0x4 MUL ADD PUSH1 0x1 ADD DUP2 SWAP1 SSTORE POP TIMESTAMP PUSH1 0x2E PUSH1 0x0 CALLER PUSH20 0xFFFFFFFFFFFFFFFFFFFFFFFFFFFFFFFFFFFFFFFF AND PUSH20 0xFFFFFFFFFFFFFFFFFFFFFFFFFFFFFFFFFFFFFFFF AND DUP2 MSTORE PUSH1 0x20 ADD SWAP1 DUP2 MSTORE PUSH1 0x20 ADD PUSH1 0x0 KECCAK256 DUP6 PUSH1 0xC DUP2 LT PUSH2 0x34A4 JUMPI PUSH2 0x34A3 PUSH2 0x5CB9 JUMP JUMPDEST JUMPDEST PUSH1 0x4 MUL ADD PUSH1 0x0 ADD PUSH1 0x3 PUSH2 0x100 EXP DUP2 SLOAD DUP2 PUSH4 0xFFFFFFFF MUL NOT AND SWAP1 DUP4 PUSH4 0xFFFFFFFF AND MUL OR SWAP1 SSTORE POP DUP4 CALLER PUSH20 0xFFFFFFFFFFFFFFFFFFFFFFFFFFFFFFFFFFFFFFFF AND PUSH32 0xBFEC54DEF49903F34CA9CF2128A54145E70AB76A425316FAD737A5901CF820D4 PUSH1 0x40 MLOAD PUSH1 0x40 MLOAD DUP1 SWAP2 SUB SWAP1 LOG3 POP POP POP POP JUMP JUMPDEST PUSH2 0x351B PUSH2 0x4F3C JUMP JUMPDEST DUP2 PUSH1 0xC DUP2 LT PUSH2 0x355F JUMPI PUSH1 0x40 MLOAD PUSH32 0x8C379A000000000000000000000000000000000000000000000000000000000 DUP2 MSTORE PUSH1 0x4 ADD PUSH2 0x3556 SWAP1 PUSH2 0x5C99 JUMP JUMPDEST PUSH1 0x40 MLOAD DUP1 SWAP2 SUB SWAP1 REVERT JUMPDEST PUSH1 0x2E PUSH1 0x0 DUP6 PUSH20 0xFFFFFFFFFFFFFFFFFFFFFFFFFFFFFFFFFFFFFFFF AND PUSH20 0xFFFFFFFFFFFFFFFFFFFFFFFFFFFFFFFFFFFFFFFF AND DUP2 MSTORE PUSH1 0x20 ADD SWAP1 DUP2 MSTORE PUSH1 0x20 ADD PUSH1 0x0 KECCAK256 DUP4 PUSH1 0xC DUP2 LT PUSH2 0x35B0 JUMPI PUSH2 0x35AF PUSH2 0x5CB9 JUMP JUMPDEST JUMPDEST PUSH1 0x4 MUL ADD PUSH1 0x40 MLOAD DUP1 PUSH1 0xA0 ADD PUSH1 0x40 MSTORE SWAP1 DUP2 PUSH1 0x0 DUP3 ADD PUSH1 0x0 SWAP1 SLOAD SWAP1 PUSH2 0x100 EXP SWAP1 DIV PUSH3 0xFFFFFF AND PUSH3 0xFFFFFF AND PUSH3 0xFFFFFF AND DUP2 MSTORE PUSH1 0x20 ADD PUSH1 0x0 DUP3 ADD PUSH1 0x3 SWAP1 SLOAD SWAP1 PUSH2 0x100 EXP SWAP1 DIV PUSH4 0xFFFFFFFF AND PUSH4 0xFFFFFFFF AND PUSH4 0xFFFFFFFF AND DUP2 MSTORE PUSH1 0x20 ADD PUSH1 0x1 DUP3 ADD SLOAD DUP2 MSTORE PUSH1 0x20 ADD PUSH1 0x2 DUP3 ADD SLOAD DUP2 MSTORE PUSH1 0x20 ADD PUSH1 0x3 DUP3 ADD SLOAD DUP2 MSTORE POP POP SWAP2 POP POP SWAP3 SWAP2 POP POP JUMP JUMPDEST PUSH1 0x3 PUSH1 0x0 SWAP1 SLOAD SWAP1 PUSH2 0x100 EXP SWAP1 DIV PUSH5 0xFFFFFFFFFF AND DUP2 JUMP JUMPDEST PUSH1 0x0 PUSH2 0x3652 DUP4 DUP4 PUSH2 0x1A69 JUMP JUMPDEST ISZERO PUSH2 0x3661 JUMPI PUSH1 0x2 SLOAD SWAP1 POP PUSH2 0x3666 JUMP JUMPDEST PUSH1 0x0 SWAP1 POP JUMPDEST SWAP3 SWAP2 POP POP JUMP JUMPDEST DUP2 PUSH1 0xC DUP2 LT PUSH2 0x36B0 JUMPI PUSH1 0x40 MLOAD PUSH32 0x8C379A000000000000000000000000000000000000000000000000000000000 DUP2 MSTORE PUSH1 0x4 ADD PUSH2 0x36A7 SWAP1 PUSH2 0x5C99 JUMP JUMPDEST PUSH1 0x40 MLOAD DUP1 SWAP2 SUB SWAP1 REVERT JUMPDEST DUP2 PUSH1 0x2C PUSH1 0x0 CALLER PUSH20 0xFFFFFFFFFFFFFFFFFFFFFFFFFFFFFFFFFFFFFFFF AND PUSH20 0xFFFFFFFFFFFFFFFFFFFFFFFFFFFFFFFFFFFFFFFF AND DUP2 MSTORE PUSH1 0x20 ADD SWAP1 DUP2 MSTORE PUSH1 0x20 ADD PUSH1 0x0 KECCAK256 SLOAD LT ISZERO PUSH2 0x3732 JUMPI PUSH1 0x40 MLOAD PUSH32 0x8C379A000000000000000000000000000000000000000000000000000000000 DUP2 MSTORE PUSH1 0x4 ADD PUSH2 0x3729 SWAP1 PUSH2 0x712D JUMP JUMPDEST PUSH1 0x40 MLOAD DUP1 SWAP2 SUB SWAP1 REVERT JUMPDEST PUSH2 0x373F DUP4 CALLER DUP5 PUSH1 0x0 PUSH2 0x4978 JUMP JUMPDEST DUP2 PUSH1 0x2C PUSH1 0x0 CALLER PUSH20 0xFFFFFFFFFFFFFFFFFFFFFFFFFFFFFFFFFFFFFFFF AND PUSH20 0xFFFFFFFFFFFFFFFFFFFFFFFFFFFFFFFFFFFFFFFF AND DUP2 MSTORE PUSH1 0x20 ADD SWAP1 DUP2 MSTORE PUSH1 0x20 ADD PUSH1 0x0 KECCAK256 PUSH1 0x0 DUP3 DUP3 SLOAD SUB SWAP3 POP POP DUP2 SWAP1 SSTORE POP DUP3 CALLER PUSH20 0xFFFFFFFFFFFFFFFFFFFFFFFFFFFFFFFFFFFFFFFF AND PUSH32 0x9E9D071824FD57D062CA63FD8B786D8DA48A6807EEBBCB2D83F9E8D21398E28C DUP5 PUSH1 0x40 MLOAD PUSH2 0x37D3 SWAP2 SWAP1 PUSH2 0x52BC JUMP JUMPDEST PUSH1 0x40 MLOAD DUP1 SWAP2 SUB SWAP1 LOG3 POP POP POP JUMP JUMPDEST PUSH1 0x0 PUSH1 0x2D PUSH1 0x0 DUP5 PUSH20 0xFFFFFFFFFFFFFFFFFFFFFFFFFFFFFFFFFFFFFFFF AND PUSH20 0xFFFFFFFFFFFFFFFFFFFFFFFFFFFFFFFFFFFFFFFF AND DUP2 MSTORE PUSH1 0x20 ADD SWAP1 DUP2 MSTORE PUSH1 0x20 ADD PUSH1 0x0 KECCAK256 PUSH1 0x0 DUP4 PUSH20 0xFFFFFFFFFFFFFFFFFFFFFFFFFFFFFFFFFFFFFFFF AND PUSH20 0xFFFFFFFFFFFFFFFFFFFFFFFFFFFFFFFFFFFFFFFF AND DUP2 MSTORE PUSH1 0x20 ADD SWAP1 DUP2 MSTORE PUSH1 0x20 ADD PUSH1 0x0 KECCAK256 PUSH1 0x0 SWAP1 SLOAD SWAP1 PUSH2 0x100 EXP SWAP1 DIV PUSH1 0xFF AND SWAP1 POP SWAP3 SWAP2 POP POP JUMP JUMPDEST PUSH2 0x387D CALLER PUSH2 0x15C0 JUMP JUMPDEST PUSH2 0x38BC JUMPI PUSH1 0x40 MLOAD PUSH32 0x8C379A000000000000000000000000000000000000000000000000000000000 DUP2 MSTORE PUSH1 0x4 ADD PUSH2 0x38B3 SWAP1 PUSH2 0x70C1 JUMP JUMPDEST PUSH1 0x40 MLOAD DUP1 SWAP2 SUB SWAP1 REVERT JUMPDEST PUSH1 0x0 PUSH1 0x1 PUSH1 0x0 DUP4 PUSH20 0xFFFFFFFFFFFFFFFFFFFFFFFFFFFFFFFFFFFFFFFF AND PUSH20 0xFFFFFFFFFFFFFFFFFFFFFFFFFFFFFFFFFFFFFFFF AND DUP2 MSTORE PUSH1 0x20 ADD SWAP1 DUP2 MSTORE PUSH1 0x20 ADD PUSH1 0x0 KECCAK256 PUSH1 0x0 PUSH2 0x100 EXP DUP2 SLOAD DUP2 PUSH1 0xFF MUL NOT AND SWAP1 DUP4 ISZERO ISZERO MUL OR SWAP1 SSTORE POP POP JUMP JUMPDEST PUSH2 0x3920 CALLER PUSH2 0x4315 JUMP JUMPDEST PUSH2 0x395F JUMPI PUSH1 0x40 MLOAD PUSH32 0x8C379A000000000000000000000000000000000000000000000000000000000 DUP2 MSTORE PUSH1 0x4 ADD PUSH2 0x3956 SWAP1 PUSH2 0x5F21 JUMP JUMPDEST PUSH1 0x40 MLOAD DUP1 SWAP2 SUB SWAP1 REVERT JUMPDEST DUP1 PUSH1 0x29 PUSH1 0x0 PUSH2 0x100 EXP DUP2 SLOAD DUP2 PUSH1 0xFF MUL NOT AND SWAP1 DUP4 ISZERO ISZERO MUL OR SWAP1 SSTORE POP POP JUMP JUMPDEST PUSH1 0x28 DUP2 DUP2 SLOAD DUP2 LT PUSH2 0x398C JUMPI PUSH1 0x0 DUP1 REVERT JUMPDEST SWAP1 PUSH1 0x0 MSTORE PUSH1 0x20 PUSH1 0x0 KECCAK256 SWAP1 PUSH1 0x3 MUL ADD PUSH1 0x0 SWAP2 POP SWAP1 POP DUP1 PUSH1 0x0 ADD PUSH1 0x0 SWAP1 SLOAD SWAP1 PUSH2 0x100 EXP SWAP1 DIV PUSH4 0xFFFFFFFF AND SWAP1 DUP1 PUSH1 0x0 ADD PUSH1 0x4 SWAP1 SLOAD SWAP1 PUSH2 0x100 EXP SWAP1 DIV PUSH4 0xFFFFFFFF AND SWAP1 DUP1 PUSH1 0x1 ADD SLOAD SWAP1 DUP1 PUSH1 0x2 ADD PUSH1 0x40 MLOAD DUP1 PUSH1 0x40 ADD PUSH1 0x40 MSTORE SWAP1 DUP2 PUSH1 0x0 DUP3 ADD PUSH1 0x0 SWAP1 SLOAD SWAP1 PUSH2 0x100 EXP SWAP1 DIV PUSH2 0xFFFF AND PUSH2 0xFFFF AND PUSH2 0xFFFF AND DUP2 MSTORE PUSH1 0x20 ADD PUSH1 0x0 DUP3 ADD PUSH1 0x2 SWAP1 SLOAD SWAP1 PUSH2 0x100 EXP SWAP1 DIV PUSH2 0xFFFF AND PUSH2 0xFFFF AND PUSH2 0xFFFF AND DUP2 MSTORE POP POP SWAP1 POP DUP5 JUMP JUMPDEST PUSH2 0x3A2F CALLER PUSH2 0x15C0 JUMP JUMPDEST PUSH2 0x3A6E JUMPI PUSH1 0x40 MLOAD PUSH32 0x8C379A000000000000000000000000000000000000000000000000000000000 DUP2 MSTORE PUSH1 0x4 ADD PUSH2 0x3A65 SWAP1 PUSH2 0x70C1 JUMP JUMPDEST PUSH1 0x40 MLOAD DUP1 SWAP2 SUB SWAP1 REVERT JUMPDEST DUP1 PUSH1 0x0 DUP1 PUSH2 0x100 EXP DUP2 SLOAD DUP2 PUSH20 0xFFFFFFFFFFFFFFFFFFFFFFFFFFFFFFFFFFFFFFFF MUL NOT AND SWAP1 DUP4 PUSH20 0xFFFFFFFFFFFFFFFFFFFFFFFFFFFFFFFFFFFFFFFF AND MUL OR SWAP1 SSTORE POP PUSH1 0x1 DUP1 PUSH1 0x0 DUP4 PUSH20 0xFFFFFFFFFFFFFFFFFFFFFFFFFFFFFFFFFFFFFFFF AND PUSH20 0xFFFFFFFFFFFFFFFFFFFFFFFFFFFFFFFFFFFFFFFF AND DUP2 MSTORE PUSH1 0x20 ADD SWAP1 DUP2 MSTORE PUSH1 0x20 ADD PUSH1 0x0 KECCAK256 PUSH1 0x0 PUSH2 0x100 EXP DUP2 SLOAD DUP2 PUSH1 0xFF MUL NOT AND SWAP1 DUP4 ISZERO ISZERO MUL OR SWAP1 SSTORE POP PUSH32 0x4DBA622D284ED0014EE4B9A6A68386BE1A4C08A4913AE272DE89199CC686163 DUP2 PUSH1 0x40 MLOAD PUSH2 0x3B34 SWAP2 SWAP1 PUSH2 0x7234 JUMP JUMPDEST PUSH1 0x40 MLOAD DUP1 SWAP2 SUB SWAP1 LOG1 POP JUMP JUMPDEST DUP1 PUSH1 0xC DUP2 LT PUSH2 0x3B83 JUMPI PUSH1 0x40 MLOAD PUSH32 0x8C379A000000000000000000000000000000000000000000000000000000000 DUP2 MSTORE PUSH1 0x4 ADD PUSH2 0x3B7A SWAP1 PUSH2 0x5C99 JUMP JUMPDEST PUSH1 0x40 MLOAD DUP1 SWAP2 SUB SWAP1 REVERT JUMPDEST PUSH1 0x0 PUSH2 0x3B8E DUP4 PUSH2 0x234D JUMP JUMPDEST SWAP1 POP PUSH1 0x0 PUSH1 0x2E PUSH1 0x0 CALLER PUSH20 0xFFFFFFFFFFFFFFFFFFFFFFFFFFFFFFFFFFFFFFFF AND PUSH20 0xFFFFFFFFFFFFFFFFFFFFFFFFFFFFFFFFFFFFFFFF AND DUP2 MSTORE PUSH1 0x20 ADD SWAP1 DUP2 MSTORE PUSH1 0x20 ADD PUSH1 0x0 KECCAK256 DUP5 PUSH1 0xC DUP2 LT PUSH2 0x3BE3 JUMPI PUSH2 0x3BE2 PUSH2 0x5CB9 JUMP JUMPDEST JUMPDEST PUSH1 0x4 MUL ADD PUSH1 0x40 MLOAD DUP1 PUSH1 0xA0 ADD PUSH1 0x40 MSTORE SWAP1 DUP2 PUSH1 0x0 DUP3 ADD PUSH1 0x0 SWAP1 SLOAD SWAP1 PUSH2 0x100 EXP SWAP1 DIV PUSH3 0xFFFFFF AND PUSH3 0xFFFFFF AND PUSH3 0xFFFFFF AND DUP2 MSTORE PUSH1 0x20 ADD PUSH1 0x0 DUP3 ADD PUSH1 0x3 SWAP1 SLOAD SWAP1 PUSH2 0x100 EXP SWAP1 DIV PUSH4 0xFFFFFFFF AND PUSH4 0xFFFFFFFF AND PUSH4 0xFFFFFFFF AND DUP2 MSTORE PUSH1 0x20 ADD PUSH1 0x1 DUP3 ADD SLOAD DUP2 MSTORE PUSH1 0x20 ADD PUSH1 0x2 DUP3 ADD SLOAD DUP2 MSTORE PUSH1 0x20 ADD PUSH1 0x3 DUP3 ADD SLOAD DUP2 MSTORE POP POP SWAP1 POP DUP2 PUSH1 0x2C PUSH1 0x0 CALLER PUSH20 0xFFFFFFFFFFFFFFFFFFFFFFFFFFFFFFFFFFFFFFFF AND PUSH20 0xFFFFFFFFFFFFFFFFFFFFFFFFFFFFFFFFFFFFFFFF AND DUP2 MSTORE PUSH1 0x20 ADD SWAP1 DUP2 MSTORE PUSH1 0x20 ADD PUSH1 0x0 KECCAK256 PUSH1 0x0 DUP3 DUP3 SLOAD ADD SWAP3 POP POP DUP2 SWAP1 SSTORE POP DUP2 DUP2 PUSH1 0x60 ADD DUP2 DUP2 MLOAD PUSH2 0x3CBA SWAP2 SWAP1 PUSH2 0x5E7F JUMP JUMPDEST SWAP2 POP DUP2 DUP2 MSTORE POP POP TIMESTAMP DUP2 PUSH1 0x20 ADD SWAP1 PUSH4 0xFFFFFFFF AND SWAP1 DUP2 PUSH4 0xFFFFFFFF AND DUP2 MSTORE POP POP DUP1 PUSH1 0x2E PUSH1 0x0 CALLER PUSH20 0xFFFFFFFFFFFFFFFFFFFFFFFFFFFFFFFFFFFFFFFF AND PUSH20 0xFFFFFFFFFFFFFFFFFFFFFFFFFFFFFFFFFFFFFFFF AND DUP2 MSTORE PUSH1 0x20 ADD SWAP1 DUP2 MSTORE PUSH1 0x20 ADD PUSH1 0x0 KECCAK256 DUP6 PUSH1 0xC DUP2 LT PUSH2 0x3D2B JUMPI PUSH2 0x3D2A PUSH2 0x5CB9 JUMP JUMPDEST JUMPDEST PUSH1 0x4 MUL ADD PUSH1 0x0 DUP3 ADD MLOAD DUP2 PUSH1 0x0 ADD PUSH1 0x0 PUSH2 0x100 EXP DUP2 SLOAD DUP2 PUSH3 0xFFFFFF MUL NOT AND SWAP1 DUP4 PUSH3 0xFFFFFF AND MUL OR SWAP1 SSTORE POP PUSH1 0x20 DUP3 ADD MLOAD DUP2 PUSH1 0x0 ADD PUSH1 0x3 PUSH2 0x100 EXP DUP2 SLOAD DUP2 PUSH4 0xFFFFFFFF MUL NOT AND SWAP1 DUP4 PUSH4 0xFFFFFFFF AND MUL OR SWAP1 SSTORE POP PUSH1 0x40 DUP3 ADD MLOAD DUP2 PUSH1 0x1 ADD SSTORE PUSH1 0x60 DUP3 ADD MLOAD DUP2 PUSH1 0x2 ADD SSTORE PUSH1 0x80 DUP3 ADD MLOAD DUP2 PUSH1 0x3 ADD SSTORE SWAP1 POP POP DUP4 CALLER PUSH20 0xFFFFFFFFFFFFFFFFFFFFFFFFFFFFFFFFFFFFFFFF AND PUSH32 0xD4C220A036E494DC8D9E171D2A06A37F490EC132E69A1FF788E87D75BA686568 DUP5 PUSH1 0x40 MLOAD PUSH2 0x3DE3 SWAP2 SWAP1 PUSH2 0x52BC JUMP JUMPDEST PUSH1 0x40 MLOAD DUP1 SWAP2 SUB SWAP1 LOG3 POP POP POP POP JUMP JUMPDEST DUP1 PUSH1 0xC DUP2 LT PUSH2 0x3E35 JUMPI PUSH1 0x40 MLOAD PUSH32 0x8C379A000000000000000000000000000000000000000000000000000000000 DUP2 MSTORE PUSH1 0x4 ADD PUSH2 0x3E2C SWAP1 PUSH2 0x5C99 JUMP JUMPDEST PUSH1 0x40 MLOAD DUP1 SWAP2 SUB SWAP1 REVERT JUMPDEST PUSH1 0x0 PUSH2 0x3E40 DUP4 PUSH2 0x234D JUMP JUMPDEST SWAP1 POP PUSH1 0x0 PUSH1 0x4 DUP5 PUSH1 0xC DUP2 LT PUSH2 0x3E58 JUMPI PUSH2 0x3E57 PUSH2 0x5CB9 JUMP JUMPDEST JUMPDEST PUSH1 0x3 MUL ADD PUSH1 0x40 MLOAD DUP1 PUSH1 0x60 ADD PUSH1 0x40 MSTORE SWAP1 DUP2 PUSH1 0x0 DUP3 ADD DUP1 SLOAD DUP1 PUSH1 0x20 MUL PUSH1 0x20 ADD PUSH1 0x40 MLOAD SWAP1 DUP2 ADD PUSH1 0x40 MSTORE DUP1 SWAP3 SWAP2 SWAP1 DUP2 DUP2 MSTORE PUSH1 0x20 ADD DUP3 DUP1 SLOAD DUP1 ISZERO PUSH2 0x3EB6 JUMPI PUSH1 0x20 MUL DUP3 ADD SWAP2 SWAP1 PUSH1 0x0 MSTORE PUSH1 0x20 PUSH1 0x0 KECCAK256 SWAP1 JUMPDEST DUP2 SLOAD DUP2 MSTORE PUSH1 0x20 ADD SWAP1 PUSH1 0x1 ADD SWAP1 DUP1 DUP4 GT PUSH2 0x3EA2 JUMPI JUMPDEST POP POP POP POP POP DUP2 MSTORE PUSH1 0x20 ADD PUSH1 0x1 DUP3 ADD DUP1 SLOAD DUP1 PUSH1 0x20 MUL PUSH1 0x20 ADD PUSH1 0x40 MLOAD SWAP1 DUP2 ADD PUSH1 0x40 MSTORE DUP1 SWAP3 SWAP2 SWAP1 DUP2 DUP2 MSTORE PUSH1 0x20 ADD PUSH1 0x0 SWAP1 JUMPDEST DUP3 DUP3 LT ISZERO PUSH2 0x3F52 JUMPI DUP4 DUP3 SWAP1 PUSH1 0x0 MSTORE PUSH1 0x20 PUSH1 0x0 KECCAK256 ADD PUSH1 0x40 MLOAD DUP1 PUSH1 0x40 ADD PUSH1 0x40 MSTORE SWAP1 DUP2 PUSH1 0x0 DUP3 ADD PUSH1 0x0 SWAP1 SLOAD SWAP1 PUSH2 0x100 EXP SWAP1 DIV PUSH2 0xFFFF AND PUSH2 0xFFFF AND PUSH2 0xFFFF AND DUP2 MSTORE PUSH1 0x20 ADD PUSH1 0x0 DUP3 ADD PUSH1 0x2 SWAP1 SLOAD SWAP1 PUSH2 0x100 EXP SWAP1 DIV PUSH2 0xFFFF AND PUSH2 0xFFFF AND PUSH2 0xFFFF AND DUP2 MSTORE POP POP DUP2 MSTORE PUSH1 0x20 ADD SWAP1 PUSH1 0x1 ADD SWAP1 PUSH2 0x3EE4 JUMP JUMPDEST POP POP POP POP DUP2 MSTORE PUSH1 0x20 ADD PUSH1 0x2 DUP3 ADD DUP1 SLOAD DUP1 PUSH1 0x20 MUL PUSH1 0x20 ADD PUSH1 0x40 MLOAD SWAP1 DUP2 ADD PUSH1 0x40 MSTORE DUP1 SWAP3 SWAP2 SWAP1 DUP2 DUP2 MSTORE PUSH1 0x20 ADD PUSH1 0x0 SWAP1 JUMPDEST DUP3 DUP3 LT ISZERO PUSH2 0x3FED JUMPI DUP4 DUP3 SWAP1 PUSH1 0x0 MSTORE PUSH1 0x20 PUSH1 0x0 KECCAK256 ADD PUSH1 0x40 MLOAD DUP1 PUSH1 0x40 ADD PUSH1 0x40 MSTORE SWAP1 DUP2 PUSH1 0x0 DUP3 ADD PUSH1 0x0 SWAP1 SLOAD SWAP1 PUSH2 0x100 EXP SWAP1 DIV PUSH2 0xFFFF AND PUSH2 0xFFFF AND PUSH2 0xFFFF AND DUP2 MSTORE PUSH1 0x20 ADD PUSH1 0x0 DUP3 ADD PUSH1 0x2 SWAP1 SLOAD SWAP1 PUSH2 0x100 EXP SWAP1 DIV PUSH2 0xFFFF AND PUSH2 0xFFFF AND PUSH2 0xFFFF AND DUP2 MSTORE POP POP DUP2 MSTORE PUSH1 0x20 ADD SWAP1 PUSH1 0x1 ADD SWAP1 PUSH2 0x3F7F JUMP JUMPDEST POP POP POP POP DUP2 MSTORE POP POP SWAP1 POP PUSH1 0x0 PUSH1 0x2E PUSH1 0x0 CALLER PUSH20 0xFFFFFFFFFFFFFFFFFFFFFFFFFFFFFFFFFFFFFFFF AND PUSH20 0xFFFFFFFFFFFFFFFFFFFFFFFFFFFFFFFFFFFFFFFF AND DUP2 MSTORE PUSH1 0x20 ADD SWAP1 DUP2 MSTORE PUSH1 0x20 ADD PUSH1 0x0 KECCAK256 DUP6 PUSH1 0xC DUP2 LT PUSH2 0x404A JUMPI PUSH2 0x4049 PUSH2 0x5CB9 JUMP JUMPDEST JUMPDEST PUSH1 0x4 MUL ADD PUSH1 0x40 MLOAD DUP1 PUSH1 0xA0 ADD PUSH1 0x40 MSTORE SWAP1 DUP2 PUSH1 0x0 DUP3 ADD PUSH1 0x0 SWAP1 SLOAD SWAP1 PUSH2 0x100 EXP SWAP1 DIV PUSH3 0xFFFFFF AND PUSH3 0xFFFFFF AND PUSH3 0xFFFFFF AND DUP2 MSTORE PUSH1 0x20 ADD PUSH1 0x0 DUP3 ADD PUSH1 0x3 SWAP1 SLOAD SWAP1 PUSH2 0x100 EXP SWAP1 DIV PUSH4 0xFFFFFFFF AND PUSH4 0xFFFFFFFF AND PUSH4 0xFFFFFFFF AND DUP2 MSTORE PUSH1 0x20 ADD PUSH1 0x1 DUP3 ADD SLOAD DUP2 MSTORE PUSH1 0x20 ADD PUSH1 0x2 DUP3 ADD SLOAD DUP2 MSTORE PUSH1 0x20 ADD PUSH1 0x3 DUP3 ADD SLOAD DUP2 MSTORE POP POP SWAP1 POP PUSH1 0x0 DUP3 PUSH1 0x40 ADD MLOAD DUP3 PUSH1 0x0 ADD MLOAD PUSH3 0xFFFFFF AND DUP2 MLOAD DUP2 LT PUSH2 0x40E4 JUMPI PUSH2 0x40E3 PUSH2 0x5CB9 JUMP JUMPDEST JUMPDEST PUSH1 0x20 MUL PUSH1 0x20 ADD ADD MLOAD SWAP1 POP PUSH1 0x0 DUP2 PUSH1 0x20 ADD MLOAD PUSH2 0xFFFF AND DUP3 PUSH1 0x0 ADD MLOAD PUSH2 0xFFFF AND DUP7 PUSH2 0x410D SWAP2 SWAP1 PUSH2 0x5D17 JUMP JUMPDEST PUSH2 0x4117 SWAP2 SWAP1 PUSH2 0x5DA0 JUMP JUMPDEST SWAP1 POP PUSH1 0x0 DUP2 DUP7 PUSH2 0x4127 SWAP2 SWAP1 PUSH2 0x5DD1 JUMP JUMPDEST SWAP1 POP PUSH32 0x0 PUSH20 0xFFFFFFFFFFFFFFFFFFFFFFFFFFFFFFFFFFFFFFFF AND PUSH4 0xA9059CBB CALLER DUP4 PUSH1 0x40 MLOAD DUP4 PUSH4 0xFFFFFFFF AND PUSH1 0xE0 SHL DUP2 MSTORE PUSH1 0x4 ADD PUSH2 0x4184 SWAP3 SWAP2 SWAP1 PUSH2 0x5E14 JUMP JUMPDEST PUSH1 0x20 PUSH1 0x40 MLOAD DUP1 DUP4 SUB DUP2 PUSH1 0x0 DUP8 GAS CALL ISZERO DUP1 ISZERO PUSH2 0x41A3 JUMPI RETURNDATASIZE PUSH1 0x0 DUP1 RETURNDATACOPY RETURNDATASIZE PUSH1 0x0 REVERT JUMPDEST POP POP POP POP PUSH1 0x40 MLOAD RETURNDATASIZE PUSH1 0x1F NOT PUSH1 0x1F DUP3 ADD AND DUP3 ADD DUP1 PUSH1 0x40 MSTORE POP DUP2 ADD SWAP1 PUSH2 0x41C7 SWAP2 SWAP1 PUSH2 0x5E52 JUMP JUMPDEST POP DUP1 DUP5 PUSH1 0x80 ADD DUP2 DUP2 MLOAD PUSH2 0x41DA SWAP2 SWAP1 PUSH2 0x5E7F JUMP JUMPDEST SWAP2 POP DUP2 DUP2 MSTORE POP POP TIMESTAMP DUP5 PUSH1 0x20 ADD SWAP1 PUSH4 0xFFFFFFFF AND SWAP1 DUP2 PUSH4 0xFFFFFFFF AND DUP2 MSTORE POP POP DUP4 PUSH1 0x2E PUSH1 0x0 CALLER PUSH20 0xFFFFFFFFFFFFFFFFFFFFFFFFFFFFFFFFFFFFFFFF AND PUSH20 0xFFFFFFFFFFFFFFFFFFFFFFFFFFFFFFFFFFFFFFFF AND DUP2 MSTORE PUSH1 0x20 ADD SWAP1 DUP2 MSTORE PUSH1 0x20 ADD PUSH1 0x0 KECCAK256 DUP10 PUSH1 0xC DUP2 LT PUSH2 0x424B JUMPI PUSH2 0x424A PUSH2 0x5CB9 JUMP JUMPDEST JUMPDEST PUSH1 0x4 MUL ADD PUSH1 0x0 DUP3 ADD MLOAD DUP2 PUSH1 0x0 ADD PUSH1 0x0 PUSH2 0x100 EXP DUP2 SLOAD DUP2 PUSH3 0xFFFFFF MUL NOT AND SWAP1 DUP4 PUSH3 0xFFFFFF AND MUL OR SWAP1 SSTORE POP PUSH1 0x20 DUP3 ADD MLOAD DUP2 PUSH1 0x0 ADD PUSH1 0x3 PUSH2 0x100 EXP DUP2 SLOAD DUP2 PUSH4 0xFFFFFFFF MUL NOT AND SWAP1 DUP4 PUSH4 0xFFFFFFFF AND MUL OR SWAP1 SSTORE POP PUSH1 0x40 DUP3 ADD MLOAD DUP2 PUSH1 0x1 ADD SSTORE PUSH1 0x60 DUP3 ADD MLOAD DUP2 PUSH1 0x2 ADD SSTORE PUSH1 0x80 DUP3 ADD MLOAD DUP2 PUSH1 0x3 ADD SSTORE SWAP1 POP POP DUP8 CALLER PUSH20 0xFFFFFFFFFFFFFFFFFFFFFFFFFFFFFFFFFFFFFFFF AND PUSH32 0x888F19217DDAD5C6A51226C6812ABE28B4400E72206C3B170AE84829BD03A7A0 DUP9 PUSH1 0x40 MLOAD PUSH2 0x4303 SWAP2 SWAP1 PUSH2 0x52BC JUMP JUMPDEST PUSH1 0x40 MLOAD DUP1 SWAP2 SUB SWAP1 LOG3 POP POP POP POP POP POP POP POP JUMP JUMPDEST PUSH1 0x0 PUSH1 0x1 PUSH1 0x0 DUP4 PUSH20 0xFFFFFFFFFFFFFFFFFFFFFFFFFFFFFFFFFFFFFFFF AND PUSH20 0xFFFFFFFFFFFFFFFFFFFFFFFFFFFFFFFFFFFFFFFF AND DUP2 MSTORE PUSH1 0x20 ADD SWAP1 DUP2 MSTORE PUSH1 0x20 ADD PUSH1 0x0 KECCAK256 PUSH1 0x0 SWAP1 SLOAD SWAP1 PUSH2 0x100 EXP SWAP1 DIV PUSH1 0xFF AND SWAP1 POP SWAP2 SWAP1 POP JUMP JUMPDEST PUSH1 0x0 DUP1 PUSH1 0x2E PUSH1 0x0 DUP6 PUSH20 0xFFFFFFFFFFFFFFFFFFFFFFFFFFFFFFFFFFFFFFFF AND PUSH20 0xFFFFFFFFFFFFFFFFFFFFFFFFFFFFFFFFFFFFFFFF AND DUP2 MSTORE PUSH1 0x20 ADD SWAP1 DUP2 MSTORE PUSH1 0x20 ADD PUSH1 0x0 KECCAK256 DUP4 PUSH1 0xC DUP2 LT PUSH2 0x43BF JUMPI PUSH2 0x43BE PUSH2 0x5CB9 JUMP JUMPDEST JUMPDEST PUSH1 0x4 MUL ADD PUSH1 0x40 MLOAD DUP1 PUSH1 0xA0 ADD PUSH1 0x40 MSTORE SWAP1 DUP2 PUSH1 0x0 DUP3 ADD PUSH1 0x0 SWAP1 SLOAD SWAP1 PUSH2 0x100 EXP SWAP1 DIV PUSH3 0xFFFFFF AND PUSH3 0xFFFFFF AND PUSH3 0xFFFFFF AND DUP2 MSTORE PUSH1 0x20 ADD PUSH1 0x0 DUP3 ADD PUSH1 0x3 SWAP1 SLOAD SWAP1 PUSH2 0x100 EXP SWAP1 DIV PUSH4 0xFFFFFFFF AND PUSH4 0xFFFFFFFF AND PUSH4 0xFFFFFFFF AND DUP2 MSTORE PUSH1 0x20 ADD PUSH1 0x1 DUP3 ADD SLOAD DUP2 MSTORE PUSH1 0x20 ADD PUSH1 0x2 DUP3 ADD SLOAD DUP2 MSTORE PUSH1 0x20 ADD PUSH1 0x3 DUP3 ADD SLOAD DUP2 MSTORE POP POP SWAP1 POP PUSH1 0x0 DUP2 PUSH1 0x20 ADD MLOAD PUSH4 0xFFFFFFFF AND TIMESTAMP PUSH2 0x444F SWAP2 SWAP1 PUSH2 0x5DD1 JUMP JUMPDEST SWAP1 POP PUSH1 0x0 DUP2 EQ ISZERO PUSH2 0x4465 JUMPI PUSH1 0x0 SWAP3 POP POP POP PUSH2 0x46CA JUMP JUMPDEST PUSH1 0x0 PUSH1 0x4 DUP6 PUSH1 0xC DUP2 LT PUSH2 0x447B JUMPI PUSH2 0x447A PUSH2 0x5CB9 JUMP JUMPDEST JUMPDEST PUSH1 0x3 MUL ADD PUSH1 0x1 ADD DUP4 PUSH1 0x0 ADD MLOAD PUSH3 0xFFFFFF AND DUP2 SLOAD DUP2 LT PUSH2 0x449D JUMPI PUSH2 0x449C PUSH2 0x5CB9 JUMP JUMPDEST JUMPDEST SWAP1 PUSH1 0x0 MSTORE PUSH1 0x20 PUSH1 0x0 KECCAK256 ADD PUSH1 0x40 MLOAD DUP1 PUSH1 0x40 ADD PUSH1 0x40 MSTORE SWAP1 DUP2 PUSH1 0x0 DUP3 ADD PUSH1 0x0 SWAP1 SLOAD SWAP1 PUSH2 0x100 EXP SWAP1 DIV PUSH2 0xFFFF AND PUSH2 0xFFFF AND PUSH2 0xFFFF AND DUP2 MSTORE PUSH1 0x20 ADD PUSH1 0x0 DUP3 ADD PUSH1 0x2 SWAP1 SLOAD SWAP1 PUSH2 0x100 EXP SWAP1 DIV PUSH2 0xFFFF AND PUSH2 0xFFFF AND PUSH2 0xFFFF AND DUP2 MSTORE POP POP SWAP1 POP PUSH1 0x0 PUSH1 0x3 PUSH1 0x0 SWAP1 SLOAD SWAP1 PUSH2 0x100 EXP SWAP1 DIV PUSH5 0xFFFFFFFFFF AND PUSH5 0xFFFFFFFFFF AND DUP4 GT PUSH2 0x451D JUMPI DUP3 PUSH2 0x4539 JUMP JUMPDEST PUSH1 0x3 PUSH1 0x0 SWAP1 SLOAD SWAP1 PUSH2 0x100 EXP SWAP1 DIV PUSH5 0xFFFFFFFFFF AND PUSH5 0xFFFFFFFFFF AND JUMPDEST SWAP1 POP PUSH1 0x0 PUSH2 0x454C DUP6 PUSH1 0x40 ADD MLOAD DUP4 DUP6 PUSH2 0x2A67 JUMP JUMPDEST SWAP1 POP PUSH1 0x29 PUSH1 0x0 SWAP1 SLOAD SWAP1 PUSH2 0x100 EXP SWAP1 DIV PUSH1 0xFF AND ISZERO PUSH2 0x46C1 JUMPI PUSH1 0x0 PUSH1 0x2F PUSH1 0x0 DUP11 PUSH20 0xFFFFFFFFFFFFFFFFFFFFFFFFFFFFFFFFFFFFFFFF AND PUSH20 0xFFFFFFFFFFFFFFFFFFFFFFFFFFFFFFFFFFFFFFFF AND DUP2 MSTORE PUSH1 0x20 ADD SWAP1 DUP2 MSTORE PUSH1 0x20 ADD PUSH1 0x0 KECCAK256 PUSH1 0x40 MLOAD DUP1 PUSH1 0x80 ADD PUSH1 0x40 MSTORE SWAP1 DUP2 PUSH1 0x0 DUP3 ADD PUSH1 0x0 SWAP1 SLOAD SWAP1 PUSH2 0x100 EXP SWAP1 DIV PUSH4 0xFFFFFFFF AND PUSH4 0xFFFFFFFF AND PUSH4 0xFFFFFFFF AND DUP2 MSTORE PUSH1 0x20 ADD PUSH1 0x0 DUP3 ADD PUSH1 0x4 SWAP1 SLOAD SWAP1 PUSH2 0x100 EXP SWAP1 DIV PUSH4 0xFFFFFFFF AND PUSH4 0xFFFFFFFF AND PUSH4 0xFFFFFFFF AND DUP2 MSTORE PUSH1 0x20 ADD PUSH1 0x1 DUP3 ADD SLOAD DUP2 MSTORE PUSH1 0x20 ADD PUSH1 0x2 DUP3 ADD PUSH1 0x40 MLOAD DUP1 PUSH1 0x40 ADD PUSH1 0x40 MSTORE SWAP1 DUP2 PUSH1 0x0 DUP3 ADD PUSH1 0x0 SWAP1 SLOAD SWAP1 PUSH2 0x100 EXP SWAP1 DIV PUSH2 0xFFFF AND PUSH2 0xFFFF AND PUSH2 0xFFFF AND DUP2 MSTORE PUSH1 0x20 ADD PUSH1 0x0 DUP3 ADD PUSH1 0x2 SWAP1 SLOAD SWAP1 PUSH2 0x100 EXP SWAP1 DIV PUSH2 0xFFFF AND PUSH2 0xFFFF AND PUSH2 0xFFFF AND DUP2 MSTORE POP POP DUP2 MSTORE POP POP SWAP1 POP TIMESTAMP DUP2 PUSH1 0x20 ADD MLOAD DUP3 PUSH1 0x0 ADD MLOAD PUSH2 0x4670 SWAP2 SWAP1 PUSH2 0x6EAB JUMP JUMPDEST PUSH4 0xFFFFFFFF AND GT ISZERO PUSH2 0x46BF JUMPI PUSH1 0x0 DUP2 PUSH1 0x60 ADD MLOAD PUSH1 0x20 ADD MLOAD PUSH2 0xFFFF AND DUP3 PUSH1 0x60 ADD MLOAD PUSH1 0x0 ADD MLOAD PUSH2 0xFFFF AND DUP5 PUSH2 0x46A3 SWAP2 SWAP1 PUSH2 0x5D17 JUMP JUMPDEST PUSH2 0x46AD SWAP2 SWAP1 PUSH2 0x5DA0 JUMP JUMPDEST SWAP1 POP DUP1 DUP4 PUSH2 0x46BB SWAP2 SWAP1 PUSH2 0x5E7F JUMP JUMPDEST SWAP3 POP POP JUMPDEST POP JUMPDEST DUP1 SWAP6 POP POP POP POP POP POP JUMPDEST SWAP3 SWAP2 POP POP JUMP JUMPDEST PUSH1 0x0 PUSH20 0xFFFFFFFFFFFFFFFFFFFFFFFFFFFFFFFFFFFFFFFF AND DUP4 PUSH20 0xFFFFFFFFFFFFFFFFFFFFFFFFFFFFFFFFFFFFFFFF AND EQ ISZERO PUSH2 0x4740 JUMPI PUSH1 0x40 MLOAD PUSH32 0x8C379A000000000000000000000000000000000000000000000000000000000 DUP2 MSTORE PUSH1 0x4 ADD PUSH2 0x4737 SWAP1 PUSH2 0x72C1 JUMP JUMPDEST PUSH1 0x40 MLOAD DUP1 SWAP2 SUB SWAP1 REVERT JUMPDEST PUSH1 0x0 PUSH20 0xFFFFFFFFFFFFFFFFFFFFFFFFFFFFFFFFFFFFFFFF AND DUP3 PUSH20 0xFFFFFFFFFFFFFFFFFFFFFFFFFFFFFFFFFFFFFFFF AND EQ ISZERO PUSH2 0x47B0 JUMPI PUSH1 0x40 MLOAD PUSH32 0x8C379A000000000000000000000000000000000000000000000000000000000 DUP2 MSTORE PUSH1 0x4 ADD PUSH2 0x47A7 SWAP1 PUSH2 0x7353 JUMP JUMPDEST PUSH1 0x40 MLOAD DUP1 SWAP2 SUB SWAP1 REVERT JUMPDEST PUSH1 0x0 DUP2 GT PUSH2 0x47F3 JUMPI PUSH1 0x40 MLOAD PUSH32 0x8C379A000000000000000000000000000000000000000000000000000000000 DUP2 MSTORE PUSH1 0x4 ADD PUSH2 0x47EA SWAP1 PUSH2 0x73E5 JUMP JUMPDEST PUSH1 0x40 MLOAD DUP1 SWAP2 SUB SWAP1 REVERT JUMPDEST PUSH1 0x0 PUSH1 0x2C PUSH1 0x0 DUP6 PUSH20 0xFFFFFFFFFFFFFFFFFFFFFFFFFFFFFFFFFFFFFFFF AND PUSH20 0xFFFFFFFFFFFFFFFFFFFFFFFFFFFFFFFFFFFFFFFF AND DUP2 MSTORE PUSH1 0x20 ADD SWAP1 DUP2 MSTORE PUSH1 0x20 ADD PUSH1 0x0 KECCAK256 SLOAD SWAP1 POP DUP2 DUP2 LT ISZERO PUSH2 0x487A JUMPI PUSH1 0x40 MLOAD PUSH32 0x8C379A000000000000000000000000000000000000000000000000000000000 DUP2 MSTORE PUSH1 0x4 ADD PUSH2 0x4871 SWAP1 PUSH2 0x7477 JUMP JUMPDEST PUSH1 0x40 MLOAD DUP1 SWAP2 SUB SWAP1 REVERT JUMPDEST DUP2 DUP2 SUB PUSH1 0x2C PUSH1 0x0 DUP7 PUSH20 0xFFFFFFFFFFFFFFFFFFFFFFFFFFFFFFFFFFFFFFFF AND PUSH20 0xFFFFFFFFFFFFFFFFFFFFFFFFFFFFFFFFFFFFFFFF AND DUP2 MSTORE PUSH1 0x20 ADD SWAP1 DUP2 MSTORE PUSH1 0x20 ADD PUSH1 0x0 KECCAK256 DUP2 SWAP1 SSTORE POP DUP2 PUSH1 0x2C PUSH1 0x0 DUP6 PUSH20 0xFFFFFFFFFFFFFFFFFFFFFFFFFFFFFFFFFFFFFFFF AND PUSH20 0xFFFFFFFFFFFFFFFFFFFFFFFFFFFFFFFFFFFFFFFF AND DUP2 MSTORE PUSH1 0x20 ADD SWAP1 DUP2 MSTORE PUSH1 0x20 ADD PUSH1 0x0 KECCAK256 PUSH1 0x0 DUP3 DUP3 SLOAD ADD SWAP3 POP POP DUP2 SWAP1 SSTORE POP DUP3 PUSH20 0xFFFFFFFFFFFFFFFFFFFFFFFFFFFFFFFFFFFFFFFF AND DUP5 PUSH20 0xFFFFFFFFFFFFFFFFFFFFFFFFFFFFFFFFFFFFFFFF AND PUSH32 0xDDF252AD1BE2C89B69C2B068FC378DAA952BA7F163C4A11628F55A4DF523B3EF DUP5 PUSH1 0x40 MLOAD PUSH2 0x496A SWAP2 SWAP1 PUSH2 0x52BC JUMP JUMPDEST PUSH1 0x40 MLOAD DUP1 SWAP2 SUB SWAP1 LOG3 POP POP POP POP JUMP JUMPDEST PUSH1 0x0 PUSH1 0x2E PUSH1 0x0 DUP6 PUSH20 0xFFFFFFFFFFFFFFFFFFFFFFFFFFFFFFFFFFFFFFFF AND PUSH20 0xFFFFFFFFFFFFFFFFFFFFFFFFFFFFFFFFFFFFFFFF AND DUP2 MSTORE PUSH1 0x20 ADD SWAP1 DUP2 MSTORE PUSH1 0x20 ADD PUSH1 0x0 KECCAK256 DUP6 PUSH1 0xC DUP2 LT PUSH2 0x49CB JUMPI PUSH2 0x49CA PUSH2 0x5CB9 JUMP JUMPDEST JUMPDEST PUSH1 0x4 MUL ADD PUSH1 0x40 MLOAD DUP1 PUSH1 0xA0 ADD PUSH1 0x40 MSTORE SWAP1 DUP2 PUSH1 0x0 DUP3 ADD PUSH1 0x0 SWAP1 SLOAD SWAP1 PUSH2 0x100 EXP SWAP1 DIV PUSH3 0xFFFFFF AND PUSH3 0xFFFFFF AND PUSH3 0xFFFFFF AND DUP2 MSTORE PUSH1 0x20 ADD PUSH1 0x0 DUP3 ADD PUSH1 0x3 SWAP1 SLOAD SWAP1 PUSH2 0x100 EXP SWAP1 DIV PUSH4 0xFFFFFFFF AND PUSH4 0xFFFFFFFF AND PUSH4 0xFFFFFFFF AND DUP2 MSTORE PUSH1 0x20 ADD PUSH1 0x1 DUP3 ADD SLOAD DUP2 MSTORE PUSH1 0x20 ADD PUSH1 0x2 DUP3 ADD SLOAD DUP2 MSTORE PUSH1 0x20 ADD PUSH1 0x3 DUP3 ADD SLOAD DUP2 MSTORE POP POP SWAP1 POP PUSH1 0x0 DUP2 PUSH1 0x0 ADD MLOAD PUSH3 0xFFFFFF AND GT PUSH2 0x4A8F JUMPI PUSH1 0x40 MLOAD PUSH32 0x8C379A000000000000000000000000000000000000000000000000000000000 DUP2 MSTORE PUSH1 0x4 ADD PUSH2 0x4A86 SWAP1 PUSH2 0x7509 JUMP JUMPDEST PUSH1 0x40 MLOAD DUP1 SWAP2 SUB SWAP1 REVERT JUMPDEST DUP3 DUP2 PUSH1 0x40 ADD DUP2 DUP2 MLOAD PUSH2 0x4AA1 SWAP2 SWAP1 PUSH2 0x5E7F JUMP JUMPDEST SWAP2 POP DUP2 DUP2 MSTORE POP POP PUSH2 0x4ABB DUP6 DUP3 PUSH1 0x0 ADD MLOAD PUSH3 0xFFFFFF AND PUSH2 0x1622 JUMP JUMPDEST ISZERO PUSH2 0x4B05 JUMPI PUSH1 0x0 PUSH2 0x4AD5 DUP7 DUP4 PUSH1 0x0 ADD MLOAD PUSH3 0xFFFFFF AND PUSH2 0x124E JUMP JUMPDEST SWAP1 POP DUP1 DUP3 PUSH1 0x40 ADD MLOAD LT PUSH2 0x4B03 JUMPI DUP2 PUSH1 0x0 ADD DUP1 MLOAD DUP1 SWAP2 SWAP1 PUSH2 0x4AF4 SWAP1 PUSH2 0x7529 JUMP JUMPDEST PUSH3 0xFFFFFF AND PUSH3 0xFFFFFF AND DUP2 MSTORE POP POP JUMPDEST POP JUMPDEST DUP2 ISZERO PUSH2 0x4B3D JUMPI DUP3 DUP2 PUSH1 0x60 ADD DUP2 DUP2 MLOAD PUSH2 0x4B1D SWAP2 SWAP1 PUSH2 0x5E7F JUMP JUMPDEST SWAP2 POP DUP2 DUP2 MSTORE POP POP TIMESTAMP DUP2 PUSH1 0x20 ADD SWAP1 PUSH4 0xFFFFFFFF AND SWAP1 DUP2 PUSH4 0xFFFFFFFF AND DUP2 MSTORE POP POP JUMPDEST DUP1 PUSH1 0x2E PUSH1 0x0 DUP7 PUSH20 0xFFFFFFFFFFFFFFFFFFFFFFFFFFFFFFFFFFFFFFFF AND PUSH20 0xFFFFFFFFFFFFFFFFFFFFFFFFFFFFFFFFFFFFFFFF AND DUP2 MSTORE PUSH1 0x20 ADD SWAP1 DUP2 MSTORE PUSH1 0x20 ADD PUSH1 0x0 KECCAK256 DUP7 PUSH1 0xC DUP2 LT PUSH2 0x4B8F JUMPI PUSH2 0x4B8E PUSH2 0x5CB9 JUMP JUMPDEST JUMPDEST PUSH1 0x4 MUL ADD PUSH1 0x0 DUP3 ADD MLOAD DUP2 PUSH1 0x0 ADD PUSH1 0x0 PUSH2 0x100 EXP DUP2 SLOAD DUP2 PUSH3 0xFFFFFF MUL NOT AND SWAP1 DUP4 PUSH3 0xFFFFFF AND MUL OR SWAP1 SSTORE POP PUSH1 0x20 DUP3 ADD MLOAD DUP2 PUSH1 0x0 ADD PUSH1 0x3 PUSH2 0x100 EXP DUP2 SLOAD DUP2 PUSH4 0xFFFFFFFF MUL NOT AND SWAP1 DUP4 PUSH4 0xFFFFFFFF AND MUL OR SWAP1 SSTORE POP PUSH1 0x40 DUP3 ADD MLOAD DUP2 PUSH1 0x1 ADD SSTORE PUSH1 0x60 DUP3 ADD MLOAD DUP2 PUSH1 0x2 ADD SSTORE PUSH1 0x80 DUP3 ADD MLOAD DUP2 PUSH1 0x3 ADD SSTORE SWAP1 POP POP POP POP POP POP POP JUMP JUMPDEST PUSH32 0x0 PUSH20 0xFFFFFFFFFFFFFFFFFFFFFFFFFFFFFFFFFFFFFFFF AND PUSH4 0x23B872DD CALLER ADDRESS DUP5 PUSH1 0x40 MLOAD DUP5 PUSH4 0xFFFFFFFF AND PUSH1 0xE0 SHL DUP2 MSTORE PUSH1 0x4 ADD PUSH2 0x4C64 SWAP4 SWAP3 SWAP2 SWAP1 PUSH2 0x7555 JUMP JUMPDEST PUSH1 0x20 PUSH1 0x40 MLOAD DUP1 DUP4 SUB DUP2 PUSH1 0x0 DUP8 GAS CALL ISZERO DUP1 ISZERO PUSH2 0x4C83 JUMPI RETURNDATASIZE PUSH1 0x0 DUP1 RETURNDATACOPY RETURNDATASIZE PUSH1 0x0 REVERT JUMPDEST POP POP POP POP PUSH1 0x40 MLOAD RETURNDATASIZE PUSH1 0x1F NOT PUSH1 0x1F DUP3 ADD AND DUP3 ADD DUP1 PUSH1 0x40 MSTORE POP DUP2 ADD SWAP1 PUSH2 0x4CA7 SWAP2 SWAP1 PUSH2 0x5E52 JUMP JUMPDEST PUSH2 0x4CB0 JUMPI PUSH1 0x0 DUP1 REVERT JUMPDEST DUP1 PUSH1 0x2C PUSH1 0x0 CALLER PUSH20 0xFFFFFFFFFFFFFFFFFFFFFFFFFFFFFFFFFFFFFFFF AND PUSH20 0xFFFFFFFFFFFFFFFFFFFFFFFFFFFFFFFFFFFFFFFF AND DUP2 MSTORE PUSH1 0x20 ADD SWAP1 DUP2 MSTORE PUSH1 0x20 ADD PUSH1 0x0 KECCAK256 PUSH1 0x0 DUP3 DUP3 SLOAD ADD SWAP3 POP POP DUP2 SWAP1 SSTORE POP PUSH1 0x0 PUSH20 0xFFFFFFFFFFFFFFFFFFFFFFFFFFFFFFFFFFFFFFFF AND PUSH1 0x30 PUSH1 0x0 CALLER PUSH20 0xFFFFFFFFFFFFFFFFFFFFFFFFFFFFFFFFFFFFFFFF AND PUSH20 0xFFFFFFFFFFFFFFFFFFFFFFFFFFFFFFFFFFFFFFFF AND DUP2 MSTORE PUSH1 0x20 ADD SWAP1 DUP2 MSTORE PUSH1 0x20 ADD PUSH1 0x0 KECCAK256 PUSH1 0x0 SWAP1 SLOAD SWAP1 PUSH2 0x100 EXP SWAP1 DIV PUSH20 0xFFFFFFFFFFFFFFFFFFFFFFFFFFFFFFFFFFFFFFFF AND PUSH20 0xFFFFFFFFFFFFFFFFFFFFFFFFFFFFFFFFFFFFFFFF AND EQ PUSH2 0x4E90 JUMPI PUSH1 0x0 PUSH1 0x2B PUSH1 0x0 ADD PUSH1 0x2 SWAP1 SLOAD SWAP1 PUSH2 0x100 EXP SWAP1 DIV PUSH2 0xFFFF AND PUSH2 0xFFFF AND PUSH1 0x2B PUSH1 0x0 ADD PUSH1 0x0 SWAP1 SLOAD SWAP1 PUSH2 0x100 EXP SWAP1 DIV PUSH2 0xFFFF AND PUSH2 0xFFFF AND DUP4 PUSH2 0x4DCD SWAP2 SWAP1 PUSH2 0x5D17 JUMP JUMPDEST PUSH2 0x4DD7 SWAP2 SWAP1 PUSH2 0x5DA0 JUMP JUMPDEST SWAP1 POP DUP1 PUSH1 0x2C PUSH1 0x0 PUSH1 0x30 PUSH1 0x0 CALLER PUSH20 0xFFFFFFFFFFFFFFFFFFFFFFFFFFFFFFFFFFFFFFFF AND PUSH20 0xFFFFFFFFFFFFFFFFFFFFFFFFFFFFFFFFFFFFFFFF AND DUP2 MSTORE PUSH1 0x20 ADD SWAP1 DUP2 MSTORE PUSH1 0x20 ADD PUSH1 0x0 KECCAK256 PUSH1 0x0 SWAP1 SLOAD SWAP1 PUSH2 0x100 EXP SWAP1 DIV PUSH20 0xFFFFFFFFFFFFFFFFFFFFFFFFFFFFFFFFFFFFFFFF AND PUSH20 0xFFFFFFFFFFFFFFFFFFFFFFFFFFFFFFFFFFFFFFFF AND PUSH20 0xFFFFFFFFFFFFFFFFFFFFFFFFFFFFFFFFFFFFFFFF AND DUP2 MSTORE PUSH1 0x20 ADD SWAP1 DUP2 MSTORE PUSH1 0x20 ADD PUSH1 0x0 KECCAK256 PUSH1 0x0 DUP3 DUP3 SLOAD PUSH2 0x4E87 SWAP2 SWAP1 PUSH2 0x5E7F JUMP JUMPDEST SWAP3 POP POP DUP2 SWAP1 SSTORE POP POP JUMPDEST CALLER PUSH20 0xFFFFFFFFFFFFFFFFFFFFFFFFFFFFFFFFFFFFFFFF AND PUSH32 0x9B5CE49FFBC992EE67BAAD9481FF227141A5C0C1A324C22392A4581857D3E215 DUP3 PUSH1 0x40 MLOAD PUSH2 0x4ED6 SWAP2 SWAP1 PUSH2 0x52BC JUMP JUMPDEST PUSH1 0x40 MLOAD DUP1 SWAP2 SUB SWAP1 LOG2 POP JUMP JUMPDEST PUSH1 0x40 MLOAD DUP1 PUSH1 0x80 ADD PUSH1 0x40 MSTORE DUP1 PUSH1 0x0 PUSH4 0xFFFFFFFF AND DUP2 MSTORE PUSH1 0x20 ADD PUSH1 0x0 PUSH4 0xFFFFFFFF AND DUP2 MSTORE PUSH1 0x20 ADD PUSH1 0x0 DUP2 MSTORE PUSH1 0x20 ADD PUSH2 0x4F15 PUSH2 0x4F76 JUMP JUMPDEST DUP2 MSTORE POP SWAP1 JUMP JUMPDEST PUSH1 0x40 MLOAD DUP1 PUSH1 0x60 ADD PUSH1 0x40 MSTORE DUP1 PUSH1 0x60 DUP2 MSTORE PUSH1 0x20 ADD PUSH1 0x60 DUP2 MSTORE PUSH1 0x20 ADD PUSH1 0x60 DUP2 MSTORE POP SWAP1 JUMP JUMPDEST PUSH1 0x40 MLOAD DUP1 PUSH1 0xA0 ADD PUSH1 0x40 MSTORE DUP1 PUSH1 0x0 PUSH3 0xFFFFFF AND DUP2 MSTORE PUSH1 0x20 ADD PUSH1 0x0 PUSH4 0xFFFFFFFF AND DUP2 MSTORE PUSH1 0x20 ADD PUSH1 0x0 DUP2 MSTORE PUSH1 0x20 ADD PUSH1 0x0 DUP2 MSTORE PUSH1 0x20 ADD PUSH1 0x0 DUP2 MSTORE POP SWAP1 JUMP JUMPDEST PUSH1 0x40 MLOAD DUP1 PUSH1 0x40 ADD PUSH1 0x40 MSTORE DUP1 PUSH1 0x0 PUSH2 0xFFFF AND DUP2 MSTORE PUSH1 0x20 ADD PUSH1 0x0 PUSH2 0xFFFF AND DUP2 MSTORE POP SWAP1 JUMP JUMPDEST PUSH1 0x0 PUSH1 0x40 MLOAD SWAP1 POP SWAP1 JUMP JUMPDEST PUSH1 0x0 DUP1 REVERT JUMPDEST PUSH1 0x0 DUP1 REVERT JUMPDEST PUSH1 0x0 PUSH20 0xFFFFFFFFFFFFFFFFFFFFFFFFFFFFFFFFFFFFFFFF DUP3 AND SWAP1 POP SWAP2 SWAP1 POP JUMP JUMPDEST PUSH1 0x0 PUSH2 0x4FD7 DUP3 PUSH2 0x4FAC JUMP JUMPDEST SWAP1 POP SWAP2 SWAP1 POP JUMP JUMPDEST PUSH2 0x4FE7 DUP2 PUSH2 0x4FCC JUMP JUMPDEST DUP2 EQ PUSH2 0x4FF2 JUMPI PUSH1 0x0 DUP1 REVERT JUMPDEST POP JUMP JUMPDEST PUSH1 0x0 DUP2 CALLDATALOAD SWAP1 POP PUSH2 0x5004 DUP2 PUSH2 0x4FDE JUMP JUMPDEST SWAP3 SWAP2 POP POP JUMP JUMPDEST PUSH1 0x0 DUP2 SWAP1 POP SWAP2 SWAP1 POP JUMP JUMPDEST PUSH2 0x501D DUP2 PUSH2 0x500A JUMP JUMPDEST DUP2 EQ PUSH2 0x5028 JUMPI PUSH1 0x0 DUP1 REVERT JUMPDEST POP JUMP JUMPDEST PUSH1 0x0 DUP2 CALLDATALOAD SWAP1 POP PUSH2 0x503A DUP2 PUSH2 0x5014 JUMP JUMPDEST SWAP3 SWAP2 POP POP JUMP JUMPDEST PUSH1 0x0 DUP1 PUSH1 0x40 DUP4 DUP6 SUB SLT ISZERO PUSH2 0x5057 JUMPI PUSH2 0x5056 PUSH2 0x4FA2 JUMP JUMPDEST JUMPDEST PUSH1 0x0 PUSH2 0x5065 DUP6 DUP3 DUP7 ADD PUSH2 0x4FF5 JUMP JUMPDEST SWAP3 POP POP PUSH1 0x20 PUSH2 0x5076 DUP6 DUP3 DUP7 ADD PUSH2 0x502B JUMP JUMPDEST SWAP2 POP POP SWAP3 POP SWAP3 SWAP1 POP JUMP JUMPDEST PUSH1 0x0 DUP2 MLOAD SWAP1 POP SWAP2 SWAP1 POP JUMP JUMPDEST PUSH1 0x0 DUP3 DUP3 MSTORE PUSH1 0x20 DUP3 ADD SWAP1 POP SWAP3 SWAP2 POP POP JUMP JUMPDEST PUSH1 0x0 JUMPDEST DUP4 DUP2 LT ISZERO PUSH2 0x50BA JUMPI DUP1 DUP3 ADD MLOAD DUP2 DUP5 ADD MSTORE PUSH1 0x20 DUP2 ADD SWAP1 POP PUSH2 0x509F JUMP JUMPDEST DUP4 DUP2 GT ISZERO PUSH2 0x50C9 JUMPI PUSH1 0x0 DUP5 DUP5 ADD MSTORE JUMPDEST POP POP POP POP JUMP JUMPDEST PUSH1 0x0 PUSH1 0x1F NOT PUSH1 0x1F DUP4 ADD AND SWAP1 POP SWAP2 SWAP1 POP JUMP JUMPDEST PUSH1 0x0 PUSH2 0x50EB DUP3 PUSH2 0x5080 JUMP JUMPDEST PUSH2 0x50F5 DUP2 DUP6 PUSH2 0x508B JUMP JUMPDEST SWAP4 POP PUSH2 0x5105 DUP2 DUP6 PUSH1 0x20 DUP7 ADD PUSH2 0x509C JUMP JUMPDEST PUSH2 0x510E DUP2 PUSH2 0x50CF JUMP JUMPDEST DUP5 ADD SWAP2 POP POP SWAP3 SWAP2 POP POP JUMP JUMPDEST PUSH1 0x0 PUSH1 0x20 DUP3 ADD SWAP1 POP DUP2 DUP2 SUB PUSH1 0x0 DUP4 ADD MSTORE PUSH2 0x5133 DUP2 DUP5 PUSH2 0x50E0 JUMP JUMPDEST SWAP1 POP SWAP3 SWAP2 POP POP JUMP JUMPDEST PUSH1 0x0 DUP2 ISZERO ISZERO SWAP1 POP SWAP2 SWAP1 POP JUMP JUMPDEST PUSH2 0x5150 DUP2 PUSH2 0x513B JUMP JUMPDEST DUP3 MSTORE POP POP JUMP JUMPDEST PUSH1 0x0 PUSH1 0x20 DUP3 ADD SWAP1 POP PUSH2 0x516B PUSH1 0x0 DUP4 ADD DUP5 PUSH2 0x5147 JUMP JUMPDEST SWAP3 SWAP2 POP POP JUMP JUMPDEST PUSH1 0x0 DUP1 REVERT JUMPDEST PUSH1 0x0 DUP1 REVERT JUMPDEST PUSH1 0x0 DUP1 REVERT JUMPDEST PUSH1 0x0 DUP1 DUP4 PUSH1 0x1F DUP5 ADD SLT PUSH2 0x5196 JUMPI PUSH2 0x5195 PUSH2 0x5171 JUMP JUMPDEST JUMPDEST DUP3 CALLDATALOAD SWAP1 POP PUSH8 0xFFFFFFFFFFFFFFFF DUP2 GT ISZERO PUSH2 0x51B3 JUMPI PUSH2 0x51B2 PUSH2 0x5176 JUMP JUMPDEST JUMPDEST PUSH1 0x20 DUP4 ADD SWAP2 POP DUP4 PUSH1 0x20 DUP3 MUL DUP4 ADD GT ISZERO PUSH2 0x51CF JUMPI PUSH2 0x51CE PUSH2 0x517B JUMP JUMPDEST JUMPDEST SWAP3 POP SWAP3 SWAP1 POP JUMP JUMPDEST PUSH1 0x0 DUP1 DUP4 PUSH1 0x1F DUP5 ADD SLT PUSH2 0x51EC JUMPI PUSH2 0x51EB PUSH2 0x5171 JUMP JUMPDEST JUMPDEST DUP3 CALLDATALOAD SWAP1 POP PUSH8 0xFFFFFFFFFFFFFFFF DUP2 GT ISZERO PUSH2 0x5209 JUMPI PUSH2 0x5208 PUSH2 0x5176 JUMP JUMPDEST JUMPDEST PUSH1 0x20 DUP4 ADD SWAP2 POP DUP4 PUSH1 0x20 DUP3 MUL DUP4 ADD GT ISZERO PUSH2 0x5225 JUMPI PUSH2 0x5224 PUSH2 0x517B JUMP JUMPDEST JUMPDEST SWAP3 POP SWAP3 SWAP1 POP JUMP JUMPDEST PUSH1 0x0 DUP1 PUSH1 0x0 DUP1 PUSH1 0x40 DUP6 DUP8 SUB SLT ISZERO PUSH2 0x5246 JUMPI PUSH2 0x5245 PUSH2 0x4FA2 JUMP JUMPDEST JUMPDEST PUSH1 0x0 DUP6 ADD CALLDATALOAD PUSH8 0xFFFFFFFFFFFFFFFF DUP2 GT ISZERO PUSH2 0x5264 JUMPI PUSH2 0x5263 PUSH2 0x4FA7 JUMP JUMPDEST JUMPDEST PUSH2 0x5270 DUP8 DUP3 DUP9 ADD PUSH2 0x5180 JUMP JUMPDEST SWAP5 POP SWAP5 POP POP PUSH1 0x20 DUP6 ADD CALLDATALOAD PUSH8 0xFFFFFFFFFFFFFFFF DUP2 GT ISZERO PUSH2 0x5293 JUMPI PUSH2 0x5292 PUSH2 0x4FA7 JUMP JUMPDEST JUMPDEST PUSH2 0x529F DUP8 DUP3 DUP9 ADD PUSH2 0x51D6 JUMP JUMPDEST SWAP3 POP SWAP3 POP POP SWAP3 SWAP6 SWAP2 SWAP5 POP SWAP3 POP JUMP JUMPDEST PUSH2 0x52B6 DUP2 PUSH2 0x500A JUMP JUMPDEST DUP3 MSTORE POP POP JUMP JUMPDEST PUSH1 0x0 PUSH1 0x20 DUP3 ADD SWAP1 POP PUSH2 0x52D1 PUSH1 0x0 DUP4 ADD DUP5 PUSH2 0x52AD JUMP JUMPDEST SWAP3 SWAP2 POP POP JUMP JUMPDEST PUSH1 0x0 DUP1 PUSH1 0x40 DUP4 DUP6 SUB SLT ISZERO PUSH2 0x52EE JUMPI PUSH2 0x52ED PUSH2 0x4FA2 JUMP JUMPDEST JUMPDEST PUSH1 0x0 PUSH2 0x52FC DUP6 DUP3 DUP7 ADD PUSH2 0x502B JUMP JUMPDEST SWAP3 POP POP PUSH1 0x20 PUSH2 0x530D DUP6 DUP3 DUP7 ADD PUSH2 0x502B JUMP JUMPDEST SWAP2 POP POP SWAP3 POP SWAP3 SWAP1 POP JUMP JUMPDEST PUSH1 0x0 DUP1 PUSH1 0x0 PUSH1 0x60 DUP5 DUP7 SUB SLT ISZERO PUSH2 0x5330 JUMPI PUSH2 0x532F PUSH2 0x4FA2 JUMP JUMPDEST JUMPDEST PUSH1 0x0 PUSH2 0x533E DUP7 DUP3 DUP8 ADD PUSH2 0x4FF5 JUMP JUMPDEST SWAP4 POP POP PUSH1 0x20 PUSH2 0x534F DUP7 DUP3 DUP8 ADD PUSH2 0x4FF5 JUMP JUMPDEST SWAP3 POP POP PUSH1 0x40 PUSH2 0x5360 DUP7 DUP3 DUP8 ADD PUSH2 0x502B JUMP JUMPDEST SWAP2 POP POP SWAP3 POP SWAP3 POP SWAP3 JUMP JUMPDEST PUSH1 0x0 PUSH1 0x20 DUP3 DUP5 SUB SLT ISZERO PUSH2 0x5380 JUMPI PUSH2 0x537F PUSH2 0x4FA2 JUMP JUMPDEST JUMPDEST PUSH1 0x0 PUSH2 0x538E DUP5 DUP3 DUP6 ADD PUSH2 0x4FF5 JUMP JUMPDEST SWAP2 POP POP SWAP3 SWAP2 POP POP JUMP JUMPDEST PUSH1 0x0 PUSH1 0xFF DUP3 AND SWAP1 POP SWAP2 SWAP1 POP JUMP JUMPDEST PUSH2 0x53AD DUP2 PUSH2 0x5397 JUMP JUMPDEST DUP3 MSTORE POP POP JUMP JUMPDEST PUSH1 0x0 PUSH1 0x20 DUP3 ADD SWAP1 POP PUSH2 0x53C8 PUSH1 0x0 DUP4 ADD DUP5 PUSH2 0x53A4 JUMP JUMPDEST SWAP3 SWAP2 POP POP JUMP JUMPDEST PUSH1 0x0 DUP1 REVERT JUMPDEST PUSH1 0x0 PUSH1 0x40 DUP3 DUP5 SUB SLT ISZERO PUSH2 0x53E9 JUMPI PUSH2 0x53E8 PUSH2 0x53CE JUMP JUMPDEST JUMPDEST DUP2 SWAP1 POP SWAP3 SWAP2 POP POP JUMP JUMPDEST PUSH1 0x0 PUSH1 0x40 DUP3 DUP5 SUB SLT ISZERO PUSH2 0x5408 JUMPI PUSH2 0x5407 PUSH2 0x4FA2 JUMP JUMPDEST JUMPDEST PUSH1 0x0 PUSH2 0x5416 DUP5 DUP3 DUP6 ADD PUSH2 0x53D3 JUMP JUMPDEST SWAP2 POP POP SWAP3 SWAP2 POP POP JUMP JUMPDEST PUSH1 0x0 DUP1 PUSH1 0x40 DUP4 DUP6 SUB SLT ISZERO PUSH2 0x5436 JUMPI PUSH2 0x5435 PUSH2 0x4FA2 JUMP JUMPDEST JUMPDEST PUSH1 0x0 PUSH2 0x5444 DUP6 DUP3 DUP7 ADD PUSH2 0x4FF5 JUMP JUMPDEST SWAP3 POP POP PUSH1 0x20 PUSH2 0x5455 DUP6 DUP3 DUP7 ADD PUSH2 0x4FF5 JUMP JUMPDEST SWAP2 POP POP SWAP3 POP SWAP3 SWAP1 POP JUMP JUMPDEST PUSH2 0x5468 DUP2 PUSH2 0x513B JUMP JUMPDEST DUP2 EQ PUSH2 0x5473 JUMPI PUSH1 0x0 DUP1 REVERT JUMPDEST POP JUMP JUMPDEST PUSH1 0x0 DUP2 CALLDATALOAD SWAP1 POP PUSH2 0x5485 DUP2 PUSH2 0x545F JUMP JUMPDEST SWAP3 SWAP2 POP POP JUMP JUMPDEST PUSH1 0x0 DUP1 PUSH1 0x40 DUP4 DUP6 SUB SLT ISZERO PUSH2 0x54A2 JUMPI PUSH2 0x54A1 PUSH2 0x4FA2 JUMP JUMPDEST JUMPDEST PUSH1 0x0 PUSH2 0x54B0 DUP6 DUP3 DUP7 ADD PUSH2 0x4FF5 JUMP JUMPDEST SWAP3 POP POP PUSH1 0x20 PUSH2 0x54C1 DUP6 DUP3 DUP7 ADD PUSH2 0x5476 JUMP JUMPDEST SWAP2 POP POP SWAP3 POP SWAP3 SWAP1 POP JUMP JUMPDEST PUSH1 0x0 PUSH4 0xFFFFFFFF DUP3 AND SWAP1 POP SWAP2 SWAP1 POP JUMP JUMPDEST PUSH2 0x54E4 DUP2 PUSH2 0x54CB JUMP JUMPDEST DUP3 MSTORE POP POP JUMP JUMPDEST PUSH2 0x54F3 DUP2 PUSH2 0x500A JUMP JUMPDEST DUP3 MSTORE POP POP JUMP JUMPDEST PUSH1 0x0 PUSH2 0xFFFF DUP3 AND SWAP1 POP SWAP2 SWAP1 POP JUMP JUMPDEST PUSH2 0x5510 DUP2 PUSH2 0x54F9 JUMP JUMPDEST DUP3 MSTORE POP POP JUMP JUMPDEST PUSH1 0x40 DUP3 ADD PUSH1 0x0 DUP3 ADD MLOAD PUSH2 0x552C PUSH1 0x0 DUP6 ADD DUP3 PUSH2 0x5507 JUMP JUMPDEST POP PUSH1 0x20 DUP3 ADD MLOAD PUSH2 0x553F PUSH1 0x20 DUP6 ADD DUP3 PUSH2 0x5507 JUMP JUMPDEST POP POP POP POP JUMP JUMPDEST PUSH1 0xA0 DUP3 ADD PUSH1 0x0 DUP3 ADD MLOAD PUSH2 0x555B PUSH1 0x0 DUP6 ADD DUP3 PUSH2 0x54DB JUMP JUMPDEST POP PUSH1 0x20 DUP3 ADD MLOAD PUSH2 0x556E PUSH1 0x20 DUP6 ADD DUP3 PUSH2 0x54DB JUMP JUMPDEST POP PUSH1 0x40 DUP3 ADD MLOAD PUSH2 0x5581 PUSH1 0x40 DUP6 ADD DUP3 PUSH2 0x54EA JUMP JUMPDEST POP PUSH1 0x60 DUP3 ADD MLOAD PUSH2 0x5594 PUSH1 0x60 DUP6 ADD DUP3 PUSH2 0x5516 JUMP JUMPDEST POP POP POP POP JUMP JUMPDEST PUSH1 0x0 PUSH1 0xA0 DUP3 ADD SWAP1 POP PUSH2 0x55AF PUSH1 0x0 DUP4 ADD DUP5 PUSH2 0x5545 JUMP JUMPDEST SWAP3 SWAP2 POP POP JUMP JUMPDEST PUSH1 0x0 PUSH1 0x20 DUP3 DUP5 SUB SLT ISZERO PUSH2 0x55CB JUMPI PUSH2 0x55CA PUSH2 0x4FA2 JUMP JUMPDEST JUMPDEST PUSH1 0x0 PUSH2 0x55D9 DUP5 DUP3 DUP6 ADD PUSH2 0x502B JUMP JUMPDEST SWAP2 POP POP SWAP3 SWAP2 POP POP JUMP JUMPDEST PUSH1 0x0 PUSH1 0xA0 DUP3 DUP5 SUB SLT ISZERO PUSH2 0x55F8 JUMPI PUSH2 0x55F7 PUSH2 0x53CE JUMP JUMPDEST JUMPDEST DUP2 SWAP1 POP SWAP3 SWAP2 POP POP JUMP JUMPDEST PUSH1 0x0 PUSH1 0xA0 DUP3 DUP5 SUB SLT ISZERO PUSH2 0x5617 JUMPI PUSH2 0x5616 PUSH2 0x4FA2 JUMP JUMPDEST JUMPDEST PUSH1 0x0 PUSH2 0x5625 DUP5 DUP3 DUP6 ADD PUSH2 0x55E2 JUMP JUMPDEST SWAP2 POP POP SWAP3 SWAP2 POP POP JUMP JUMPDEST PUSH1 0x0 PUSH1 0x60 DUP3 DUP5 SUB SLT ISZERO PUSH2 0x5644 JUMPI PUSH2 0x5643 PUSH2 0x53CE JUMP JUMPDEST JUMPDEST DUP2 SWAP1 POP SWAP3 SWAP2 POP POP JUMP JUMPDEST PUSH1 0x0 DUP1 PUSH1 0x40 DUP4 DUP6 SUB SLT ISZERO PUSH2 0x5664 JUMPI PUSH2 0x5663 PUSH2 0x4FA2 JUMP JUMPDEST JUMPDEST PUSH1 0x0 PUSH2 0x5672 DUP6 DUP3 DUP7 ADD PUSH2 0x502B JUMP JUMPDEST SWAP3 POP POP PUSH1 0x20 DUP4 ADD CALLDATALOAD PUSH8 0xFFFFFFFFFFFFFFFF DUP2 GT ISZERO PUSH2 0x5693 JUMPI PUSH2 0x5692 PUSH2 0x4FA7 JUMP JUMPDEST JUMPDEST PUSH2 0x569F DUP6 DUP3 DUP7 ADD PUSH2 0x562E JUMP JUMPDEST SWAP2 POP POP SWAP3 POP SWAP3 SWAP1 POP JUMP JUMPDEST PUSH1 0x0 DUP1 PUSH1 0xC0 DUP4 DUP6 SUB SLT ISZERO PUSH2 0x56C0 JUMPI PUSH2 0x56BF PUSH2 0x4FA2 JUMP JUMPDEST JUMPDEST PUSH1 0x0 PUSH2 0x56CE DUP6 DUP3 DUP7 ADD PUSH2 0x502B JUMP JUMPDEST SWAP3 POP POP PUSH1 0x20 PUSH2 0x56DF DUP6 DUP3 DUP7 ADD PUSH2 0x55E2 JUMP JUMPDEST SWAP2 POP POP SWAP3 POP SWAP3 SWAP1 POP JUMP JUMPDEST PUSH1 0x0 DUP2 MLOAD SWAP1 POP SWAP2 SWAP1 POP JUMP JUMPDEST PUSH1 0x0 DUP3 DUP3 MSTORE PUSH1 0x20 DUP3 ADD SWAP1 POP SWAP3 SWAP2 POP POP JUMP JUMPDEST PUSH1 0x0 DUP2 SWAP1 POP PUSH1 0x20 DUP3 ADD SWAP1 POP SWAP2 SWAP1 POP JUMP JUMPDEST PUSH1 0x0 PUSH2 0x5721 DUP4 DUP4 PUSH2 0x54EA JUMP JUMPDEST PUSH1 0x20 DUP4 ADD SWAP1 POP SWAP3 SWAP2 POP POP JUMP JUMPDEST PUSH1 0x0 PUSH1 0x20 DUP3 ADD SWAP1 POP SWAP2 SWAP1 POP JUMP JUMPDEST PUSH1 0x0 PUSH2 0x5745 DUP3 PUSH2 0x56E9 JUMP JUMPDEST PUSH2 0x574F DUP2 DUP6 PUSH2 0x56F4 JUMP JUMPDEST SWAP4 POP PUSH2 0x575A DUP4 PUSH2 0x5705 JUMP JUMPDEST DUP1 PUSH1 0x0 JUMPDEST DUP4 DUP2 LT ISZERO PUSH2 0x578B JUMPI DUP2 MLOAD PUSH2 0x5772 DUP9 DUP3 PUSH2 0x5715 JUMP JUMPDEST SWAP8 POP PUSH2 0x577D DUP4 PUSH2 0x572D JUMP JUMPDEST SWAP3 POP POP PUSH1 0x1 DUP2 ADD SWAP1 POP PUSH2 0x575E JUMP JUMPDEST POP DUP6 SWAP4 POP POP POP POP SWAP3 SWAP2 POP POP JUMP JUMPDEST PUSH1 0x0 DUP2 MLOAD SWAP1 POP SWAP2 SWAP1 POP JUMP JUMPDEST PUSH1 0x0 DUP3 DUP3 MSTORE PUSH1 0x20 DUP3 ADD SWAP1 POP SWAP3 SWAP2 POP POP JUMP JUMPDEST PUSH1 0x0 DUP2 SWAP1 POP PUSH1 0x20 DUP3 ADD SWAP1 POP SWAP2 SWAP1 POP JUMP JUMPDEST PUSH1 0x0 PUSH2 0x57D0 DUP4 DUP4 PUSH2 0x5516 JUMP JUMPDEST PUSH1 0x40 DUP4 ADD SWAP1 POP SWAP3 SWAP2 POP POP JUMP JUMPDEST PUSH1 0x0 PUSH1 0x20 DUP3 ADD SWAP1 POP SWAP2 SWAP1 POP JUMP JUMPDEST PUSH1 0x0 PUSH2 0x57F4 DUP3 PUSH2 0x5798 JUMP JUMPDEST PUSH2 0x57FE DUP2 DUP6 PUSH2 0x57A3 JUMP JUMPDEST SWAP4 POP PUSH2 0x5809 DUP4 PUSH2 0x57B4 JUMP JUMPDEST DUP1 PUSH1 0x0 JUMPDEST DUP4 DUP2 LT ISZERO PUSH2 0x583A JUMPI DUP2 MLOAD PUSH2 0x5821 DUP9 DUP3 PUSH2 0x57C4 JUMP JUMPDEST SWAP8 POP PUSH2 0x582C DUP4 PUSH2 0x57DC JUMP JUMPDEST SWAP3 POP POP PUSH1 0x1 DUP2 ADD SWAP1 POP PUSH2 0x580D JUMP JUMPDEST POP DUP6 SWAP4 POP POP POP POP SWAP3 SWAP2 POP POP JUMP JUMPDEST PUSH1 0x0 PUSH1 0x60 DUP4 ADD PUSH1 0x0 DUP4 ADD MLOAD DUP5 DUP3 SUB PUSH1 0x0 DUP7 ADD MSTORE PUSH2 0x5864 DUP3 DUP3 PUSH2 0x573A JUMP JUMPDEST SWAP2 POP POP PUSH1 0x20 DUP4 ADD MLOAD DUP5 DUP3 SUB PUSH1 0x20 DUP7 ADD MSTORE PUSH2 0x587E DUP3 DUP3 PUSH2 0x57E9 JUMP JUMPDEST SWAP2 POP POP PUSH1 0x40 DUP4 ADD MLOAD DUP5 DUP3 SUB PUSH1 0x40 DUP7 ADD MSTORE PUSH2 0x5898 DUP3 DUP3 PUSH2 0x57E9 JUMP JUMPDEST SWAP2 POP POP DUP1 SWAP2 POP POP SWAP3 SWAP2 POP POP JUMP JUMPDEST PUSH1 0x0 PUSH1 0x20 DUP3 ADD SWAP1 POP DUP2 DUP2 SUB PUSH1 0x0 DUP4 ADD MSTORE PUSH2 0x58BF DUP2 DUP5 PUSH2 0x5847 JUMP JUMPDEST SWAP1 POP SWAP3 SWAP2 POP POP JUMP JUMPDEST PUSH1 0x0 DUP1 PUSH1 0x40 DUP4 DUP6 SUB SLT ISZERO PUSH2 0x58DE JUMPI PUSH2 0x58DD PUSH2 0x4FA2 JUMP JUMPDEST JUMPDEST PUSH1 0x0 PUSH2 0x58EC DUP6 DUP3 DUP7 ADD PUSH2 0x502B JUMP JUMPDEST SWAP3 POP POP PUSH1 0x20 PUSH2 0x58FD DUP6 DUP3 DUP7 ADD PUSH2 0x4FF5 JUMP JUMPDEST SWAP2 POP POP SWAP3 POP SWAP3 SWAP1 POP JUMP JUMPDEST PUSH1 0x0 DUP1 REVERT JUMPDEST PUSH32 0x4E487B7100000000000000000000000000000000000000000000000000000000 PUSH1 0x0 MSTORE PUSH1 0x41 PUSH1 0x4 MSTORE PUSH1 0x24 PUSH1 0x0 REVERT JUMPDEST PUSH2 0x5944 DUP3 PUSH2 0x50CF JUMP JUMPDEST DUP2 ADD DUP2 DUP2 LT PUSH8 0xFFFFFFFFFFFFFFFF DUP3 GT OR ISZERO PUSH2 0x5963 JUMPI PUSH2 0x5962 PUSH2 0x590C JUMP JUMPDEST JUMPDEST DUP1 PUSH1 0x40 MSTORE POP POP POP JUMP JUMPDEST PUSH1 0x0 PUSH2 0x5976 PUSH2 0x4F98 JUMP JUMPDEST SWAP1 POP PUSH2 0x5982 DUP3 DUP3 PUSH2 0x593B JUMP JUMPDEST SWAP2 SWAP1 POP JUMP JUMPDEST PUSH2 0x5990 DUP2 PUSH2 0x54F9 JUMP JUMPDEST DUP2 EQ PUSH2 0x599B JUMPI PUSH1 0x0 DUP1 REVERT JUMPDEST POP JUMP JUMPDEST PUSH1 0x0 DUP2 CALLDATALOAD SWAP1 POP PUSH2 0x59AD DUP2 PUSH2 0x5987 JUMP JUMPDEST SWAP3 SWAP2 POP POP JUMP JUMPDEST PUSH1 0x0 PUSH1 0x40 DUP3 DUP5 SUB SLT ISZERO PUSH2 0x59C9 JUMPI PUSH2 0x59C8 PUSH2 0x5907 JUMP JUMPDEST JUMPDEST PUSH2 0x59D3 PUSH1 0x40 PUSH2 0x596C JUMP JUMPDEST SWAP1 POP PUSH1 0x0 PUSH2 0x59E3 DUP5 DUP3 DUP6 ADD PUSH2 0x599E JUMP JUMPDEST PUSH1 0x0 DUP4 ADD MSTORE POP PUSH1 0x20 PUSH2 0x59F7 DUP5 DUP3 DUP6 ADD PUSH2 0x599E JUMP JUMPDEST PUSH1 0x20 DUP4 ADD MSTORE POP SWAP3 SWAP2 POP POP JUMP JUMPDEST PUSH1 0x0 DUP1 PUSH1 0x0 PUSH1 0x80 DUP5 DUP7 SUB SLT ISZERO PUSH2 0x5A1C JUMPI PUSH2 0x5A1B PUSH2 0x4FA2 JUMP JUMPDEST JUMPDEST PUSH1 0x0 PUSH2 0x5A2A DUP7 DUP3 DUP8 ADD PUSH2 0x502B JUMP JUMPDEST SWAP4 POP POP PUSH1 0x20 PUSH2 0x5A3B DUP7 DUP3 DUP8 ADD PUSH2 0x502B JUMP JUMPDEST SWAP3 POP POP PUSH1 0x40 PUSH2 0x5A4C DUP7 DUP3 DUP8 ADD PUSH2 0x59B3 JUMP JUMPDEST SWAP2 POP POP SWAP3 POP SWAP3 POP SWAP3 JUMP JUMPDEST PUSH1 0x0 PUSH3 0xFFFFFF DUP3 AND SWAP1 POP SWAP2 SWAP1 POP JUMP JUMPDEST PUSH2 0x5A6E DUP2 PUSH2 0x5A56 JUMP JUMPDEST DUP3 MSTORE POP POP JUMP JUMPDEST PUSH1 0xA0 DUP3 ADD PUSH1 0x0 DUP3 ADD MLOAD PUSH2 0x5A8A PUSH1 0x0 DUP6 ADD DUP3 PUSH2 0x5A65 JUMP JUMPDEST POP PUSH1 0x20 DUP3 ADD MLOAD PUSH2 0x5A9D PUSH1 0x20 DUP6 ADD DUP3 PUSH2 0x54DB JUMP JUMPDEST POP PUSH1 0x40 DUP3 ADD MLOAD PUSH2 0x5AB0 PUSH1 0x40 DUP6 ADD DUP3 PUSH2 0x54EA JUMP JUMPDEST POP PUSH1 0x60 DUP3 ADD MLOAD PUSH2 0x5AC3 PUSH1 0x60 DUP6 ADD DUP3 PUSH2 0x54EA JUMP JUMPDEST POP PUSH1 0x80 DUP3 ADD MLOAD PUSH2 0x5AD6 PUSH1 0x80 DUP6 ADD DUP3 PUSH2 0x54EA JUMP JUMPDEST POP POP POP POP JUMP JUMPDEST PUSH1 0x0 PUSH1 0xA0 DUP3 ADD SWAP1 POP PUSH2 0x5AF1 PUSH1 0x0 DUP4 ADD DUP5 PUSH2 0x5A74 JUMP JUMPDEST SWAP3 SWAP2 POP POP JUMP JUMPDEST PUSH1 0x0 PUSH1 0x20 DUP3 DUP5 SUB SLT ISZERO PUSH2 0x5B0D JUMPI PUSH2 0x5B0C PUSH2 0x4FA2 JUMP JUMPDEST JUMPDEST PUSH1 0x0 PUSH2 0x5B1B DUP5 DUP3 DUP6 ADD PUSH2 0x5476 JUMP JUMPDEST SWAP2 POP POP SWAP3 SWAP2 POP POP JUMP JUMPDEST PUSH1 0x0 PUSH5 0xFFFFFFFFFF DUP3 AND SWAP1 POP SWAP2 SWAP1 POP JUMP JUMPDEST PUSH2 0x5B3E DUP2 PUSH2 0x5B24 JUMP JUMPDEST DUP3 MSTORE POP POP JUMP JUMPDEST PUSH1 0x0 PUSH1 0x20 DUP3 ADD SWAP1 POP PUSH2 0x5B59 PUSH1 0x0 DUP4 ADD DUP5 PUSH2 0x5B35 JUMP JUMPDEST SWAP3 SWAP2 POP POP JUMP JUMPDEST PUSH2 0x5B68 DUP2 PUSH2 0x54CB JUMP JUMPDEST DUP3 MSTORE POP POP JUMP JUMPDEST PUSH1 0x40 DUP3 ADD PUSH1 0x0 DUP3 ADD MLOAD PUSH2 0x5B84 PUSH1 0x0 DUP6 ADD DUP3 PUSH2 0x5507 JUMP JUMPDEST POP PUSH1 0x20 DUP3 ADD MLOAD PUSH2 0x5B97 PUSH1 0x20 DUP6 ADD DUP3 PUSH2 0x5507 JUMP JUMPDEST POP POP POP POP JUMP JUMPDEST PUSH1 0x0 PUSH1 0xA0 DUP3 ADD SWAP1 POP PUSH2 0x5BB2 PUSH1 0x0 DUP4 ADD DUP8 PUSH2 0x5B5F JUMP JUMPDEST PUSH2 0x5BBF PUSH1 0x20 DUP4 ADD DUP7 PUSH2 0x5B5F JUMP JUMPDEST PUSH2 0x5BCC PUSH1 0x40 DUP4 ADD DUP6 PUSH2 0x52AD JUMP JUMPDEST PUSH2 0x5BD9 PUSH1 0x60 DUP4 ADD DUP5 PUSH2 0x5B6E JUMP JUMPDEST SWAP6 SWAP5 POP POP POP POP POP JUMP JUMPDEST PUSH1 0x0 PUSH2 0x5BED DUP3 PUSH2 0x4FAC JUMP JUMPDEST SWAP1 POP SWAP2 SWAP1 POP JUMP JUMPDEST PUSH2 0x5BFD DUP2 PUSH2 0x5BE2 JUMP JUMPDEST DUP2 EQ PUSH2 0x5C08 JUMPI PUSH1 0x0 DUP1 REVERT JUMPDEST POP JUMP JUMPDEST PUSH1 0x0 DUP2 CALLDATALOAD SWAP1 POP PUSH2 0x5C1A DUP2 PUSH2 0x5BF4 JUMP JUMPDEST SWAP3 SWAP2 POP POP JUMP JUMPDEST PUSH1 0x0 PUSH1 0x20 DUP3 DUP5 SUB SLT ISZERO PUSH2 0x5C36 JUMPI PUSH2 0x5C35 PUSH2 0x4FA2 JUMP JUMPDEST JUMPDEST PUSH1 0x0 PUSH2 0x5C44 DUP5 DUP3 DUP6 ADD PUSH2 0x5C0B JUMP JUMPDEST SWAP2 POP POP SWAP3 SWAP2 POP POP JUMP JUMPDEST PUSH32 0x5468617420706C6F7420646F6573206E6F742065786973742E00000000000000 PUSH1 0x0 DUP3 ADD MSTORE POP JUMP JUMPDEST PUSH1 0x0 PUSH2 0x5C83 PUSH1 0x19 DUP4 PUSH2 0x508B JUMP JUMPDEST SWAP2 POP PUSH2 0x5C8E DUP3 PUSH2 0x5C4D JUMP JUMPDEST PUSH1 0x20 DUP3 ADD SWAP1 POP SWAP2 SWAP1 POP JUMP JUMPDEST PUSH1 0x0 PUSH1 0x20 DUP3 ADD SWAP1 POP DUP2 DUP2 SUB PUSH1 0x0 DUP4 ADD MSTORE PUSH2 0x5CB2 DUP2 PUSH2 0x5C76 JUMP JUMPDEST SWAP1 POP SWAP2 SWAP1 POP JUMP JUMPDEST PUSH32 0x4E487B7100000000000000000000000000000000000000000000000000000000 PUSH1 0x0 MSTORE PUSH1 0x32 PUSH1 0x4 MSTORE PUSH1 0x24 PUSH1 0x0 REVERT JUMPDEST PUSH32 0x4E487B7100000000000000000000000000000000000000000000000000000000 PUSH1 0x0 MSTORE PUSH1 0x11 PUSH1 0x4 MSTORE PUSH1 0x24 PUSH1 0x0 REVERT JUMPDEST PUSH1 0x0 PUSH2 0x5D22 DUP3 PUSH2 0x500A JUMP JUMPDEST SWAP2 POP PUSH2 0x5D2D DUP4 PUSH2 0x500A JUMP JUMPDEST SWAP3 POP DUP2 PUSH32 0xFFFFFFFFFFFFFFFFFFFFFFFFFFFFFFFFFFFFFFFFFFFFFFFFFFFFFFFFFFFFFFFF DIV DUP4 GT DUP3 ISZERO ISZERO AND ISZERO PUSH2 0x5D66 JUMPI PUSH2 0x5D65 PUSH2 0x5CE8 JUMP JUMPDEST JUMPDEST DUP3 DUP3 MUL SWAP1 POP SWAP3 SWAP2 POP POP JUMP JUMPDEST PUSH32 0x4E487B7100000000000000000000000000000000000000000000000000000000 PUSH1 0x0 MSTORE PUSH1 0x12 PUSH1 0x4 MSTORE PUSH1 0x24 PUSH1 0x0 REVERT JUMPDEST PUSH1 0x0 PUSH2 0x5DAB DUP3 PUSH2 0x500A JUMP JUMPDEST SWAP2 POP PUSH2 0x5DB6 DUP4 PUSH2 0x500A JUMP JUMPDEST SWAP3 POP DUP3 PUSH2 0x5DC6 JUMPI PUSH2 0x5DC5 PUSH2 0x5D71 JUMP JUMPDEST JUMPDEST DUP3 DUP3 DIV SWAP1 POP SWAP3 SWAP2 POP POP JUMP JUMPDEST PUSH1 0x0 PUSH2 0x5DDC DUP3 PUSH2 0x500A JUMP JUMPDEST SWAP2 POP PUSH2 0x5DE7 DUP4 PUSH2 0x500A JUMP JUMPDEST SWAP3 POP DUP3 DUP3 LT ISZERO PUSH2 0x5DFA JUMPI PUSH2 0x5DF9 PUSH2 0x5CE8 JUMP JUMPDEST JUMPDEST DUP3 DUP3 SUB SWAP1 POP SWAP3 SWAP2 POP POP JUMP JUMPDEST PUSH2 0x5E0E DUP2 PUSH2 0x4FCC JUMP JUMPDEST DUP3 MSTORE POP POP JUMP JUMPDEST PUSH1 0x0 PUSH1 0x40 DUP3 ADD SWAP1 POP PUSH2 0x5E29 PUSH1 0x0 DUP4 ADD DUP6 PUSH2 0x5E05 JUMP JUMPDEST PUSH2 0x5E36 PUSH1 0x20 DUP4 ADD DUP5 PUSH2 0x52AD JUMP JUMPDEST SWAP4 SWAP3 POP POP POP JUMP JUMPDEST PUSH1 0x0 DUP2 MLOAD SWAP1 POP PUSH2 0x5E4C DUP2 PUSH2 0x545F JUMP JUMPDEST SWAP3 SWAP2 POP POP JUMP JUMPDEST PUSH1 0x0 PUSH1 0x20 DUP3 DUP5 SUB SLT ISZERO PUSH2 0x5E68 JUMPI PUSH2 0x5E67 PUSH2 0x4FA2 JUMP JUMPDEST JUMPDEST PUSH1 0x0 PUSH2 0x5E76 DUP5 DUP3 DUP6 ADD PUSH2 0x5E3D JUMP JUMPDEST SWAP2 POP POP SWAP3 SWAP2 POP POP JUMP JUMPDEST PUSH1 0x0 PUSH2 0x5E8A DUP3 PUSH2 0x500A JUMP JUMPDEST SWAP2 POP PUSH2 0x5E95 DUP4 PUSH2 0x500A JUMP JUMPDEST SWAP3 POP DUP3 PUSH32 0xFFFFFFFFFFFFFFFFFFFFFFFFFFFFFFFFFFFFFFFFFFFFFFFFFFFFFFFFFFFFFFFF SUB DUP3 GT ISZERO PUSH2 0x5ECA JUMPI PUSH2 0x5EC9 PUSH2 0x5CE8 JUMP JUMPDEST JUMPDEST DUP3 DUP3 ADD SWAP1 POP SWAP3 SWAP2 POP POP JUMP JUMPDEST PUSH32 0x21415554484F52495A4544000000000000000000000000000000000000000000 PUSH1 0x0 DUP3 ADD MSTORE POP JUMP JUMPDEST PUSH1 0x0 PUSH2 0x5F0B PUSH1 0xB DUP4 PUSH2 0x508B JUMP JUMPDEST SWAP2 POP PUSH2 0x5F16 DUP3 PUSH2 0x5ED5 JUMP JUMPDEST PUSH1 0x20 DUP3 ADD SWAP1 POP SWAP2 SWAP1 POP JUMP JUMPDEST PUSH1 0x0 PUSH1 0x20 DUP3 ADD SWAP1 POP DUP2 DUP2 SUB PUSH1 0x0 DUP4 ADD MSTORE PUSH2 0x5F3A DUP2 PUSH2 0x5EFE JUMP JUMPDEST SWAP1 POP SWAP2 SWAP1 POP JUMP JUMPDEST PUSH32 0x4172726179206D69736D617463682E0000000000000000000000000000000000 PUSH1 0x0 DUP3 ADD MSTORE POP JUMP JUMPDEST PUSH1 0x0 PUSH2 0x5F77 PUSH1 0xF DUP4 PUSH2 0x508B JUMP JUMPDEST SWAP2 POP PUSH2 0x5F82 DUP3 PUSH2 0x5F41 JUMP JUMPDEST PUSH1 0x20 DUP3 ADD SWAP1 POP SWAP2 SWAP1 POP JUMP JUMPDEST PUSH1 0x0 PUSH1 0x20 DUP3 ADD SWAP1 POP DUP2 DUP2 SUB PUSH1 0x0 DUP4 ADD MSTORE PUSH2 0x5FA6 DUP2 PUSH2 0x5F6A JUMP JUMPDEST SWAP1 POP SWAP2 SWAP1 POP JUMP JUMPDEST PUSH1 0x0 DUP1 REVERT JUMPDEST PUSH1 0x0 DUP1 REVERT JUMPDEST PUSH1 0x0 DUP1 REVERT JUMPDEST PUSH1 0x0 DUP3 CALLDATALOAD PUSH1 0x1 PUSH1 0x60 SUB DUP4 CALLDATASIZE SUB SUB DUP2 SLT PUSH2 0x5FD8 JUMPI PUSH2 0x5FD7 PUSH2 0x5FAD JUMP JUMPDEST JUMPDEST DUP1 DUP4 ADD SWAP2 POP POP SWAP3 SWAP2 POP POP JUMP JUMPDEST PUSH1 0x0 DUP1 DUP4 CALLDATALOAD PUSH1 0x1 PUSH1 0x20 SUB DUP5 CALLDATASIZE SUB SUB DUP2 SLT PUSH2 0x6001 JUMPI PUSH2 0x6000 PUSH2 0x5FAD JUMP JUMPDEST JUMPDEST DUP1 DUP5 ADD SWAP3 POP DUP3 CALLDATALOAD SWAP2 POP PUSH8 0xFFFFFFFFFFFFFFFF DUP3 GT ISZERO PUSH2 0x6023 JUMPI PUSH2 0x6022 PUSH2 0x5FB2 JUMP JUMPDEST JUMPDEST PUSH1 0x20 DUP4 ADD SWAP3 POP PUSH1 0x20 DUP3 MUL CALLDATASIZE SUB DUP4 SGT ISZERO PUSH2 0x603F JUMPI PUSH2 0x603E PUSH2 0x5FB7 JUMP JUMPDEST JUMPDEST POP SWAP3 POP SWAP3 SWAP1 POP JUMP JUMPDEST PUSH1 0x0 DUP1 DUP4 CALLDATALOAD PUSH1 0x1 PUSH1 0x20 SUB DUP5 CALLDATASIZE SUB SUB DUP2 SLT PUSH2 0x6064 JUMPI PUSH2 0x6063 PUSH2 0x5FAD JUMP JUMPDEST JUMPDEST DUP1 DUP5 ADD SWAP3 POP DUP3 CALLDATALOAD SWAP2 POP PUSH8 0xFFFFFFFFFFFFFFFF DUP3 GT ISZERO PUSH2 0x6086 JUMPI PUSH2 0x6085 PUSH2 0x5FB2 JUMP JUMPDEST JUMPDEST PUSH1 0x20 DUP4 ADD SWAP3 POP PUSH1 0x40 DUP3 MUL CALLDATASIZE SUB DUP4 SGT ISZERO PUSH2 0x60A2 JUMPI PUSH2 0x60A1 PUSH2 0x5FB7 JUMP JUMPDEST JUMPDEST POP SWAP3 POP SWAP3 SWAP1 POP JUMP JUMPDEST PUSH32 0x57726F6E67207472656520636F6E66696775726174696F6E2E204D7573742068 PUSH1 0x0 DUP3 ADD MSTORE PUSH32 0x617665206174206C65617374206F6E65206C6576656C20616E642073616D6520 PUSH1 0x20 DUP3 ADD MSTORE PUSH32 0x656E747269657320666F722070726963652C207969656C642C20616E64207461 PUSH1 0x40 DUP3 ADD MSTORE PUSH32 0x782E000000000000000000000000000000000000000000000000000000000000 PUSH1 0x60 DUP3 ADD MSTORE POP JUMP JUMPDEST PUSH1 0x0 PUSH2 0x6152 PUSH1 0x62 DUP4 PUSH2 0x508B JUMP JUMPDEST SWAP2 POP PUSH2 0x615D DUP3 PUSH2 0x60AA JUMP JUMPDEST PUSH1 0x80 DUP3 ADD SWAP1 POP SWAP2 SWAP1 POP JUMP JUMPDEST PUSH1 0x0 PUSH1 0x20 DUP3 ADD SWAP1 POP DUP2 DUP2 SUB PUSH1 0x0 DUP4 ADD MSTORE PUSH2 0x6181 DUP2 PUSH2 0x6145 JUMP JUMPDEST SWAP1 POP SWAP2 SWAP1 POP JUMP JUMPDEST PUSH32 0x4E487B7100000000000000000000000000000000000000000000000000000000 PUSH1 0x0 MSTORE PUSH1 0x0 PUSH1 0x4 MSTORE PUSH1 0x24 PUSH1 0x0 REVERT JUMPDEST PUSH1 0x0 DUP2 SWAP1 POP SWAP2 SWAP1 POP JUMP JUMPDEST PUSH1 0x0 DUP2 SLOAD SWAP1 POP SWAP2 SWAP1 POP JUMP JUMPDEST PUSH1 0x0 DUP2 SWAP1 POP PUSH1 0x1 DUP1 PUSH1 0x1 SUB DUP4 ADD DIV SWAP1 POP SWAP2 SWAP1 POP JUMP JUMPDEST PUSH1 0x0 DUP2 SWAP1 POP DUP2 PUSH1 0x0 MSTORE PUSH1 0x20 PUSH1 0x0 KECCAK256 SWAP1 POP SWAP2 SWAP1 POP JUMP JUMPDEST PUSH1 0x0 DUP3 DUP3 SHL SWAP1 POP SWAP3 SWAP2 POP POP JUMP JUMPDEST PUSH1 0x0 PUSH1 0x8 DUP4 MUL PUSH2 0x6233 PUSH32 0xFFFFFFFFFFFFFFFFFFFFFFFFFFFFFFFFFFFFFFFFFFFFFFFFFFFFFFFFFFFFFFFF DUP3 PUSH2 0x61F6 JUMP JUMPDEST PUSH2 0x623D DUP7 DUP4 PUSH2 0x61F6 JUMP JUMPDEST SWAP6 POP DUP1 NOT DUP5 AND SWAP4 POP DUP1 DUP7 AND DUP5 OR SWAP3 POP POP POP SWAP4 SWAP3 POP POP POP JUMP JUMPDEST PUSH1 0x0 DUP2 SWAP1 POP SWAP2 SWAP1 POP JUMP JUMPDEST PUSH1 0x0 PUSH2 0x627A PUSH2 0x6275 PUSH2 0x6270 DUP5 PUSH2 0x500A JUMP JUMPDEST PUSH2 0x6255 JUMP JUMPDEST PUSH2 0x500A JUMP JUMPDEST SWAP1 POP SWAP2 SWAP1 POP JUMP JUMPDEST PUSH1 0x0 DUP2 SWAP1 POP SWAP2 SWAP1 POP JUMP JUMPDEST PUSH2 0x6294 DUP4 PUSH2 0x625F JUMP JUMPDEST PUSH2 0x62A8 PUSH2 0x62A0 DUP3 PUSH2 0x6281 JUMP JUMPDEST DUP5 DUP5 SLOAD PUSH2 0x6203 JUMP JUMPDEST DUP3 SSTORE POP POP POP POP JUMP JUMPDEST PUSH1 0x0 SWAP1 JUMP JUMPDEST PUSH2 0x62BD PUSH2 0x62B0 JUMP JUMPDEST PUSH2 0x62C8 DUP2 DUP5 DUP5 PUSH2 0x628B JUMP JUMPDEST POP POP POP JUMP JUMPDEST JUMPDEST DUP2 DUP2 LT ISZERO PUSH2 0x62EC JUMPI PUSH2 0x62E1 PUSH1 0x0 DUP3 PUSH2 0x62B5 JUMP JUMPDEST PUSH1 0x1 DUP2 ADD SWAP1 POP PUSH2 0x62CE JUMP JUMPDEST POP POP JUMP JUMPDEST DUP2 DUP4 LT ISZERO PUSH2 0x6329 JUMPI PUSH2 0x6301 DUP3 PUSH2 0x61CC JUMP JUMPDEST PUSH2 0x630A DUP5 PUSH2 0x61CC JUMP JUMPDEST PUSH2 0x6313 DUP4 PUSH2 0x61E1 JUMP JUMPDEST DUP2 DUP2 ADD DUP4 DUP3 ADD PUSH2 0x6323 DUP2 DUP4 PUSH2 0x62CD JUMP JUMPDEST POP POP POP POP POP JUMPDEST POP POP POP JUMP JUMPDEST PUSH9 0x10000000000000000 DUP3 GT ISZERO PUSH2 0x6348 JUMPI PUSH2 0x6347 PUSH2 0x590C JUMP JUMPDEST JUMPDEST PUSH2 0x6351 DUP2 PUSH2 0x61C1 JUMP JUMPDEST DUP3 DUP3 SSTORE PUSH2 0x635F DUP4 DUP3 DUP5 PUSH2 0x62F0 JUMP JUMPDEST POP POP POP JUMP JUMPDEST PUSH1 0x0 DUP3 SWAP1 POP SWAP3 SWAP2 POP POP JUMP JUMPDEST PUSH1 0x0 DUP2 CALLDATALOAD PUSH2 0x637C DUP2 PUSH2 0x5014 JUMP JUMPDEST DUP1 SWAP2 POP POP SWAP2 SWAP1 POP JUMP JUMPDEST PUSH2 0x638F DUP4 DUP4 PUSH2 0x6364 JUMP JUMPDEST PUSH2 0x6399 DUP2 DUP4 PUSH2 0x632E JUMP JUMPDEST PUSH2 0x63A2 DUP4 PUSH2 0x61B7 JUMP JUMPDEST PUSH2 0x63AB DUP4 PUSH2 0x61E1 JUMP JUMPDEST PUSH1 0x0 DUP1 JUMPDEST DUP5 DUP2 LT ISZERO PUSH2 0x63E6 JUMPI DUP4 PUSH2 0x63C1 DUP2 PUSH2 0x636F JUMP JUMPDEST SWAP1 POP PUSH2 0x63CE DUP2 DUP5 DUP7 PUSH2 0x628B JUMP JUMPDEST PUSH1 0x20 DUP6 ADD SWAP5 POP PUSH1 0x1 DUP5 ADD SWAP4 POP POP PUSH1 0x1 DUP2 ADD SWAP1 POP PUSH2 0x63AF JUMP JUMPDEST POP POP POP POP POP POP POP POP JUMP JUMPDEST PUSH2 0x63FB DUP4 DUP4 DUP4 PUSH2 0x6385 JUMP JUMPDEST POP POP POP JUMP JUMPDEST PUSH1 0x0 DUP2 SWAP1 POP SWAP2 SWAP1 POP JUMP JUMPDEST PUSH1 0x0 DUP2 SLOAD SWAP1 POP SWAP2 SWAP1 POP JUMP JUMPDEST PUSH1 0x0 DUP2 SWAP1 POP PUSH1 0x1 DUP1 PUSH1 0x1 SUB DUP4 ADD DIV SWAP1 POP SWAP2 SWAP1 POP JUMP JUMPDEST PUSH1 0x0 DUP2 SWAP1 POP DUP2 PUSH1 0x0 MSTORE PUSH1 0x20 PUSH1 0x0 KECCAK256 SWAP1 POP SWAP2 SWAP1 POP JUMP JUMPDEST PUSH1 0x0 DUP1 DUP3 ADD SSTORE POP JUMP JUMPDEST PUSH1 0x0 DUP3 EQ PUSH2 0x6459 JUMPI PUSH2 0x6458 PUSH2 0x6188 JUMP JUMPDEST JUMPDEST PUSH2 0x6462 DUP2 PUSH2 0x643F JUMP JUMPDEST POP POP JUMP JUMPDEST JUMPDEST DUP2 DUP2 LT ISZERO PUSH2 0x6485 JUMPI PUSH2 0x647A PUSH1 0x0 DUP3 PUSH2 0x6448 JUMP JUMPDEST PUSH1 0x1 DUP2 ADD SWAP1 POP PUSH2 0x6467 JUMP JUMPDEST POP POP JUMP JUMPDEST DUP2 DUP4 LT ISZERO PUSH2 0x64C2 JUMPI PUSH2 0x649A DUP3 PUSH2 0x6415 JUMP JUMPDEST PUSH2 0x64A3 DUP5 PUSH2 0x6415 JUMP JUMPDEST PUSH2 0x64AC DUP4 PUSH2 0x642A JUMP JUMPDEST DUP2 DUP2 ADD DUP4 DUP3 ADD PUSH2 0x64BC DUP2 DUP4 PUSH2 0x6466 JUMP JUMPDEST POP POP POP POP POP JUMPDEST POP POP POP JUMP JUMPDEST PUSH9 0x10000000000000000 DUP3 GT ISZERO PUSH2 0x64E1 JUMPI PUSH2 0x64E0 PUSH2 0x590C JUMP JUMPDEST JUMPDEST PUSH2 0x64EA DUP2 PUSH2 0x640A JUMP JUMPDEST DUP3 DUP3 SSTORE PUSH2 0x64F8 DUP4 DUP3 DUP5 PUSH2 0x6489 JUMP JUMPDEST POP POP POP JUMP JUMPDEST PUSH1 0x0 DUP3 SWAP1 POP SWAP3 SWAP2 POP POP JUMP JUMPDEST PUSH1 0x0 DUP2 CALLDATALOAD PUSH2 0x6515 DUP2 PUSH2 0x5987 JUMP JUMPDEST DUP1 SWAP2 POP POP SWAP2 SWAP1 POP JUMP JUMPDEST PUSH1 0x0 DUP2 PUSH1 0x0 SHL SWAP1 POP SWAP2 SWAP1 POP JUMP JUMPDEST PUSH1 0x0 PUSH2 0xFFFF PUSH2 0x6539 DUP5 PUSH2 0x651E JUMP JUMPDEST SWAP4 POP DUP1 NOT DUP4 AND SWAP3 POP DUP1 DUP5 AND DUP4 OR SWAP2 POP POP SWAP3 SWAP2 POP POP JUMP JUMPDEST PUSH1 0x0 PUSH2 0x656A PUSH2 0x6565 PUSH2 0x6560 DUP5 PUSH2 0x54F9 JUMP JUMPDEST PUSH2 0x6255 JUMP JUMPDEST PUSH2 0x54F9 JUMP JUMPDEST SWAP1 POP SWAP2 SWAP1 POP JUMP JUMPDEST PUSH1 0x0 DUP2 SWAP1 POP SWAP2 SWAP1 POP JUMP JUMPDEST PUSH2 0x6584 DUP3 PUSH2 0x654F JUMP JUMPDEST PUSH2 0x6597 PUSH2 0x6590 DUP3 PUSH2 0x6571 JUMP JUMPDEST DUP4 SLOAD PUSH2 0x652B JUMP JUMPDEST DUP3 SSTORE POP POP POP JUMP JUMPDEST PUSH1 0x0 DUP2 PUSH1 0x10 SHL SWAP1 POP SWAP2 SWAP1 POP JUMP JUMPDEST PUSH1 0x0 PUSH4 0xFFFF0000 PUSH2 0x65BB DUP5 PUSH2 0x659E JUMP JUMPDEST SWAP4 POP DUP1 NOT DUP4 AND SWAP3 POP DUP1 DUP5 AND DUP4 OR SWAP2 POP POP SWAP3 SWAP2 POP POP JUMP JUMPDEST PUSH2 0x65DA DUP3 PUSH2 0x654F JUMP JUMPDEST PUSH2 0x65ED PUSH2 0x65E6 DUP3 PUSH2 0x6571 JUMP JUMPDEST DUP4 SLOAD PUSH2 0x65AB JUMP JUMPDEST DUP3 SSTORE POP POP POP JUMP JUMPDEST PUSH1 0x0 DUP2 ADD PUSH1 0x0 DUP4 ADD DUP1 PUSH2 0x6606 DUP2 PUSH2 0x6508 JUMP JUMPDEST SWAP1 POP PUSH2 0x6612 DUP2 DUP5 PUSH2 0x657B JUMP JUMPDEST POP POP POP PUSH1 0x0 DUP2 ADD PUSH1 0x20 DUP4 ADD DUP1 PUSH2 0x6627 DUP2 PUSH2 0x6508 JUMP JUMPDEST SWAP1 POP PUSH2 0x6633 DUP2 DUP5 PUSH2 0x65D1 JUMP JUMPDEST POP POP POP POP POP JUMP JUMPDEST DUP2 ISZERO PUSH2 0x6649 JUMPI PUSH2 0x6648 PUSH2 0x6188 JUMP JUMPDEST JUMPDEST PUSH2 0x6653 DUP4 DUP3 PUSH2 0x65F4 JUMP JUMPDEST POP POP POP JUMP JUMPDEST PUSH2 0x6662 DUP4 DUP4 PUSH2 0x64FD JUMP JUMPDEST PUSH2 0x666C DUP2 DUP4 PUSH2 0x64C7 JUMP JUMPDEST PUSH2 0x6675 DUP4 PUSH2 0x6400 JUMP JUMPDEST PUSH2 0x667E DUP4 PUSH2 0x642A JUMP JUMPDEST PUSH1 0x0 DUP1 JUMPDEST DUP5 DUP2 LT ISZERO PUSH2 0x66AE JUMPI DUP4 PUSH2 0x6696 DUP2 DUP5 DUP7 PUSH2 0x663A JUMP JUMPDEST PUSH1 0x40 DUP6 ADD SWAP5 POP PUSH1 0x1 DUP5 ADD SWAP4 POP POP PUSH1 0x1 DUP2 ADD SWAP1 POP PUSH2 0x6682 JUMP JUMPDEST POP POP POP POP POP POP POP POP JUMP JUMPDEST PUSH2 0x66C3 DUP4 DUP4 DUP4 PUSH2 0x6658 JUMP JUMPDEST POP POP POP JUMP JUMPDEST PUSH1 0x0 DUP2 ADD PUSH1 0x0 DUP4 ADD PUSH2 0x66DA DUP2 DUP6 PUSH2 0x5FE4 JUMP JUMPDEST PUSH2 0x66E5 DUP2 DUP4 DUP7 PUSH2 0x63F0 JUMP JUMPDEST POP POP POP POP PUSH1 0x1 DUP2 ADD PUSH1 0x20 DUP4 ADD PUSH2 0x66FB DUP2 DUP6 PUSH2 0x6047 JUMP JUMPDEST PUSH2 0x6706 DUP2 DUP4 DUP7 PUSH2 0x66B8 JUMP JUMPDEST POP POP POP POP PUSH1 0x2 DUP2 ADD PUSH1 0x40 DUP4 ADD PUSH2 0x671C DUP2 DUP6 PUSH2 0x6047 JUMP JUMPDEST PUSH2 0x6727 DUP2 DUP4 DUP7 PUSH2 0x66B8 JUMP JUMPDEST POP POP POP POP POP POP JUMP JUMPDEST PUSH2 0x6739 DUP3 DUP3 PUSH2 0x66C8 JUMP JUMPDEST POP POP JUMP JUMPDEST PUSH1 0x0 PUSH2 0x6748 DUP3 PUSH2 0x500A JUMP JUMPDEST SWAP2 POP PUSH32 0xFFFFFFFFFFFFFFFFFFFFFFFFFFFFFFFFFFFFFFFFFFFFFFFFFFFFFFFFFFFFFFFF DUP3 EQ ISZERO PUSH2 0x677B JUMPI PUSH2 0x677A PUSH2 0x5CE8 JUMP JUMPDEST JUMPDEST PUSH1 0x1 DUP3 ADD SWAP1 POP SWAP2 SWAP1 POP JUMP JUMPDEST PUSH32 0x496E76616C6964206C6576656C2071756572792E000000000000000000000000 PUSH1 0x0 DUP3 ADD MSTORE POP JUMP JUMPDEST PUSH1 0x0 PUSH2 0x67BC PUSH1 0x14 DUP4 PUSH2 0x508B JUMP JUMPDEST SWAP2 POP PUSH2 0x67C7 DUP3 PUSH2 0x6786 JUMP JUMPDEST PUSH1 0x20 DUP3 ADD SWAP1 POP SWAP2 SWAP1 POP JUMP JUMPDEST PUSH1 0x0 PUSH1 0x20 DUP3 ADD SWAP1 POP DUP2 DUP2 SUB PUSH1 0x0 DUP4 ADD MSTORE PUSH2 0x67EB DUP2 PUSH2 0x67AF JUMP JUMPDEST SWAP1 POP SWAP2 SWAP1 POP JUMP JUMPDEST PUSH32 0x4661726D4275636B207472616E73666572206973206E6F742063757272656E74 PUSH1 0x0 DUP3 ADD MSTORE PUSH32 0x6C7920616C6C6F7765642E000000000000000000000000000000000000000000 PUSH1 0x20 DUP3 ADD MSTORE POP JUMP JUMPDEST PUSH1 0x0 PUSH2 0x684E PUSH1 0x2B DUP4 PUSH2 0x508B JUMP JUMPDEST SWAP2 POP PUSH2 0x6859 DUP3 PUSH2 0x67F2 JUMP JUMPDEST PUSH1 0x40 DUP3 ADD SWAP1 POP SWAP2 SWAP1 POP JUMP JUMPDEST PUSH1 0x0 PUSH1 0x20 DUP3 ADD SWAP1 POP DUP2 DUP2 SUB PUSH1 0x0 DUP4 ADD MSTORE PUSH2 0x687D DUP2 PUSH2 0x6841 JUMP JUMPDEST SWAP1 POP SWAP2 SWAP1 POP JUMP JUMPDEST PUSH32 0x596F7520617265206E6F7420616C6C6F77656420746F207370656E642074686F PUSH1 0x0 DUP3 ADD MSTORE PUSH32 0x7365204661726D4275636B732E00000000000000000000000000000000000000 PUSH1 0x20 DUP3 ADD MSTORE POP JUMP JUMPDEST PUSH1 0x0 PUSH2 0x68E0 PUSH1 0x2D DUP4 PUSH2 0x508B JUMP JUMPDEST SWAP2 POP PUSH2 0x68EB DUP3 PUSH2 0x6884 JUMP JUMPDEST PUSH1 0x40 DUP3 ADD SWAP1 POP SWAP2 SWAP1 POP JUMP JUMPDEST PUSH1 0x0 PUSH1 0x20 DUP3 ADD SWAP1 POP DUP2 DUP2 SUB PUSH1 0x0 DUP4 ADD MSTORE PUSH2 0x690F DUP2 PUSH2 0x68D3 JUMP JUMPDEST SWAP1 POP SWAP2 SWAP1 POP JUMP JUMPDEST PUSH32 0x507269766174652073616C65204661726D4275636B7320616C7265616479206D PUSH1 0x0 DUP3 ADD MSTORE PUSH32 0x696E7465642E0000000000000000000000000000000000000000000000000000 PUSH1 0x20 DUP3 ADD MSTORE POP JUMP JUMPDEST PUSH1 0x0 PUSH2 0x6972 PUSH1 0x26 DUP4 PUSH2 0x508B JUMP JUMPDEST SWAP2 POP PUSH2 0x697D DUP3 PUSH2 0x6916 JUMP JUMPDEST PUSH1 0x40 DUP3 ADD SWAP1 POP SWAP2 SWAP1 POP JUMP JUMPDEST PUSH1 0x0 PUSH1 0x20 DUP3 ADD SWAP1 POP DUP2 DUP2 SUB PUSH1 0x0 DUP4 ADD MSTORE PUSH2 0x69A1 DUP2 PUSH2 0x6965 JUMP JUMPDEST SWAP1 POP SWAP2 SWAP1 POP JUMP JUMPDEST PUSH2 0x69B2 DUP3 DUP3 PUSH2 0x65F4 JUMP JUMPDEST POP POP JUMP JUMPDEST PUSH32 0x4E487B7100000000000000000000000000000000000000000000000000000000 PUSH1 0x0 MSTORE PUSH1 0x31 PUSH1 0x4 MSTORE PUSH1 0x24 PUSH1 0x0 REVERT JUMPDEST PUSH2 0x69EE DUP2 PUSH2 0x54CB JUMP JUMPDEST DUP2 EQ PUSH2 0x69F9 JUMPI PUSH1 0x0 DUP1 REVERT JUMPDEST POP JUMP JUMPDEST PUSH1 0x0 DUP2 CALLDATALOAD PUSH2 0x6A09 DUP2 PUSH2 0x69E5 JUMP JUMPDEST DUP1 SWAP2 POP POP SWAP2 SWAP1 POP JUMP JUMPDEST PUSH1 0x0 PUSH4 0xFFFFFFFF PUSH2 0x6A22 DUP5 PUSH2 0x651E JUMP JUMPDEST SWAP4 POP DUP1 NOT DUP4 AND SWAP3 POP DUP1 DUP5 AND DUP4 OR SWAP2 POP POP SWAP3 SWAP2 POP POP JUMP JUMPDEST PUSH1 0x0 PUSH2 0x6A53 PUSH2 0x6A4E PUSH2 0x6A49 DUP5 PUSH2 0x54CB JUMP JUMPDEST PUSH2 0x6255 JUMP JUMPDEST PUSH2 0x54CB JUMP JUMPDEST SWAP1 POP SWAP2 SWAP1 POP JUMP JUMPDEST PUSH1 0x0 DUP2 SWAP1 POP SWAP2 SWAP1 POP JUMP JUMPDEST PUSH2 0x6A6D DUP3 PUSH2 0x6A38 JUMP JUMPDEST PUSH2 0x6A80 PUSH2 0x6A79 DUP3 PUSH2 0x6A5A JUMP JUMPDEST DUP4 SLOAD PUSH2 0x6A12 JUMP JUMPDEST DUP3 SSTORE POP POP POP JUMP JUMPDEST PUSH1 0x0 DUP2 PUSH1 0x20 SHL SWAP1 POP SWAP2 SWAP1 POP JUMP JUMPDEST PUSH1 0x0 PUSH8 0xFFFFFFFF00000000 PUSH2 0x6AA8 DUP5 PUSH2 0x6A87 JUMP JUMPDEST SWAP4 POP DUP1 NOT DUP4 AND SWAP3 POP DUP1 DUP5 AND DUP4 OR SWAP2 POP POP SWAP3 SWAP2 POP POP JUMP JUMPDEST PUSH2 0x6AC7 DUP3 PUSH2 0x6A38 JUMP JUMPDEST PUSH2 0x6ADA PUSH2 0x6AD3 DUP3 PUSH2 0x6A5A JUMP JUMPDEST DUP4 SLOAD PUSH2 0x6A94 JUMP JUMPDEST DUP3 SSTORE POP POP POP JUMP JUMPDEST PUSH1 0x0 PUSH32 0xFFFFFFFFFFFFFFFFFFFFFFFFFFFFFFFFFFFFFFFFFFFFFFFFFFFFFFFFFFFFFFFF PUSH2 0x6B0D DUP5 PUSH2 0x651E JUMP JUMPDEST SWAP4 POP DUP1 NOT DUP4 AND SWAP3 POP DUP1 DUP5 AND DUP4 OR SWAP2 POP POP SWAP3 SWAP2 POP POP JUMP JUMPDEST PUSH2 0x6B2C DUP3 PUSH2 0x625F JUMP JUMPDEST PUSH2 0x6B3F PUSH2 0x6B38 DUP3 PUSH2 0x6281 JUMP JUMPDEST DUP4 SLOAD PUSH2 0x6AE1 JUMP JUMPDEST DUP3 SSTORE POP POP POP JUMP JUMPDEST PUSH1 0x0 DUP2 ADD PUSH1 0x0 DUP4 ADD DUP1 PUSH2 0x6B58 DUP2 PUSH2 0x69FC JUMP JUMPDEST SWAP1 POP PUSH2 0x6B64 DUP2 DUP5 PUSH2 0x6A64 JUMP JUMPDEST POP POP POP PUSH1 0x0 DUP2 ADD PUSH1 0x20 DUP4 ADD DUP1 PUSH2 0x6B79 DUP2 PUSH2 0x69FC JUMP JUMPDEST SWAP1 POP PUSH2 0x6B85 DUP2 DUP5 PUSH2 0x6ABE JUMP JUMPDEST POP POP POP PUSH1 0x1 DUP2 ADD PUSH1 0x40 DUP4 ADD DUP1 PUSH2 0x6B9A DUP2 PUSH2 0x636F JUMP JUMPDEST SWAP1 POP PUSH2 0x6BA6 DUP2 DUP5 PUSH2 0x6B23 JUMP JUMPDEST POP POP POP PUSH1 0x2 DUP2 ADD PUSH1 0x60 DUP4 ADD DUP1 PUSH2 0x6BBC DUP2 DUP5 PUSH2 0x69A8 JUMP JUMPDEST POP POP POP POP POP JUMP JUMPDEST PUSH2 0x6BCD DUP3 DUP3 PUSH2 0x6B46 JUMP JUMPDEST POP POP JUMP JUMPDEST PUSH32 0x50726963652077726F6E673A2054726565206E6565647320746F206861766520 PUSH1 0x0 DUP3 ADD MSTORE PUSH32 0x6174206C65617374206F6E65206C6576656C2E00000000000000000000000000 PUSH1 0x20 DUP3 ADD MSTORE POP JUMP JUMPDEST PUSH1 0x0 PUSH2 0x6C2D PUSH1 0x33 DUP4 PUSH2 0x508B JUMP JUMPDEST SWAP2 POP PUSH2 0x6C38 DUP3 PUSH2 0x6BD1 JUMP JUMPDEST PUSH1 0x40 DUP3 ADD SWAP1 POP SWAP2 SWAP1 POP JUMP JUMPDEST PUSH1 0x0 PUSH1 0x20 DUP3 ADD SWAP1 POP DUP2 DUP2 SUB PUSH1 0x0 DUP4 ADD MSTORE PUSH2 0x6C5C DUP2 PUSH2 0x6C20 JUMP JUMPDEST SWAP1 POP SWAP2 SWAP1 POP JUMP JUMPDEST PUSH32 0x5969656C642077726F6E673A2054726565206E6565647320746F206861766520 PUSH1 0x0 DUP3 ADD MSTORE PUSH32 0x6174206C65617374206F6E65206C6576656C2E00000000000000000000000000 PUSH1 0x20 DUP3 ADD MSTORE POP JUMP JUMPDEST PUSH1 0x0 PUSH2 0x6CBF PUSH1 0x33 DUP4 PUSH2 0x508B JUMP JUMPDEST SWAP2 POP PUSH2 0x6CCA DUP3 PUSH2 0x6C63 JUMP JUMPDEST PUSH1 0x40 DUP3 ADD SWAP1 POP SWAP2 SWAP1 POP JUMP JUMPDEST PUSH1 0x0 PUSH1 0x20 DUP3 ADD SWAP1 POP DUP2 DUP2 SUB PUSH1 0x0 DUP4 ADD MSTORE PUSH2 0x6CEE DUP2 PUSH2 0x6CB2 JUMP JUMPDEST SWAP1 POP SWAP2 SWAP1 POP JUMP JUMPDEST PUSH32 0x5461782077726F6E673A2054726565206E6565647320746F2068617665206174 PUSH1 0x0 DUP3 ADD MSTORE PUSH32 0x206C65617374206F6E65206C6576656C2E000000000000000000000000000000 PUSH1 0x20 DUP3 ADD MSTORE POP JUMP JUMPDEST PUSH1 0x0 PUSH2 0x6D51 PUSH1 0x31 DUP4 PUSH2 0x508B JUMP JUMPDEST SWAP2 POP PUSH2 0x6D5C DUP3 PUSH2 0x6CF5 JUMP JUMPDEST PUSH1 0x40 DUP3 ADD SWAP1 POP SWAP2 SWAP1 POP JUMP JUMPDEST PUSH1 0x0 PUSH1 0x20 DUP3 ADD SWAP1 POP DUP2 DUP2 SUB PUSH1 0x0 DUP4 ADD MSTORE PUSH2 0x6D80 DUP2 PUSH2 0x6D44 JUMP JUMPDEST SWAP1 POP SWAP2 SWAP1 POP JUMP JUMPDEST PUSH32 0x54726565206D75737420686176652073616D6520656E7472696573206F6E2070 PUSH1 0x0 DUP3 ADD MSTORE PUSH32 0x726963652C207969656C642C20616E642074617820706572206C6576656C2E00 PUSH1 0x20 DUP3 ADD MSTORE POP JUMP JUMPDEST PUSH1 0x0 PUSH2 0x6DE3 PUSH1 0x3F DUP4 PUSH2 0x508B JUMP JUMPDEST SWAP2 POP PUSH2 0x6DEE DUP3 PUSH2 0x6D87 JUMP JUMPDEST PUSH1 0x40 DUP3 ADD SWAP1 POP SWAP2 SWAP1 POP JUMP JUMPDEST PUSH1 0x0 PUSH1 0x20 DUP3 ADD SWAP1 POP DUP2 DUP2 SUB PUSH1 0x0 DUP4 ADD MSTORE PUSH2 0x6E12 DUP2 PUSH2 0x6DD6 JUMP JUMPDEST SWAP1 POP SWAP2 SWAP1 POP JUMP JUMPDEST PUSH32 0x426F6F737420617265206E6F742063757272656E746C7920617661696C61626C PUSH1 0x0 DUP3 ADD MSTORE PUSH32 0x652E000000000000000000000000000000000000000000000000000000000000 PUSH1 0x20 DUP3 ADD MSTORE POP JUMP JUMPDEST PUSH1 0x0 PUSH2 0x6E75 PUSH1 0x22 DUP4 PUSH2 0x508B JUMP JUMPDEST SWAP2 POP PUSH2 0x6E80 DUP3 PUSH2 0x6E19 JUMP JUMPDEST PUSH1 0x40 DUP3 ADD SWAP1 POP SWAP2 SWAP1 POP JUMP JUMPDEST PUSH1 0x0 PUSH1 0x20 DUP3 ADD SWAP1 POP DUP2 DUP2 SUB PUSH1 0x0 DUP4 ADD MSTORE PUSH2 0x6EA4 DUP2 PUSH2 0x6E68 JUMP JUMPDEST SWAP1 POP SWAP2 SWAP1 POP JUMP JUMPDEST PUSH1 0x0 PUSH2 0x6EB6 DUP3 PUSH2 0x54CB JUMP JUMPDEST SWAP2 POP PUSH2 0x6EC1 DUP4 PUSH2 0x54CB JUMP JUMPDEST SWAP3 POP DUP3 PUSH4 0xFFFFFFFF SUB DUP3 GT ISZERO PUSH2 0x6EDA JUMPI PUSH2 0x6ED9 PUSH2 0x5CE8 JUMP JUMPDEST JUMPDEST DUP3 DUP3 ADD SWAP1 POP SWAP3 SWAP2 POP POP JUMP JUMPDEST PUSH32 0x596F75207374696C6C206861766520616E2061637469766520626F6F73742E00 PUSH1 0x0 DUP3 ADD MSTORE POP JUMP JUMPDEST PUSH1 0x0 PUSH2 0x6F1B PUSH1 0x1F DUP4 PUSH2 0x508B JUMP JUMPDEST SWAP2 POP PUSH2 0x6F26 DUP3 PUSH2 0x6EE5 JUMP JUMPDEST PUSH1 0x20 DUP3 ADD SWAP1 POP SWAP2 SWAP1 POP JUMP JUMPDEST PUSH1 0x0 PUSH1 0x20 DUP3 ADD SWAP1 POP DUP2 DUP2 SUB PUSH1 0x0 DUP4 ADD MSTORE PUSH2 0x6F4A DUP2 PUSH2 0x6F0E JUMP JUMPDEST SWAP1 POP SWAP2 SWAP1 POP JUMP JUMPDEST PUSH32 0x596F7520646F206E6F74206F776E20656E6F756768206661726D6275636B7320 PUSH1 0x0 DUP3 ADD MSTORE PUSH32 0x746F20626F6F73742E0000000000000000000000000000000000000000000000 PUSH1 0x20 DUP3 ADD MSTORE POP JUMP JUMPDEST PUSH1 0x0 PUSH2 0x6FAD PUSH1 0x29 DUP4 PUSH2 0x508B JUMP JUMPDEST SWAP2 POP PUSH2 0x6FB8 DUP3 PUSH2 0x6F51 JUMP JUMPDEST PUSH1 0x40 DUP3 ADD SWAP1 POP SWAP2 SWAP1 POP JUMP JUMPDEST PUSH1 0x0 PUSH1 0x20 DUP3 ADD SWAP1 POP DUP2 DUP2 SUB PUSH1 0x0 DUP4 ADD MSTORE PUSH2 0x6FDC DUP2 PUSH2 0x6FA0 JUMP JUMPDEST SWAP1 POP SWAP2 SWAP1 POP JUMP JUMPDEST PUSH32 0x50726573616C65206D696E7420616D6F756E74206973206C696D697465642074 PUSH1 0x0 DUP3 ADD MSTORE PUSH32 0x6F20612073656E7369626C65206E756D6265722E000000000000000000000000 PUSH1 0x20 DUP3 ADD MSTORE POP JUMP JUMPDEST PUSH1 0x0 PUSH2 0x703F PUSH1 0x34 DUP4 PUSH2 0x508B JUMP JUMPDEST SWAP2 POP PUSH2 0x704A DUP3 PUSH2 0x6FE3 JUMP JUMPDEST PUSH1 0x40 DUP3 ADD SWAP1 POP SWAP2 SWAP1 POP JUMP JUMPDEST PUSH1 0x0 PUSH1 0x20 DUP3 ADD SWAP1 POP DUP2 DUP2 SUB PUSH1 0x0 DUP4 ADD MSTORE PUSH2 0x706E DUP2 PUSH2 0x7032 JUMP JUMPDEST SWAP1 POP SWAP2 SWAP1 POP JUMP JUMPDEST PUSH32 0x214F574E45520000000000000000000000000000000000000000000000000000 PUSH1 0x0 DUP3 ADD MSTORE POP JUMP JUMPDEST PUSH1 0x0 PUSH2 0x70AB PUSH1 0x6 DUP4 PUSH2 0x508B JUMP JUMPDEST SWAP2 POP PUSH2 0x70B6 DUP3 PUSH2 0x7075 JUMP JUMPDEST PUSH1 0x20 DUP3 ADD SWAP1 POP SWAP2 SWAP1 POP JUMP JUMPDEST PUSH1 0x0 PUSH1 0x20 DUP3 ADD SWAP1 POP DUP2 DUP2 SUB PUSH1 0x0 DUP4 ADD MSTORE PUSH2 0x70DA DUP2 PUSH2 0x709E JUMP JUMPDEST SWAP1 POP SWAP2 SWAP1 POP JUMP JUMPDEST PUSH32 0x596F7520646F206E6F74206F776E20656E6F756768206661726D6275636B732E PUSH1 0x0 DUP3 ADD MSTORE POP JUMP JUMPDEST PUSH1 0x0 PUSH2 0x7117 PUSH1 0x20 DUP4 PUSH2 0x508B JUMP JUMPDEST SWAP2 POP PUSH2 0x7122 DUP3 PUSH2 0x70E1 JUMP JUMPDEST PUSH1 0x20 DUP3 ADD SWAP1 POP SWAP2 SWAP1 POP JUMP JUMPDEST PUSH1 0x0 PUSH1 0x20 DUP3 ADD SWAP1 POP DUP2 DUP2 SUB PUSH1 0x0 DUP4 ADD MSTORE PUSH2 0x7146 DUP2 PUSH2 0x710A JUMP JUMPDEST SWAP1 POP SWAP2 SWAP1 POP JUMP JUMPDEST PUSH32 0x596F75206861766520616C726561647920706C616E7465642074686520666972 PUSH1 0x0 DUP3 ADD MSTORE PUSH32 0x7374207472656520696E207468617420706C6F74210000000000000000000000 PUSH1 0x20 DUP3 ADD MSTORE POP JUMP JUMPDEST PUSH1 0x0 PUSH2 0x71A9 PUSH1 0x35 DUP4 PUSH2 0x508B JUMP JUMPDEST SWAP2 POP PUSH2 0x71B4 DUP3 PUSH2 0x714D JUMP JUMPDEST PUSH1 0x40 DUP3 ADD SWAP1 POP SWAP2 SWAP1 POP JUMP JUMPDEST PUSH1 0x0 PUSH1 0x20 DUP3 ADD SWAP1 POP DUP2 DUP2 SUB PUSH1 0x0 DUP4 ADD MSTORE PUSH2 0x71D8 DUP2 PUSH2 0x719C JUMP JUMPDEST SWAP1 POP SWAP2 SWAP1 POP JUMP JUMPDEST PUSH1 0x0 PUSH2 0x71FA PUSH2 0x71F5 PUSH2 0x71F0 DUP5 PUSH2 0x4FAC JUMP JUMPDEST PUSH2 0x6255 JUMP JUMPDEST PUSH2 0x4FAC JUMP JUMPDEST SWAP1 POP SWAP2 SWAP1 POP JUMP JUMPDEST PUSH1 0x0 PUSH2 0x720C DUP3 PUSH2 0x71DF JUMP JUMPDEST SWAP1 POP SWAP2 SWAP1 POP JUMP JUMPDEST PUSH1 0x0 PUSH2 0x721E DUP3 PUSH2 0x7201 JUMP JUMPDEST SWAP1 POP SWAP2 SWAP1 POP JUMP JUMPDEST PUSH2 0x722E DUP2 PUSH2 0x7213 JUMP JUMPDEST DUP3 MSTORE POP POP JUMP JUMPDEST PUSH1 0x0 PUSH1 0x20 DUP3 ADD SWAP1 POP PUSH2 0x7249 PUSH1 0x0 DUP4 ADD DUP5 PUSH2 0x7225 JUMP JUMPDEST SWAP3 SWAP2 POP POP JUMP JUMPDEST PUSH32 0x4661726D4275636B3A207472616E736665722066726F6D20746865207A65726F PUSH1 0x0 DUP3 ADD MSTORE PUSH32 0x20616464726573732E0000000000000000000000000000000000000000000000 PUSH1 0x20 DUP3 ADD MSTORE POP JUMP JUMPDEST PUSH1 0x0 PUSH2 0x72AB PUSH1 0x29 DUP4 PUSH2 0x508B JUMP JUMPDEST SWAP2 POP PUSH2 0x72B6 DUP3 PUSH2 0x724F JUMP JUMPDEST PUSH1 0x40 DUP3 ADD SWAP1 POP SWAP2 SWAP1 POP JUMP JUMPDEST PUSH1 0x0 PUSH1 0x20 DUP3 ADD SWAP1 POP DUP2 DUP2 SUB PUSH1 0x0 DUP4 ADD MSTORE PUSH2 0x72DA DUP2 PUSH2 0x729E JUMP JUMPDEST SWAP1 POP SWAP2 SWAP1 POP JUMP JUMPDEST PUSH32 0x4661726D4275636B3A207472616E7366657220746F20746865207A65726F2061 PUSH1 0x0 DUP3 ADD MSTORE PUSH32 0x6464726573732E00000000000000000000000000000000000000000000000000 PUSH1 0x20 DUP3 ADD MSTORE POP JUMP JUMPDEST PUSH1 0x0 PUSH2 0x733D PUSH1 0x27 DUP4 PUSH2 0x508B JUMP JUMPDEST SWAP2 POP PUSH2 0x7348 DUP3 PUSH2 0x72E1 JUMP JUMPDEST PUSH1 0x40 DUP3 ADD SWAP1 POP SWAP2 SWAP1 POP JUMP JUMPDEST PUSH1 0x0 PUSH1 0x20 DUP3 ADD SWAP1 POP DUP2 DUP2 SUB PUSH1 0x0 DUP4 ADD MSTORE PUSH2 0x736C DUP2 PUSH2 0x7330 JUMP JUMPDEST SWAP1 POP SWAP2 SWAP1 POP JUMP JUMPDEST PUSH32 0x4661726D4275636B3A205472616E7366657220616D6F756E74206D7573742062 PUSH1 0x0 DUP3 ADD MSTORE PUSH32 0x652067726561746572207468616E207A65726F2E000000000000000000000000 PUSH1 0x20 DUP3 ADD MSTORE POP JUMP JUMPDEST PUSH1 0x0 PUSH2 0x73CF PUSH1 0x34 DUP4 PUSH2 0x508B JUMP JUMPDEST SWAP2 POP PUSH2 0x73DA DUP3 PUSH2 0x7373 JUMP JUMPDEST PUSH1 0x40 DUP3 ADD SWAP1 POP SWAP2 SWAP1 POP JUMP JUMPDEST PUSH1 0x0 PUSH1 0x20 DUP3 ADD SWAP1 POP DUP2 DUP2 SUB PUSH1 0x0 DUP4 ADD MSTORE PUSH2 0x73FE DUP2 PUSH2 0x73C2 JUMP JUMPDEST SWAP1 POP SWAP2 SWAP1 POP JUMP JUMPDEST PUSH32 0x53656E64657220646F6573206E6F74206F776E20656E6F756768204661726D42 PUSH1 0x0 DUP3 ADD MSTORE PUSH32 0x75636B732E000000000000000000000000000000000000000000000000000000 PUSH1 0x20 DUP3 ADD MSTORE POP JUMP JUMPDEST PUSH1 0x0 PUSH2 0x7461 PUSH1 0x25 DUP4 PUSH2 0x508B JUMP JUMPDEST SWAP2 POP PUSH2 0x746C DUP3 PUSH2 0x7405 JUMP JUMPDEST PUSH1 0x40 DUP3 ADD SWAP1 POP SWAP2 SWAP1 POP JUMP JUMPDEST PUSH1 0x0 PUSH1 0x20 DUP3 ADD SWAP1 POP DUP2 DUP2 SUB PUSH1 0x0 DUP4 ADD MSTORE PUSH2 0x7490 DUP2 PUSH2 0x7454 JUMP JUMPDEST SWAP1 POP SWAP2 SWAP1 POP JUMP JUMPDEST PUSH32 0x4E6F2074726565206F6E207468697320706C6F742C20796F7520686176652074 PUSH1 0x0 DUP3 ADD MSTORE PUSH32 0x6F20706C616E742069742066697273742E000000000000000000000000000000 PUSH1 0x20 DUP3 ADD MSTORE POP JUMP JUMPDEST PUSH1 0x0 PUSH2 0x74F3 PUSH1 0x31 DUP4 PUSH2 0x508B JUMP JUMPDEST SWAP2 POP PUSH2 0x74FE DUP3 PUSH2 0x7497 JUMP JUMPDEST PUSH1 0x40 DUP3 ADD SWAP1 POP SWAP2 SWAP1 POP JUMP JUMPDEST PUSH1 0x0 PUSH1 0x20 DUP3 ADD SWAP1 POP DUP2 DUP2 SUB PUSH1 0x0 DUP4 ADD MSTORE PUSH2 0x7522 DUP2 PUSH2 0x74E6 JUMP JUMPDEST SWAP1 POP SWAP2 SWAP1 POP JUMP JUMPDEST PUSH1 0x0 PUSH2 0x7534 DUP3 PUSH2 0x5A56 JUMP JUMPDEST SWAP2 POP PUSH3 0xFFFFFF DUP3 EQ ISZERO PUSH2 0x754A JUMPI PUSH2 0x7549 PUSH2 0x5CE8 JUMP JUMPDEST JUMPDEST PUSH1 0x1 DUP3 ADD SWAP1 POP SWAP2 SWAP1 POP JUMP JUMPDEST PUSH1 0x0 PUSH1 0x60 DUP3 ADD SWAP1 POP PUSH2 0x756A PUSH1 0x0 DUP4 ADD DUP7 PUSH2 0x5E05 JUMP JUMPDEST PUSH2 0x7577 PUSH1 0x20 DUP4 ADD DUP6 PUSH2 0x5E05 JUMP JUMPDEST PUSH2 0x7584 PUSH1 0x40 DUP4 ADD DUP5 PUSH2 0x52AD JUMP JUMPDEST SWAP5 SWAP4 POP POP POP POP JUMP INVALID LOG2 PUSH5 0x6970667358 0x22 SLT KECCAK256 0xA6 SIGNEXTEND DUP14 0xE5 0x4C SWAP15 PUSH16 0x51C5921FCB4BF77C126B4110C85A3EFF 0xB3 JUMPI 0x4D 0x23 0xF7 0xD4 0xBD 0xE7 0xB0 PUSH5 0x736F6C6343 STOP ADDMOD EXP STOP CALLER "},"methodIdentifiers":{"addBoostType((uint32,uint32,uint256,(uint16,uint16)))":"5c3c9587","allowSpending(address,bool)":"53478562","allowance(address,address)":"dd62ed3e","allowedToSpend(address,address)":"e3eba060","approve(address,uint256)":"095ea7b3","authorize(address)":"b6a5d7de","balanceOf(address)":"70a08231","boostTypes(uint256)":"f1f032f0","buyBoost(uint256)":"73af2e29","canTreeLevelUp(uint256,uint256)":"3d3cae07","compound(uint256)":"aa5f7e26","compoundFor(address,uint256)":"451f3caf","decimals()":"313ce567","deposit(uint256)":"b6b55f25","depositWithRefer(uint256,address)":"7fe6b8b6","editBoostType(uint256,(uint32,uint32,uint256,(uint16,uint16)))":"71b322dc","editMultipleTreeTypes(uint256[],(uint256[],(uint16,uint16)[],(uint16,uint16)[])[])":"0b1d7605","editTreeType(uint256,(uint256[],(uint16,uint16)[],(uint16,uint16)[]))":"718abfba","getAvailableYield(uint256)":"730417dc","getCurrentBoost(address)":"558ac136","getMyPlotState(uint256)":"9e7af3c7","getPlotState(address,uint256)":"d9d5fc96","getTreeType(uint256)":"7776bbbd","getTreeTypePrice(uint256,uint256)":"18aac6df","getYieldByTime(uint256,uint256,(uint16,uint16))":"8b106926","investInTree(uint256,uint256)":"df7cbee1","isAuthorized(address)":"fe9fbb80","isOwner(address)":"2f54bf6e","maxYieldTime()":"dc4fd819","mintPrivateSaleBucks()":"40e44267","name()":"06fdde03","plantFirstTree(uint256)":"d1225a9b","redeemBUSD(uint256)":"fe9be086","redeemBUSDFor(address,uint256)":"032c9dca","redeemFarmbuck(uint256)":"f929c98b","redeemFarmbuckFor(address,uint256)":"ae901021","removeBoostType(uint256)":"57f43f8d","setBoostsAvailable(bool)":"f1abe2ca","setPrivateSaleMintAmount(uint256)":"9388e3a4","setRefererAmount((uint16,uint16))":"4416c3b4","setTransferAllowed(bool)":"b3942cbd","spendingAllowed(address,address)":"4c4a6dd0","symbol()":"95d89b41","totalSupply()":"18160ddd","transfer(address,uint256)":"a9059cbb","transferFrom(address,address,uint256)":"23b872dd","transferOwnership(address)":"f2fde38b","unauthorize(address)":"f0b37c04"}}}}}