{"contracts/TreeFarm(1).sol":{"TreeFarm":{"abi":[{"inputs":[],"stateMutability":"nonpayable","type":"constructor"},{"anonymous":false,"inputs":[{"indexed":true,"internalType":"address","name":"owner","type":"address"},{"indexed":true,"internalType":"address","name":"spender","type":"address"},{"indexed":false,"internalType":"uint256","name":"value","type":"uint256"}],"name":"Approval","type":"event"},{"anonymous":false,"inputs":[{"indexed":true,"internalType":"address","name":"owner","type":"address"},{"indexed":true,"internalType":"uint256","name":"plot","type":"uint256"},{"indexed":false,"internalType":"uint256","name":"amount","type":"uint256"}],"name":"Compounded","type":"event"},{"anonymous":false,"inputs":[{"indexed":true,"internalType":"address","name":"owner","type":"address"},{"indexed":true,"internalType":"address","name":"spender","type":"address"},{"indexed":false,"internalType":"bool","name":"allowed","type":"bool"}],"name":"FarmBuckApproval","type":"event"},{"anonymous":false,"inputs":[{"indexed":true,"internalType":"address","name":"buyer","type":"address"},{"indexed":false,"internalType":"uint256","name":"amount","type":"uint256"}],"name":"FarmBuckPurchase","type":"event"},{"anonymous":false,"inputs":[{"indexed":true,"internalType":"address","name":"owner","type":"address"},{"indexed":true,"internalType":"uint256","name":"plot","type":"uint256"},{"indexed":false,"internalType":"uint256","name":"amount","type":"uint256"}],"name":"Invested","type":"event"},{"anonymous":false,"inputs":[{"indexed":false,"internalType":"address","name":"owner","type":"address"}],"name":"OwnershipTransferred","type":"event"},{"anonymous":false,"inputs":[{"indexed":true,"internalType":"address","name":"owner","type":"address"},{"indexed":true,"internalType":"uint256","name":"plot","type":"uint256"},{"indexed":false,"internalType":"uint256","name":"amount","type":"uint256"}],"name":"RedeemBUSD","type":"event"},{"anonymous":false,"inputs":[{"indexed":true,"internalType":"address","name":"owner","type":"address"},{"indexed":true,"internalType":"uint256","name":"plot","type":"uint256"},{"indexed":false,"internalType":"uint256","name":"amount","type":"uint256"}],"name":"RedeemFarmBuck","type":"event"},{"anonymous":false,"inputs":[{"indexed":true,"internalType":"address","name":"from","type":"address"},{"indexed":true,"internalType":"address","name":"to","type":"address"},{"indexed":false,"internalType":"uint256","name":"value","type":"uint256"}],"name":"Transfer","type":"event"},{"anonymous":false,"inputs":[{"indexed":true,"internalType":"address","name":"owner","type":"address"},{"indexed":true,"internalType":"uint256","name":"plot","type":"uint256"}],"name":"TreePlant","type":"event"},{"inputs":[{"components":[{"internalType":"uint32","name":"start","type":"uint32"},{"internalType":"uint32","name":"duration","type":"uint32"},{"internalType":"uint256","name":"price","type":"uint256"},{"components":[{"internalType":"uint16","name":"numerator","type":"uint16"},{"internalType":"uint16","name":"denominator","type":"uint16"}],"internalType":"struct Fraction","name":"percentage","type":"tuple"}],"internalType":"struct Boost","name":"btype","type":"tuple"}],"name":"addBoostType","outputs":[],"stateMutability":"nonpayable","type":"function"},{"inputs":[{"internalType":"address","name":"spender","type":"address"},{"internalType":"bool","name":"allowed","type":"bool"}],"name":"allowSpending","outputs":[],"stateMutability":"nonpayable","type":"function"},{"inputs":[{"internalType":"address","name":"_owner","type":"address"},{"internalType":"address","name":"spender","type":"address"}],"name":"allowance","outputs":[{"internalType":"uint256","name":"","type":"uint256"}],"stateMutability":"view","type":"function"},{"inputs":[{"internalType":"address","name":"_owner","type":"address"},{"internalType":"address","name":"spender","type":"address"}],"name":"allowedToSpend","outputs":[{"internalType":"bool","name":"","type":"bool"}],"stateMutability":"view","type":"function"},{"inputs":[{"internalType":"address","name":"spender","type":"address"},{"internalType":"uint256","name":"amount","type":"uint256"}],"name":"approve","outputs":[{"internalType":"bool","name":"","type":"bool"}],"stateMutability":"nonpayable","type":"function"},{"inputs":[{"internalType":"address","name":"adr","type":"address"}],"name":"authorize","outputs":[],"stateMutability":"nonpayable","type":"function"},{"inputs":[{"internalType":"address","name":"farmer","type":"address"}],"name":"balanceOf","outputs":[{"internalType":"uint256","name":"","type":"uint256"}],"stateMutability":"view","type":"function"},{"inputs":[{"internalType":"uint256","name":"","type":"uint256"}],"name":"boostTypes","outputs":[{"internalType":"uint32","name":"start","type":"uint32"},{"internalType":"uint32","name":"duration","type":"uint32"},{"internalType":"uint256","name":"price","type":"uint256"},{"components":[{"internalType":"uint16","name":"numerator","type":"uint16"},{"internalType":"uint16","name":"denominator","type":"uint16"}],"internalType":"struct Fraction","name":"percentage","type":"tuple"}],"stateMutability":"view","type":"function"},{"inputs":[{"internalType":"uint256","name":"index","type":"uint256"}],"name":"buyBoost","outputs":[],"stateMutability":"nonpayable","type":"function"},{"inputs":[{"internalType":"uint256","name":"plot","type":"uint256"},{"internalType":"uint256","name":"currentLevel","type":"uint256"}],"name":"canTreeLevelUp","outputs":[{"internalType":"bool","name":"","type":"bool"}],"stateMutability":"view","type":"function"},{"inputs":[{"internalType":"uint256","name":"plot","type":"uint256"}],"name":"compound","outputs":[],"stateMutability":"nonpayable","type":"function"},{"inputs":[{"internalType":"address","name":"receiver","type":"address"},{"internalType":"uint256","name":"plot","type":"uint256"}],"name":"compoundFor","outputs":[],"stateMutability":"nonpayable","type":"function"},{"inputs":[],"name":"decimals","outputs":[{"internalType":"uint8","name":"","type":"uint8"}],"stateMutability":"pure","type":"function"},{"inputs":[{"internalType":"uint256","name":"amount","type":"uint256"}],"name":"deposit","outputs":[],"stateMutability":"nonpayable","type":"function"},{"inputs":[{"internalType":"uint256","name":"amount","type":"uint256"},{"internalType":"address","name":"referer","type":"address"}],"name":"depositWithRefer","outputs":[],"stateMutability":"nonpayable","type":"function"},{"inputs":[{"internalType":"uint256","name":"index","type":"uint256"},{"components":[{"internalType":"uint32","name":"start","type":"uint32"},{"internalType":"uint32","name":"duration","type":"uint32"},{"internalType":"uint256","name":"price","type":"uint256"},{"components":[{"internalType":"uint16","name":"numerator","type":"uint16"},{"internalType":"uint16","name":"denominator","type":"uint16"}],"internalType":"struct Fraction","name":"percentage","type":"tuple"}],"internalType":"struct Boost","name":"btype","type":"tuple"}],"name":"editBoostType","outputs":[],"stateMutability":"nonpayable","type":"function"},{"inputs":[{"internalType":"uint256[]","name":"indexes","type":"uint256[]"},{"components":[{"internalType":"uint256[]","name":"pricePerLevel","type":"uint256[]"},{"components":[{"internalType":"uint16","name":"numerator","type":"uint16"},{"internalType":"uint16","name":"denominator","type":"uint16"}],"internalType":"struct Fraction[]","name":"yieldPerLevel","type":"tuple[]"},{"components":[{"internalType":"uint16","name":"numerator","type":"uint16"},{"internalType":"uint16","name":"denominator","type":"uint16"}],"internalType":"struct Fraction[]","name":"taxPerLevel","type":"tuple[]"}],"internalType":"struct TreeType[]","name":"ttypes","type":"tuple[]"}],"name":"editMultipleTreeTypes","outputs":[],"stateMutability":"nonpayable","type":"function"},{"inputs":[{"internalType":"uint256","name":"index","type":"uint256"},{"components":[{"internalType":"uint256[]","name":"pricePerLevel","type":"uint256[]"},{"components":[{"internalType":"uint16","name":"numerator","type":"uint16"},{"internalType":"uint16","name":"denominator","type":"uint16"}],"internalType":"struct Fraction[]","name":"yieldPerLevel","type":"tuple[]"},{"components":[{"internalType":"uint16","name":"numerator","type":"uint16"},{"internalType":"uint16","name":"denominator","type":"uint16"}],"internalType":"struct Fraction[]","name":"taxPerLevel","type":"tuple[]"}],"internalType":"struct TreeType","name":"ttype","type":"tuple"}],"name":"editTreeType","outputs":[],"stateMutability":"nonpayable","type":"function"},{"inputs":[{"internalType":"uint256","name":"plot","type":"uint256"}],"name":"getAvailableYield","outputs":[{"internalType":"uint256","name":"","type":"uint256"}],"stateMutability":"view","type":"function"},{"inputs":[{"internalType":"address","name":"booster","type":"address"}],"name":"getCurrentBoost","outputs":[{"components":[{"internalType":"uint32","name":"start","type":"uint32"},{"internalType":"uint32","name":"duration","type":"uint32"},{"internalType":"uint256","name":"price","type":"uint256"},{"components":[{"internalType":"uint16","name":"numerator","type":"uint16"},{"internalType":"uint16","name":"denominator","type":"uint16"}],"internalType":"struct Fraction","name":"percentage","type":"tuple"}],"internalType":"struct Boost","name":"","type":"tuple"}],"stateMutability":"view","type":"function"},{"inputs":[{"internalType":"uint256","name":"plot","type":"uint256"}],"name":"getMyPlotState","outputs":[{"components":[{"internalType":"uint24","name":"currentLevel","type":"uint24"},{"internalType":"uint32","name":"lastYield","type":"uint32"},{"internalType":"uint256","name":"investedBucks","type":"uint256"},{"internalType":"uint256","name":"yieldedBucks","type":"uint256"},{"internalType":"uint256","name":"yieldedBUSD","type":"uint256"}],"internalType":"struct Tree","name":"","type":"tuple"}],"stateMutability":"view","type":"function"},{"inputs":[{"internalType":"address","name":"owner","type":"address"},{"internalType":"uint256","name":"plot","type":"uint256"}],"name":"getPlotState","outputs":[{"components":[{"internalType":"uint24","name":"currentLevel","type":"uint24"},{"internalType":"uint32","name":"lastYield","type":"uint32"},{"internalType":"uint256","name":"investedBucks","type":"uint256"},{"internalType":"uint256","name":"yieldedBucks","type":"uint256"},{"internalType":"uint256","name":"yieldedBUSD","type":"uint256"}],"internalType":"struct Tree","name":"","type":"tuple"}],"stateMutability":"view","type":"function"},{"inputs":[{"internalType":"uint256","name":"plot","type":"uint256"}],"name":"getTreeType","outputs":[{"components":[{"internalType":"uint256[]","name":"pricePerLevel","type":"uint256[]"},{"components":[{"internalType":"uint16","name":"numerator","type":"uint16"},{"internalType":"uint16","name":"denominator","type":"uint16"}],"internalType":"struct Fraction[]","name":"yieldPerLevel","type":"tuple[]"},{"components":[{"internalType":"uint16","name":"numerator","type":"uint16"},{"internalType":"uint16","name":"denominator","type":"uint16"}],"internalType":"struct Fraction[]","name":"taxPerLevel","type":"tuple[]"}],"internalType":"struct TreeType","name":"","type":"tuple"}],"stateMutability":"view","type":"function"},{"inputs":[{"internalType":"uint256","name":"plot","type":"uint256"},{"internalType":"uint256","name":"level","type":"uint256"}],"name":"getTreeTypePrice","outputs":[{"internalType":"uint256","name":"","type":"uint256"}],"stateMutability":"view","type":"function"},{"inputs":[{"internalType":"uint256","name":"investment","type":"uint256"},{"internalType":"uint256","name":"time","type":"uint256"},{"components":[{"internalType":"uint16","name":"numerator","type":"uint16"},{"internalType":"uint16","name":"denominator","type":"uint16"}],"internalType":"struct Fraction","name":"yield","type":"tuple"}],"name":"getYieldByTime","outputs":[{"internalType":"uint256","name":"","type":"uint256"}],"stateMutability":"pure","type":"function"},{"inputs":[{"internalType":"uint256","name":"plot","type":"uint256"},{"internalType":"uint256","name":"amount","type":"uint256"}],"name":"investInTree","outputs":[],"stateMutability":"nonpayable","type":"function"},{"inputs":[{"internalType":"address","name":"adr","type":"address"}],"name":"isAuthorized","outputs":[{"internalType":"bool","name":"","type":"bool"}],"stateMutability":"view","type":"function"},{"inputs":[{"internalType":"address","name":"account","type":"address"}],"name":"isOwner","outputs":[{"internalType":"bool","name":"","type":"bool"}],"stateMutability":"view","type":"function"},{"inputs":[],"name":"maxYieldTime","outputs":[{"internalType":"uint40","name":"","type":"uint40"}],"stateMutability":"view","type":"function"},{"inputs":[],"name":"mintPrivateSaleBucks","outputs":[],"stateMutability":"nonpayable","type":"function"},{"inputs":[],"name":"name","outputs":[{"internalType":"string","name":"","type":"string"}],"stateMutability":"pure","type":"function"},{"inputs":[{"internalType":"uint256","name":"plot","type":"uint256"}],"name":"plantFirstTree","outputs":[],"stateMutability":"nonpayable","type":"function"},{"inputs":[{"internalType":"uint256","name":"plot","type":"uint256"}],"name":"redeemBUSD","outputs":[],"stateMutability":"nonpayable","type":"function"},{"inputs":[{"internalType":"address","name":"receiver","type":"address"},{"internalType":"uint256","name":"plot","type":"uint256"}],"name":"redeemBUSDFor","outputs":[],"stateMutability":"nonpayable","type":"function"},{"inputs":[{"internalType":"uint256","name":"plot","type":"uint256"}],"name":"redeemFarmbuck","outputs":[],"stateMutability":"nonpayable","type":"function"},{"inputs":[{"internalType":"address","name":"receiver","type":"address"},{"internalType":"uint256","name":"plot","type":"uint256"}],"name":"redeemFarmbuckFor","outputs":[],"stateMutability":"nonpayable","type":"function"},{"inputs":[{"internalType":"uint256","name":"index","type":"uint256"}],"name":"removeBoostType","outputs":[],"stateMutability":"nonpayable","type":"function"},{"inputs":[{"internalType":"bool","name":"active","type":"bool"}],"name":"setBoostsAvailable","outputs":[],"stateMutability":"nonpayable","type":"function"},{"inputs":[{"internalType":"uint256","name":"amount","type":"uint256"}],"name":"setPrivateSaleMintAmount","outputs":[],"stateMutability":"nonpayable","type":"function"},{"inputs":[{"components":[{"internalType":"uint16","name":"numerator","type":"uint16"},{"internalType":"uint16","name":"denominator","type":"uint16"}],"internalType":"struct Fraction","name":"fr","type":"tuple"}],"name":"setRefererAmount","outputs":[],"stateMutability":"nonpayable","type":"function"},{"inputs":[{"internalType":"bool","name":"allow","type":"bool"}],"name":"setTransferAllowed","outputs":[],"stateMutability":"nonpayable","type":"function"},{"inputs":[{"internalType":"address","name":"_owner","type":"address"},{"internalType":"address","name":"spender","type":"address"}],"name":"spendingAllowed","outputs":[{"internalType":"bool","name":"","type":"bool"}],"stateMutability":"view","type":"function"},{"inputs":[],"name":"symbol","outputs":[{"internalType":"string","name":"","type":"string"}],"stateMutability":"pure","type":"function"},{"inputs":[],"name":"totalSupply","outputs":[{"internalType":"uint256","name":"","type":"uint256"}],"stateMutability":"view","type":"function"},{"inputs":[{"internalType":"address","name":"recipient","type":"address"},{"internalType":"uint256","name":"amount","type":"uint256"}],"name":"transfer","outputs":[{"internalType":"bool","name":"","type":"bool"}],"stateMutability":"nonpayable","type":"function"},{"inputs":[{"internalType":"address","name":"sender","type":"address"},{"internalType":"address","name":"recipient","type":"address"},{"internalType":"uint256","name":"amount","type":"uint256"}],"name":"transferFrom","outputs":[{"internalType":"bool","name":"","type":"bool"}],"stateMutability":"nonpayable","type":"function"},{"inputs":[{"internalType":"address payable","name":"adr","type":"address"}],"name":"transferOwnership","outputs":[],"stateMutability":"nonpayable","type":"function"},{"inputs":[{"internalType":"address","name":"adr","type":"address"}],"name":"unauthorize","outputs":[],"stateMutability":"nonpayable","type":"function"}],"evm":{"bytecode":{"linkReferences":{},"object":"600380546201518064ffffffffff19909116179055683635c9adc5dea00000602a5560e0604052600560a0819052606460c052602b805461ffff191690911763ffff00001916626400001790556031805460ff191690553480156200006357600080fd5b50600080546001600160a01b03191633908117825581526001602081905260408220805460ff191690911790556061461415620000b6575073ed24fc36d5ee211ea25a80239fb8c4cfd80f12ee620000cd565b5073e9e7cea3dedca5984780bafc599bd69add087d565b606081901b6001600160601b0319166080526001600160a01b03166147c26200010f600039600081816109a701528181612bcf01526132c601526147c26000f3fe608060405234801561001057600080fd5b50600436106103205760003560e01c80637fe6b8b6116101a7578063d9d5fc96116100ee578063f1abe2ca11610097578063f929c98b11610071578063f929c98b146106aa578063fe9be086146106bd578063fe9fbb80146106d057610320565b8063f1abe2ca14610661578063f1f032f014610674578063f2fde38b1461069757610320565b8063df7cbee1116100c8578063df7cbee11461063b578063e3eba0601461042f578063f0b37c041461064e57610320565b8063d9d5fc9614610600578063dc4fd81914610613578063dd62ed3e1461062857610320565b8063aa5f7e2611610150578063b6a5d7de1161012a578063b6a5d7de146105c7578063b6b55f25146105da578063d1225a9b146105ed57610320565b8063aa5f7e261461058e578063ae901021146105a1578063b3942cbd146105b457610320565b806395d89b411161018157806395d89b41146105535780639e7af3c71461055b578063a9059cbb1461057b57610320565b80637fe6b8b61461051a5780638b1069261461052d5780639388e3a41461054057610320565b8063451f3caf1161026b57806370a0823111610214578063730417dc116101ee578063730417dc146104d457806373af2e29146104e75780637776bbbd146104fa57610320565b806370a082311461049b578063718abfba146104ae57806371b322dc146104c157610320565b8063558ac13611610245578063558ac1361461045557806357f43f8d146104755780635c3c95871461048857610320565b8063451f3caf1461041c5780634c4a6dd01461042f578063534785621461044257610320565b806323b872dd116102cd5780633d3cae07116102a75780633d3cae07146103ee57806340e44267146104015780634416c3b41461040957610320565b806323b872dd146103b35780632f54bf6e146103c6578063313ce567146103d957610320565b80630b1d7605116102fe5780630b1d76051461037857806318160ddd1461038b57806318aac6df146103a057610320565b8063032c9dca1461032557806306fdde031461033a578063095ea7b314610358575b600080fd5b610338610333366004613600565b6106e3565b005b610342610b43565b60405161034f91906138fe565b60405180910390f35b61036b610366366004613600565b610b7a565b60405161034f91906138f3565b61033861038636600461362b565b610be2565b610393610ee1565b60405161034f9190614256565b6103936103ae3660046137a0565b610ee7565b61036b6103c1366004613593565b6110cd565b61036b6103d436600461353f565b611142565b6103e1611156565b60405161034f91906142a3565b61036b6103fc3660046137a0565b61115b565b6103386112f4565b6103386104173660046136e7565b611376565b61033861042a366004613600565b6113ad565b61036b61043d36600461355b565b611444565b6103386104503660046135d3565b611472565b61046861046336600461353f565b6114e1565b60405161034f9190614149565b6103386104833660046136f8565b611560565b6103386104963660046136cc565b6116ce565b6103936104a936600461353f565b611734565b6103386104bc366004613760565b61174f565b6103386104cf366004613734565b611935565b6103936104e23660046136f8565b61199c565b6103386104f53660046136f8565b6119d0565b61050d6105083660046136f8565b611c00565b60405161034f9190614185565b610338610528366004613710565b611d76565b61039361053b3660046137c1565b611db8565b61033861054e3660046136f8565b611e50565b610342611ea4565b61056e6105693660046136f8565b611edb565b60405161034f9190614211565b61036b610589366004613600565b611eed565b61033861059c3660046136f8565b611f3b565b6103386105af366004613600565b611fbd565b6103386105c2366004613694565b6121b9565b6103386105d536600461353f565b6121f1565b6103386105e83660046136f8565b61223d565b6103386105fb3660046136f8565b612249565b61056e61060e366004613600565b612465565b61061b61251e565b60405161034f9190614291565b61039361063636600461355b565b61252b565b6103386106493660046137a0565b61254e565b61033861065c36600461353f565b6125f4565b61033861066f366004613694565b61263a565b6106876106823660046136f8565b612672565b60405161034f949392919061425f565b6103386106a536600461353f565b6126da565b6103386106b83660046136f8565b61277c565b6103386106cb3660046136f8565b612931565b61036b6106de36600461353f565b612d58565b80600c811061070d5760405162461bcd60e51b815260040161070490613ef9565b60405180910390fd5b6107178333611444565b61072057600080fd5b600061072c8484612d76565b90506000600484600c811061075157634e487b7160e01b600052603260045260246000fd5b60030201604051806060016040529081600082018054806020026020016040519081016040528092919081815260200182805480156107af57602002820191906000526020600020905b81548152602001906001019080831161079b575b5050505050815260200160018201805480602002602001604051908101604052809291908181526020016000905b82821015610820576000848152602090819020604080518082019091529084015461ffff80821683526201000090910416818301528252600190920191016107dd565b50505050815260200160028201805480602002602001604051908101604052809291908181526020016000905b82821015610890576000848152602090819020604080518082019091529084015461ffff808216835262010000909104168183015282526001909201910161084d565b505050915250506001600160a01b0386166000908152602e602052604081209192509085600c81106108d257634e487b7160e01b600052603260045260246000fd5b6040805160a08101825260049290920292909201805462ffffff8116808452630100000090910463ffffffff1660208401526001820154838501526002820154606084015260039091015460808301529184015180519193506000929091811061094c57634e487b7160e01b600052603260045260246000fd5b602002602001015190506000816020015161ffff16826000015161ffff168661097591906143ca565b61097f91906143aa565b9050600061098d82876143e9565b60405163a9059cbb60e01b81529091506001600160a01b037f0000000000000000000000000000000000000000000000000000000000000000169063a9059cbb906109de908c9085906004016138da565b602060405180830381600087803b1580156109f857600080fd5b505af1158015610a0c573d6000803e3d6000fd5b505050506040513d601f19601f82011682018060405250810190610a3091906136b0565b508084608001818151610a43919061436a565b90525063ffffffff42166020808601919091526001600160a01b038a166000908152602e90915260409020849089600c8110610a8f57634e487b7160e01b600052603260045260246000fd5b8251600491909102919091018054602084015163ffffffff1663010000000266ffffffff0000001962ffffff90941662ffffff1990921691909117929092169190911781556040808301516001830155606083015160028301556080909201516003909101555188906001600160a01b038b16907f888f19217ddad5c6a51226c6812abe28b4400e72206c3b170ae84829bd03a7a090610b30908a90614256565b60405180910390a3505050505050505050565b60408051808201909152600881527f4661726d4275636b000000000000000000000000000000000000000000000000602082015290565b6000811515610b898482611472565b836001600160a01b0316336001600160a01b03167f8c5be1e5ebec7d5bd14f71427d1e84f3dd0314c0f7b2291e5b200ac8c7c3b925600254604051610bce9190614256565b60405180910390a360019150505b92915050565b610beb33612d58565b610c075760405162461bcd60e51b815260040161070490614112565b828114610c265760405162461bcd60e51b815260040161070490613beb565b60005b83811015610eda576000838383818110610c5357634e487b7160e01b600052603260045260246000fd5b9050602002810190610c65919061433f565b610c6f90806142f8565b9050118015610cbf57506000838383818110610c9b57634e487b7160e01b600052603260045260246000fd5b9050602002810190610cad919061433f565b610cbb9060208101906142b1565b9050115b8015610d0c57506000838383818110610ce857634e487b7160e01b600052603260045260246000fd5b9050602002810190610cfa919061433f565b610d089060408101906142b1565b9050115b8015610d955750828282818110610d3357634e487b7160e01b600052603260045260246000fd5b9050602002810190610d45919061433f565b610d539060208101906142b1565b9050838383818110610d7557634e487b7160e01b600052603260045260246000fd5b9050602002810190610d87919061433f565b610d9190806142f8565b9050145b8015610e225750828282818110610dbc57634e487b7160e01b600052603260045260246000fd5b9050602002810190610dce919061433f565b610ddc9060408101906142b1565b9050838383818110610dfe57634e487b7160e01b600052603260045260246000fd5b9050602002810190610e10919061433f565b610e1e9060208101906142b1565b9050145b610e3e5760405162461bcd60e51b815260040161070490613df3565b828282818110610e5e57634e487b7160e01b600052603260045260246000fd5b9050602002810190610e70919061433f565b6004868684818110610e9257634e487b7160e01b600052603260045260246000fd5b90506020020135600c8110610eb757634e487b7160e01b600052603260045260246000fd5b60030201610ec582826145bf565b50819050610ed2816144b1565b915050610c29565b5050505050565b60025490565b600082600c8110610f0a5760405162461bcd60e51b815260040161070490613ef9565b6000600485600c8110610f2d57634e487b7160e01b600052603260045260246000fd5b6003020160405180606001604052908160008201805480602002602001604051908101604052809291908181526020018280548015610f8b57602002820191906000526020600020905b815481526020019060010190808311610f77575b5050505050815260200160018201805480602002602001604051908101604052809291908181526020016000905b82821015610ffc576000848152602090819020604080518082019091529084015461ffff8082168352620100009091041681830152825260019092019101610fb9565b50505050815260200160028201805480602002602001604051908101604052809291908181526020016000905b8282101561106c576000848152602090819020604080518082019091529084015461ffff8082168352620100009091041681830152825260019092019101611029565b505050915250508051519091508411156110985760405162461bcd60e51b815260040161070490613afa565b80518051859081106110ba57634e487b7160e01b600052603260045260246000fd5b60200260200101519250505b5092915050565b60315460009060ff16806110eb57506000546001600160a01b031633145b6111075760405162461bcd60e51b815260040161070490613e9c565b611112848484612fbb565b61111c8433611444565b6111385760405162461bcd60e51b815260040161070490613cdc565b5060019392505050565b6000546001600160a01b0390811691161490565b601290565b600082600c811061117e5760405162461bcd60e51b815260040161070490613ef9565b6000600485600c81106111a157634e487b7160e01b600052603260045260246000fd5b60030201604051806060016040529081600082018054806020026020016040519081016040528092919081815260200182805480156111ff57602002820191906000526020600020905b8154815260200190600101908083116111eb575b5050505050815260200160018201805480602002602001604051908101604052809291908181526020016000905b82821015611270576000848152602090819020604080518082019091529084015461ffff808216835262010000909104168183015282526001909201910161122d565b50505050815260200160028201805480602002602001604051908101604052809291908181526020016000905b828210156112e0576000848152602090819020604080518082019091529084015461ffff808216835262010000909104168183015282526001909201910161129d565b505050915250505151909310949350505050565b6112fd33612d58565b6113195760405162461bcd60e51b815260040161070490614112565b602954610100900460ff16156113415760405162461bcd60e51b815260040161070490613b31565b602a8054336000908152602c6020526040902080549091019055546002805490910190556029805461ff001916610100179055565b61137f33612d58565b61139b5760405162461bcd60e51b815260040161070490614112565b80602b6113a88282614591565b505050565b80600c81106113ce5760405162461bcd60e51b815260040161070490613ef9565b6113d88333611444565b6113e157600080fd5b60006113ed8484612d76565b90506113fc83858360016130be565b82846001600160a01b03167f820cea42e8517cf1ec6d4e9db93909255f07c45f7eb0a7c7b5a0f8bdcfc2e5bf836040516114369190614256565b60405180910390a350505050565b6001600160a01b039182166000908152602d6020908152604080832093909416825291909152205460ff1690565b336000818152602d602090815260408083206001600160a01b038716808552925291829020805460ff191685151517905590519091907f0c8df66a7b22af6c2076e2c0586bca7548f9584b071221f363cde24bdbd9e62f906114d59085906138f3565b60405180910390a35050565b6114e9613434565b506001600160a01b03166000908152602f60209081526040918290208251608081018452815463ffffffff80821683526401000000009091041681840152600182015481850152835180850190945260029091015461ffff8082168552620100009091041691830191909152606081019190915290565b61156933612d58565b6115855760405162461bcd60e51b815260040161070490614112565b60288054611595906001906143e9565b815481106115b357634e487b7160e01b600052603260045260246000fd5b9060005260206000209060030201602882815481106115e257634e487b7160e01b600052603260045260246000fd5b600091825260209091208254600390920201805463ffffffff191663ffffffff9283161780825583546401000000009081900490931690920267ffffffff0000000019909216919091178155600180830154908201556002918201805492909101805461ffff191661ffff938416178082559154620100009081900490931690920263ffff000019909116179055602880548061168f57634e487b7160e01b600052603160045260246000fd5b600082815260208120600360001990930192830201805467ffffffffffffffff191681556001810191909155600201805463ffffffff19169055905550565b6116d733612d58565b6116f35760405162461bcd60e51b815260040161070490614112565b6028805460018101825560009190915281906003027fe16da923a2d88192e5070f37b4571d58682c0d66212ec634d495f33de3f77ab5016113a8828261450d565b6001600160a01b03166000908152602c602052604090205490565b61175833612d58565b6117745760405162461bcd60e51b815260040161070490614112565b80600061178182806142f8565b9050116117a05760405162461bcd60e51b815260040161070490614058565b60006117af60208301836142b1565b9050116117ce5760405162461bcd60e51b8152600401610704906139ae565b60006117dd60408301836142b1565b9050116117fc5760405162461bcd60e51b815260040161070490613d39565b61180960208201826142b1565b905061181582806142f8565b905014801561183f575061182c60408201826142b1565b905061183b60208301836142b1565b9050145b61185b5760405162461bcd60e51b815260040161070490613c22565b600061186783806142f8565b90501180156118845750600061188060208401846142b1565b9050115b801561189e5750600061189a60408401846142b1565b9050115b80156118c257506118b260208301836142b1565b90506118be83806142f8565b9050145b80156118e957506118d660408301836142b1565b90506118e560208401846142b1565b9050145b6119055760405162461bcd60e51b815260040161070490613df3565b81600484600c811061192757634e487b7160e01b600052603260045260246000fd5b60030201610eda82826145bf565b61193e33612d58565b61195a5760405162461bcd60e51b815260040161070490614112565b806028838154811061197c57634e487b7160e01b600052603260045260246000fd5b90600052602060002090600302018181611996919061450d565b50505050565b600081600c81106119bf5760405162461bcd60e51b815260040161070490613ef9565b6119c93384612d76565b9392505050565b60295460ff166119f25760405162461bcd60e51b815260040161070490613a0b565b336000908152602f60209081526040918290208251608081018452815463ffffffff8082168352640100000000909104811682850152600183015482860152845180860190955260029092015461ffff80821686526201000090910416928401929092526060820192909252805190911615611a9d57602081015181514291611a7a91614382565b63ffffffff1610611a9d5760405162461bcd60e51b815260040161070490614021565b600060288381548110611ac057634e487b7160e01b600052603260045260246000fd5b60009182526020808320604080516080810182526003909402909101805463ffffffff8082168652640100000000909104168484015260018101548483019081528251808401845260029092015461ffff8082168452620100009091041682850152606085019190915251338552602c909252909220549092501015611b585760405162461bcd60e51b815260040161070490613a9d565b60408082018051336000818152602c602090815285822080549490940390935563ffffffff4281168752918152602f835293909320845181548387015186166401000000000267ffffffff00000000199290961663ffffffff19909116171693909317835590516001830155606090920151805160029092018054919093015161ffff908116620100000263ffff0000199190931661ffff1990921691909117161790555050565b611c0861346d565b600482600c8110611c2957634e487b7160e01b600052603260045260246000fd5b6003020160405180606001604052908160008201805480602002602001604051908101604052809291908181526020018280548015611c8757602002820191906000526020600020905b815481526020019060010190808311611c73575b5050505050815260200160018201805480602002602001604051908101604052809291908181526020016000905b82821015611cf8576000848152602090819020604080518082019091529084015461ffff8082168352620100009091041681830152825260019092019101611cb5565b50505050815260200160028201805480602002602001604051908101604052809291908181526020016000905b82821015611d68576000848152602090819020604080518082019091529084015461ffff8082168352620100009091041681830152825260019092019101611d25565b505050915250909392505050565b336000908152603060205260409020805473ffffffffffffffffffffffffffffffffffffffff19166001600160a01b038316179055611db482613296565b5050565b60006127108162015180611dcc83876143ca565b611dd79060646143ca565b611de191906143aa565b90506000846020015161ffff16856000015161ffff168489611e0391906143ca565b611e0d91906143ca565b611e1791906143aa565b905082806064611e2785856143ca565b611e3191906143aa565b611e3b91906143aa565b611e4591906143aa565b979650505050505050565b611e5933612d58565b611e755760405162461bcd60e51b815260040161070490614112565b6a084595161401484a0000008110611e9f5760405162461bcd60e51b815260040161070490613c7f565b602a55565b60408051808201909152600581527f464255434b000000000000000000000000000000000000000000000000000000602082015290565b611ee361348e565b610bdc3383612465565b60315460009060ff1680611f0b57506000546001600160a01b031633145b611f275760405162461bcd60e51b815260040161070490613e9c565b611f32338484612fbb565b50600192915050565b80600c8110611f5c5760405162461bcd60e51b815260040161070490613ef9565b6000611f678361199c565b9050611f7683338360016130be565b82336001600160a01b03167f820cea42e8517cf1ec6d4e9db93909255f07c45f7eb0a7c7b5a0f8bdcfc2e5bf83604051611fb09190614256565b60405180910390a3505050565b80600c8110611fde5760405162461bcd60e51b815260040161070490613ef9565b611fe88333611444565b611ff157600080fd5b6000611ffd8484612d76565b6001600160a01b0385166000908152602e602052604081209192509084600c811061203857634e487b7160e01b600052603260045260246000fd5b6040805160a08101825260049290920292909201805462ffffff811683526301000000900463ffffffff1660208084019190915260018201548385015260028201546060840190815260039092015460808401526001600160a01b0389166000908152602c9091529290922080548501905581519092508391906120bd90839061436a565b90525063ffffffff42166020808301919091526001600160a01b0386166000908152602e90915260409020819085600c811061210957634e487b7160e01b600052603260045260246000fd5b8251600491909102919091018054602084015163ffffffff1663010000000266ffffffff0000001962ffffff90941662ffffff1990921691909117929092169190911781556040808301516001830155606083015160028301556080909201516003909101555184906001600160a01b038716907fd4c220a036e494dc8d9e171d2a06a37f490ec132e69a1ff788e87d75ba686568906121aa908690614256565b60405180910390a35050505050565b6121c233612d58565b6121de5760405162461bcd60e51b815260040161070490614112565b6031805460ff1916911515919091179055565b6121fa33611142565b6122165760405162461bcd60e51b815260040161070490613f8d565b6001600160a01b03166000908152600160208190526040909120805460ff19169091179055565b61224681613296565b50565b80600c811061226a5760405162461bcd60e51b815260040161070490613ef9565b6000612277836000610ee7565b336000908152602c60205260409020549091508111156122a95760405162461bcd60e51b815260040161070490613a68565b336000908152602e6020526040812084600c81106122d757634e487b7160e01b600052603260045260246000fd5b6040805160a08101825260049290920292909201805462ffffff8116808452630100000090910463ffffffff166020840152600182015493830193909352600281015460608301526003015460808201529150156123475760405162461bcd60e51b815260040161070490613d96565b336000908152602c6020908152604080832080548690039055602e909152902060019085600c811061238957634e487b7160e01b600052603260045260246000fd5b60040201805462ffffff191662ffffff92909216919091179055336000908152602e60205260409020829085600c81106123d357634e487b7160e01b600052603260045260246000fd5b6004020160010155336000908152602e60205260409020429085600c811061240b57634e487b7160e01b600052603260045260246000fd5b60040201805463ffffffff9290921663010000000266ffffffff00000019909216919091179055604051849033907fbfec54def49903f34ca9cf2128a54145e70ab76a425316fad737a5901cf820d490600090a350505050565b61246d61348e565b81600c811061248e5760405162461bcd60e51b815260040161070490613ef9565b6001600160a01b0384166000908152602e6020526040902083600c81106124c557634e487b7160e01b600052603260045260246000fd5b6040805160a08101825260049290920292909201805462ffffff811683526301000000900463ffffffff166020830152600181015492820192909252600282015460608201526003909101546080820152949350505050565b60035464ffffffffff1681565b60006125378383611444565b156125455750600254610bdc565b50600092915050565b81600c811061256f5760405162461bcd60e51b815260040161070490613ef9565b336000908152602c602052604090205482111561259e5760405162461bcd60e51b815260040161070490613a68565b6125ab83338460006130be565b336000818152602c60205260409081902080548590039055518491907f9e9d071824fd57d062ca63fd8b786d8da48a6807eebbcb2d83f9e8d21398e28c90611fb0908690614256565b6125fd33611142565b6126195760405162461bcd60e51b815260040161070490613f8d565b6001600160a01b03166000908152600160205260409020805460ff19169055565b61264333612d58565b61265f5760405162461bcd60e51b815260040161070490614112565b6029805460ff1916911515919091179055565b6028818154811061268257600080fd5b6000918252602091829020600390910201805460018201546040805180820190915260029093015461ffff808216855262010000909104169383019390935263ffffffff808216945064010000000090910416919084565b6126e333611142565b6126ff5760405162461bcd60e51b815260040161070490613f8d565b6000805473ffffffffffffffffffffffffffffffffffffffff19166001600160a01b0383169081178255815260016020819052604091829020805460ff19169091179055517f04dba622d284ed0014ee4b9a6a68386be1a4c08a4913ae272de89199cc686163906127719083906138a2565b60405180910390a150565b80600c811061279d5760405162461bcd60e51b815260040161070490613ef9565b60006127a88361199c565b336000908152602e602052604081209192509084600c81106127da57634e487b7160e01b600052603260045260246000fd5b6040805160a08101825260049290920292909201805462ffffff811683526301000000900463ffffffff166020808401919091526001820154838501526002820154606084019081526003909201546080840152336000908152602c90915292909220805485019055815190925083919061285690839061436a565b90525063ffffffff4216602080830191909152336000908152602e90915260409020819085600c811061289957634e487b7160e01b600052603260045260246000fd5b8251600491909102919091018054602084015163ffffffff1663010000000266ffffffff0000001962ffffff90941662ffffff19909216919091179290921691909117815560408083015160018301556060830151600283015560809092015160039091015551849033907fd4c220a036e494dc8d9e171d2a06a37f490ec132e69a1ff788e87d75ba68656890611436908690614256565b80600c81106129525760405162461bcd60e51b815260040161070490613ef9565b600061295d8361199c565b90506000600484600c811061298257634e487b7160e01b600052603260045260246000fd5b60030201604051806060016040529081600082018054806020026020016040519081016040528092919081815260200182805480156129e057602002820191906000526020600020905b8154815260200190600101908083116129cc575b5050505050815260200160018201805480602002602001604051908101604052809291908181526020016000905b82821015612a51576000848152602090819020604080518082019091529084015461ffff8082168352620100009091041681830152825260019092019101612a0e565b50505050815260200160028201805480602002602001604051908101604052809291908181526020016000905b82821015612ac1576000848152602090819020604080518082019091529084015461ffff8082168352620100009091041681830152825260019092019101612a7e565b50505091525050336000908152602e602052604081209192509085600c8110612afa57634e487b7160e01b600052603260045260246000fd5b6040805160a08101825260049290920292909201805462ffffff8116808452630100000090910463ffffffff16602084015260018201548385015260028201546060840152600390910154608083015291840151805191935060009290918110612b7457634e487b7160e01b600052603260045260246000fd5b602002602001015190506000816020015161ffff16826000015161ffff1686612b9d91906143ca565b612ba791906143aa565b90506000612bb582876143e9565b60405163a9059cbb60e01b81529091506001600160a01b037f0000000000000000000000000000000000000000000000000000000000000000169063a9059cbb90612c0690339085906004016138da565b602060405180830381600087803b158015612c2057600080fd5b505af1158015612c34573d6000803e3d6000fd5b505050506040513d601f19601f82011682018060405250810190612c5891906136b0565b508084608001818151612c6b919061436a565b90525063ffffffff4216602080860191909152336000908152602e90915260409020849089600c8110612cae57634e487b7160e01b600052603260045260246000fd5b8251600491909102919091018054602084015163ffffffff1663010000000266ffffffff0000001962ffffff90941662ffffff19909216919091179290921691909117815560408083015160018301556060830151600283015560809092015160039091015551889033907f888f19217ddad5c6a51226c6812abe28b4400e72206c3b170ae84829bd03a7a090612d46908a90614256565b60405180910390a35050505050505050565b6001600160a01b031660009081526001602052604090205460ff1690565b6001600160a01b0382166000908152602e60205260408120819083600c8110612daf57634e487b7160e01b600052603260045260246000fd5b6040805160a08101825260049290920292909201805462ffffff811683526301000000900463ffffffff1660208301819052600182015493830193909352600281015460608301526003015460808201529150600090612e0f90426143e9565b905080612e2157600092505050610bdc565b6000600485600c8110612e4457634e487b7160e01b600052603260045260246000fd5b60030201600101836000015162ffffff1681548110612e7357634e487b7160e01b600052603260045260246000fd5b600091825260208083206040805180820190915292015461ffff808216845262010000909104169082015260035490925064ffffffffff168311612eb75782612ec2565b60035464ffffffffff165b90506000612ed585604001518385611db8565b60295490915060ff1615611e45576001600160a01b0388166000908152602f60209081526040918290208251608081018452815463ffffffff808216835264010000000090910416818401908152600183015482860152845180860190955260029092015461ffff80821686526201000090910416928401929092526060820192909252905181514291612f6891614382565b63ffffffff161115612faf5760608101516020810151905160009161ffff90811691612f959116856143ca565b612f9f91906143aa565b9050612fab818461436a565b9250505b50979650505050505050565b6001600160a01b038316612fe15760405162461bcd60e51b815260040161070490613951565b6001600160a01b0382166130075760405162461bcd60e51b815260040161070490613fc4565b600081116130275760405162461bcd60e51b815260040161070490613b8e565b6001600160a01b0383166000908152602c6020526040902054818110156130605760405162461bcd60e51b8152600401610704906140b5565b6001600160a01b038085166000818152602c602052604080822086860390559286168082529083902080548601905591517fddf252ad1be2c89b69c2b068fc378daa952ba7f163c4a11628f55a4df523b3ef90611436908690614256565b6001600160a01b0383166000908152602e6020526040812085600c81106130f557634e487b7160e01b600052603260045260246000fd5b6040805160a08101825260049290920292909201805462ffffff8116808452630100000090910463ffffffff1660208401526001820154938301939093526002810154606083015260030154608082015291506131645760405162461bcd60e51b815260040161070490613f30565b8281604001818151613176919061436a565b905250805161318b90869062ffffff1661115b565b156131c95760006131a586836000015162ffffff16610ee7565b9050808260400151106131c7578151826131be8261448e565b62ffffff169052505b505b81156131f15782816060018181516131e1919061436a565b90525063ffffffff421660208201525b6001600160a01b0384166000908152602e60205260409020819086600c811061322a57634e487b7160e01b600052603260045260246000fd5b8251600491909102919091018054602084015163ffffffff1663010000000266ffffffff0000001962ffffff90941662ffffff19909216919091179290921691909117815560408201516001820155606082015160028201556080909101516003909101555050505050565b6040517f23b872dd0000000000000000000000000000000000000000000000000000000081526001600160a01b037f000000000000000000000000000000000000000000000000000000000000000016906323b872dd906132ff903390309086906004016138b6565b602060405180830381600087803b15801561331957600080fd5b505af115801561332d573d6000803e3d6000fd5b505050506040513d601f19601f8201168201806040525081019061335191906136b0565b61335a57600080fd5b336000908152602c6020908152604080832080548501905560309091529020546001600160a01b0316156133f057602b5460009061ffff6201000082048116916133a59116846143ca565b6133af91906143aa565b336000908152603060209081526040808320546001600160a01b03168352602c9091528120805492935083929091906133e990849061436a565b9091555050505b336001600160a01b03167f9b5ce49ffbc992ee67baad9481ff227141a5c0c1a324c22392a4581857d3e215826040516134299190614256565b60405180910390a250565b6040518060800160405280600063ffffffff168152602001600063ffffffff168152602001600081526020016134686134c8565b905290565b60405180606001604052806060815260200160608152602001606081525090565b6040518060a00160405280600062ffffff168152602001600063ffffffff1681526020016000815260200160008152602001600081525090565b604080518082019091526000808252602082015290565b60008083601f8401126134f0578182fd5b50813567ffffffffffffffff811115613507578182fd5b602083019150836020808302850101111561352157600080fd5b9250929050565b600060a08284031215613539578081fd5b50919050565b600060208284031215613550578081fd5b81356119c981614759565b6000806040838503121561356d578081fd5b823561357881614759565b9150602083013561358881614759565b809150509250929050565b6000806000606084860312156135a7578081fd5b83356135b281614759565b925060208401356135c281614759565b929592945050506040919091013590565b600080604083850312156135e5578182fd5b82356135f081614759565b915060208301356135888161476e565b60008060408385031215613612578182fd5b823561361d81614759565b946020939093013593505050565b60008060008060408587031215613640578081fd5b843567ffffffffffffffff80821115613657578283fd5b613663888389016134df565b9096509450602087013591508082111561367b578283fd5b50613688878288016134df565b95989497509550505050565b6000602082840312156136a5578081fd5b81356119c98161476e565b6000602082840312156136c1578081fd5b81516119c98161476e565b600060a082840312156136dd578081fd5b6119c98383613528565b600060408284031215613539578081fd5b600060208284031215613709578081fd5b5035919050565b60008060408385031215613722578182fd5b82359150602083013561358881614759565b60008060c08385031215613746578182fd5b823591506137578460208501613528565b90509250929050565b60008060408385031215613772578182fd5b82359150602083013567ffffffffffffffff81111561378f578182fd5b830160608186031215613588578182fd5b600080604083850312156137b2578182fd5b50508035926020909101359150565b600080600083850360808112156137d6578182fd5b84359350602085013592506040603f19820112156137f2578182fd5b506040516040810181811067ffffffffffffffff82111715613816576138166144e2565b60409081528501356138278161477c565b815260608501356138378161477c565b602082015292959194509192509050565b6000815180845260208085019450808401835b838110156138815761386e87835161388c565b604096909601959082019060010161385b565b509495945050505050565b805161ffff908116835260209182015116910152565b6001600160a01b0391909116815260200190565b6001600160a01b039384168152919092166020820152604081019190915260600190565b6001600160a01b03929092168252602082015260400190565b901515815260200190565b6000602080835283518082850152825b8181101561392a5785810183015185820160400152820161390e565b8181111561393b5783604083870101525b50601f01601f1916929092016040019392505050565b60208082526029908201527f4661726d4275636b3a207472616e736665722066726f6d20746865207a65726f60408201527f20616464726573732e0000000000000000000000000000000000000000000000606082015260800190565b60208082526033908201527f5969656c642077726f6e673a2054726565206e6565647320746f20686176652060408201527f6174206c65617374206f6e65206c6576656c2e00000000000000000000000000606082015260800190565b60208082526022908201527f426f6f737420617265206e6f742063757272656e746c7920617661696c61626c60408201527f652e000000000000000000000000000000000000000000000000000000000000606082015260800190565b6020808252818101527f596f7520646f206e6f74206f776e20656e6f756768206661726d6275636b732e604082015260600190565b60208082526029908201527f596f7520646f206e6f74206f776e20656e6f756768206661726d6275636b732060408201527f746f20626f6f73742e0000000000000000000000000000000000000000000000606082015260800190565b60208082526014908201527f496e76616c6964206c6576656c2071756572792e000000000000000000000000604082015260600190565b60208082526026908201527f507269766174652073616c65204661726d4275636b7320616c7265616479206d60408201527f696e7465642e0000000000000000000000000000000000000000000000000000606082015260800190565b60208082526034908201527f4661726d4275636b3a205472616e7366657220616d6f756e74206d757374206260408201527f652067726561746572207468616e207a65726f2e000000000000000000000000606082015260800190565b6020808252600f908201527f4172726179206d69736d617463682e0000000000000000000000000000000000604082015260600190565b6020808252603f908201527f54726565206d75737420686176652073616d6520656e7472696573206f6e207060408201527f726963652c207969656c642c20616e642074617820706572206c6576656c2e00606082015260800190565b60208082526034908201527f50726573616c65206d696e7420616d6f756e74206973206c696d69746564207460408201527f6f20612073656e7369626c65206e756d6265722e000000000000000000000000606082015260800190565b6020808252602d908201527f596f7520617265206e6f7420616c6c6f77656420746f207370656e642074686f60408201527f7365204661726d4275636b732e00000000000000000000000000000000000000606082015260800190565b60208082526031908201527f5461782077726f6e673a2054726565206e6565647320746f206861766520617460408201527f206c65617374206f6e65206c6576656c2e000000000000000000000000000000606082015260800190565b60208082526035908201527f596f75206861766520616c726561647920706c616e746564207468652066697260408201527f7374207472656520696e207468617420706c6f74210000000000000000000000606082015260800190565b60208082526062908201527f57726f6e67207472656520636f6e66696775726174696f6e2e204d757374206860408201527f617665206174206c65617374206f6e65206c6576656c20616e642073616d652060608201527f656e747269657320666f722070726963652c207969656c642c20616e6420746160808201527f782e00000000000000000000000000000000000000000000000000000000000060a082015260c00190565b6020808252602b908201527f4661726d4275636b207472616e73666572206973206e6f742063757272656e7460408201527f6c7920616c6c6f7765642e000000000000000000000000000000000000000000606082015260800190565b60208082526019908201527f5468617420706c6f7420646f6573206e6f742065786973742e00000000000000604082015260600190565b60208082526031908201527f4e6f2074726565206f6e207468697320706c6f742c20796f752068617665207460408201527f6f20706c616e742069742066697273742e000000000000000000000000000000606082015260800190565b60208082526006908201527f214f574e45520000000000000000000000000000000000000000000000000000604082015260600190565b60208082526027908201527f4661726d4275636b3a207472616e7366657220746f20746865207a65726f206160408201527f6464726573732e00000000000000000000000000000000000000000000000000606082015260800190565b6020808252601f908201527f596f75207374696c6c206861766520616e2061637469766520626f6f73742e00604082015260600190565b60208082526033908201527f50726963652077726f6e673a2054726565206e6565647320746f20686176652060408201527f6174206c65617374206f6e65206c6576656c2e00000000000000000000000000606082015260800190565b60208082526025908201527f53656e64657220646f6573206e6f74206f776e20656e6f756768204661726d4260408201527f75636b732e000000000000000000000000000000000000000000000000000000606082015260800190565b6020808252600b908201527f21415554484f52495a4544000000000000000000000000000000000000000000604082015260600190565b600060a08201905063ffffffff808451168352806020850151166020840152506040830151604083015260608301516110c6606084018261388c565b6020808252825160608383015280516080840181905260009291820190839060a08601905b808310156141ca57835182529284019260019290920191908401906141aa565b50838701519350601f199250828682030160408701526141ea8185613848565b935050506040850151818584030160608601526142078382613848565b9695505050505050565b600060a08201905062ffffff835116825263ffffffff602084015116602083015260408301516040830152606083015160608301526080830151608083015292915050565b90815260200190565b63ffffffff8581168252841660208201526040810183905260a08101614288606083018461388c565b95945050505050565b64ffffffffff91909116815260200190565b60ff91909116815260200190565b6000808335601e198436030181126142c7578283fd5b83018035915067ffffffffffffffff8211156142e1578283fd5b602001915060408102360382131561352157600080fd5b6000808335601e1984360301811261430e578283fd5b83018035915067ffffffffffffffff821115614328578283fd5b602090810192508102360382131561352157600080fd5b60008235605e19833603018112614354578182fd5b9190910192915050565b60009081526020902090565b6000821982111561437d5761437d6144cc565b500190565b600063ffffffff8083168185168083038211156143a1576143a16144cc565b01949350505050565b6000826143c557634e487b7160e01b81526012600452602481fd5b500490565b60008160001904831182151516156143e4576143e46144cc565b500290565b6000828210156143fb576143fb6144cc565b500390565b68010000000000000000831115614419576144196144e2565b805483825580841015614450576000828152602081208581019083015b8082101561444c57828255600182019150614436565b5050505b508161445b8261435e565b6000805b86811015614485576144728483856146fa565b604093909301926001928301920161445f565b50505050505050565b600062ffffff808316818114156144a7576144a76144cc565b6001019392505050565b60006000198214156144c5576144c56144cc565b5060010190565b634e487b7160e01b600052601160045260246000fd5b634e487b7160e01b600052604160045260246000fd5b6000813563ffffffff81168114610bdc578182fd5b63ffffffff61451b836144f8565b1663ffffffff198254161780825567ffffffff0000000061453e602085016144f8565b60201b1667ffffffff00000000198216178255506040820135600182015560028101606083013561456e8161477c565b61457881836146cb565b5060808301356145878161477c565b61199681836146de565b813561459c8161477c565b6145a681836146cb565b5060208201356145b58161477c565b6113a881836146de565b8135601e198336030181126145d357600080fd5b8201803567ffffffffffffffff8111156145ec57600080fd5b602091820191818102360383131561460357600080fd5b6801000000000000000082111561461c5761461c6144e2565b83548285558083101561465a5760008581528281208481019083015b808210156146565761464b83848461473a565b600182019150614638565b5050505b506146648461435e565b6000805b8481101561468c5761467c8635838561473a565b9483019460019283019201614668565b50505061469b818601866142b1565b93509150506146ae828260018601614400565b50506146bd60408301836142b1565b611996818360028601614400565b61ffff821661ffff198254161781555050565b805463ffff00008360101b1663ffff0000198216178255505050565b811561471657634e487b7160e01b600052600060045260246000fd5b82356147218161477c565b61472b81836146cb565b5060208301356145878161477c565b805460088302600019811b8086831b1681198416178455505050505050565b6001600160a01b038116811461224657600080fd5b801515811461224657600080fd5b61ffff8116811461224657600080fdfea26469706673582212204cf0e698cdf44cec40c8611b508c0739eaba293a2b7c104036bec1fcac3a97d364736f6c63430008000033","opcodes":"PUSH1 0x3 DUP1 SLOAD PUSH3 0x15180 PUSH5 0xFFFFFFFFFF NOT SWAP1 SWAP2 AND OR SWAP1 SSTORE PUSH9 0x3635C9ADC5DEA00000 PUSH1 0x2A SSTORE PUSH1 0xE0 PUSH1 0x40 MSTORE PUSH1 0x5 PUSH1 0xA0 DUP2 SWAP1 MSTORE PUSH1 0x64 PUSH1 0xC0 MSTORE PUSH1 0x2B DUP1 SLOAD PUSH2 0xFFFF NOT AND SWAP1 SWAP2 OR PUSH4 0xFFFF0000 NOT AND PUSH3 0x640000 OR SWAP1 SSTORE PUSH1 0x31 DUP1 SLOAD PUSH1 0xFF NOT AND SWAP1 SSTORE CALLVALUE DUP1 ISZERO PUSH3 0x63 JUMPI PUSH1 0x0 DUP1 REVERT JUMPDEST POP PUSH1 0x0 DUP1 SLOAD PUSH1 0x1 PUSH1 0x1 PUSH1 0xA0 SHL SUB NOT AND CALLER SWAP1 DUP2 OR DUP3 SSTORE DUP2 MSTORE PUSH1 0x1 PUSH1 0x20 DUP2 SWAP1 MSTORE PUSH1 0x40 DUP3 KECCAK256 DUP1 SLOAD PUSH1 0xFF NOT AND SWAP1 SWAP2 OR SWAP1 SSTORE PUSH1 0x61 CHAINID EQ ISZERO PUSH3 0xB6 JUMPI POP PUSH20 0xED24FC36D5EE211EA25A80239FB8C4CFD80F12EE PUSH3 0xCD JUMP JUMPDEST POP PUSH20 0xE9E7CEA3DEDCA5984780BAFC599BD69ADD087D56 JUMPDEST PUSH1 0x60 DUP2 SWAP1 SHL PUSH1 0x1 PUSH1 0x1 PUSH1 0x60 SHL SUB NOT AND PUSH1 0x80 MSTORE PUSH1 0x1 PUSH1 0x1 PUSH1 0xA0 SHL SUB AND PUSH2 0x47C2 PUSH3 0x10F PUSH1 0x0 CODECOPY PUSH1 0x0 DUP2 DUP2 PUSH2 0x9A7 ADD MSTORE DUP2 DUP2 PUSH2 0x2BCF ADD MSTORE PUSH2 0x32C6 ADD MSTORE PUSH2 0x47C2 PUSH1 0x0 RETURN INVALID PUSH1 0x80 PUSH1 0x40 MSTORE CALLVALUE DUP1 ISZERO PUSH2 0x10 JUMPI PUSH1 0x0 DUP1 REVERT JUMPDEST POP PUSH1 0x4 CALLDATASIZE LT PUSH2 0x320 JUMPI PUSH1 0x0 CALLDATALOAD PUSH1 0xE0 SHR DUP1 PUSH4 0x7FE6B8B6 GT PUSH2 0x1A7 JUMPI DUP1 PUSH4 0xD9D5FC96 GT PUSH2 0xEE JUMPI DUP1 PUSH4 0xF1ABE2CA GT PUSH2 0x97 JUMPI DUP1 PUSH4 0xF929C98B GT PUSH2 0x71 JUMPI DUP1 PUSH4 0xF929C98B EQ PUSH2 0x6AA JUMPI DUP1 PUSH4 0xFE9BE086 EQ PUSH2 0x6BD JUMPI DUP1 PUSH4 0xFE9FBB80 EQ PUSH2 0x6D0 JUMPI PUSH2 0x320 JUMP JUMPDEST DUP1 PUSH4 0xF1ABE2CA EQ PUSH2 0x661 JUMPI DUP1 PUSH4 0xF1F032F0 EQ PUSH2 0x674 JUMPI DUP1 PUSH4 0xF2FDE38B EQ PUSH2 0x697 JUMPI PUSH2 0x320 JUMP JUMPDEST DUP1 PUSH4 0xDF7CBEE1 GT PUSH2 0xC8 JUMPI DUP1 PUSH4 0xDF7CBEE1 EQ PUSH2 0x63B JUMPI DUP1 PUSH4 0xE3EBA060 EQ PUSH2 0x42F JUMPI DUP1 PUSH4 0xF0B37C04 EQ PUSH2 0x64E JUMPI PUSH2 0x320 JUMP JUMPDEST DUP1 PUSH4 0xD9D5FC96 EQ PUSH2 0x600 JUMPI DUP1 PUSH4 0xDC4FD819 EQ PUSH2 0x613 JUMPI DUP1 PUSH4 0xDD62ED3E EQ PUSH2 0x628 JUMPI PUSH2 0x320 JUMP JUMPDEST DUP1 PUSH4 0xAA5F7E26 GT PUSH2 0x150 JUMPI DUP1 PUSH4 0xB6A5D7DE GT PUSH2 0x12A JUMPI DUP1 PUSH4 0xB6A5D7DE EQ PUSH2 0x5C7 JUMPI DUP1 PUSH4 0xB6B55F25 EQ PUSH2 0x5DA JUMPI DUP1 PUSH4 0xD1225A9B EQ PUSH2 0x5ED JUMPI PUSH2 0x320 JUMP JUMPDEST DUP1 PUSH4 0xAA5F7E26 EQ PUSH2 0x58E JUMPI DUP1 PUSH4 0xAE901021 EQ PUSH2 0x5A1 JUMPI DUP1 PUSH4 0xB3942CBD EQ PUSH2 0x5B4 JUMPI PUSH2 0x320 JUMP JUMPDEST DUP1 PUSH4 0x95D89B41 GT PUSH2 0x181 JUMPI DUP1 PUSH4 0x95D89B41 EQ PUSH2 0x553 JUMPI DUP1 PUSH4 0x9E7AF3C7 EQ PUSH2 0x55B JUMPI DUP1 PUSH4 0xA9059CBB EQ PUSH2 0x57B JUMPI PUSH2 0x320 JUMP JUMPDEST DUP1 PUSH4 0x7FE6B8B6 EQ PUSH2 0x51A JUMPI DUP1 PUSH4 0x8B106926 EQ PUSH2 0x52D JUMPI DUP1 PUSH4 0x9388E3A4 EQ PUSH2 0x540 JUMPI PUSH2 0x320 JUMP JUMPDEST DUP1 PUSH4 0x451F3CAF GT PUSH2 0x26B JUMPI DUP1 PUSH4 0x70A08231 GT PUSH2 0x214 JUMPI DUP1 PUSH4 0x730417DC GT PUSH2 0x1EE JUMPI DUP1 PUSH4 0x730417DC EQ PUSH2 0x4D4 JUMPI DUP1 PUSH4 0x73AF2E29 EQ PUSH2 0x4E7 JUMPI DUP1 PUSH4 0x7776BBBD EQ PUSH2 0x4FA JUMPI PUSH2 0x320 JUMP JUMPDEST DUP1 PUSH4 0x70A08231 EQ PUSH2 0x49B JUMPI DUP1 PUSH4 0x718ABFBA EQ PUSH2 0x4AE JUMPI DUP1 PUSH4 0x71B322DC EQ PUSH2 0x4C1 JUMPI PUSH2 0x320 JUMP JUMPDEST DUP1 PUSH4 0x558AC136 GT PUSH2 0x245 JUMPI DUP1 PUSH4 0x558AC136 EQ PUSH2 0x455 JUMPI DUP1 PUSH4 0x57F43F8D EQ PUSH2 0x475 JUMPI DUP1 PUSH4 0x5C3C9587 EQ PUSH2 0x488 JUMPI PUSH2 0x320 JUMP JUMPDEST DUP1 PUSH4 0x451F3CAF EQ PUSH2 0x41C JUMPI DUP1 PUSH4 0x4C4A6DD0 EQ PUSH2 0x42F JUMPI DUP1 PUSH4 0x53478562 EQ PUSH2 0x442 JUMPI PUSH2 0x320 JUMP JUMPDEST DUP1 PUSH4 0x23B872DD GT PUSH2 0x2CD JUMPI DUP1 PUSH4 0x3D3CAE07 GT PUSH2 0x2A7 JUMPI DUP1 PUSH4 0x3D3CAE07 EQ PUSH2 0x3EE JUMPI DUP1 PUSH4 0x40E44267 EQ PUSH2 0x401 JUMPI DUP1 PUSH4 0x4416C3B4 EQ PUSH2 0x409 JUMPI PUSH2 0x320 JUMP JUMPDEST DUP1 PUSH4 0x23B872DD EQ PUSH2 0x3B3 JUMPI DUP1 PUSH4 0x2F54BF6E EQ PUSH2 0x3C6 JUMPI DUP1 PUSH4 0x313CE567 EQ PUSH2 0x3D9 JUMPI PUSH2 0x320 JUMP JUMPDEST DUP1 PUSH4 0xB1D7605 GT PUSH2 0x2FE JUMPI DUP1 PUSH4 0xB1D7605 EQ PUSH2 0x378 JUMPI DUP1 PUSH4 0x18160DDD EQ PUSH2 0x38B JUMPI DUP1 PUSH4 0x18AAC6DF EQ PUSH2 0x3A0 JUMPI PUSH2 0x320 JUMP JUMPDEST DUP1 PUSH4 0x32C9DCA EQ PUSH2 0x325 JUMPI DUP1 PUSH4 0x6FDDE03 EQ PUSH2 0x33A JUMPI DUP1 PUSH4 0x95EA7B3 EQ PUSH2 0x358 JUMPI JUMPDEST PUSH1 0x0 DUP1 REVERT JUMPDEST PUSH2 0x338 PUSH2 0x333 CALLDATASIZE PUSH1 0x4 PUSH2 0x3600 JUMP JUMPDEST PUSH2 0x6E3 JUMP JUMPDEST STOP JUMPDEST PUSH2 0x342 PUSH2 0xB43 JUMP JUMPDEST PUSH1 0x40 MLOAD PUSH2 0x34F SWAP2 SWAP1 PUSH2 0x38FE JUMP JUMPDEST PUSH1 0x40 MLOAD DUP1 SWAP2 SUB SWAP1 RETURN JUMPDEST PUSH2 0x36B PUSH2 0x366 CALLDATASIZE PUSH1 0x4 PUSH2 0x3600 JUMP JUMPDEST PUSH2 0xB7A JUMP JUMPDEST PUSH1 0x40 MLOAD PUSH2 0x34F SWAP2 SWAP1 PUSH2 0x38F3 JUMP JUMPDEST PUSH2 0x338 PUSH2 0x386 CALLDATASIZE PUSH1 0x4 PUSH2 0x362B JUMP JUMPDEST PUSH2 0xBE2 JUMP JUMPDEST PUSH2 0x393 PUSH2 0xEE1 JUMP JUMPDEST PUSH1 0x40 MLOAD PUSH2 0x34F SWAP2 SWAP1 PUSH2 0x4256 JUMP JUMPDEST PUSH2 0x393 PUSH2 0x3AE CALLDATASIZE PUSH1 0x4 PUSH2 0x37A0 JUMP JUMPDEST PUSH2 0xEE7 JUMP JUMPDEST PUSH2 0x36B PUSH2 0x3C1 CALLDATASIZE PUSH1 0x4 PUSH2 0x3593 JUMP JUMPDEST PUSH2 0x10CD JUMP JUMPDEST PUSH2 0x36B PUSH2 0x3D4 CALLDATASIZE PUSH1 0x4 PUSH2 0x353F JUMP JUMPDEST PUSH2 0x1142 JUMP JUMPDEST PUSH2 0x3E1 PUSH2 0x1156 JUMP JUMPDEST PUSH1 0x40 MLOAD PUSH2 0x34F SWAP2 SWAP1 PUSH2 0x42A3 JUMP JUMPDEST PUSH2 0x36B PUSH2 0x3FC CALLDATASIZE PUSH1 0x4 PUSH2 0x37A0 JUMP JUMPDEST PUSH2 0x115B JUMP JUMPDEST PUSH2 0x338 PUSH2 0x12F4 JUMP JUMPDEST PUSH2 0x338 PUSH2 0x417 CALLDATASIZE PUSH1 0x4 PUSH2 0x36E7 JUMP JUMPDEST PUSH2 0x1376 JUMP JUMPDEST PUSH2 0x338 PUSH2 0x42A CALLDATASIZE PUSH1 0x4 PUSH2 0x3600 JUMP JUMPDEST PUSH2 0x13AD JUMP JUMPDEST PUSH2 0x36B PUSH2 0x43D CALLDATASIZE PUSH1 0x4 PUSH2 0x355B JUMP JUMPDEST PUSH2 0x1444 JUMP JUMPDEST PUSH2 0x338 PUSH2 0x450 CALLDATASIZE PUSH1 0x4 PUSH2 0x35D3 JUMP JUMPDEST PUSH2 0x1472 JUMP JUMPDEST PUSH2 0x468 PUSH2 0x463 CALLDATASIZE PUSH1 0x4 PUSH2 0x353F JUMP JUMPDEST PUSH2 0x14E1 JUMP JUMPDEST PUSH1 0x40 MLOAD PUSH2 0x34F SWAP2 SWAP1 PUSH2 0x4149 JUMP JUMPDEST PUSH2 0x338 PUSH2 0x483 CALLDATASIZE PUSH1 0x4 PUSH2 0x36F8 JUMP JUMPDEST PUSH2 0x1560 JUMP JUMPDEST PUSH2 0x338 PUSH2 0x496 CALLDATASIZE PUSH1 0x4 PUSH2 0x36CC JUMP JUMPDEST PUSH2 0x16CE JUMP JUMPDEST PUSH2 0x393 PUSH2 0x4A9 CALLDATASIZE PUSH1 0x4 PUSH2 0x353F JUMP JUMPDEST PUSH2 0x1734 JUMP JUMPDEST PUSH2 0x338 PUSH2 0x4BC CALLDATASIZE PUSH1 0x4 PUSH2 0x3760 JUMP JUMPDEST PUSH2 0x174F JUMP JUMPDEST PUSH2 0x338 PUSH2 0x4CF CALLDATASIZE PUSH1 0x4 PUSH2 0x3734 JUMP JUMPDEST PUSH2 0x1935 JUMP JUMPDEST PUSH2 0x393 PUSH2 0x4E2 CALLDATASIZE PUSH1 0x4 PUSH2 0x36F8 JUMP JUMPDEST PUSH2 0x199C JUMP JUMPDEST PUSH2 0x338 PUSH2 0x4F5 CALLDATASIZE PUSH1 0x4 PUSH2 0x36F8 JUMP JUMPDEST PUSH2 0x19D0 JUMP JUMPDEST PUSH2 0x50D PUSH2 0x508 CALLDATASIZE PUSH1 0x4 PUSH2 0x36F8 JUMP JUMPDEST PUSH2 0x1C00 JUMP JUMPDEST PUSH1 0x40 MLOAD PUSH2 0x34F SWAP2 SWAP1 PUSH2 0x4185 JUMP JUMPDEST PUSH2 0x338 PUSH2 0x528 CALLDATASIZE PUSH1 0x4 PUSH2 0x3710 JUMP JUMPDEST PUSH2 0x1D76 JUMP JUMPDEST PUSH2 0x393 PUSH2 0x53B CALLDATASIZE PUSH1 0x4 PUSH2 0x37C1 JUMP JUMPDEST PUSH2 0x1DB8 JUMP JUMPDEST PUSH2 0x338 PUSH2 0x54E CALLDATASIZE PUSH1 0x4 PUSH2 0x36F8 JUMP JUMPDEST PUSH2 0x1E50 JUMP JUMPDEST PUSH2 0x342 PUSH2 0x1EA4 JUMP JUMPDEST PUSH2 0x56E PUSH2 0x569 CALLDATASIZE PUSH1 0x4 PUSH2 0x36F8 JUMP JUMPDEST PUSH2 0x1EDB JUMP JUMPDEST PUSH1 0x40 MLOAD PUSH2 0x34F SWAP2 SWAP1 PUSH2 0x4211 JUMP JUMPDEST PUSH2 0x36B PUSH2 0x589 CALLDATASIZE PUSH1 0x4 PUSH2 0x3600 JUMP JUMPDEST PUSH2 0x1EED JUMP JUMPDEST PUSH2 0x338 PUSH2 0x59C CALLDATASIZE PUSH1 0x4 PUSH2 0x36F8 JUMP JUMPDEST PUSH2 0x1F3B JUMP JUMPDEST PUSH2 0x338 PUSH2 0x5AF CALLDATASIZE PUSH1 0x4 PUSH2 0x3600 JUMP JUMPDEST PUSH2 0x1FBD JUMP JUMPDEST PUSH2 0x338 PUSH2 0x5C2 CALLDATASIZE PUSH1 0x4 PUSH2 0x3694 JUMP JUMPDEST PUSH2 0x21B9 JUMP JUMPDEST PUSH2 0x338 PUSH2 0x5D5 CALLDATASIZE PUSH1 0x4 PUSH2 0x353F JUMP JUMPDEST PUSH2 0x21F1 JUMP JUMPDEST PUSH2 0x338 PUSH2 0x5E8 CALLDATASIZE PUSH1 0x4 PUSH2 0x36F8 JUMP JUMPDEST PUSH2 0x223D JUMP JUMPDEST PUSH2 0x338 PUSH2 0x5FB CALLDATASIZE PUSH1 0x4 PUSH2 0x36F8 JUMP JUMPDEST PUSH2 0x2249 JUMP JUMPDEST PUSH2 0x56E PUSH2 0x60E CALLDATASIZE PUSH1 0x4 PUSH2 0x3600 JUMP JUMPDEST PUSH2 0x2465 JUMP JUMPDEST PUSH2 0x61B PUSH2 0x251E JUMP JUMPDEST PUSH1 0x40 MLOAD PUSH2 0x34F SWAP2 SWAP1 PUSH2 0x4291 JUMP JUMPDEST PUSH2 0x393 PUSH2 0x636 CALLDATASIZE PUSH1 0x4 PUSH2 0x355B JUMP JUMPDEST PUSH2 0x252B JUMP JUMPDEST PUSH2 0x338 PUSH2 0x649 CALLDATASIZE PUSH1 0x4 PUSH2 0x37A0 JUMP JUMPDEST PUSH2 0x254E JUMP JUMPDEST PUSH2 0x338 PUSH2 0x65C CALLDATASIZE PUSH1 0x4 PUSH2 0x353F JUMP JUMPDEST PUSH2 0x25F4 JUMP JUMPDEST PUSH2 0x338 PUSH2 0x66F CALLDATASIZE PUSH1 0x4 PUSH2 0x3694 JUMP JUMPDEST PUSH2 0x263A JUMP JUMPDEST PUSH2 0x687 PUSH2 0x682 CALLDATASIZE PUSH1 0x4 PUSH2 0x36F8 JUMP JUMPDEST PUSH2 0x2672 JUMP JUMPDEST PUSH1 0x40 MLOAD PUSH2 0x34F SWAP5 SWAP4 SWAP3 SWAP2 SWAP1 PUSH2 0x425F JUMP JUMPDEST PUSH2 0x338 PUSH2 0x6A5 CALLDATASIZE PUSH1 0x4 PUSH2 0x353F JUMP JUMPDEST PUSH2 0x26DA JUMP JUMPDEST PUSH2 0x338 PUSH2 0x6B8 CALLDATASIZE PUSH1 0x4 PUSH2 0x36F8 JUMP JUMPDEST PUSH2 0x277C JUMP JUMPDEST PUSH2 0x338 PUSH2 0x6CB CALLDATASIZE PUSH1 0x4 PUSH2 0x36F8 JUMP JUMPDEST PUSH2 0x2931 JUMP JUMPDEST PUSH2 0x36B PUSH2 0x6DE CALLDATASIZE PUSH1 0x4 PUSH2 0x353F JUMP JUMPDEST PUSH2 0x2D58 JUMP JUMPDEST DUP1 PUSH1 0xC DUP2 LT PUSH2 0x70D JUMPI PUSH1 0x40 MLOAD PUSH3 0x461BCD PUSH1 0xE5 SHL DUP2 MSTORE PUSH1 0x4 ADD PUSH2 0x704 SWAP1 PUSH2 0x3EF9 JUMP JUMPDEST PUSH1 0x40 MLOAD DUP1 SWAP2 SUB SWAP1 REVERT JUMPDEST PUSH2 0x717 DUP4 CALLER PUSH2 0x1444 JUMP JUMPDEST PUSH2 0x720 JUMPI PUSH1 0x0 DUP1 REVERT JUMPDEST PUSH1 0x0 PUSH2 0x72C DUP5 DUP5 PUSH2 0x2D76 JUMP JUMPDEST SWAP1 POP PUSH1 0x0 PUSH1 0x4 DUP5 PUSH1 0xC DUP2 LT PUSH2 0x751 JUMPI PUSH4 0x4E487B71 PUSH1 0xE0 SHL PUSH1 0x0 MSTORE PUSH1 0x32 PUSH1 0x4 MSTORE PUSH1 0x24 PUSH1 0x0 REVERT JUMPDEST PUSH1 0x3 MUL ADD PUSH1 0x40 MLOAD DUP1 PUSH1 0x60 ADD PUSH1 0x40 MSTORE SWAP1 DUP2 PUSH1 0x0 DUP3 ADD DUP1 SLOAD DUP1 PUSH1 0x20 MUL PUSH1 0x20 ADD PUSH1 0x40 MLOAD SWAP1 DUP2 ADD PUSH1 0x40 MSTORE DUP1 SWAP3 SWAP2 SWAP1 DUP2 DUP2 MSTORE PUSH1 0x20 ADD DUP3 DUP1 SLOAD DUP1 ISZERO PUSH2 0x7AF JUMPI PUSH1 0x20 MUL DUP3 ADD SWAP2 SWAP1 PUSH1 0x0 MSTORE PUSH1 0x20 PUSH1 0x0 KECCAK256 SWAP1 JUMPDEST DUP2 SLOAD DUP2 MSTORE PUSH1 0x20 ADD SWAP1 PUSH1 0x1 ADD SWAP1 DUP1 DUP4 GT PUSH2 0x79B JUMPI JUMPDEST POP POP POP POP POP DUP2 MSTORE PUSH1 0x20 ADD PUSH1 0x1 DUP3 ADD DUP1 SLOAD DUP1 PUSH1 0x20 MUL PUSH1 0x20 ADD PUSH1 0x40 MLOAD SWAP1 DUP2 ADD PUSH1 0x40 MSTORE DUP1 SWAP3 SWAP2 SWAP1 DUP2 DUP2 MSTORE PUSH1 0x20 ADD PUSH1 0x0 SWAP1 JUMPDEST DUP3 DUP3 LT ISZERO PUSH2 0x820 JUMPI PUSH1 0x0 DUP5 DUP2 MSTORE PUSH1 0x20 SWAP1 DUP2 SWAP1 KECCAK256 PUSH1 0x40 DUP1 MLOAD DUP1 DUP3 ADD SWAP1 SWAP2 MSTORE SWAP1 DUP5 ADD SLOAD PUSH2 0xFFFF DUP1 DUP3 AND DUP4 MSTORE PUSH3 0x10000 SWAP1 SWAP2 DIV AND DUP2 DUP4 ADD MSTORE DUP3 MSTORE PUSH1 0x1 SWAP1 SWAP3 ADD SWAP2 ADD PUSH2 0x7DD JUMP JUMPDEST POP POP POP POP DUP2 MSTORE PUSH1 0x20 ADD PUSH1 0x2 DUP3 ADD DUP1 SLOAD DUP1 PUSH1 0x20 MUL PUSH1 0x20 ADD PUSH1 0x40 MLOAD SWAP1 DUP2 ADD PUSH1 0x40 MSTORE DUP1 SWAP3 SWAP2 SWAP1 DUP2 DUP2 MSTORE PUSH1 0x20 ADD PUSH1 0x0 SWAP1 JUMPDEST DUP3 DUP3 LT ISZERO PUSH2 0x890 JUMPI PUSH1 0x0 DUP5 DUP2 MSTORE PUSH1 0x20 SWAP1 DUP2 SWAP1 KECCAK256 PUSH1 0x40 DUP1 MLOAD DUP1 DUP3 ADD SWAP1 SWAP2 MSTORE SWAP1 DUP5 ADD SLOAD PUSH2 0xFFFF DUP1 DUP3 AND DUP4 MSTORE PUSH3 0x10000 SWAP1 SWAP2 DIV AND DUP2 DUP4 ADD MSTORE DUP3 MSTORE PUSH1 0x1 SWAP1 SWAP3 ADD SWAP2 ADD PUSH2 0x84D JUMP JUMPDEST POP POP POP SWAP2 MSTORE POP POP PUSH1 0x1 PUSH1 0x1 PUSH1 0xA0 SHL SUB DUP7 AND PUSH1 0x0 SWAP1 DUP2 MSTORE PUSH1 0x2E PUSH1 0x20 MSTORE PUSH1 0x40 DUP2 KECCAK256 SWAP2 SWAP3 POP SWAP1 DUP6 PUSH1 0xC DUP2 LT PUSH2 0x8D2 JUMPI PUSH4 0x4E487B71 PUSH1 0xE0 SHL PUSH1 0x0 MSTORE PUSH1 0x32 PUSH1 0x4 MSTORE PUSH1 0x24 PUSH1 0x0 REVERT JUMPDEST PUSH1 0x40 DUP1 MLOAD PUSH1 0xA0 DUP2 ADD DUP3 MSTORE PUSH1 0x4 SWAP3 SWAP1 SWAP3 MUL SWAP3 SWAP1 SWAP3 ADD DUP1 SLOAD PUSH3 0xFFFFFF DUP2 AND DUP1 DUP5 MSTORE PUSH4 0x1000000 SWAP1 SWAP2 DIV PUSH4 0xFFFFFFFF AND PUSH1 0x20 DUP5 ADD MSTORE PUSH1 0x1 DUP3 ADD SLOAD DUP4 DUP6 ADD MSTORE PUSH1 0x2 DUP3 ADD SLOAD PUSH1 0x60 DUP5 ADD MSTORE PUSH1 0x3 SWAP1 SWAP2 ADD SLOAD PUSH1 0x80 DUP4 ADD MSTORE SWAP2 DUP5 ADD MLOAD DUP1 MLOAD SWAP2 SWAP4 POP PUSH1 0x0 SWAP3 SWAP1 SWAP2 DUP2 LT PUSH2 0x94C JUMPI PUSH4 0x4E487B71 PUSH1 0xE0 SHL PUSH1 0x0 MSTORE PUSH1 0x32 PUSH1 0x4 MSTORE PUSH1 0x24 PUSH1 0x0 REVERT JUMPDEST PUSH1 0x20 MUL PUSH1 0x20 ADD ADD MLOAD SWAP1 POP PUSH1 0x0 DUP2 PUSH1 0x20 ADD MLOAD PUSH2 0xFFFF AND DUP3 PUSH1 0x0 ADD MLOAD PUSH2 0xFFFF AND DUP7 PUSH2 0x975 SWAP2 SWAP1 PUSH2 0x43CA JUMP JUMPDEST PUSH2 0x97F SWAP2 SWAP1 PUSH2 0x43AA JUMP JUMPDEST SWAP1 POP PUSH1 0x0 PUSH2 0x98D DUP3 DUP8 PUSH2 0x43E9 JUMP JUMPDEST PUSH1 0x40 MLOAD PUSH4 0xA9059CBB PUSH1 0xE0 SHL DUP2 MSTORE SWAP1 SWAP2 POP PUSH1 0x1 PUSH1 0x1 PUSH1 0xA0 SHL SUB PUSH32 0x0 AND SWAP1 PUSH4 0xA9059CBB SWAP1 PUSH2 0x9DE SWAP1 DUP13 SWAP1 DUP6 SWAP1 PUSH1 0x4 ADD PUSH2 0x38DA JUMP JUMPDEST PUSH1 0x20 PUSH1 0x40 MLOAD DUP1 DUP4 SUB DUP2 PUSH1 0x0 DUP8 DUP1 EXTCODESIZE ISZERO DUP1 ISZERO PUSH2 0x9F8 JUMPI PUSH1 0x0 DUP1 REVERT JUMPDEST POP GAS CALL ISZERO DUP1 ISZERO PUSH2 0xA0C JUMPI RETURNDATASIZE PUSH1 0x0 DUP1 RETURNDATACOPY RETURNDATASIZE PUSH1 0x0 REVERT JUMPDEST POP POP POP POP PUSH1 0x40 MLOAD RETURNDATASIZE PUSH1 0x1F NOT PUSH1 0x1F DUP3 ADD AND DUP3 ADD DUP1 PUSH1 0x40 MSTORE POP DUP2 ADD SWAP1 PUSH2 0xA30 SWAP2 SWAP1 PUSH2 0x36B0 JUMP JUMPDEST POP DUP1 DUP5 PUSH1 0x80 ADD DUP2 DUP2 MLOAD PUSH2 0xA43 SWAP2 SWAP1 PUSH2 0x436A JUMP JUMPDEST SWAP1 MSTORE POP PUSH4 0xFFFFFFFF TIMESTAMP AND PUSH1 0x20 DUP1 DUP7 ADD SWAP2 SWAP1 SWAP2 MSTORE PUSH1 0x1 PUSH1 0x1 PUSH1 0xA0 SHL SUB DUP11 AND PUSH1 0x0 SWAP1 DUP2 MSTORE PUSH1 0x2E SWAP1 SWAP2 MSTORE PUSH1 0x40 SWAP1 KECCAK256 DUP5 SWAP1 DUP10 PUSH1 0xC DUP2 LT PUSH2 0xA8F JUMPI PUSH4 0x4E487B71 PUSH1 0xE0 SHL PUSH1 0x0 MSTORE PUSH1 0x32 PUSH1 0x4 MSTORE PUSH1 0x24 PUSH1 0x0 REVERT JUMPDEST DUP3 MLOAD PUSH1 0x4 SWAP2 SWAP1 SWAP2 MUL SWAP2 SWAP1 SWAP2 ADD DUP1 SLOAD PUSH1 0x20 DUP5 ADD MLOAD PUSH4 0xFFFFFFFF AND PUSH4 0x1000000 MUL PUSH7 0xFFFFFFFF000000 NOT PUSH3 0xFFFFFF SWAP1 SWAP5 AND PUSH3 0xFFFFFF NOT SWAP1 SWAP3 AND SWAP2 SWAP1 SWAP2 OR SWAP3 SWAP1 SWAP3 AND SWAP2 SWAP1 SWAP2 OR DUP2 SSTORE PUSH1 0x40 DUP1 DUP4 ADD MLOAD PUSH1 0x1 DUP4 ADD SSTORE PUSH1 0x60 DUP4 ADD MLOAD PUSH1 0x2 DUP4 ADD SSTORE PUSH1 0x80 SWAP1 SWAP3 ADD MLOAD PUSH1 0x3 SWAP1 SWAP2 ADD SSTORE MLOAD DUP9 SWAP1 PUSH1 0x1 PUSH1 0x1 PUSH1 0xA0 SHL SUB DUP12 AND SWAP1 PUSH32 0x888F19217DDAD5C6A51226C6812ABE28B4400E72206C3B170AE84829BD03A7A0 SWAP1 PUSH2 0xB30 SWAP1 DUP11 SWAP1 PUSH2 0x4256 JUMP JUMPDEST PUSH1 0x40 MLOAD DUP1 SWAP2 SUB SWAP1 LOG3 POP POP POP POP POP POP POP POP POP JUMP JUMPDEST PUSH1 0x40 DUP1 MLOAD DUP1 DUP3 ADD SWAP1 SWAP2 MSTORE PUSH1 0x8 DUP2 MSTORE PUSH32 0x4661726D4275636B000000000000000000000000000000000000000000000000 PUSH1 0x20 DUP3 ADD MSTORE SWAP1 JUMP JUMPDEST PUSH1 0x0 DUP2 ISZERO ISZERO PUSH2 0xB89 DUP5 DUP3 PUSH2 0x1472 JUMP JUMPDEST DUP4 PUSH1 0x1 PUSH1 0x1 PUSH1 0xA0 SHL SUB AND CALLER PUSH1 0x1 PUSH1 0x1 PUSH1 0xA0 SHL SUB AND PUSH32 0x8C5BE1E5EBEC7D5BD14F71427D1E84F3DD0314C0F7B2291E5B200AC8C7C3B925 PUSH1 0x2 SLOAD PUSH1 0x40 MLOAD PUSH2 0xBCE SWAP2 SWAP1 PUSH2 0x4256 JUMP JUMPDEST PUSH1 0x40 MLOAD DUP1 SWAP2 SUB SWAP1 LOG3 PUSH1 0x1 SWAP2 POP POP JUMPDEST SWAP3 SWAP2 POP POP JUMP JUMPDEST PUSH2 0xBEB CALLER PUSH2 0x2D58 JUMP JUMPDEST PUSH2 0xC07 JUMPI PUSH1 0x40 MLOAD PUSH3 0x461BCD PUSH1 0xE5 SHL DUP2 MSTORE PUSH1 0x4 ADD PUSH2 0x704 SWAP1 PUSH2 0x4112 JUMP JUMPDEST DUP3 DUP2 EQ PUSH2 0xC26 JUMPI PUSH1 0x40 MLOAD PUSH3 0x461BCD PUSH1 0xE5 SHL DUP2 MSTORE PUSH1 0x4 ADD PUSH2 0x704 SWAP1 PUSH2 0x3BEB JUMP JUMPDEST PUSH1 0x0 JUMPDEST DUP4 DUP2 LT ISZERO PUSH2 0xEDA JUMPI PUSH1 0x0 DUP4 DUP4 DUP4 DUP2 DUP2 LT PUSH2 0xC53 JUMPI PUSH4 0x4E487B71 PUSH1 0xE0 SHL PUSH1 0x0 MSTORE PUSH1 0x32 PUSH1 0x4 MSTORE PUSH1 0x24 PUSH1 0x0 REVERT JUMPDEST SWAP1 POP PUSH1 0x20 MUL DUP2 ADD SWAP1 PUSH2 0xC65 SWAP2 SWAP1 PUSH2 0x433F JUMP JUMPDEST PUSH2 0xC6F SWAP1 DUP1 PUSH2 0x42F8 JUMP JUMPDEST SWAP1 POP GT DUP1 ISZERO PUSH2 0xCBF JUMPI POP PUSH1 0x0 DUP4 DUP4 DUP4 DUP2 DUP2 LT PUSH2 0xC9B JUMPI PUSH4 0x4E487B71 PUSH1 0xE0 SHL PUSH1 0x0 MSTORE PUSH1 0x32 PUSH1 0x4 MSTORE PUSH1 0x24 PUSH1 0x0 REVERT JUMPDEST SWAP1 POP PUSH1 0x20 MUL DUP2 ADD SWAP1 PUSH2 0xCAD SWAP2 SWAP1 PUSH2 0x433F JUMP JUMPDEST PUSH2 0xCBB SWAP1 PUSH1 0x20 DUP2 ADD SWAP1 PUSH2 0x42B1 JUMP JUMPDEST SWAP1 POP GT JUMPDEST DUP1 ISZERO PUSH2 0xD0C JUMPI POP PUSH1 0x0 DUP4 DUP4 DUP4 DUP2 DUP2 LT PUSH2 0xCE8 JUMPI PUSH4 0x4E487B71 PUSH1 0xE0 SHL PUSH1 0x0 MSTORE PUSH1 0x32 PUSH1 0x4 MSTORE PUSH1 0x24 PUSH1 0x0 REVERT JUMPDEST SWAP1 POP PUSH1 0x20 MUL DUP2 ADD SWAP1 PUSH2 0xCFA SWAP2 SWAP1 PUSH2 0x433F JUMP JUMPDEST PUSH2 0xD08 SWAP1 PUSH1 0x40 DUP2 ADD SWAP1 PUSH2 0x42B1 JUMP JUMPDEST SWAP1 POP GT JUMPDEST DUP1 ISZERO PUSH2 0xD95 JUMPI POP DUP3 DUP3 DUP3 DUP2 DUP2 LT PUSH2 0xD33 JUMPI PUSH4 0x4E487B71 PUSH1 0xE0 SHL PUSH1 0x0 MSTORE PUSH1 0x32 PUSH1 0x4 MSTORE PUSH1 0x24 PUSH1 0x0 REVERT JUMPDEST SWAP1 POP PUSH1 0x20 MUL DUP2 ADD SWAP1 PUSH2 0xD45 SWAP2 SWAP1 PUSH2 0x433F JUMP JUMPDEST PUSH2 0xD53 SWAP1 PUSH1 0x20 DUP2 ADD SWAP1 PUSH2 0x42B1 JUMP JUMPDEST SWAP1 POP DUP4 DUP4 DUP4 DUP2 DUP2 LT PUSH2 0xD75 JUMPI PUSH4 0x4E487B71 PUSH1 0xE0 SHL PUSH1 0x0 MSTORE PUSH1 0x32 PUSH1 0x4 MSTORE PUSH1 0x24 PUSH1 0x0 REVERT JUMPDEST SWAP1 POP PUSH1 0x20 MUL DUP2 ADD SWAP1 PUSH2 0xD87 SWAP2 SWAP1 PUSH2 0x433F JUMP JUMPDEST PUSH2 0xD91 SWAP1 DUP1 PUSH2 0x42F8 JUMP JUMPDEST SWAP1 POP EQ JUMPDEST DUP1 ISZERO PUSH2 0xE22 JUMPI POP DUP3 DUP3 DUP3 DUP2 DUP2 LT PUSH2 0xDBC JUMPI PUSH4 0x4E487B71 PUSH1 0xE0 SHL PUSH1 0x0 MSTORE PUSH1 0x32 PUSH1 0x4 MSTORE PUSH1 0x24 PUSH1 0x0 REVERT JUMPDEST SWAP1 POP PUSH1 0x20 MUL DUP2 ADD SWAP1 PUSH2 0xDCE SWAP2 SWAP1 PUSH2 0x433F JUMP JUMPDEST PUSH2 0xDDC SWAP1 PUSH1 0x40 DUP2 ADD SWAP1 PUSH2 0x42B1 JUMP JUMPDEST SWAP1 POP DUP4 DUP4 DUP4 DUP2 DUP2 LT PUSH2 0xDFE JUMPI PUSH4 0x4E487B71 PUSH1 0xE0 SHL PUSH1 0x0 MSTORE PUSH1 0x32 PUSH1 0x4 MSTORE PUSH1 0x24 PUSH1 0x0 REVERT JUMPDEST SWAP1 POP PUSH1 0x20 MUL DUP2 ADD SWAP1 PUSH2 0xE10 SWAP2 SWAP1 PUSH2 0x433F JUMP JUMPDEST PUSH2 0xE1E SWAP1 PUSH1 0x20 DUP2 ADD SWAP1 PUSH2 0x42B1 JUMP JUMPDEST SWAP1 POP EQ JUMPDEST PUSH2 0xE3E JUMPI PUSH1 0x40 MLOAD PUSH3 0x461BCD PUSH1 0xE5 SHL DUP2 MSTORE PUSH1 0x4 ADD PUSH2 0x704 SWAP1 PUSH2 0x3DF3 JUMP JUMPDEST DUP3 DUP3 DUP3 DUP2 DUP2 LT PUSH2 0xE5E JUMPI PUSH4 0x4E487B71 PUSH1 0xE0 SHL PUSH1 0x0 MSTORE PUSH1 0x32 PUSH1 0x4 MSTORE PUSH1 0x24 PUSH1 0x0 REVERT JUMPDEST SWAP1 POP PUSH1 0x20 MUL DUP2 ADD SWAP1 PUSH2 0xE70 SWAP2 SWAP1 PUSH2 0x433F JUMP JUMPDEST PUSH1 0x4 DUP7 DUP7 DUP5 DUP2 DUP2 LT PUSH2 0xE92 JUMPI PUSH4 0x4E487B71 PUSH1 0xE0 SHL PUSH1 0x0 MSTORE PUSH1 0x32 PUSH1 0x4 MSTORE PUSH1 0x24 PUSH1 0x0 REVERT JUMPDEST SWAP1 POP PUSH1 0x20 MUL ADD CALLDATALOAD PUSH1 0xC DUP2 LT PUSH2 0xEB7 JUMPI PUSH4 0x4E487B71 PUSH1 0xE0 SHL PUSH1 0x0 MSTORE PUSH1 0x32 PUSH1 0x4 MSTORE PUSH1 0x24 PUSH1 0x0 REVERT JUMPDEST PUSH1 0x3 MUL ADD PUSH2 0xEC5 DUP3 DUP3 PUSH2 0x45BF JUMP JUMPDEST POP DUP2 SWAP1 POP PUSH2 0xED2 DUP2 PUSH2 0x44B1 JUMP JUMPDEST SWAP2 POP POP PUSH2 0xC29 JUMP JUMPDEST POP POP POP POP POP JUMP JUMPDEST PUSH1 0x2 SLOAD SWAP1 JUMP JUMPDEST PUSH1 0x0 DUP3 PUSH1 0xC DUP2 LT PUSH2 0xF0A JUMPI PUSH1 0x40 MLOAD PUSH3 0x461BCD PUSH1 0xE5 SHL DUP2 MSTORE PUSH1 0x4 ADD PUSH2 0x704 SWAP1 PUSH2 0x3EF9 JUMP JUMPDEST PUSH1 0x0 PUSH1 0x4 DUP6 PUSH1 0xC DUP2 LT PUSH2 0xF2D JUMPI PUSH4 0x4E487B71 PUSH1 0xE0 SHL PUSH1 0x0 MSTORE PUSH1 0x32 PUSH1 0x4 MSTORE PUSH1 0x24 PUSH1 0x0 REVERT JUMPDEST PUSH1 0x3 MUL ADD PUSH1 0x40 MLOAD DUP1 PUSH1 0x60 ADD PUSH1 0x40 MSTORE SWAP1 DUP2 PUSH1 0x0 DUP3 ADD DUP1 SLOAD DUP1 PUSH1 0x20 MUL PUSH1 0x20 ADD PUSH1 0x40 MLOAD SWAP1 DUP2 ADD PUSH1 0x40 MSTORE DUP1 SWAP3 SWAP2 SWAP1 DUP2 DUP2 MSTORE PUSH1 0x20 ADD DUP3 DUP1 SLOAD DUP1 ISZERO PUSH2 0xF8B JUMPI PUSH1 0x20 MUL DUP3 ADD SWAP2 SWAP1 PUSH1 0x0 MSTORE PUSH1 0x20 PUSH1 0x0 KECCAK256 SWAP1 JUMPDEST DUP2 SLOAD DUP2 MSTORE PUSH1 0x20 ADD SWAP1 PUSH1 0x1 ADD SWAP1 DUP1 DUP4 GT PUSH2 0xF77 JUMPI JUMPDEST POP POP POP POP POP DUP2 MSTORE PUSH1 0x20 ADD PUSH1 0x1 DUP3 ADD DUP1 SLOAD DUP1 PUSH1 0x20 MUL PUSH1 0x20 ADD PUSH1 0x40 MLOAD SWAP1 DUP2 ADD PUSH1 0x40 MSTORE DUP1 SWAP3 SWAP2 SWAP1 DUP2 DUP2 MSTORE PUSH1 0x20 ADD PUSH1 0x0 SWAP1 JUMPDEST DUP3 DUP3 LT ISZERO PUSH2 0xFFC JUMPI PUSH1 0x0 DUP5 DUP2 MSTORE PUSH1 0x20 SWAP1 DUP2 SWAP1 KECCAK256 PUSH1 0x40 DUP1 MLOAD DUP1 DUP3 ADD SWAP1 SWAP2 MSTORE SWAP1 DUP5 ADD SLOAD PUSH2 0xFFFF DUP1 DUP3 AND DUP4 MSTORE PUSH3 0x10000 SWAP1 SWAP2 DIV AND DUP2 DUP4 ADD MSTORE DUP3 MSTORE PUSH1 0x1 SWAP1 SWAP3 ADD SWAP2 ADD PUSH2 0xFB9 JUMP JUMPDEST POP POP POP POP DUP2 MSTORE PUSH1 0x20 ADD PUSH1 0x2 DUP3 ADD DUP1 SLOAD DUP1 PUSH1 0x20 MUL PUSH1 0x20 ADD PUSH1 0x40 MLOAD SWAP1 DUP2 ADD PUSH1 0x40 MSTORE DUP1 SWAP3 SWAP2 SWAP1 DUP2 DUP2 MSTORE PUSH1 0x20 ADD PUSH1 0x0 SWAP1 JUMPDEST DUP3 DUP3 LT ISZERO PUSH2 0x106C JUMPI PUSH1 0x0 DUP5 DUP2 MSTORE PUSH1 0x20 SWAP1 DUP2 SWAP1 KECCAK256 PUSH1 0x40 DUP1 MLOAD DUP1 DUP3 ADD SWAP1 SWAP2 MSTORE SWAP1 DUP5 ADD SLOAD PUSH2 0xFFFF DUP1 DUP3 AND DUP4 MSTORE PUSH3 0x10000 SWAP1 SWAP2 DIV AND DUP2 DUP4 ADD MSTORE DUP3 MSTORE PUSH1 0x1 SWAP1 SWAP3 ADD SWAP2 ADD PUSH2 0x1029 JUMP JUMPDEST POP POP POP SWAP2 MSTORE POP POP DUP1 MLOAD MLOAD SWAP1 SWAP2 POP DUP5 GT ISZERO PUSH2 0x1098 JUMPI PUSH1 0x40 MLOAD PUSH3 0x461BCD PUSH1 0xE5 SHL DUP2 MSTORE PUSH1 0x4 ADD PUSH2 0x704 SWAP1 PUSH2 0x3AFA JUMP JUMPDEST DUP1 MLOAD DUP1 MLOAD DUP6 SWAP1 DUP2 LT PUSH2 0x10BA JUMPI PUSH4 0x4E487B71 PUSH1 0xE0 SHL PUSH1 0x0 MSTORE PUSH1 0x32 PUSH1 0x4 MSTORE PUSH1 0x24 PUSH1 0x0 REVERT JUMPDEST PUSH1 0x20 MUL PUSH1 0x20 ADD ADD MLOAD SWAP3 POP POP JUMPDEST POP SWAP3 SWAP2 POP POP JUMP JUMPDEST PUSH1 0x31 SLOAD PUSH1 0x0 SWAP1 PUSH1 0xFF AND DUP1 PUSH2 0x10EB JUMPI POP PUSH1 0x0 SLOAD PUSH1 0x1 PUSH1 0x1 PUSH1 0xA0 SHL SUB AND CALLER EQ JUMPDEST PUSH2 0x1107 JUMPI PUSH1 0x40 MLOAD PUSH3 0x461BCD PUSH1 0xE5 SHL DUP2 MSTORE PUSH1 0x4 ADD PUSH2 0x704 SWAP1 PUSH2 0x3E9C JUMP JUMPDEST PUSH2 0x1112 DUP5 DUP5 DUP5 PUSH2 0x2FBB JUMP JUMPDEST PUSH2 0x111C DUP5 CALLER PUSH2 0x1444 JUMP JUMPDEST PUSH2 0x1138 JUMPI PUSH1 0x40 MLOAD PUSH3 0x461BCD PUSH1 0xE5 SHL DUP2 MSTORE PUSH1 0x4 ADD PUSH2 0x704 SWAP1 PUSH2 0x3CDC JUMP JUMPDEST POP PUSH1 0x1 SWAP4 SWAP3 POP POP POP JUMP JUMPDEST PUSH1 0x0 SLOAD PUSH1 0x1 PUSH1 0x1 PUSH1 0xA0 SHL SUB SWAP1 DUP2 AND SWAP2 AND EQ SWAP1 JUMP JUMPDEST PUSH1 0x12 SWAP1 JUMP JUMPDEST PUSH1 0x0 DUP3 PUSH1 0xC DUP2 LT PUSH2 0x117E JUMPI PUSH1 0x40 MLOAD PUSH3 0x461BCD PUSH1 0xE5 SHL DUP2 MSTORE PUSH1 0x4 ADD PUSH2 0x704 SWAP1 PUSH2 0x3EF9 JUMP JUMPDEST PUSH1 0x0 PUSH1 0x4 DUP6 PUSH1 0xC DUP2 LT PUSH2 0x11A1 JUMPI PUSH4 0x4E487B71 PUSH1 0xE0 SHL PUSH1 0x0 MSTORE PUSH1 0x32 PUSH1 0x4 MSTORE PUSH1 0x24 PUSH1 0x0 REVERT JUMPDEST PUSH1 0x3 MUL ADD PUSH1 0x40 MLOAD DUP1 PUSH1 0x60 ADD PUSH1 0x40 MSTORE SWAP1 DUP2 PUSH1 0x0 DUP3 ADD DUP1 SLOAD DUP1 PUSH1 0x20 MUL PUSH1 0x20 ADD PUSH1 0x40 MLOAD SWAP1 DUP2 ADD PUSH1 0x40 MSTORE DUP1 SWAP3 SWAP2 SWAP1 DUP2 DUP2 MSTORE PUSH1 0x20 ADD DUP3 DUP1 SLOAD DUP1 ISZERO PUSH2 0x11FF JUMPI PUSH1 0x20 MUL DUP3 ADD SWAP2 SWAP1 PUSH1 0x0 MSTORE PUSH1 0x20 PUSH1 0x0 KECCAK256 SWAP1 JUMPDEST DUP2 SLOAD DUP2 MSTORE PUSH1 0x20 ADD SWAP1 PUSH1 0x1 ADD SWAP1 DUP1 DUP4 GT PUSH2 0x11EB JUMPI JUMPDEST POP POP POP POP POP DUP2 MSTORE PUSH1 0x20 ADD PUSH1 0x1 DUP3 ADD DUP1 SLOAD DUP1 PUSH1 0x20 MUL PUSH1 0x20 ADD PUSH1 0x40 MLOAD SWAP1 DUP2 ADD PUSH1 0x40 MSTORE DUP1 SWAP3 SWAP2 SWAP1 DUP2 DUP2 MSTORE PUSH1 0x20 ADD PUSH1 0x0 SWAP1 JUMPDEST DUP3 DUP3 LT ISZERO PUSH2 0x1270 JUMPI PUSH1 0x0 DUP5 DUP2 MSTORE PUSH1 0x20 SWAP1 DUP2 SWAP1 KECCAK256 PUSH1 0x40 DUP1 MLOAD DUP1 DUP3 ADD SWAP1 SWAP2 MSTORE SWAP1 DUP5 ADD SLOAD PUSH2 0xFFFF DUP1 DUP3 AND DUP4 MSTORE PUSH3 0x10000 SWAP1 SWAP2 DIV AND DUP2 DUP4 ADD MSTORE DUP3 MSTORE PUSH1 0x1 SWAP1 SWAP3 ADD SWAP2 ADD PUSH2 0x122D JUMP JUMPDEST POP POP POP POP DUP2 MSTORE PUSH1 0x20 ADD PUSH1 0x2 DUP3 ADD DUP1 SLOAD DUP1 PUSH1 0x20 MUL PUSH1 0x20 ADD PUSH1 0x40 MLOAD SWAP1 DUP2 ADD PUSH1 0x40 MSTORE DUP1 SWAP3 SWAP2 SWAP1 DUP2 DUP2 MSTORE PUSH1 0x20 ADD PUSH1 0x0 SWAP1 JUMPDEST DUP3 DUP3 LT ISZERO PUSH2 0x12E0 JUMPI PUSH1 0x0 DUP5 DUP2 MSTORE PUSH1 0x20 SWAP1 DUP2 SWAP1 KECCAK256 PUSH1 0x40 DUP1 MLOAD DUP1 DUP3 ADD SWAP1 SWAP2 MSTORE SWAP1 DUP5 ADD SLOAD PUSH2 0xFFFF DUP1 DUP3 AND DUP4 MSTORE PUSH3 0x10000 SWAP1 SWAP2 DIV AND DUP2 DUP4 ADD MSTORE DUP3 MSTORE PUSH1 0x1 SWAP1 SWAP3 ADD SWAP2 ADD PUSH2 0x129D JUMP JUMPDEST POP POP POP SWAP2 MSTORE POP POP MLOAD MLOAD SWAP1 SWAP4 LT SWAP5 SWAP4 POP POP POP POP JUMP JUMPDEST PUSH2 0x12FD CALLER PUSH2 0x2D58 JUMP JUMPDEST PUSH2 0x1319 JUMPI PUSH1 0x40 MLOAD PUSH3 0x461BCD PUSH1 0xE5 SHL DUP2 MSTORE PUSH1 0x4 ADD PUSH2 0x704 SWAP1 PUSH2 0x4112 JUMP JUMPDEST PUSH1 0x29 SLOAD PUSH2 0x100 SWAP1 DIV PUSH1 0xFF AND ISZERO PUSH2 0x1341 JUMPI PUSH1 0x40 MLOAD PUSH3 0x461BCD PUSH1 0xE5 SHL DUP2 MSTORE PUSH1 0x4 ADD PUSH2 0x704 SWAP1 PUSH2 0x3B31 JUMP JUMPDEST PUSH1 0x2A DUP1 SLOAD CALLER PUSH1 0x0 SWAP1 DUP2 MSTORE PUSH1 0x2C PUSH1 0x20 MSTORE PUSH1 0x40 SWAP1 KECCAK256 DUP1 SLOAD SWAP1 SWAP2 ADD SWAP1 SSTORE SLOAD PUSH1 0x2 DUP1 SLOAD SWAP1 SWAP2 ADD SWAP1 SSTORE PUSH1 0x29 DUP1 SLOAD PUSH2 0xFF00 NOT AND PUSH2 0x100 OR SWAP1 SSTORE JUMP JUMPDEST PUSH2 0x137F CALLER PUSH2 0x2D58 JUMP JUMPDEST PUSH2 0x139B JUMPI PUSH1 0x40 MLOAD PUSH3 0x461BCD PUSH1 0xE5 SHL DUP2 MSTORE PUSH1 0x4 ADD PUSH2 0x704 SWAP1 PUSH2 0x4112 JUMP JUMPDEST DUP1 PUSH1 0x2B PUSH2 0x13A8 DUP3 DUP3 PUSH2 0x4591 JUMP JUMPDEST POP POP POP JUMP JUMPDEST DUP1 PUSH1 0xC DUP2 LT PUSH2 0x13CE JUMPI PUSH1 0x40 MLOAD PUSH3 0x461BCD PUSH1 0xE5 SHL DUP2 MSTORE PUSH1 0x4 ADD PUSH2 0x704 SWAP1 PUSH2 0x3EF9 JUMP JUMPDEST PUSH2 0x13D8 DUP4 CALLER PUSH2 0x1444 JUMP JUMPDEST PUSH2 0x13E1 JUMPI PUSH1 0x0 DUP1 REVERT JUMPDEST PUSH1 0x0 PUSH2 0x13ED DUP5 DUP5 PUSH2 0x2D76 JUMP JUMPDEST SWAP1 POP PUSH2 0x13FC DUP4 DUP6 DUP4 PUSH1 0x1 PUSH2 0x30BE JUMP JUMPDEST DUP3 DUP5 PUSH1 0x1 PUSH1 0x1 PUSH1 0xA0 SHL SUB AND PUSH32 0x820CEA42E8517CF1EC6D4E9DB93909255F07C45F7EB0A7C7B5A0F8BDCFC2E5BF DUP4 PUSH1 0x40 MLOAD PUSH2 0x1436 SWAP2 SWAP1 PUSH2 0x4256 JUMP JUMPDEST PUSH1 0x40 MLOAD DUP1 SWAP2 SUB SWAP1 LOG3 POP POP POP POP JUMP JUMPDEST PUSH1 0x1 PUSH1 0x1 PUSH1 0xA0 SHL SUB SWAP2 DUP3 AND PUSH1 0x0 SWAP1 DUP2 MSTORE PUSH1 0x2D PUSH1 0x20 SWAP1 DUP2 MSTORE PUSH1 0x40 DUP1 DUP4 KECCAK256 SWAP4 SWAP1 SWAP5 AND DUP3 MSTORE SWAP2 SWAP1 SWAP2 MSTORE KECCAK256 SLOAD PUSH1 0xFF AND SWAP1 JUMP JUMPDEST CALLER PUSH1 0x0 DUP2 DUP2 MSTORE PUSH1 0x2D PUSH1 0x20 SWAP1 DUP2 MSTORE PUSH1 0x40 DUP1 DUP4 KECCAK256 PUSH1 0x1 PUSH1 0x1 PUSH1 0xA0 SHL SUB DUP8 AND DUP1 DUP6 MSTORE SWAP3 MSTORE SWAP2 DUP3 SWAP1 KECCAK256 DUP1 SLOAD PUSH1 0xFF NOT AND DUP6 ISZERO ISZERO OR SWAP1 SSTORE SWAP1 MLOAD SWAP1 SWAP2 SWAP1 PUSH32 0xC8DF66A7B22AF6C2076E2C0586BCA7548F9584B071221F363CDE24BDBD9E62F SWAP1 PUSH2 0x14D5 SWAP1 DUP6 SWAP1 PUSH2 0x38F3 JUMP JUMPDEST PUSH1 0x40 MLOAD DUP1 SWAP2 SUB SWAP1 LOG3 POP POP JUMP JUMPDEST PUSH2 0x14E9 PUSH2 0x3434 JUMP JUMPDEST POP PUSH1 0x1 PUSH1 0x1 PUSH1 0xA0 SHL SUB AND PUSH1 0x0 SWAP1 DUP2 MSTORE PUSH1 0x2F PUSH1 0x20 SWAP1 DUP2 MSTORE PUSH1 0x40 SWAP2 DUP3 SWAP1 KECCAK256 DUP3 MLOAD PUSH1 0x80 DUP2 ADD DUP5 MSTORE DUP2 SLOAD PUSH4 0xFFFFFFFF DUP1 DUP3 AND DUP4 MSTORE PUSH5 0x100000000 SWAP1 SWAP2 DIV AND DUP2 DUP5 ADD MSTORE PUSH1 0x1 DUP3 ADD SLOAD DUP2 DUP6 ADD MSTORE DUP4 MLOAD DUP1 DUP6 ADD SWAP1 SWAP5 MSTORE PUSH1 0x2 SWAP1 SWAP2 ADD SLOAD PUSH2 0xFFFF DUP1 DUP3 AND DUP6 MSTORE PUSH3 0x10000 SWAP1 SWAP2 DIV AND SWAP2 DUP4 ADD SWAP2 SWAP1 SWAP2 MSTORE PUSH1 0x60 DUP2 ADD SWAP2 SWAP1 SWAP2 MSTORE SWAP1 JUMP JUMPDEST PUSH2 0x1569 CALLER PUSH2 0x2D58 JUMP JUMPDEST PUSH2 0x1585 JUMPI PUSH1 0x40 MLOAD PUSH3 0x461BCD PUSH1 0xE5 SHL DUP2 MSTORE PUSH1 0x4 ADD PUSH2 0x704 SWAP1 PUSH2 0x4112 JUMP JUMPDEST PUSH1 0x28 DUP1 SLOAD PUSH2 0x1595 SWAP1 PUSH1 0x1 SWAP1 PUSH2 0x43E9 JUMP JUMPDEST DUP2 SLOAD DUP2 LT PUSH2 0x15B3 JUMPI PUSH4 0x4E487B71 PUSH1 0xE0 SHL PUSH1 0x0 MSTORE PUSH1 0x32 PUSH1 0x4 MSTORE PUSH1 0x24 PUSH1 0x0 REVERT JUMPDEST SWAP1 PUSH1 0x0 MSTORE PUSH1 0x20 PUSH1 0x0 KECCAK256 SWAP1 PUSH1 0x3 MUL ADD PUSH1 0x28 DUP3 DUP2 SLOAD DUP2 LT PUSH2 0x15E2 JUMPI PUSH4 0x4E487B71 PUSH1 0xE0 SHL PUSH1 0x0 MSTORE PUSH1 0x32 PUSH1 0x4 MSTORE PUSH1 0x24 PUSH1 0x0 REVERT JUMPDEST PUSH1 0x0 SWAP2 DUP3 MSTORE PUSH1 0x20 SWAP1 SWAP2 KECCAK256 DUP3 SLOAD PUSH1 0x3 SWAP1 SWAP3 MUL ADD DUP1 SLOAD PUSH4 0xFFFFFFFF NOT AND PUSH4 0xFFFFFFFF SWAP3 DUP4 AND OR DUP1 DUP3 SSTORE DUP4 SLOAD PUSH5 0x100000000 SWAP1 DUP2 SWAP1 DIV SWAP1 SWAP4 AND SWAP1 SWAP3 MUL PUSH8 0xFFFFFFFF00000000 NOT SWAP1 SWAP3 AND SWAP2 SWAP1 SWAP2 OR DUP2 SSTORE PUSH1 0x1 DUP1 DUP4 ADD SLOAD SWAP1 DUP3 ADD SSTORE PUSH1 0x2 SWAP2 DUP3 ADD DUP1 SLOAD SWAP3 SWAP1 SWAP2 ADD DUP1 SLOAD PUSH2 0xFFFF NOT AND PUSH2 0xFFFF SWAP4 DUP5 AND OR DUP1 DUP3 SSTORE SWAP2 SLOAD PUSH3 0x10000 SWAP1 DUP2 SWAP1 DIV SWAP1 SWAP4 AND SWAP1 SWAP3 MUL PUSH4 0xFFFF0000 NOT SWAP1 SWAP2 AND OR SWAP1 SSTORE PUSH1 0x28 DUP1 SLOAD DUP1 PUSH2 0x168F JUMPI PUSH4 0x4E487B71 PUSH1 0xE0 SHL PUSH1 0x0 MSTORE PUSH1 0x31 PUSH1 0x4 MSTORE PUSH1 0x24 PUSH1 0x0 REVERT JUMPDEST PUSH1 0x0 DUP3 DUP2 MSTORE PUSH1 0x20 DUP2 KECCAK256 PUSH1 0x3 PUSH1 0x0 NOT SWAP1 SWAP4 ADD SWAP3 DUP4 MUL ADD DUP1 SLOAD PUSH8 0xFFFFFFFFFFFFFFFF NOT AND DUP2 SSTORE PUSH1 0x1 DUP2 ADD SWAP2 SWAP1 SWAP2 SSTORE PUSH1 0x2 ADD DUP1 SLOAD PUSH4 0xFFFFFFFF NOT AND SWAP1 SSTORE SWAP1 SSTORE POP JUMP JUMPDEST PUSH2 0x16D7 CALLER PUSH2 0x2D58 JUMP JUMPDEST PUSH2 0x16F3 JUMPI PUSH1 0x40 MLOAD PUSH3 0x461BCD PUSH1 0xE5 SHL DUP2 MSTORE PUSH1 0x4 ADD PUSH2 0x704 SWAP1 PUSH2 0x4112 JUMP JUMPDEST PUSH1 0x28 DUP1 SLOAD PUSH1 0x1 DUP2 ADD DUP3 SSTORE PUSH1 0x0 SWAP2 SWAP1 SWAP2 MSTORE DUP2 SWAP1 PUSH1 0x3 MUL PUSH32 0xE16DA923A2D88192E5070F37B4571D58682C0D66212EC634D495F33DE3F77AB5 ADD PUSH2 0x13A8 DUP3 DUP3 PUSH2 0x450D JUMP JUMPDEST PUSH1 0x1 PUSH1 0x1 PUSH1 0xA0 SHL SUB AND PUSH1 0x0 SWAP1 DUP2 MSTORE PUSH1 0x2C PUSH1 0x20 MSTORE PUSH1 0x40 SWAP1 KECCAK256 SLOAD SWAP1 JUMP JUMPDEST PUSH2 0x1758 CALLER PUSH2 0x2D58 JUMP JUMPDEST PUSH2 0x1774 JUMPI PUSH1 0x40 MLOAD PUSH3 0x461BCD PUSH1 0xE5 SHL DUP2 MSTORE PUSH1 0x4 ADD PUSH2 0x704 SWAP1 PUSH2 0x4112 JUMP JUMPDEST DUP1 PUSH1 0x0 PUSH2 0x1781 DUP3 DUP1 PUSH2 0x42F8 JUMP JUMPDEST SWAP1 POP GT PUSH2 0x17A0 JUMPI PUSH1 0x40 MLOAD PUSH3 0x461BCD PUSH1 0xE5 SHL DUP2 MSTORE PUSH1 0x4 ADD PUSH2 0x704 SWAP1 PUSH2 0x4058 JUMP JUMPDEST PUSH1 0x0 PUSH2 0x17AF PUSH1 0x20 DUP4 ADD DUP4 PUSH2 0x42B1 JUMP JUMPDEST SWAP1 POP GT PUSH2 0x17CE JUMPI PUSH1 0x40 MLOAD PUSH3 0x461BCD PUSH1 0xE5 SHL DUP2 MSTORE PUSH1 0x4 ADD PUSH2 0x704 SWAP1 PUSH2 0x39AE JUMP JUMPDEST PUSH1 0x0 PUSH2 0x17DD PUSH1 0x40 DUP4 ADD DUP4 PUSH2 0x42B1 JUMP JUMPDEST SWAP1 POP GT PUSH2 0x17FC JUMPI PUSH1 0x40 MLOAD PUSH3 0x461BCD PUSH1 0xE5 SHL DUP2 MSTORE PUSH1 0x4 ADD PUSH2 0x704 SWAP1 PUSH2 0x3D39 JUMP JUMPDEST PUSH2 0x1809 PUSH1 0x20 DUP3 ADD DUP3 PUSH2 0x42B1 JUMP JUMPDEST SWAP1 POP PUSH2 0x1815 DUP3 DUP1 PUSH2 0x42F8 JUMP JUMPDEST SWAP1 POP EQ DUP1 ISZERO PUSH2 0x183F JUMPI POP PUSH2 0x182C PUSH1 0x40 DUP3 ADD DUP3 PUSH2 0x42B1 JUMP JUMPDEST SWAP1 POP PUSH2 0x183B PUSH1 0x20 DUP4 ADD DUP4 PUSH2 0x42B1 JUMP JUMPDEST SWAP1 POP EQ JUMPDEST PUSH2 0x185B JUMPI PUSH1 0x40 MLOAD PUSH3 0x461BCD PUSH1 0xE5 SHL DUP2 MSTORE PUSH1 0x4 ADD PUSH2 0x704 SWAP1 PUSH2 0x3C22 JUMP JUMPDEST PUSH1 0x0 PUSH2 0x1867 DUP4 DUP1 PUSH2 0x42F8 JUMP JUMPDEST SWAP1 POP GT DUP1 ISZERO PUSH2 0x1884 JUMPI POP PUSH1 0x0 PUSH2 0x1880 PUSH1 0x20 DUP5 ADD DUP5 PUSH2 0x42B1 JUMP JUMPDEST SWAP1 POP GT JUMPDEST DUP1 ISZERO PUSH2 0x189E JUMPI POP PUSH1 0x0 PUSH2 0x189A PUSH1 0x40 DUP5 ADD DUP5 PUSH2 0x42B1 JUMP JUMPDEST SWAP1 POP GT JUMPDEST DUP1 ISZERO PUSH2 0x18C2 JUMPI POP PUSH2 0x18B2 PUSH1 0x20 DUP4 ADD DUP4 PUSH2 0x42B1 JUMP JUMPDEST SWAP1 POP PUSH2 0x18BE DUP4 DUP1 PUSH2 0x42F8 JUMP JUMPDEST SWAP1 POP EQ JUMPDEST DUP1 ISZERO PUSH2 0x18E9 JUMPI POP PUSH2 0x18D6 PUSH1 0x40 DUP4 ADD DUP4 PUSH2 0x42B1 JUMP JUMPDEST SWAP1 POP PUSH2 0x18E5 PUSH1 0x20 DUP5 ADD DUP5 PUSH2 0x42B1 JUMP JUMPDEST SWAP1 POP EQ JUMPDEST PUSH2 0x1905 JUMPI PUSH1 0x40 MLOAD PUSH3 0x461BCD PUSH1 0xE5 SHL DUP2 MSTORE PUSH1 0x4 ADD PUSH2 0x704 SWAP1 PUSH2 0x3DF3 JUMP JUMPDEST DUP2 PUSH1 0x4 DUP5 PUSH1 0xC DUP2 LT PUSH2 0x1927 JUMPI PUSH4 0x4E487B71 PUSH1 0xE0 SHL PUSH1 0x0 MSTORE PUSH1 0x32 PUSH1 0x4 MSTORE PUSH1 0x24 PUSH1 0x0 REVERT JUMPDEST PUSH1 0x3 MUL ADD PUSH2 0xEDA DUP3 DUP3 PUSH2 0x45BF JUMP JUMPDEST PUSH2 0x193E CALLER PUSH2 0x2D58 JUMP JUMPDEST PUSH2 0x195A JUMPI PUSH1 0x40 MLOAD PUSH3 0x461BCD PUSH1 0xE5 SHL DUP2 MSTORE PUSH1 0x4 ADD PUSH2 0x704 SWAP1 PUSH2 0x4112 JUMP JUMPDEST DUP1 PUSH1 0x28 DUP4 DUP2 SLOAD DUP2 LT PUSH2 0x197C JUMPI PUSH4 0x4E487B71 PUSH1 0xE0 SHL PUSH1 0x0 MSTORE PUSH1 0x32 PUSH1 0x4 MSTORE PUSH1 0x24 PUSH1 0x0 REVERT JUMPDEST SWAP1 PUSH1 0x0 MSTORE PUSH1 0x20 PUSH1 0x0 KECCAK256 SWAP1 PUSH1 0x3 MUL ADD DUP2 DUP2 PUSH2 0x1996 SWAP2 SWAP1 PUSH2 0x450D JUMP JUMPDEST POP POP POP POP JUMP JUMPDEST PUSH1 0x0 DUP2 PUSH1 0xC DUP2 LT PUSH2 0x19BF JUMPI PUSH1 0x40 MLOAD PUSH3 0x461BCD PUSH1 0xE5 SHL DUP2 MSTORE PUSH1 0x4 ADD PUSH2 0x704 SWAP1 PUSH2 0x3EF9 JUMP JUMPDEST PUSH2 0x19C9 CALLER DUP5 PUSH2 0x2D76 JUMP JUMPDEST SWAP4 SWAP3 POP POP POP JUMP JUMPDEST PUSH1 0x29 SLOAD PUSH1 0xFF AND PUSH2 0x19F2 JUMPI PUSH1 0x40 MLOAD PUSH3 0x461BCD PUSH1 0xE5 SHL DUP2 MSTORE PUSH1 0x4 ADD PUSH2 0x704 SWAP1 PUSH2 0x3A0B JUMP JUMPDEST CALLER PUSH1 0x0 SWAP1 DUP2 MSTORE PUSH1 0x2F PUSH1 0x20 SWAP1 DUP2 MSTORE PUSH1 0x40 SWAP2 DUP3 SWAP1 KECCAK256 DUP3 MLOAD PUSH1 0x80 DUP2 ADD DUP5 MSTORE DUP2 SLOAD PUSH4 0xFFFFFFFF DUP1 DUP3 AND DUP4 MSTORE PUSH5 0x100000000 SWAP1 SWAP2 DIV DUP2 AND DUP3 DUP6 ADD MSTORE PUSH1 0x1 DUP4 ADD SLOAD DUP3 DUP7 ADD MSTORE DUP5 MLOAD DUP1 DUP7 ADD SWAP1 SWAP6 MSTORE PUSH1 0x2 SWAP1 SWAP3 ADD SLOAD PUSH2 0xFFFF DUP1 DUP3 AND DUP7 MSTORE PUSH3 0x10000 SWAP1 SWAP2 DIV AND SWAP3 DUP5 ADD SWAP3 SWAP1 SWAP3 MSTORE PUSH1 0x60 DUP3 ADD SWAP3 SWAP1 SWAP3 MSTORE DUP1 MLOAD SWAP1 SWAP2 AND ISZERO PUSH2 0x1A9D JUMPI PUSH1 0x20 DUP2 ADD MLOAD DUP2 MLOAD TIMESTAMP SWAP2 PUSH2 0x1A7A SWAP2 PUSH2 0x4382 JUMP JUMPDEST PUSH4 0xFFFFFFFF AND LT PUSH2 0x1A9D JUMPI PUSH1 0x40 MLOAD PUSH3 0x461BCD PUSH1 0xE5 SHL DUP2 MSTORE PUSH1 0x4 ADD PUSH2 0x704 SWAP1 PUSH2 0x4021 JUMP JUMPDEST PUSH1 0x0 PUSH1 0x28 DUP4 DUP2 SLOAD DUP2 LT PUSH2 0x1AC0 JUMPI PUSH4 0x4E487B71 PUSH1 0xE0 SHL PUSH1 0x0 MSTORE PUSH1 0x32 PUSH1 0x4 MSTORE PUSH1 0x24 PUSH1 0x0 REVERT JUMPDEST PUSH1 0x0 SWAP2 DUP3 MSTORE PUSH1 0x20 DUP1 DUP4 KECCAK256 PUSH1 0x40 DUP1 MLOAD PUSH1 0x80 DUP2 ADD DUP3 MSTORE PUSH1 0x3 SWAP1 SWAP5 MUL SWAP1 SWAP2 ADD DUP1 SLOAD PUSH4 0xFFFFFFFF DUP1 DUP3 AND DUP7 MSTORE PUSH5 0x100000000 SWAP1 SWAP2 DIV AND DUP5 DUP5 ADD MSTORE PUSH1 0x1 DUP2 ADD SLOAD DUP5 DUP4 ADD SWAP1 DUP2 MSTORE DUP3 MLOAD DUP1 DUP5 ADD DUP5 MSTORE PUSH1 0x2 SWAP1 SWAP3 ADD SLOAD PUSH2 0xFFFF DUP1 DUP3 AND DUP5 MSTORE PUSH3 0x10000 SWAP1 SWAP2 DIV AND DUP3 DUP6 ADD MSTORE PUSH1 0x60 DUP6 ADD SWAP2 SWAP1 SWAP2 MSTORE MLOAD CALLER DUP6 MSTORE PUSH1 0x2C SWAP1 SWAP3 MSTORE SWAP1 SWAP3 KECCAK256 SLOAD SWAP1 SWAP3 POP LT ISZERO PUSH2 0x1B58 JUMPI PUSH1 0x40 MLOAD PUSH3 0x461BCD PUSH1 0xE5 SHL DUP2 MSTORE PUSH1 0x4 ADD PUSH2 0x704 SWAP1 PUSH2 0x3A9D JUMP JUMPDEST PUSH1 0x40 DUP1 DUP3 ADD DUP1 MLOAD CALLER PUSH1 0x0 DUP2 DUP2 MSTORE PUSH1 0x2C PUSH1 0x20 SWAP1 DUP2 MSTORE DUP6 DUP3 KECCAK256 DUP1 SLOAD SWAP5 SWAP1 SWAP5 SUB SWAP1 SWAP4 SSTORE PUSH4 0xFFFFFFFF TIMESTAMP DUP2 AND DUP8 MSTORE SWAP2 DUP2 MSTORE PUSH1 0x2F DUP4 MSTORE SWAP4 SWAP1 SWAP4 KECCAK256 DUP5 MLOAD DUP2 SLOAD DUP4 DUP8 ADD MLOAD DUP7 AND PUSH5 0x100000000 MUL PUSH8 0xFFFFFFFF00000000 NOT SWAP3 SWAP1 SWAP7 AND PUSH4 0xFFFFFFFF NOT SWAP1 SWAP2 AND OR AND SWAP4 SWAP1 SWAP4 OR DUP4 SSTORE SWAP1 MLOAD PUSH1 0x1 DUP4 ADD SSTORE PUSH1 0x60 SWAP1 SWAP3 ADD MLOAD DUP1 MLOAD PUSH1 0x2 SWAP1 SWAP3 ADD DUP1 SLOAD SWAP2 SWAP1 SWAP4 ADD MLOAD PUSH2 0xFFFF SWAP1 DUP2 AND PUSH3 0x10000 MUL PUSH4 0xFFFF0000 NOT SWAP2 SWAP1 SWAP4 AND PUSH2 0xFFFF NOT SWAP1 SWAP3 AND SWAP2 SWAP1 SWAP2 OR AND OR SWAP1 SSTORE POP POP JUMP JUMPDEST PUSH2 0x1C08 PUSH2 0x346D JUMP JUMPDEST PUSH1 0x4 DUP3 PUSH1 0xC DUP2 LT PUSH2 0x1C29 JUMPI PUSH4 0x4E487B71 PUSH1 0xE0 SHL PUSH1 0x0 MSTORE PUSH1 0x32 PUSH1 0x4 MSTORE PUSH1 0x24 PUSH1 0x0 REVERT JUMPDEST PUSH1 0x3 MUL ADD PUSH1 0x40 MLOAD DUP1 PUSH1 0x60 ADD PUSH1 0x40 MSTORE SWAP1 DUP2 PUSH1 0x0 DUP3 ADD DUP1 SLOAD DUP1 PUSH1 0x20 MUL PUSH1 0x20 ADD PUSH1 0x40 MLOAD SWAP1 DUP2 ADD PUSH1 0x40 MSTORE DUP1 SWAP3 SWAP2 SWAP1 DUP2 DUP2 MSTORE PUSH1 0x20 ADD DUP3 DUP1 SLOAD DUP1 ISZERO PUSH2 0x1C87 JUMPI PUSH1 0x20 MUL DUP3 ADD SWAP2 SWAP1 PUSH1 0x0 MSTORE PUSH1 0x20 PUSH1 0x0 KECCAK256 SWAP1 JUMPDEST DUP2 SLOAD DUP2 MSTORE PUSH1 0x20 ADD SWAP1 PUSH1 0x1 ADD SWAP1 DUP1 DUP4 GT PUSH2 0x1C73 JUMPI JUMPDEST POP POP POP POP POP DUP2 MSTORE PUSH1 0x20 ADD PUSH1 0x1 DUP3 ADD DUP1 SLOAD DUP1 PUSH1 0x20 MUL PUSH1 0x20 ADD PUSH1 0x40 MLOAD SWAP1 DUP2 ADD PUSH1 0x40 MSTORE DUP1 SWAP3 SWAP2 SWAP1 DUP2 DUP2 MSTORE PUSH1 0x20 ADD PUSH1 0x0 SWAP1 JUMPDEST DUP3 DUP3 LT ISZERO PUSH2 0x1CF8 JUMPI PUSH1 0x0 DUP5 DUP2 MSTORE PUSH1 0x20 SWAP1 DUP2 SWAP1 KECCAK256 PUSH1 0x40 DUP1 MLOAD DUP1 DUP3 ADD SWAP1 SWAP2 MSTORE SWAP1 DUP5 ADD SLOAD PUSH2 0xFFFF DUP1 DUP3 AND DUP4 MSTORE PUSH3 0x10000 SWAP1 SWAP2 DIV AND DUP2 DUP4 ADD MSTORE DUP3 MSTORE PUSH1 0x1 SWAP1 SWAP3 ADD SWAP2 ADD PUSH2 0x1CB5 JUMP JUMPDEST POP POP POP POP DUP2 MSTORE PUSH1 0x20 ADD PUSH1 0x2 DUP3 ADD DUP1 SLOAD DUP1 PUSH1 0x20 MUL PUSH1 0x20 ADD PUSH1 0x40 MLOAD SWAP1 DUP2 ADD PUSH1 0x40 MSTORE DUP1 SWAP3 SWAP2 SWAP1 DUP2 DUP2 MSTORE PUSH1 0x20 ADD PUSH1 0x0 SWAP1 JUMPDEST DUP3 DUP3 LT ISZERO PUSH2 0x1D68 JUMPI PUSH1 0x0 DUP5 DUP2 MSTORE PUSH1 0x20 SWAP1 DUP2 SWAP1 KECCAK256 PUSH1 0x40 DUP1 MLOAD DUP1 DUP3 ADD SWAP1 SWAP2 MSTORE SWAP1 DUP5 ADD SLOAD PUSH2 0xFFFF DUP1 DUP3 AND DUP4 MSTORE PUSH3 0x10000 SWAP1 SWAP2 DIV AND DUP2 DUP4 ADD MSTORE DUP3 MSTORE PUSH1 0x1 SWAP1 SWAP3 ADD SWAP2 ADD PUSH2 0x1D25 JUMP JUMPDEST POP POP POP SWAP2 MSTORE POP SWAP1 SWAP4 SWAP3 POP POP POP JUMP JUMPDEST CALLER PUSH1 0x0 SWAP1 DUP2 MSTORE PUSH1 0x30 PUSH1 0x20 MSTORE PUSH1 0x40 SWAP1 KECCAK256 DUP1 SLOAD PUSH20 0xFFFFFFFFFFFFFFFFFFFFFFFFFFFFFFFFFFFFFFFF NOT AND PUSH1 0x1 PUSH1 0x1 PUSH1 0xA0 SHL SUB DUP4 AND OR SWAP1 SSTORE PUSH2 0x1DB4 DUP3 PUSH2 0x3296 JUMP JUMPDEST POP POP JUMP JUMPDEST PUSH1 0x0 PUSH2 0x2710 DUP2 PUSH3 0x15180 PUSH2 0x1DCC DUP4 DUP8 PUSH2 0x43CA JUMP JUMPDEST PUSH2 0x1DD7 SWAP1 PUSH1 0x64 PUSH2 0x43CA JUMP JUMPDEST PUSH2 0x1DE1 SWAP2 SWAP1 PUSH2 0x43AA JUMP JUMPDEST SWAP1 POP PUSH1 0x0 DUP5 PUSH1 0x20 ADD MLOAD PUSH2 0xFFFF AND DUP6 PUSH1 0x0 ADD MLOAD PUSH2 0xFFFF AND DUP5 DUP10 PUSH2 0x1E03 SWAP2 SWAP1 PUSH2 0x43CA JUMP JUMPDEST PUSH2 0x1E0D SWAP2 SWAP1 PUSH2 0x43CA JUMP JUMPDEST PUSH2 0x1E17 SWAP2 SWAP1 PUSH2 0x43AA JUMP JUMPDEST SWAP1 POP DUP3 DUP1 PUSH1 0x64 PUSH2 0x1E27 DUP6 DUP6 PUSH2 0x43CA JUMP JUMPDEST PUSH2 0x1E31 SWAP2 SWAP1 PUSH2 0x43AA JUMP JUMPDEST PUSH2 0x1E3B SWAP2 SWAP1 PUSH2 0x43AA JUMP JUMPDEST PUSH2 0x1E45 SWAP2 SWAP1 PUSH2 0x43AA JUMP JUMPDEST SWAP8 SWAP7 POP POP POP POP POP POP POP JUMP JUMPDEST PUSH2 0x1E59 CALLER PUSH2 0x2D58 JUMP JUMPDEST PUSH2 0x1E75 JUMPI PUSH1 0x40 MLOAD PUSH3 0x461BCD PUSH1 0xE5 SHL DUP2 MSTORE PUSH1 0x4 ADD PUSH2 0x704 SWAP1 PUSH2 0x4112 JUMP JUMPDEST PUSH11 0x84595161401484A000000 DUP2 LT PUSH2 0x1E9F JUMPI PUSH1 0x40 MLOAD PUSH3 0x461BCD PUSH1 0xE5 SHL DUP2 MSTORE PUSH1 0x4 ADD PUSH2 0x704 SWAP1 PUSH2 0x3C7F JUMP JUMPDEST PUSH1 0x2A SSTORE JUMP JUMPDEST PUSH1 0x40 DUP1 MLOAD DUP1 DUP3 ADD SWAP1 SWAP2 MSTORE PUSH1 0x5 DUP2 MSTORE PUSH32 0x464255434B000000000000000000000000000000000000000000000000000000 PUSH1 0x20 DUP3 ADD MSTORE SWAP1 JUMP JUMPDEST PUSH2 0x1EE3 PUSH2 0x348E JUMP JUMPDEST PUSH2 0xBDC CALLER DUP4 PUSH2 0x2465 JUMP JUMPDEST PUSH1 0x31 SLOAD PUSH1 0x0 SWAP1 PUSH1 0xFF AND DUP1 PUSH2 0x1F0B JUMPI POP PUSH1 0x0 SLOAD PUSH1 0x1 PUSH1 0x1 PUSH1 0xA0 SHL SUB AND CALLER EQ JUMPDEST PUSH2 0x1F27 JUMPI PUSH1 0x40 MLOAD PUSH3 0x461BCD PUSH1 0xE5 SHL DUP2 MSTORE PUSH1 0x4 ADD PUSH2 0x704 SWAP1 PUSH2 0x3E9C JUMP JUMPDEST PUSH2 0x1F32 CALLER DUP5 DUP5 PUSH2 0x2FBB JUMP JUMPDEST POP PUSH1 0x1 SWAP3 SWAP2 POP POP JUMP JUMPDEST DUP1 PUSH1 0xC DUP2 LT PUSH2 0x1F5C JUMPI PUSH1 0x40 MLOAD PUSH3 0x461BCD PUSH1 0xE5 SHL DUP2 MSTORE PUSH1 0x4 ADD PUSH2 0x704 SWAP1 PUSH2 0x3EF9 JUMP JUMPDEST PUSH1 0x0 PUSH2 0x1F67 DUP4 PUSH2 0x199C JUMP JUMPDEST SWAP1 POP PUSH2 0x1F76 DUP4 CALLER DUP4 PUSH1 0x1 PUSH2 0x30BE JUMP JUMPDEST DUP3 CALLER PUSH1 0x1 PUSH1 0x1 PUSH1 0xA0 SHL SUB AND PUSH32 0x820CEA42E8517CF1EC6D4E9DB93909255F07C45F7EB0A7C7B5A0F8BDCFC2E5BF DUP4 PUSH1 0x40 MLOAD PUSH2 0x1FB0 SWAP2 SWAP1 PUSH2 0x4256 JUMP JUMPDEST PUSH1 0x40 MLOAD DUP1 SWAP2 SUB SWAP1 LOG3 POP POP POP JUMP JUMPDEST DUP1 PUSH1 0xC DUP2 LT PUSH2 0x1FDE JUMPI PUSH1 0x40 MLOAD PUSH3 0x461BCD PUSH1 0xE5 SHL DUP2 MSTORE PUSH1 0x4 ADD PUSH2 0x704 SWAP1 PUSH2 0x3EF9 JUMP JUMPDEST PUSH2 0x1FE8 DUP4 CALLER PUSH2 0x1444 JUMP JUMPDEST PUSH2 0x1FF1 JUMPI PUSH1 0x0 DUP1 REVERT JUMPDEST PUSH1 0x0 PUSH2 0x1FFD DUP5 DUP5 PUSH2 0x2D76 JUMP JUMPDEST PUSH1 0x1 PUSH1 0x1 PUSH1 0xA0 SHL SUB DUP6 AND PUSH1 0x0 SWAP1 DUP2 MSTORE PUSH1 0x2E PUSH1 0x20 MSTORE PUSH1 0x40 DUP2 KECCAK256 SWAP2 SWAP3 POP SWAP1 DUP5 PUSH1 0xC DUP2 LT PUSH2 0x2038 JUMPI PUSH4 0x4E487B71 PUSH1 0xE0 SHL PUSH1 0x0 MSTORE PUSH1 0x32 PUSH1 0x4 MSTORE PUSH1 0x24 PUSH1 0x0 REVERT JUMPDEST PUSH1 0x40 DUP1 MLOAD PUSH1 0xA0 DUP2 ADD DUP3 MSTORE PUSH1 0x4 SWAP3 SWAP1 SWAP3 MUL SWAP3 SWAP1 SWAP3 ADD DUP1 SLOAD PUSH3 0xFFFFFF DUP2 AND DUP4 MSTORE PUSH4 0x1000000 SWAP1 DIV PUSH4 0xFFFFFFFF AND PUSH1 0x20 DUP1 DUP5 ADD SWAP2 SWAP1 SWAP2 MSTORE PUSH1 0x1 DUP3 ADD SLOAD DUP4 DUP6 ADD MSTORE PUSH1 0x2 DUP3 ADD SLOAD PUSH1 0x60 DUP5 ADD SWAP1 DUP2 MSTORE PUSH1 0x3 SWAP1 SWAP3 ADD SLOAD PUSH1 0x80 DUP5 ADD MSTORE PUSH1 0x1 PUSH1 0x1 PUSH1 0xA0 SHL SUB DUP10 AND PUSH1 0x0 SWAP1 DUP2 MSTORE PUSH1 0x2C SWAP1 SWAP2 MSTORE SWAP3 SWAP1 SWAP3 KECCAK256 DUP1 SLOAD DUP6 ADD SWAP1 SSTORE DUP2 MLOAD SWAP1 SWAP3 POP DUP4 SWAP2 SWAP1 PUSH2 0x20BD SWAP1 DUP4 SWAP1 PUSH2 0x436A JUMP JUMPDEST SWAP1 MSTORE POP PUSH4 0xFFFFFFFF TIMESTAMP AND PUSH1 0x20 DUP1 DUP4 ADD SWAP2 SWAP1 SWAP2 MSTORE PUSH1 0x1 PUSH1 0x1 PUSH1 0xA0 SHL SUB DUP7 AND PUSH1 0x0 SWAP1 DUP2 MSTORE PUSH1 0x2E SWAP1 SWAP2 MSTORE PUSH1 0x40 SWAP1 KECCAK256 DUP2 SWAP1 DUP6 PUSH1 0xC DUP2 LT PUSH2 0x2109 JUMPI PUSH4 0x4E487B71 PUSH1 0xE0 SHL PUSH1 0x0 MSTORE PUSH1 0x32 PUSH1 0x4 MSTORE PUSH1 0x24 PUSH1 0x0 REVERT JUMPDEST DUP3 MLOAD PUSH1 0x4 SWAP2 SWAP1 SWAP2 MUL SWAP2 SWAP1 SWAP2 ADD DUP1 SLOAD PUSH1 0x20 DUP5 ADD MLOAD PUSH4 0xFFFFFFFF AND PUSH4 0x1000000 MUL PUSH7 0xFFFFFFFF000000 NOT PUSH3 0xFFFFFF SWAP1 SWAP5 AND PUSH3 0xFFFFFF NOT SWAP1 SWAP3 AND SWAP2 SWAP1 SWAP2 OR SWAP3 SWAP1 SWAP3 AND SWAP2 SWAP1 SWAP2 OR DUP2 SSTORE PUSH1 0x40 DUP1 DUP4 ADD MLOAD PUSH1 0x1 DUP4 ADD SSTORE PUSH1 0x60 DUP4 ADD MLOAD PUSH1 0x2 DUP4 ADD SSTORE PUSH1 0x80 SWAP1 SWAP3 ADD MLOAD PUSH1 0x3 SWAP1 SWAP2 ADD SSTORE MLOAD DUP5 SWAP1 PUSH1 0x1 PUSH1 0x1 PUSH1 0xA0 SHL SUB DUP8 AND SWAP1 PUSH32 0xD4C220A036E494DC8D9E171D2A06A37F490EC132E69A1FF788E87D75BA686568 SWAP1 PUSH2 0x21AA SWAP1 DUP7 SWAP1 PUSH2 0x4256 JUMP JUMPDEST PUSH1 0x40 MLOAD DUP1 SWAP2 SUB SWAP1 LOG3 POP POP POP POP POP JUMP JUMPDEST PUSH2 0x21C2 CALLER PUSH2 0x2D58 JUMP JUMPDEST PUSH2 0x21DE JUMPI PUSH1 0x40 MLOAD PUSH3 0x461BCD PUSH1 0xE5 SHL DUP2 MSTORE PUSH1 0x4 ADD PUSH2 0x704 SWAP1 PUSH2 0x4112 JUMP JUMPDEST PUSH1 0x31 DUP1 SLOAD PUSH1 0xFF NOT AND SWAP2 ISZERO ISZERO SWAP2 SWAP1 SWAP2 OR SWAP1 SSTORE JUMP JUMPDEST PUSH2 0x21FA CALLER PUSH2 0x1142 JUMP JUMPDEST PUSH2 0x2216 JUMPI PUSH1 0x40 MLOAD PUSH3 0x461BCD PUSH1 0xE5 SHL DUP2 MSTORE PUSH1 0x4 ADD PUSH2 0x704 SWAP1 PUSH2 0x3F8D JUMP JUMPDEST PUSH1 0x1 PUSH1 0x1 PUSH1 0xA0 SHL SUB AND PUSH1 0x0 SWAP1 DUP2 MSTORE PUSH1 0x1 PUSH1 0x20 DUP2 SWAP1 MSTORE PUSH1 0x40 SWAP1 SWAP2 KECCAK256 DUP1 SLOAD PUSH1 0xFF NOT AND SWAP1 SWAP2 OR SWAP1 SSTORE JUMP JUMPDEST PUSH2 0x2246 DUP2 PUSH2 0x3296 JUMP JUMPDEST POP JUMP JUMPDEST DUP1 PUSH1 0xC DUP2 LT PUSH2 0x226A JUMPI PUSH1 0x40 MLOAD PUSH3 0x461BCD PUSH1 0xE5 SHL DUP2 MSTORE PUSH1 0x4 ADD PUSH2 0x704 SWAP1 PUSH2 0x3EF9 JUMP JUMPDEST PUSH1 0x0 PUSH2 0x2277 DUP4 PUSH1 0x0 PUSH2 0xEE7 JUMP JUMPDEST CALLER PUSH1 0x0 SWAP1 DUP2 MSTORE PUSH1 0x2C PUSH1 0x20 MSTORE PUSH1 0x40 SWAP1 KECCAK256 SLOAD SWAP1 SWAP2 POP DUP2 GT ISZERO PUSH2 0x22A9 JUMPI PUSH1 0x40 MLOAD PUSH3 0x461BCD PUSH1 0xE5 SHL DUP2 MSTORE PUSH1 0x4 ADD PUSH2 0x704 SWAP1 PUSH2 0x3A68 JUMP JUMPDEST CALLER PUSH1 0x0 SWAP1 DUP2 MSTORE PUSH1 0x2E PUSH1 0x20 MSTORE PUSH1 0x40 DUP2 KECCAK256 DUP5 PUSH1 0xC DUP2 LT PUSH2 0x22D7 JUMPI PUSH4 0x4E487B71 PUSH1 0xE0 SHL PUSH1 0x0 MSTORE PUSH1 0x32 PUSH1 0x4 MSTORE PUSH1 0x24 PUSH1 0x0 REVERT JUMPDEST PUSH1 0x40 DUP1 MLOAD PUSH1 0xA0 DUP2 ADD DUP3 MSTORE PUSH1 0x4 SWAP3 SWAP1 SWAP3 MUL SWAP3 SWAP1 SWAP3 ADD DUP1 SLOAD PUSH3 0xFFFFFF DUP2 AND DUP1 DUP5 MSTORE PUSH4 0x1000000 SWAP1 SWAP2 DIV PUSH4 0xFFFFFFFF AND PUSH1 0x20 DUP5 ADD MSTORE PUSH1 0x1 DUP3 ADD SLOAD SWAP4 DUP4 ADD SWAP4 SWAP1 SWAP4 MSTORE PUSH1 0x2 DUP2 ADD SLOAD PUSH1 0x60 DUP4 ADD MSTORE PUSH1 0x3 ADD SLOAD PUSH1 0x80 DUP3 ADD MSTORE SWAP2 POP ISZERO PUSH2 0x2347 JUMPI PUSH1 0x40 MLOAD PUSH3 0x461BCD PUSH1 0xE5 SHL DUP2 MSTORE PUSH1 0x4 ADD PUSH2 0x704 SWAP1 PUSH2 0x3D96 JUMP JUMPDEST CALLER PUSH1 0x0 SWAP1 DUP2 MSTORE PUSH1 0x2C PUSH1 0x20 SWAP1 DUP2 MSTORE PUSH1 0x40 DUP1 DUP4 KECCAK256 DUP1 SLOAD DUP7 SWAP1 SUB SWAP1 SSTORE PUSH1 0x2E SWAP1 SWAP2 MSTORE SWAP1 KECCAK256 PUSH1 0x1 SWAP1 DUP6 PUSH1 0xC DUP2 LT PUSH2 0x2389 JUMPI PUSH4 0x4E487B71 PUSH1 0xE0 SHL PUSH1 0x0 MSTORE PUSH1 0x32 PUSH1 0x4 MSTORE PUSH1 0x24 PUSH1 0x0 REVERT JUMPDEST PUSH1 0x4 MUL ADD DUP1 SLOAD PUSH3 0xFFFFFF NOT AND PUSH3 0xFFFFFF SWAP3 SWAP1 SWAP3 AND SWAP2 SWAP1 SWAP2 OR SWAP1 SSTORE CALLER PUSH1 0x0 SWAP1 DUP2 MSTORE PUSH1 0x2E PUSH1 0x20 MSTORE PUSH1 0x40 SWAP1 KECCAK256 DUP3 SWAP1 DUP6 PUSH1 0xC DUP2 LT PUSH2 0x23D3 JUMPI PUSH4 0x4E487B71 PUSH1 0xE0 SHL PUSH1 0x0 MSTORE PUSH1 0x32 PUSH1 0x4 MSTORE PUSH1 0x24 PUSH1 0x0 REVERT JUMPDEST PUSH1 0x4 MUL ADD PUSH1 0x1 ADD SSTORE CALLER PUSH1 0x0 SWAP1 DUP2 MSTORE PUSH1 0x2E PUSH1 0x20 MSTORE PUSH1 0x40 SWAP1 KECCAK256 TIMESTAMP SWAP1 DUP6 PUSH1 0xC DUP2 LT PUSH2 0x240B JUMPI PUSH4 0x4E487B71 PUSH1 0xE0 SHL PUSH1 0x0 MSTORE PUSH1 0x32 PUSH1 0x4 MSTORE PUSH1 0x24 PUSH1 0x0 REVERT JUMPDEST PUSH1 0x4 MUL ADD DUP1 SLOAD PUSH4 0xFFFFFFFF SWAP3 SWAP1 SWAP3 AND PUSH4 0x1000000 MUL PUSH7 0xFFFFFFFF000000 NOT SWAP1 SWAP3 AND SWAP2 SWAP1 SWAP2 OR SWAP1 SSTORE PUSH1 0x40 MLOAD DUP5 SWAP1 CALLER SWAP1 PUSH32 0xBFEC54DEF49903F34CA9CF2128A54145E70AB76A425316FAD737A5901CF820D4 SWAP1 PUSH1 0x0 SWAP1 LOG3 POP POP POP POP JUMP JUMPDEST PUSH2 0x246D PUSH2 0x348E JUMP JUMPDEST DUP2 PUSH1 0xC DUP2 LT PUSH2 0x248E JUMPI PUSH1 0x40 MLOAD PUSH3 0x461BCD PUSH1 0xE5 SHL DUP2 MSTORE PUSH1 0x4 ADD PUSH2 0x704 SWAP1 PUSH2 0x3EF9 JUMP JUMPDEST PUSH1 0x1 PUSH1 0x1 PUSH1 0xA0 SHL SUB DUP5 AND PUSH1 0x0 SWAP1 DUP2 MSTORE PUSH1 0x2E PUSH1 0x20 MSTORE PUSH1 0x40 SWAP1 KECCAK256 DUP4 PUSH1 0xC DUP2 LT PUSH2 0x24C5 JUMPI PUSH4 0x4E487B71 PUSH1 0xE0 SHL PUSH1 0x0 MSTORE PUSH1 0x32 PUSH1 0x4 MSTORE PUSH1 0x24 PUSH1 0x0 REVERT JUMPDEST PUSH1 0x40 DUP1 MLOAD PUSH1 0xA0 DUP2 ADD DUP3 MSTORE PUSH1 0x4 SWAP3 SWAP1 SWAP3 MUL SWAP3 SWAP1 SWAP3 ADD DUP1 SLOAD PUSH3 0xFFFFFF DUP2 AND DUP4 MSTORE PUSH4 0x1000000 SWAP1 DIV PUSH4 0xFFFFFFFF AND PUSH1 0x20 DUP4 ADD MSTORE PUSH1 0x1 DUP2 ADD SLOAD SWAP3 DUP3 ADD SWAP3 SWAP1 SWAP3 MSTORE PUSH1 0x2 DUP3 ADD SLOAD PUSH1 0x60 DUP3 ADD MSTORE PUSH1 0x3 SWAP1 SWAP2 ADD SLOAD PUSH1 0x80 DUP3 ADD MSTORE SWAP5 SWAP4 POP POP POP POP JUMP JUMPDEST PUSH1 0x3 SLOAD PUSH5 0xFFFFFFFFFF AND DUP2 JUMP JUMPDEST PUSH1 0x0 PUSH2 0x2537 DUP4 DUP4 PUSH2 0x1444 JUMP JUMPDEST ISZERO PUSH2 0x2545 JUMPI POP PUSH1 0x2 SLOAD PUSH2 0xBDC JUMP JUMPDEST POP PUSH1 0x0 SWAP3 SWAP2 POP POP JUMP JUMPDEST DUP2 PUSH1 0xC DUP2 LT PUSH2 0x256F JUMPI PUSH1 0x40 MLOAD PUSH3 0x461BCD PUSH1 0xE5 SHL DUP2 MSTORE PUSH1 0x4 ADD PUSH2 0x704 SWAP1 PUSH2 0x3EF9 JUMP JUMPDEST CALLER PUSH1 0x0 SWAP1 DUP2 MSTORE PUSH1 0x2C PUSH1 0x20 MSTORE PUSH1 0x40 SWAP1 KECCAK256 SLOAD DUP3 GT ISZERO PUSH2 0x259E JUMPI PUSH1 0x40 MLOAD PUSH3 0x461BCD PUSH1 0xE5 SHL DUP2 MSTORE PUSH1 0x4 ADD PUSH2 0x704 SWAP1 PUSH2 0x3A68 JUMP JUMPDEST PUSH2 0x25AB DUP4 CALLER DUP5 PUSH1 0x0 PUSH2 0x30BE JUMP JUMPDEST CALLER PUSH1 0x0 DUP2 DUP2 MSTORE PUSH1 0x2C PUSH1 0x20 MSTORE PUSH1 0x40 SWAP1 DUP2 SWAP1 KECCAK256 DUP1 SLOAD DUP6 SWAP1 SUB SWAP1 SSTORE MLOAD DUP5 SWAP2 SWAP1 PUSH32 0x9E9D071824FD57D062CA63FD8B786D8DA48A6807EEBBCB2D83F9E8D21398E28C SWAP1 PUSH2 0x1FB0 SWAP1 DUP7 SWAP1 PUSH2 0x4256 JUMP JUMPDEST PUSH2 0x25FD CALLER PUSH2 0x1142 JUMP JUMPDEST PUSH2 0x2619 JUMPI PUSH1 0x40 MLOAD PUSH3 0x461BCD PUSH1 0xE5 SHL DUP2 MSTORE PUSH1 0x4 ADD PUSH2 0x704 SWAP1 PUSH2 0x3F8D JUMP JUMPDEST PUSH1 0x1 PUSH1 0x1 PUSH1 0xA0 SHL SUB AND PUSH1 0x0 SWAP1 DUP2 MSTORE PUSH1 0x1 PUSH1 0x20 MSTORE PUSH1 0x40 SWAP1 KECCAK256 DUP1 SLOAD PUSH1 0xFF NOT AND SWAP1 SSTORE JUMP JUMPDEST PUSH2 0x2643 CALLER PUSH2 0x2D58 JUMP JUMPDEST PUSH2 0x265F JUMPI PUSH1 0x40 MLOAD PUSH3 0x461BCD PUSH1 0xE5 SHL DUP2 MSTORE PUSH1 0x4 ADD PUSH2 0x704 SWAP1 PUSH2 0x4112 JUMP JUMPDEST PUSH1 0x29 DUP1 SLOAD PUSH1 0xFF NOT AND SWAP2 ISZERO ISZERO SWAP2 SWAP1 SWAP2 OR SWAP1 SSTORE JUMP JUMPDEST PUSH1 0x28 DUP2 DUP2 SLOAD DUP2 LT PUSH2 0x2682 JUMPI PUSH1 0x0 DUP1 REVERT JUMPDEST PUSH1 0x0 SWAP2 DUP3 MSTORE PUSH1 0x20 SWAP2 DUP3 SWAP1 KECCAK256 PUSH1 0x3 SWAP1 SWAP2 MUL ADD DUP1 SLOAD PUSH1 0x1 DUP3 ADD SLOAD PUSH1 0x40 DUP1 MLOAD DUP1 DUP3 ADD SWAP1 SWAP2 MSTORE PUSH1 0x2 SWAP1 SWAP4 ADD SLOAD PUSH2 0xFFFF DUP1 DUP3 AND DUP6 MSTORE PUSH3 0x10000 SWAP1 SWAP2 DIV AND SWAP4 DUP4 ADD SWAP4 SWAP1 SWAP4 MSTORE PUSH4 0xFFFFFFFF DUP1 DUP3 AND SWAP5 POP PUSH5 0x100000000 SWAP1 SWAP2 DIV AND SWAP2 SWAP1 DUP5 JUMP JUMPDEST PUSH2 0x26E3 CALLER PUSH2 0x1142 JUMP JUMPDEST PUSH2 0x26FF JUMPI PUSH1 0x40 MLOAD PUSH3 0x461BCD PUSH1 0xE5 SHL DUP2 MSTORE PUSH1 0x4 ADD PUSH2 0x704 SWAP1 PUSH2 0x3F8D JUMP JUMPDEST PUSH1 0x0 DUP1 SLOAD PUSH20 0xFFFFFFFFFFFFFFFFFFFFFFFFFFFFFFFFFFFFFFFF NOT AND PUSH1 0x1 PUSH1 0x1 PUSH1 0xA0 SHL SUB DUP4 AND SWAP1 DUP2 OR DUP3 SSTORE DUP2 MSTORE PUSH1 0x1 PUSH1 0x20 DUP2 SWAP1 MSTORE PUSH1 0x40 SWAP2 DUP3 SWAP1 KECCAK256 DUP1 SLOAD PUSH1 0xFF NOT AND SWAP1 SWAP2 OR SWAP1 SSTORE MLOAD PUSH32 0x4DBA622D284ED0014EE4B9A6A68386BE1A4C08A4913AE272DE89199CC686163 SWAP1 PUSH2 0x2771 SWAP1 DUP4 SWAP1 PUSH2 0x38A2 JUMP JUMPDEST PUSH1 0x40 MLOAD DUP1 SWAP2 SUB SWAP1 LOG1 POP JUMP JUMPDEST DUP1 PUSH1 0xC DUP2 LT PUSH2 0x279D JUMPI PUSH1 0x40 MLOAD PUSH3 0x461BCD PUSH1 0xE5 SHL DUP2 MSTORE PUSH1 0x4 ADD PUSH2 0x704 SWAP1 PUSH2 0x3EF9 JUMP JUMPDEST PUSH1 0x0 PUSH2 0x27A8 DUP4 PUSH2 0x199C JUMP JUMPDEST CALLER PUSH1 0x0 SWAP1 DUP2 MSTORE PUSH1 0x2E PUSH1 0x20 MSTORE PUSH1 0x40 DUP2 KECCAK256 SWAP2 SWAP3 POP SWAP1 DUP5 PUSH1 0xC DUP2 LT PUSH2 0x27DA JUMPI PUSH4 0x4E487B71 PUSH1 0xE0 SHL PUSH1 0x0 MSTORE PUSH1 0x32 PUSH1 0x4 MSTORE PUSH1 0x24 PUSH1 0x0 REVERT JUMPDEST PUSH1 0x40 DUP1 MLOAD PUSH1 0xA0 DUP2 ADD DUP3 MSTORE PUSH1 0x4 SWAP3 SWAP1 SWAP3 MUL SWAP3 SWAP1 SWAP3 ADD DUP1 SLOAD PUSH3 0xFFFFFF DUP2 AND DUP4 MSTORE PUSH4 0x1000000 SWAP1 DIV PUSH4 0xFFFFFFFF AND PUSH1 0x20 DUP1 DUP5 ADD SWAP2 SWAP1 SWAP2 MSTORE PUSH1 0x1 DUP3 ADD SLOAD DUP4 DUP6 ADD MSTORE PUSH1 0x2 DUP3 ADD SLOAD PUSH1 0x60 DUP5 ADD SWAP1 DUP2 MSTORE PUSH1 0x3 SWAP1 SWAP3 ADD SLOAD PUSH1 0x80 DUP5 ADD MSTORE CALLER PUSH1 0x0 SWAP1 DUP2 MSTORE PUSH1 0x2C SWAP1 SWAP2 MSTORE SWAP3 SWAP1 SWAP3 KECCAK256 DUP1 SLOAD DUP6 ADD SWAP1 SSTORE DUP2 MLOAD SWAP1 SWAP3 POP DUP4 SWAP2 SWAP1 PUSH2 0x2856 SWAP1 DUP4 SWAP1 PUSH2 0x436A JUMP JUMPDEST SWAP1 MSTORE POP PUSH4 0xFFFFFFFF TIMESTAMP AND PUSH1 0x20 DUP1 DUP4 ADD SWAP2 SWAP1 SWAP2 MSTORE CALLER PUSH1 0x0 SWAP1 DUP2 MSTORE PUSH1 0x2E SWAP1 SWAP2 MSTORE PUSH1 0x40 SWAP1 KECCAK256 DUP2 SWAP1 DUP6 PUSH1 0xC DUP2 LT PUSH2 0x2899 JUMPI PUSH4 0x4E487B71 PUSH1 0xE0 SHL PUSH1 0x0 MSTORE PUSH1 0x32 PUSH1 0x4 MSTORE PUSH1 0x24 PUSH1 0x0 REVERT JUMPDEST DUP3 MLOAD PUSH1 0x4 SWAP2 SWAP1 SWAP2 MUL SWAP2 SWAP1 SWAP2 ADD DUP1 SLOAD PUSH1 0x20 DUP5 ADD MLOAD PUSH4 0xFFFFFFFF AND PUSH4 0x1000000 MUL PUSH7 0xFFFFFFFF000000 NOT PUSH3 0xFFFFFF SWAP1 SWAP5 AND PUSH3 0xFFFFFF NOT SWAP1 SWAP3 AND SWAP2 SWAP1 SWAP2 OR SWAP3 SWAP1 SWAP3 AND SWAP2 SWAP1 SWAP2 OR DUP2 SSTORE PUSH1 0x40 DUP1 DUP4 ADD MLOAD PUSH1 0x1 DUP4 ADD SSTORE PUSH1 0x60 DUP4 ADD MLOAD PUSH1 0x2 DUP4 ADD SSTORE PUSH1 0x80 SWAP1 SWAP3 ADD MLOAD PUSH1 0x3 SWAP1 SWAP2 ADD SSTORE MLOAD DUP5 SWAP1 CALLER SWAP1 PUSH32 0xD4C220A036E494DC8D9E171D2A06A37F490EC132E69A1FF788E87D75BA686568 SWAP1 PUSH2 0x1436 SWAP1 DUP7 SWAP1 PUSH2 0x4256 JUMP JUMPDEST DUP1 PUSH1 0xC DUP2 LT PUSH2 0x2952 JUMPI PUSH1 0x40 MLOAD PUSH3 0x461BCD PUSH1 0xE5 SHL DUP2 MSTORE PUSH1 0x4 ADD PUSH2 0x704 SWAP1 PUSH2 0x3EF9 JUMP JUMPDEST PUSH1 0x0 PUSH2 0x295D DUP4 PUSH2 0x199C JUMP JUMPDEST SWAP1 POP PUSH1 0x0 PUSH1 0x4 DUP5 PUSH1 0xC DUP2 LT PUSH2 0x2982 JUMPI PUSH4 0x4E487B71 PUSH1 0xE0 SHL PUSH1 0x0 MSTORE PUSH1 0x32 PUSH1 0x4 MSTORE PUSH1 0x24 PUSH1 0x0 REVERT JUMPDEST PUSH1 0x3 MUL ADD PUSH1 0x40 MLOAD DUP1 PUSH1 0x60 ADD PUSH1 0x40 MSTORE SWAP1 DUP2 PUSH1 0x0 DUP3 ADD DUP1 SLOAD DUP1 PUSH1 0x20 MUL PUSH1 0x20 ADD PUSH1 0x40 MLOAD SWAP1 DUP2 ADD PUSH1 0x40 MSTORE DUP1 SWAP3 SWAP2 SWAP1 DUP2 DUP2 MSTORE PUSH1 0x20 ADD DUP3 DUP1 SLOAD DUP1 ISZERO PUSH2 0x29E0 JUMPI PUSH1 0x20 MUL DUP3 ADD SWAP2 SWAP1 PUSH1 0x0 MSTORE PUSH1 0x20 PUSH1 0x0 KECCAK256 SWAP1 JUMPDEST DUP2 SLOAD DUP2 MSTORE PUSH1 0x20 ADD SWAP1 PUSH1 0x1 ADD SWAP1 DUP1 DUP4 GT PUSH2 0x29CC JUMPI JUMPDEST POP POP POP POP POP DUP2 MSTORE PUSH1 0x20 ADD PUSH1 0x1 DUP3 ADD DUP1 SLOAD DUP1 PUSH1 0x20 MUL PUSH1 0x20 ADD PUSH1 0x40 MLOAD SWAP1 DUP2 ADD PUSH1 0x40 MSTORE DUP1 SWAP3 SWAP2 SWAP1 DUP2 DUP2 MSTORE PUSH1 0x20 ADD PUSH1 0x0 SWAP1 JUMPDEST DUP3 DUP3 LT ISZERO PUSH2 0x2A51 JUMPI PUSH1 0x0 DUP5 DUP2 MSTORE PUSH1 0x20 SWAP1 DUP2 SWAP1 KECCAK256 PUSH1 0x40 DUP1 MLOAD DUP1 DUP3 ADD SWAP1 SWAP2 MSTORE SWAP1 DUP5 ADD SLOAD PUSH2 0xFFFF DUP1 DUP3 AND DUP4 MSTORE PUSH3 0x10000 SWAP1 SWAP2 DIV AND DUP2 DUP4 ADD MSTORE DUP3 MSTORE PUSH1 0x1 SWAP1 SWAP3 ADD SWAP2 ADD PUSH2 0x2A0E JUMP JUMPDEST POP POP POP POP DUP2 MSTORE PUSH1 0x20 ADD PUSH1 0x2 DUP3 ADD DUP1 SLOAD DUP1 PUSH1 0x20 MUL PUSH1 0x20 ADD PUSH1 0x40 MLOAD SWAP1 DUP2 ADD PUSH1 0x40 MSTORE DUP1 SWAP3 SWAP2 SWAP1 DUP2 DUP2 MSTORE PUSH1 0x20 ADD PUSH1 0x0 SWAP1 JUMPDEST DUP3 DUP3 LT ISZERO PUSH2 0x2AC1 JUMPI PUSH1 0x0 DUP5 DUP2 MSTORE PUSH1 0x20 SWAP1 DUP2 SWAP1 KECCAK256 PUSH1 0x40 DUP1 MLOAD DUP1 DUP3 ADD SWAP1 SWAP2 MSTORE SWAP1 DUP5 ADD SLOAD PUSH2 0xFFFF DUP1 DUP3 AND DUP4 MSTORE PUSH3 0x10000 SWAP1 SWAP2 DIV AND DUP2 DUP4 ADD MSTORE DUP3 MSTORE PUSH1 0x1 SWAP1 SWAP3 ADD SWAP2 ADD PUSH2 0x2A7E JUMP JUMPDEST POP POP POP SWAP2 MSTORE POP POP CALLER PUSH1 0x0 SWAP1 DUP2 MSTORE PUSH1 0x2E PUSH1 0x20 MSTORE PUSH1 0x40 DUP2 KECCAK256 SWAP2 SWAP3 POP SWAP1 DUP6 PUSH1 0xC DUP2 LT PUSH2 0x2AFA JUMPI PUSH4 0x4E487B71 PUSH1 0xE0 SHL PUSH1 0x0 MSTORE PUSH1 0x32 PUSH1 0x4 MSTORE PUSH1 0x24 PUSH1 0x0 REVERT JUMPDEST PUSH1 0x40 DUP1 MLOAD PUSH1 0xA0 DUP2 ADD DUP3 MSTORE PUSH1 0x4 SWAP3 SWAP1 SWAP3 MUL SWAP3 SWAP1 SWAP3 ADD DUP1 SLOAD PUSH3 0xFFFFFF DUP2 AND DUP1 DUP5 MSTORE PUSH4 0x1000000 SWAP1 SWAP2 DIV PUSH4 0xFFFFFFFF AND PUSH1 0x20 DUP5 ADD MSTORE PUSH1 0x1 DUP3 ADD SLOAD DUP4 DUP6 ADD MSTORE PUSH1 0x2 DUP3 ADD SLOAD PUSH1 0x60 DUP5 ADD MSTORE PUSH1 0x3 SWAP1 SWAP2 ADD SLOAD PUSH1 0x80 DUP4 ADD MSTORE SWAP2 DUP5 ADD MLOAD DUP1 MLOAD SWAP2 SWAP4 POP PUSH1 0x0 SWAP3 SWAP1 SWAP2 DUP2 LT PUSH2 0x2B74 JUMPI PUSH4 0x4E487B71 PUSH1 0xE0 SHL PUSH1 0x0 MSTORE PUSH1 0x32 PUSH1 0x4 MSTORE PUSH1 0x24 PUSH1 0x0 REVERT JUMPDEST PUSH1 0x20 MUL PUSH1 0x20 ADD ADD MLOAD SWAP1 POP PUSH1 0x0 DUP2 PUSH1 0x20 ADD MLOAD PUSH2 0xFFFF AND DUP3 PUSH1 0x0 ADD MLOAD PUSH2 0xFFFF AND DUP7 PUSH2 0x2B9D SWAP2 SWAP1 PUSH2 0x43CA JUMP JUMPDEST PUSH2 0x2BA7 SWAP2 SWAP1 PUSH2 0x43AA JUMP JUMPDEST SWAP1 POP PUSH1 0x0 PUSH2 0x2BB5 DUP3 DUP8 PUSH2 0x43E9 JUMP JUMPDEST PUSH1 0x40 MLOAD PUSH4 0xA9059CBB PUSH1 0xE0 SHL DUP2 MSTORE SWAP1 SWAP2 POP PUSH1 0x1 PUSH1 0x1 PUSH1 0xA0 SHL SUB PUSH32 0x0 AND SWAP1 PUSH4 0xA9059CBB SWAP1 PUSH2 0x2C06 SWAP1 CALLER SWAP1 DUP6 SWAP1 PUSH1 0x4 ADD PUSH2 0x38DA JUMP JUMPDEST PUSH1 0x20 PUSH1 0x40 MLOAD DUP1 DUP4 SUB DUP2 PUSH1 0x0 DUP8 DUP1 EXTCODESIZE ISZERO DUP1 ISZERO PUSH2 0x2C20 JUMPI PUSH1 0x0 DUP1 REVERT JUMPDEST POP GAS CALL ISZERO DUP1 ISZERO PUSH2 0x2C34 JUMPI RETURNDATASIZE PUSH1 0x0 DUP1 RETURNDATACOPY RETURNDATASIZE PUSH1 0x0 REVERT JUMPDEST POP POP POP POP PUSH1 0x40 MLOAD RETURNDATASIZE PUSH1 0x1F NOT PUSH1 0x1F DUP3 ADD AND DUP3 ADD DUP1 PUSH1 0x40 MSTORE POP DUP2 ADD SWAP1 PUSH2 0x2C58 SWAP2 SWAP1 PUSH2 0x36B0 JUMP JUMPDEST POP DUP1 DUP5 PUSH1 0x80 ADD DUP2 DUP2 MLOAD PUSH2 0x2C6B SWAP2 SWAP1 PUSH2 0x436A JUMP JUMPDEST SWAP1 MSTORE POP PUSH4 0xFFFFFFFF TIMESTAMP AND PUSH1 0x20 DUP1 DUP7 ADD SWAP2 SWAP1 SWAP2 MSTORE CALLER PUSH1 0x0 SWAP1 DUP2 MSTORE PUSH1 0x2E SWAP1 SWAP2 MSTORE PUSH1 0x40 SWAP1 KECCAK256 DUP5 SWAP1 DUP10 PUSH1 0xC DUP2 LT PUSH2 0x2CAE JUMPI PUSH4 0x4E487B71 PUSH1 0xE0 SHL PUSH1 0x0 MSTORE PUSH1 0x32 PUSH1 0x4 MSTORE PUSH1 0x24 PUSH1 0x0 REVERT JUMPDEST DUP3 MLOAD PUSH1 0x4 SWAP2 SWAP1 SWAP2 MUL SWAP2 SWAP1 SWAP2 ADD DUP1 SLOAD PUSH1 0x20 DUP5 ADD MLOAD PUSH4 0xFFFFFFFF AND PUSH4 0x1000000 MUL PUSH7 0xFFFFFFFF000000 NOT PUSH3 0xFFFFFF SWAP1 SWAP5 AND PUSH3 0xFFFFFF NOT SWAP1 SWAP3 AND SWAP2 SWAP1 SWAP2 OR SWAP3 SWAP1 SWAP3 AND SWAP2 SWAP1 SWAP2 OR DUP2 SSTORE PUSH1 0x40 DUP1 DUP4 ADD MLOAD PUSH1 0x1 DUP4 ADD SSTORE PUSH1 0x60 DUP4 ADD MLOAD PUSH1 0x2 DUP4 ADD SSTORE PUSH1 0x80 SWAP1 SWAP3 ADD MLOAD PUSH1 0x3 SWAP1 SWAP2 ADD SSTORE MLOAD DUP9 SWAP1 CALLER SWAP1 PUSH32 0x888F19217DDAD5C6A51226C6812ABE28B4400E72206C3B170AE84829BD03A7A0 SWAP1 PUSH2 0x2D46 SWAP1 DUP11 SWAP1 PUSH2 0x4256 JUMP JUMPDEST PUSH1 0x40 MLOAD DUP1 SWAP2 SUB SWAP1 LOG3 POP POP POP POP POP POP POP POP JUMP JUMPDEST PUSH1 0x1 PUSH1 0x1 PUSH1 0xA0 SHL SUB AND PUSH1 0x0 SWAP1 DUP2 MSTORE PUSH1 0x1 PUSH1 0x20 MSTORE PUSH1 0x40 SWAP1 KECCAK256 SLOAD PUSH1 0xFF AND SWAP1 JUMP JUMPDEST PUSH1 0x1 PUSH1 0x1 PUSH1 0xA0 SHL SUB DUP3 AND PUSH1 0x0 SWAP1 DUP2 MSTORE PUSH1 0x2E PUSH1 0x20 MSTORE PUSH1 0x40 DUP2 KECCAK256 DUP2 SWAP1 DUP4 PUSH1 0xC DUP2 LT PUSH2 0x2DAF JUMPI PUSH4 0x4E487B71 PUSH1 0xE0 SHL PUSH1 0x0 MSTORE PUSH1 0x32 PUSH1 0x4 MSTORE PUSH1 0x24 PUSH1 0x0 REVERT JUMPDEST PUSH1 0x40 DUP1 MLOAD PUSH1 0xA0 DUP2 ADD DUP3 MSTORE PUSH1 0x4 SWAP3 SWAP1 SWAP3 MUL SWAP3 SWAP1 SWAP3 ADD DUP1 SLOAD PUSH3 0xFFFFFF DUP2 AND DUP4 MSTORE PUSH4 0x1000000 SWAP1 DIV PUSH4 0xFFFFFFFF AND PUSH1 0x20 DUP4 ADD DUP2 SWAP1 MSTORE PUSH1 0x1 DUP3 ADD SLOAD SWAP4 DUP4 ADD SWAP4 SWAP1 SWAP4 MSTORE PUSH1 0x2 DUP2 ADD SLOAD PUSH1 0x60 DUP4 ADD MSTORE PUSH1 0x3 ADD SLOAD PUSH1 0x80 DUP3 ADD MSTORE SWAP2 POP PUSH1 0x0 SWAP1 PUSH2 0x2E0F SWAP1 TIMESTAMP PUSH2 0x43E9 JUMP JUMPDEST SWAP1 POP DUP1 PUSH2 0x2E21 JUMPI PUSH1 0x0 SWAP3 POP POP POP PUSH2 0xBDC JUMP JUMPDEST PUSH1 0x0 PUSH1 0x4 DUP6 PUSH1 0xC DUP2 LT PUSH2 0x2E44 JUMPI PUSH4 0x4E487B71 PUSH1 0xE0 SHL PUSH1 0x0 MSTORE PUSH1 0x32 PUSH1 0x4 MSTORE PUSH1 0x24 PUSH1 0x0 REVERT JUMPDEST PUSH1 0x3 MUL ADD PUSH1 0x1 ADD DUP4 PUSH1 0x0 ADD MLOAD PUSH3 0xFFFFFF AND DUP2 SLOAD DUP2 LT PUSH2 0x2E73 JUMPI PUSH4 0x4E487B71 PUSH1 0xE0 SHL PUSH1 0x0 MSTORE PUSH1 0x32 PUSH1 0x4 MSTORE PUSH1 0x24 PUSH1 0x0 REVERT JUMPDEST PUSH1 0x0 SWAP2 DUP3 MSTORE PUSH1 0x20 DUP1 DUP4 KECCAK256 PUSH1 0x40 DUP1 MLOAD DUP1 DUP3 ADD SWAP1 SWAP2 MSTORE SWAP3 ADD SLOAD PUSH2 0xFFFF DUP1 DUP3 AND DUP5 MSTORE PUSH3 0x10000 SWAP1 SWAP2 DIV AND SWAP1 DUP3 ADD MSTORE PUSH1 0x3 SLOAD SWAP1 SWAP3 POP PUSH5 0xFFFFFFFFFF AND DUP4 GT PUSH2 0x2EB7 JUMPI DUP3 PUSH2 0x2EC2 JUMP JUMPDEST PUSH1 0x3 SLOAD PUSH5 0xFFFFFFFFFF AND JUMPDEST SWAP1 POP PUSH1 0x0 PUSH2 0x2ED5 DUP6 PUSH1 0x40 ADD MLOAD DUP4 DUP6 PUSH2 0x1DB8 JUMP JUMPDEST PUSH1 0x29 SLOAD SWAP1 SWAP2 POP PUSH1 0xFF AND ISZERO PUSH2 0x1E45 JUMPI PUSH1 0x1 PUSH1 0x1 PUSH1 0xA0 SHL SUB DUP9 AND PUSH1 0x0 SWAP1 DUP2 MSTORE PUSH1 0x2F PUSH1 0x20 SWAP1 DUP2 MSTORE PUSH1 0x40 SWAP2 DUP3 SWAP1 KECCAK256 DUP3 MLOAD PUSH1 0x80 DUP2 ADD DUP5 MSTORE DUP2 SLOAD PUSH4 0xFFFFFFFF DUP1 DUP3 AND DUP4 MSTORE PUSH5 0x100000000 SWAP1 SWAP2 DIV AND DUP2 DUP5 ADD SWAP1 DUP2 MSTORE PUSH1 0x1 DUP4 ADD SLOAD DUP3 DUP7 ADD MSTORE DUP5 MLOAD DUP1 DUP7 ADD SWAP1 SWAP6 MSTORE PUSH1 0x2 SWAP1 SWAP3 ADD SLOAD PUSH2 0xFFFF DUP1 DUP3 AND DUP7 MSTORE PUSH3 0x10000 SWAP1 SWAP2 DIV AND SWAP3 DUP5 ADD SWAP3 SWAP1 SWAP3 MSTORE PUSH1 0x60 DUP3 ADD SWAP3 SWAP1 SWAP3 MSTORE SWAP1 MLOAD DUP2 MLOAD TIMESTAMP SWAP2 PUSH2 0x2F68 SWAP2 PUSH2 0x4382 JUMP JUMPDEST PUSH4 0xFFFFFFFF AND GT ISZERO PUSH2 0x2FAF JUMPI PUSH1 0x60 DUP2 ADD MLOAD PUSH1 0x20 DUP2 ADD MLOAD SWAP1 MLOAD PUSH1 0x0 SWAP2 PUSH2 0xFFFF SWAP1 DUP2 AND SWAP2 PUSH2 0x2F95 SWAP2 AND DUP6 PUSH2 0x43CA JUMP JUMPDEST PUSH2 0x2F9F SWAP2 SWAP1 PUSH2 0x43AA JUMP JUMPDEST SWAP1 POP PUSH2 0x2FAB DUP2 DUP5 PUSH2 0x436A JUMP JUMPDEST SWAP3 POP POP JUMPDEST POP SWAP8 SWAP7 POP POP POP POP POP POP POP JUMP JUMPDEST PUSH1 0x1 PUSH1 0x1 PUSH1 0xA0 SHL SUB DUP4 AND PUSH2 0x2FE1 JUMPI PUSH1 0x40 MLOAD PUSH3 0x461BCD PUSH1 0xE5 SHL DUP2 MSTORE PUSH1 0x4 ADD PUSH2 0x704 SWAP1 PUSH2 0x3951 JUMP JUMPDEST PUSH1 0x1 PUSH1 0x1 PUSH1 0xA0 SHL SUB DUP3 AND PUSH2 0x3007 JUMPI PUSH1 0x40 MLOAD PUSH3 0x461BCD PUSH1 0xE5 SHL DUP2 MSTORE PUSH1 0x4 ADD PUSH2 0x704 SWAP1 PUSH2 0x3FC4 JUMP JUMPDEST PUSH1 0x0 DUP2 GT PUSH2 0x3027 JUMPI PUSH1 0x40 MLOAD PUSH3 0x461BCD PUSH1 0xE5 SHL DUP2 MSTORE PUSH1 0x4 ADD PUSH2 0x704 SWAP1 PUSH2 0x3B8E JUMP JUMPDEST PUSH1 0x1 PUSH1 0x1 PUSH1 0xA0 SHL SUB DUP4 AND PUSH1 0x0 SWAP1 DUP2 MSTORE PUSH1 0x2C PUSH1 0x20 MSTORE PUSH1 0x40 SWAP1 KECCAK256 SLOAD DUP2 DUP2 LT ISZERO PUSH2 0x3060 JUMPI PUSH1 0x40 MLOAD PUSH3 0x461BCD PUSH1 0xE5 SHL DUP2 MSTORE PUSH1 0x4 ADD PUSH2 0x704 SWAP1 PUSH2 0x40B5 JUMP JUMPDEST PUSH1 0x1 PUSH1 0x1 PUSH1 0xA0 SHL SUB DUP1 DUP6 AND PUSH1 0x0 DUP2 DUP2 MSTORE PUSH1 0x2C PUSH1 0x20 MSTORE PUSH1 0x40 DUP1 DUP3 KECCAK256 DUP7 DUP7 SUB SWAP1 SSTORE SWAP3 DUP7 AND DUP1 DUP3 MSTORE SWAP1 DUP4 SWAP1 KECCAK256 DUP1 SLOAD DUP7 ADD SWAP1 SSTORE SWAP2 MLOAD PUSH32 0xDDF252AD1BE2C89B69C2B068FC378DAA952BA7F163C4A11628F55A4DF523B3EF SWAP1 PUSH2 0x1436 SWAP1 DUP7 SWAP1 PUSH2 0x4256 JUMP JUMPDEST PUSH1 0x1 PUSH1 0x1 PUSH1 0xA0 SHL SUB DUP4 AND PUSH1 0x0 SWAP1 DUP2 MSTORE PUSH1 0x2E PUSH1 0x20 MSTORE PUSH1 0x40 DUP2 KECCAK256 DUP6 PUSH1 0xC DUP2 LT PUSH2 0x30F5 JUMPI PUSH4 0x4E487B71 PUSH1 0xE0 SHL PUSH1 0x0 MSTORE PUSH1 0x32 PUSH1 0x4 MSTORE PUSH1 0x24 PUSH1 0x0 REVERT JUMPDEST PUSH1 0x40 DUP1 MLOAD PUSH1 0xA0 DUP2 ADD DUP3 MSTORE PUSH1 0x4 SWAP3 SWAP1 SWAP3 MUL SWAP3 SWAP1 SWAP3 ADD DUP1 SLOAD PUSH3 0xFFFFFF DUP2 AND DUP1 DUP5 MSTORE PUSH4 0x1000000 SWAP1 SWAP2 DIV PUSH4 0xFFFFFFFF AND PUSH1 0x20 DUP5 ADD MSTORE PUSH1 0x1 DUP3 ADD SLOAD SWAP4 DUP4 ADD SWAP4 SWAP1 SWAP4 MSTORE PUSH1 0x2 DUP2 ADD SLOAD PUSH1 0x60 DUP4 ADD MSTORE PUSH1 0x3 ADD SLOAD PUSH1 0x80 DUP3 ADD MSTORE SWAP2 POP PUSH2 0x3164 JUMPI PUSH1 0x40 MLOAD PUSH3 0x461BCD PUSH1 0xE5 SHL DUP2 MSTORE PUSH1 0x4 ADD PUSH2 0x704 SWAP1 PUSH2 0x3F30 JUMP JUMPDEST DUP3 DUP2 PUSH1 0x40 ADD DUP2 DUP2 MLOAD PUSH2 0x3176 SWAP2 SWAP1 PUSH2 0x436A JUMP JUMPDEST SWAP1 MSTORE POP DUP1 MLOAD PUSH2 0x318B SWAP1 DUP7 SWAP1 PUSH3 0xFFFFFF AND PUSH2 0x115B JUMP JUMPDEST ISZERO PUSH2 0x31C9 JUMPI PUSH1 0x0 PUSH2 0x31A5 DUP7 DUP4 PUSH1 0x0 ADD MLOAD PUSH3 0xFFFFFF AND PUSH2 0xEE7 JUMP JUMPDEST SWAP1 POP DUP1 DUP3 PUSH1 0x40 ADD MLOAD LT PUSH2 0x31C7 JUMPI DUP2 MLOAD DUP3 PUSH2 0x31BE DUP3 PUSH2 0x448E JUMP JUMPDEST PUSH3 0xFFFFFF AND SWAP1 MSTORE POP JUMPDEST POP JUMPDEST DUP2 ISZERO PUSH2 0x31F1 JUMPI DUP3 DUP2 PUSH1 0x60 ADD DUP2 DUP2 MLOAD PUSH2 0x31E1 SWAP2 SWAP1 PUSH2 0x436A JUMP JUMPDEST SWAP1 MSTORE POP PUSH4 0xFFFFFFFF TIMESTAMP AND PUSH1 0x20 DUP3 ADD MSTORE JUMPDEST PUSH1 0x1 PUSH1 0x1 PUSH1 0xA0 SHL SUB DUP5 AND PUSH1 0x0 SWAP1 DUP2 MSTORE PUSH1 0x2E PUSH1 0x20 MSTORE PUSH1 0x40 SWAP1 KECCAK256 DUP2 SWAP1 DUP7 PUSH1 0xC DUP2 LT PUSH2 0x322A JUMPI PUSH4 0x4E487B71 PUSH1 0xE0 SHL PUSH1 0x0 MSTORE PUSH1 0x32 PUSH1 0x4 MSTORE PUSH1 0x24 PUSH1 0x0 REVERT JUMPDEST DUP3 MLOAD PUSH1 0x4 SWAP2 SWAP1 SWAP2 MUL SWAP2 SWAP1 SWAP2 ADD DUP1 SLOAD PUSH1 0x20 DUP5 ADD MLOAD PUSH4 0xFFFFFFFF AND PUSH4 0x1000000 MUL PUSH7 0xFFFFFFFF000000 NOT PUSH3 0xFFFFFF SWAP1 SWAP5 AND PUSH3 0xFFFFFF NOT SWAP1 SWAP3 AND SWAP2 SWAP1 SWAP2 OR SWAP3 SWAP1 SWAP3 AND SWAP2 SWAP1 SWAP2 OR DUP2 SSTORE PUSH1 0x40 DUP3 ADD MLOAD PUSH1 0x1 DUP3 ADD SSTORE PUSH1 0x60 DUP3 ADD MLOAD PUSH1 0x2 DUP3 ADD SSTORE PUSH1 0x80 SWAP1 SWAP2 ADD MLOAD PUSH1 0x3 SWAP1 SWAP2 ADD SSTORE POP POP POP POP POP JUMP JUMPDEST PUSH1 0x40 MLOAD PUSH32 0x23B872DD00000000000000000000000000000000000000000000000000000000 DUP2 MSTORE PUSH1 0x1 PUSH1 0x1 PUSH1 0xA0 SHL SUB PUSH32 0x0 AND SWAP1 PUSH4 0x23B872DD SWAP1 PUSH2 0x32FF SWAP1 CALLER SWAP1 ADDRESS SWAP1 DUP7 SWAP1 PUSH1 0x4 ADD PUSH2 0x38B6 JUMP JUMPDEST PUSH1 0x20 PUSH1 0x40 MLOAD DUP1 DUP4 SUB DUP2 PUSH1 0x0 DUP8 DUP1 EXTCODESIZE ISZERO DUP1 ISZERO PUSH2 0x3319 JUMPI PUSH1 0x0 DUP1 REVERT JUMPDEST POP GAS CALL ISZERO DUP1 ISZERO PUSH2 0x332D JUMPI RETURNDATASIZE PUSH1 0x0 DUP1 RETURNDATACOPY RETURNDATASIZE PUSH1 0x0 REVERT JUMPDEST POP POP POP POP PUSH1 0x40 MLOAD RETURNDATASIZE PUSH1 0x1F NOT PUSH1 0x1F DUP3 ADD AND DUP3 ADD DUP1 PUSH1 0x40 MSTORE POP DUP2 ADD SWAP1 PUSH2 0x3351 SWAP2 SWAP1 PUSH2 0x36B0 JUMP JUMPDEST PUSH2 0x335A JUMPI PUSH1 0x0 DUP1 REVERT JUMPDEST CALLER PUSH1 0x0 SWAP1 DUP2 MSTORE PUSH1 0x2C PUSH1 0x20 SWAP1 DUP2 MSTORE PUSH1 0x40 DUP1 DUP4 KECCAK256 DUP1 SLOAD DUP6 ADD SWAP1 SSTORE PUSH1 0x30 SWAP1 SWAP2 MSTORE SWAP1 KECCAK256 SLOAD PUSH1 0x1 PUSH1 0x1 PUSH1 0xA0 SHL SUB AND ISZERO PUSH2 0x33F0 JUMPI PUSH1 0x2B SLOAD PUSH1 0x0 SWAP1 PUSH2 0xFFFF PUSH3 0x10000 DUP3 DIV DUP2 AND SWAP2 PUSH2 0x33A5 SWAP2 AND DUP5 PUSH2 0x43CA JUMP JUMPDEST PUSH2 0x33AF SWAP2 SWAP1 PUSH2 0x43AA JUMP JUMPDEST CALLER PUSH1 0x0 SWAP1 DUP2 MSTORE PUSH1 0x30 PUSH1 0x20 SWAP1 DUP2 MSTORE PUSH1 0x40 DUP1 DUP4 KECCAK256 SLOAD PUSH1 0x1 PUSH1 0x1 PUSH1 0xA0 SHL SUB AND DUP4 MSTORE PUSH1 0x2C SWAP1 SWAP2 MSTORE DUP2 KECCAK256 DUP1 SLOAD SWAP3 SWAP4 POP DUP4 SWAP3 SWAP1 SWAP2 SWAP1 PUSH2 0x33E9 SWAP1 DUP5 SWAP1 PUSH2 0x436A JUMP JUMPDEST SWAP1 SWAP2 SSTORE POP POP POP JUMPDEST CALLER PUSH1 0x1 PUSH1 0x1 PUSH1 0xA0 SHL SUB AND PUSH32 0x9B5CE49FFBC992EE67BAAD9481FF227141A5C0C1A324C22392A4581857D3E215 DUP3 PUSH1 0x40 MLOAD PUSH2 0x3429 SWAP2 SWAP1 PUSH2 0x4256 JUMP JUMPDEST PUSH1 0x40 MLOAD DUP1 SWAP2 SUB SWAP1 LOG2 POP JUMP JUMPDEST PUSH1 0x40 MLOAD DUP1 PUSH1 0x80 ADD PUSH1 0x40 MSTORE DUP1 PUSH1 0x0 PUSH4 0xFFFFFFFF AND DUP2 MSTORE PUSH1 0x20 ADD PUSH1 0x0 PUSH4 0xFFFFFFFF AND DUP2 MSTORE PUSH1 0x20 ADD PUSH1 0x0 DUP2 MSTORE PUSH1 0x20 ADD PUSH2 0x3468 PUSH2 0x34C8 JUMP JUMPDEST SWAP1 MSTORE SWAP1 JUMP JUMPDEST PUSH1 0x40 MLOAD DUP1 PUSH1 0x60 ADD PUSH1 0x40 MSTORE DUP1 PUSH1 0x60 DUP2 MSTORE PUSH1 0x20 ADD PUSH1 0x60 DUP2 MSTORE PUSH1 0x20 ADD PUSH1 0x60 DUP2 MSTORE POP SWAP1 JUMP JUMPDEST PUSH1 0x40 MLOAD DUP1 PUSH1 0xA0 ADD PUSH1 0x40 MSTORE DUP1 PUSH1 0x0 PUSH3 0xFFFFFF AND DUP2 MSTORE PUSH1 0x20 ADD PUSH1 0x0 PUSH4 0xFFFFFFFF AND DUP2 MSTORE PUSH1 0x20 ADD PUSH1 0x0 DUP2 MSTORE PUSH1 0x20 ADD PUSH1 0x0 DUP2 MSTORE PUSH1 0x20 ADD PUSH1 0x0 DUP2 MSTORE POP SWAP1 JUMP JUMPDEST PUSH1 0x40 DUP1 MLOAD DUP1 DUP3 ADD SWAP1 SWAP2 MSTORE PUSH1 0x0 DUP1 DUP3 MSTORE PUSH1 0x20 DUP3 ADD MSTORE SWAP1 JUMP JUMPDEST PUSH1 0x0 DUP1 DUP4 PUSH1 0x1F DUP5 ADD SLT PUSH2 0x34F0 JUMPI DUP2 DUP3 REVERT JUMPDEST POP DUP2 CALLDATALOAD PUSH8 0xFFFFFFFFFFFFFFFF DUP2 GT ISZERO PUSH2 0x3507 JUMPI DUP2 DUP3 REVERT JUMPDEST PUSH1 0x20 DUP4 ADD SWAP2 POP DUP4 PUSH1 0x20 DUP1 DUP4 MUL DUP6 ADD ADD GT ISZERO PUSH2 0x3521 JUMPI PUSH1 0x0 DUP1 REVERT JUMPDEST SWAP3 POP SWAP3 SWAP1 POP JUMP JUMPDEST PUSH1 0x0 PUSH1 0xA0 DUP3 DUP5 SUB SLT ISZERO PUSH2 0x3539 JUMPI DUP1 DUP2 REVERT JUMPDEST POP SWAP2 SWAP1 POP JUMP JUMPDEST PUSH1 0x0 PUSH1 0x20 DUP3 DUP5 SUB SLT ISZERO PUSH2 0x3550 JUMPI DUP1 DUP2 REVERT JUMPDEST DUP2 CALLDATALOAD PUSH2 0x19C9 DUP2 PUSH2 0x4759 JUMP JUMPDEST PUSH1 0x0 DUP1 PUSH1 0x40 DUP4 DUP6 SUB SLT ISZERO PUSH2 0x356D JUMPI DUP1 DUP2 REVERT JUMPDEST DUP3 CALLDATALOAD PUSH2 0x3578 DUP2 PUSH2 0x4759 JUMP JUMPDEST SWAP2 POP PUSH1 0x20 DUP4 ADD CALLDATALOAD PUSH2 0x3588 DUP2 PUSH2 0x4759 JUMP JUMPDEST DUP1 SWAP2 POP POP SWAP3 POP SWAP3 SWAP1 POP JUMP JUMPDEST PUSH1 0x0 DUP1 PUSH1 0x0 PUSH1 0x60 DUP5 DUP7 SUB SLT ISZERO PUSH2 0x35A7 JUMPI DUP1 DUP2 REVERT JUMPDEST DUP4 CALLDATALOAD PUSH2 0x35B2 DUP2 PUSH2 0x4759 JUMP JUMPDEST SWAP3 POP PUSH1 0x20 DUP5 ADD CALLDATALOAD PUSH2 0x35C2 DUP2 PUSH2 0x4759 JUMP JUMPDEST SWAP3 SWAP6 SWAP3 SWAP5 POP POP POP PUSH1 0x40 SWAP2 SWAP1 SWAP2 ADD CALLDATALOAD SWAP1 JUMP JUMPDEST PUSH1 0x0 DUP1 PUSH1 0x40 DUP4 DUP6 SUB SLT ISZERO PUSH2 0x35E5 JUMPI DUP2 DUP3 REVERT JUMPDEST DUP3 CALLDATALOAD PUSH2 0x35F0 DUP2 PUSH2 0x4759 JUMP JUMPDEST SWAP2 POP PUSH1 0x20 DUP4 ADD CALLDATALOAD PUSH2 0x3588 DUP2 PUSH2 0x476E JUMP JUMPDEST PUSH1 0x0 DUP1 PUSH1 0x40 DUP4 DUP6 SUB SLT ISZERO PUSH2 0x3612 JUMPI DUP2 DUP3 REVERT JUMPDEST DUP3 CALLDATALOAD PUSH2 0x361D DUP2 PUSH2 0x4759 JUMP JUMPDEST SWAP5 PUSH1 0x20 SWAP4 SWAP1 SWAP4 ADD CALLDATALOAD SWAP4 POP POP POP JUMP JUMPDEST PUSH1 0x0 DUP1 PUSH1 0x0 DUP1 PUSH1 0x40 DUP6 DUP8 SUB SLT ISZERO PUSH2 0x3640 JUMPI DUP1 DUP2 REVERT JUMPDEST DUP5 CALLDATALOAD PUSH8 0xFFFFFFFFFFFFFFFF DUP1 DUP3 GT ISZERO PUSH2 0x3657 JUMPI DUP3 DUP4 REVERT JUMPDEST PUSH2 0x3663 DUP9 DUP4 DUP10 ADD PUSH2 0x34DF JUMP JUMPDEST SWAP1 SWAP7 POP SWAP5 POP PUSH1 0x20 DUP8 ADD CALLDATALOAD SWAP2 POP DUP1 DUP3 GT ISZERO PUSH2 0x367B JUMPI DUP3 DUP4 REVERT JUMPDEST POP PUSH2 0x3688 DUP8 DUP3 DUP9 ADD PUSH2 0x34DF JUMP JUMPDEST SWAP6 SWAP9 SWAP5 SWAP8 POP SWAP6 POP POP POP POP JUMP JUMPDEST PUSH1 0x0 PUSH1 0x20 DUP3 DUP5 SUB SLT ISZERO PUSH2 0x36A5 JUMPI DUP1 DUP2 REVERT JUMPDEST DUP2 CALLDATALOAD PUSH2 0x19C9 DUP2 PUSH2 0x476E JUMP JUMPDEST PUSH1 0x0 PUSH1 0x20 DUP3 DUP5 SUB SLT ISZERO PUSH2 0x36C1 JUMPI DUP1 DUP2 REVERT JUMPDEST DUP2 MLOAD PUSH2 0x19C9 DUP2 PUSH2 0x476E JUMP JUMPDEST PUSH1 0x0 PUSH1 0xA0 DUP3 DUP5 SUB SLT ISZERO PUSH2 0x36DD JUMPI DUP1 DUP2 REVERT JUMPDEST PUSH2 0x19C9 DUP4 DUP4 PUSH2 0x3528 JUMP JUMPDEST PUSH1 0x0 PUSH1 0x40 DUP3 DUP5 SUB SLT ISZERO PUSH2 0x3539 JUMPI DUP1 DUP2 REVERT JUMPDEST PUSH1 0x0 PUSH1 0x20 DUP3 DUP5 SUB SLT ISZERO PUSH2 0x3709 JUMPI DUP1 DUP2 REVERT JUMPDEST POP CALLDATALOAD SWAP2 SWAP1 POP JUMP JUMPDEST PUSH1 0x0 DUP1 PUSH1 0x40 DUP4 DUP6 SUB SLT ISZERO PUSH2 0x3722 JUMPI DUP2 DUP3 REVERT JUMPDEST DUP3 CALLDATALOAD SWAP2 POP PUSH1 0x20 DUP4 ADD CALLDATALOAD PUSH2 0x3588 DUP2 PUSH2 0x4759 JUMP JUMPDEST PUSH1 0x0 DUP1 PUSH1 0xC0 DUP4 DUP6 SUB SLT ISZERO PUSH2 0x3746 JUMPI DUP2 DUP3 REVERT JUMPDEST DUP3 CALLDATALOAD SWAP2 POP PUSH2 0x3757 DUP5 PUSH1 0x20 DUP6 ADD PUSH2 0x3528 JUMP JUMPDEST SWAP1 POP SWAP3 POP SWAP3 SWAP1 POP JUMP JUMPDEST PUSH1 0x0 DUP1 PUSH1 0x40 DUP4 DUP6 SUB SLT ISZERO PUSH2 0x3772 JUMPI DUP2 DUP3 REVERT JUMPDEST DUP3 CALLDATALOAD SWAP2 POP PUSH1 0x20 DUP4 ADD CALLDATALOAD PUSH8 0xFFFFFFFFFFFFFFFF DUP2 GT ISZERO PUSH2 0x378F JUMPI DUP2 DUP3 REVERT JUMPDEST DUP4 ADD PUSH1 0x60 DUP2 DUP7 SUB SLT ISZERO PUSH2 0x3588 JUMPI DUP2 DUP3 REVERT JUMPDEST PUSH1 0x0 DUP1 PUSH1 0x40 DUP4 DUP6 SUB SLT ISZERO PUSH2 0x37B2 JUMPI DUP2 DUP3 REVERT JUMPDEST POP POP DUP1 CALLDATALOAD SWAP3 PUSH1 0x20 SWAP1 SWAP2 ADD CALLDATALOAD SWAP2 POP JUMP JUMPDEST PUSH1 0x0 DUP1 PUSH1 0x0 DUP4 DUP6 SUB PUSH1 0x80 DUP2 SLT ISZERO PUSH2 0x37D6 JUMPI DUP2 DUP3 REVERT JUMPDEST DUP5 CALLDATALOAD SWAP4 POP PUSH1 0x20 DUP6 ADD CALLDATALOAD SWAP3 POP PUSH1 0x40 PUSH1 0x3F NOT DUP3 ADD SLT ISZERO PUSH2 0x37F2 JUMPI DUP2 DUP3 REVERT JUMPDEST POP PUSH1 0x40 MLOAD PUSH1 0x40 DUP2 ADD DUP2 DUP2 LT PUSH8 0xFFFFFFFFFFFFFFFF DUP3 GT OR ISZERO PUSH2 0x3816 JUMPI PUSH2 0x3816 PUSH2 0x44E2 JUMP JUMPDEST PUSH1 0x40 SWAP1 DUP2 MSTORE DUP6 ADD CALLDATALOAD PUSH2 0x3827 DUP2 PUSH2 0x477C JUMP JUMPDEST DUP2 MSTORE PUSH1 0x60 DUP6 ADD CALLDATALOAD PUSH2 0x3837 DUP2 PUSH2 0x477C JUMP JUMPDEST PUSH1 0x20 DUP3 ADD MSTORE SWAP3 SWAP6 SWAP2 SWAP5 POP SWAP2 SWAP3 POP SWAP1 POP JUMP JUMPDEST PUSH1 0x0 DUP2 MLOAD DUP1 DUP5 MSTORE PUSH1 0x20 DUP1 DUP6 ADD SWAP5 POP DUP1 DUP5 ADD DUP4 JUMPDEST DUP4 DUP2 LT ISZERO PUSH2 0x3881 JUMPI PUSH2 0x386E DUP8 DUP4 MLOAD PUSH2 0x388C JUMP JUMPDEST PUSH1 0x40 SWAP7 SWAP1 SWAP7 ADD SWAP6 SWAP1 DUP3 ADD SWAP1 PUSH1 0x1 ADD PUSH2 0x385B JUMP JUMPDEST POP SWAP5 SWAP6 SWAP5 POP POP POP POP POP JUMP JUMPDEST DUP1 MLOAD PUSH2 0xFFFF SWAP1 DUP2 AND DUP4 MSTORE PUSH1 0x20 SWAP2 DUP3 ADD MLOAD AND SWAP2 ADD MSTORE JUMP JUMPDEST PUSH1 0x1 PUSH1 0x1 PUSH1 0xA0 SHL SUB SWAP2 SWAP1 SWAP2 AND DUP2 MSTORE PUSH1 0x20 ADD SWAP1 JUMP JUMPDEST PUSH1 0x1 PUSH1 0x1 PUSH1 0xA0 SHL SUB SWAP4 DUP5 AND DUP2 MSTORE SWAP2 SWAP1 SWAP3 AND PUSH1 0x20 DUP3 ADD MSTORE PUSH1 0x40 DUP2 ADD SWAP2 SWAP1 SWAP2 MSTORE PUSH1 0x60 ADD SWAP1 JUMP JUMPDEST PUSH1 0x1 PUSH1 0x1 PUSH1 0xA0 SHL SUB SWAP3 SWAP1 SWAP3 AND DUP3 MSTORE PUSH1 0x20 DUP3 ADD MSTORE PUSH1 0x40 ADD SWAP1 JUMP JUMPDEST SWAP1 ISZERO ISZERO DUP2 MSTORE PUSH1 0x20 ADD SWAP1 JUMP JUMPDEST PUSH1 0x0 PUSH1 0x20 DUP1 DUP4 MSTORE DUP4 MLOAD DUP1 DUP3 DUP6 ADD MSTORE DUP3 JUMPDEST DUP2 DUP2 LT ISZERO PUSH2 0x392A JUMPI DUP6 DUP2 ADD DUP4 ADD MLOAD DUP6 DUP3 ADD PUSH1 0x40 ADD MSTORE DUP3 ADD PUSH2 0x390E JUMP JUMPDEST DUP2 DUP2 GT ISZERO PUSH2 0x393B JUMPI DUP4 PUSH1 0x40 DUP4 DUP8 ADD ADD MSTORE JUMPDEST POP PUSH1 0x1F ADD PUSH1 0x1F NOT AND SWAP3 SWAP1 SWAP3 ADD PUSH1 0x40 ADD SWAP4 SWAP3 POP POP POP JUMP JUMPDEST PUSH1 0x20 DUP1 DUP3 MSTORE PUSH1 0x29 SWAP1 DUP3 ADD MSTORE PUSH32 0x4661726D4275636B3A207472616E736665722066726F6D20746865207A65726F PUSH1 0x40 DUP3 ADD MSTORE PUSH32 0x20616464726573732E0000000000000000000000000000000000000000000000 PUSH1 0x60 DUP3 ADD MSTORE PUSH1 0x80 ADD SWAP1 JUMP JUMPDEST PUSH1 0x20 DUP1 DUP3 MSTORE PUSH1 0x33 SWAP1 DUP3 ADD MSTORE PUSH32 0x5969656C642077726F6E673A2054726565206E6565647320746F206861766520 PUSH1 0x40 DUP3 ADD MSTORE PUSH32 0x6174206C65617374206F6E65206C6576656C2E00000000000000000000000000 PUSH1 0x60 DUP3 ADD MSTORE PUSH1 0x80 ADD SWAP1 JUMP JUMPDEST PUSH1 0x20 DUP1 DUP3 MSTORE PUSH1 0x22 SWAP1 DUP3 ADD MSTORE PUSH32 0x426F6F737420617265206E6F742063757272656E746C7920617661696C61626C PUSH1 0x40 DUP3 ADD MSTORE PUSH32 0x652E000000000000000000000000000000000000000000000000000000000000 PUSH1 0x60 DUP3 ADD MSTORE PUSH1 0x80 ADD SWAP1 JUMP JUMPDEST PUSH1 0x20 DUP1 DUP3 MSTORE DUP2 DUP2 ADD MSTORE PUSH32 0x596F7520646F206E6F74206F776E20656E6F756768206661726D6275636B732E PUSH1 0x40 DUP3 ADD MSTORE PUSH1 0x60 ADD SWAP1 JUMP JUMPDEST PUSH1 0x20 DUP1 DUP3 MSTORE PUSH1 0x29 SWAP1 DUP3 ADD MSTORE PUSH32 0x596F7520646F206E6F74206F776E20656E6F756768206661726D6275636B7320 PUSH1 0x40 DUP3 ADD MSTORE PUSH32 0x746F20626F6F73742E0000000000000000000000000000000000000000000000 PUSH1 0x60 DUP3 ADD MSTORE PUSH1 0x80 ADD SWAP1 JUMP JUMPDEST PUSH1 0x20 DUP1 DUP3 MSTORE PUSH1 0x14 SWAP1 DUP3 ADD MSTORE PUSH32 0x496E76616C6964206C6576656C2071756572792E000000000000000000000000 PUSH1 0x40 DUP3 ADD MSTORE PUSH1 0x60 ADD SWAP1 JUMP JUMPDEST PUSH1 0x20 DUP1 DUP3 MSTORE PUSH1 0x26 SWAP1 DUP3 ADD MSTORE PUSH32 0x507269766174652073616C65204661726D4275636B7320616C7265616479206D PUSH1 0x40 DUP3 ADD MSTORE PUSH32 0x696E7465642E0000000000000000000000000000000000000000000000000000 PUSH1 0x60 DUP3 ADD MSTORE PUSH1 0x80 ADD SWAP1 JUMP JUMPDEST PUSH1 0x20 DUP1 DUP3 MSTORE PUSH1 0x34 SWAP1 DUP3 ADD MSTORE PUSH32 0x4661726D4275636B3A205472616E7366657220616D6F756E74206D7573742062 PUSH1 0x40 DUP3 ADD MSTORE PUSH32 0x652067726561746572207468616E207A65726F2E000000000000000000000000 PUSH1 0x60 DUP3 ADD MSTORE PUSH1 0x80 ADD SWAP1 JUMP JUMPDEST PUSH1 0x20 DUP1 DUP3 MSTORE PUSH1 0xF SWAP1 DUP3 ADD MSTORE PUSH32 0x4172726179206D69736D617463682E0000000000000000000000000000000000 PUSH1 0x40 DUP3 ADD MSTORE PUSH1 0x60 ADD SWAP1 JUMP JUMPDEST PUSH1 0x20 DUP1 DUP3 MSTORE PUSH1 0x3F SWAP1 DUP3 ADD MSTORE PUSH32 0x54726565206D75737420686176652073616D6520656E7472696573206F6E2070 PUSH1 0x40 DUP3 ADD MSTORE PUSH32 0x726963652C207969656C642C20616E642074617820706572206C6576656C2E00 PUSH1 0x60 DUP3 ADD MSTORE PUSH1 0x80 ADD SWAP1 JUMP JUMPDEST PUSH1 0x20 DUP1 DUP3 MSTORE PUSH1 0x34 SWAP1 DUP3 ADD MSTORE PUSH32 0x50726573616C65206D696E7420616D6F756E74206973206C696D697465642074 PUSH1 0x40 DUP3 ADD MSTORE PUSH32 0x6F20612073656E7369626C65206E756D6265722E000000000000000000000000 PUSH1 0x60 DUP3 ADD MSTORE PUSH1 0x80 ADD SWAP1 JUMP JUMPDEST PUSH1 0x20 DUP1 DUP3 MSTORE PUSH1 0x2D SWAP1 DUP3 ADD MSTORE PUSH32 0x596F7520617265206E6F7420616C6C6F77656420746F207370656E642074686F PUSH1 0x40 DUP3 ADD MSTORE PUSH32 0x7365204661726D4275636B732E00000000000000000000000000000000000000 PUSH1 0x60 DUP3 ADD MSTORE PUSH1 0x80 ADD SWAP1 JUMP JUMPDEST PUSH1 0x20 DUP1 DUP3 MSTORE PUSH1 0x31 SWAP1 DUP3 ADD MSTORE PUSH32 0x5461782077726F6E673A2054726565206E6565647320746F2068617665206174 PUSH1 0x40 DUP3 ADD MSTORE PUSH32 0x206C65617374206F6E65206C6576656C2E000000000000000000000000000000 PUSH1 0x60 DUP3 ADD MSTORE PUSH1 0x80 ADD SWAP1 JUMP JUMPDEST PUSH1 0x20 DUP1 DUP3 MSTORE PUSH1 0x35 SWAP1 DUP3 ADD MSTORE PUSH32 0x596F75206861766520616C726561647920706C616E7465642074686520666972 PUSH1 0x40 DUP3 ADD MSTORE PUSH32 0x7374207472656520696E207468617420706C6F74210000000000000000000000 PUSH1 0x60 DUP3 ADD MSTORE PUSH1 0x80 ADD SWAP1 JUMP JUMPDEST PUSH1 0x20 DUP1 DUP3 MSTORE PUSH1 0x62 SWAP1 DUP3 ADD MSTORE PUSH32 0x57726F6E67207472656520636F6E66696775726174696F6E2E204D7573742068 PUSH1 0x40 DUP3 ADD MSTORE PUSH32 0x617665206174206C65617374206F6E65206C6576656C20616E642073616D6520 PUSH1 0x60 DUP3 ADD MSTORE PUSH32 0x656E747269657320666F722070726963652C207969656C642C20616E64207461 PUSH1 0x80 DUP3 ADD MSTORE PUSH32 0x782E000000000000000000000000000000000000000000000000000000000000 PUSH1 0xA0 DUP3 ADD MSTORE PUSH1 0xC0 ADD SWAP1 JUMP JUMPDEST PUSH1 0x20 DUP1 DUP3 MSTORE PUSH1 0x2B SWAP1 DUP3 ADD MSTORE PUSH32 0x4661726D4275636B207472616E73666572206973206E6F742063757272656E74 PUSH1 0x40 DUP3 ADD MSTORE PUSH32 0x6C7920616C6C6F7765642E000000000000000000000000000000000000000000 PUSH1 0x60 DUP3 ADD MSTORE PUSH1 0x80 ADD SWAP1 JUMP JUMPDEST PUSH1 0x20 DUP1 DUP3 MSTORE PUSH1 0x19 SWAP1 DUP3 ADD MSTORE PUSH32 0x5468617420706C6F7420646F6573206E6F742065786973742E00000000000000 PUSH1 0x40 DUP3 ADD MSTORE PUSH1 0x60 ADD SWAP1 JUMP JUMPDEST PUSH1 0x20 DUP1 DUP3 MSTORE PUSH1 0x31 SWAP1 DUP3 ADD MSTORE PUSH32 0x4E6F2074726565206F6E207468697320706C6F742C20796F7520686176652074 PUSH1 0x40 DUP3 ADD MSTORE PUSH32 0x6F20706C616E742069742066697273742E000000000000000000000000000000 PUSH1 0x60 DUP3 ADD MSTORE PUSH1 0x80 ADD SWAP1 JUMP JUMPDEST PUSH1 0x20 DUP1 DUP3 MSTORE PUSH1 0x6 SWAP1 DUP3 ADD MSTORE PUSH32 0x214F574E45520000000000000000000000000000000000000000000000000000 PUSH1 0x40 DUP3 ADD MSTORE PUSH1 0x60 ADD SWAP1 JUMP JUMPDEST PUSH1 0x20 DUP1 DUP3 MSTORE PUSH1 0x27 SWAP1 DUP3 ADD MSTORE PUSH32 0x4661726D4275636B3A207472616E7366657220746F20746865207A65726F2061 PUSH1 0x40 DUP3 ADD MSTORE PUSH32 0x6464726573732E00000000000000000000000000000000000000000000000000 PUSH1 0x60 DUP3 ADD MSTORE PUSH1 0x80 ADD SWAP1 JUMP JUMPDEST PUSH1 0x20 DUP1 DUP3 MSTORE PUSH1 0x1F SWAP1 DUP3 ADD MSTORE PUSH32 0x596F75207374696C6C206861766520616E2061637469766520626F6F73742E00 PUSH1 0x40 DUP3 ADD MSTORE PUSH1 0x60 ADD SWAP1 JUMP JUMPDEST PUSH1 0x20 DUP1 DUP3 MSTORE PUSH1 0x33 SWAP1 DUP3 ADD MSTORE PUSH32 0x50726963652077726F6E673A2054726565206E6565647320746F206861766520 PUSH1 0x40 DUP3 ADD MSTORE PUSH32 0x6174206C65617374206F6E65206C6576656C2E00000000000000000000000000 PUSH1 0x60 DUP3 ADD MSTORE PUSH1 0x80 ADD SWAP1 JUMP JUMPDEST PUSH1 0x20 DUP1 DUP3 MSTORE PUSH1 0x25 SWAP1 DUP3 ADD MSTORE PUSH32 0x53656E64657220646F6573206E6F74206F776E20656E6F756768204661726D42 PUSH1 0x40 DUP3 ADD MSTORE PUSH32 0x75636B732E000000000000000000000000000000000000000000000000000000 PUSH1 0x60 DUP3 ADD MSTORE PUSH1 0x80 ADD SWAP1 JUMP JUMPDEST PUSH1 0x20 DUP1 DUP3 MSTORE PUSH1 0xB SWAP1 DUP3 ADD MSTORE PUSH32 0x21415554484F52495A4544000000000000000000000000000000000000000000 PUSH1 0x40 DUP3 ADD MSTORE PUSH1 0x60 ADD SWAP1 JUMP JUMPDEST PUSH1 0x0 PUSH1 0xA0 DUP3 ADD SWAP1 POP PUSH4 0xFFFFFFFF DUP1 DUP5 MLOAD AND DUP4 MSTORE DUP1 PUSH1 0x20 DUP6 ADD MLOAD AND PUSH1 0x20 DUP5 ADD MSTORE POP PUSH1 0x40 DUP4 ADD MLOAD PUSH1 0x40 DUP4 ADD MSTORE PUSH1 0x60 DUP4 ADD MLOAD PUSH2 0x10C6 PUSH1 0x60 DUP5 ADD DUP3 PUSH2 0x388C JUMP JUMPDEST PUSH1 0x20 DUP1 DUP3 MSTORE DUP3 MLOAD PUSH1 0x60 DUP4 DUP4 ADD MSTORE DUP1 MLOAD PUSH1 0x80 DUP5 ADD DUP2 SWAP1 MSTORE PUSH1 0x0 SWAP3 SWAP2 DUP3 ADD SWAP1 DUP4 SWAP1 PUSH1 0xA0 DUP7 ADD SWAP1 JUMPDEST DUP1 DUP4 LT ISZERO PUSH2 0x41CA JUMPI DUP4 MLOAD DUP3 MSTORE SWAP3 DUP5 ADD SWAP3 PUSH1 0x1 SWAP3 SWAP1 SWAP3 ADD SWAP2 SWAP1 DUP5 ADD SWAP1 PUSH2 0x41AA JUMP JUMPDEST POP DUP4 DUP8 ADD MLOAD SWAP4 POP PUSH1 0x1F NOT SWAP3 POP DUP3 DUP7 DUP3 SUB ADD PUSH1 0x40 DUP8 ADD MSTORE PUSH2 0x41EA DUP2 DUP6 PUSH2 0x3848 JUMP JUMPDEST SWAP4 POP POP POP PUSH1 0x40 DUP6 ADD MLOAD DUP2 DUP6 DUP5 SUB ADD PUSH1 0x60 DUP7 ADD MSTORE PUSH2 0x4207 DUP4 DUP3 PUSH2 0x3848 JUMP JUMPDEST SWAP7 SWAP6 POP POP POP POP POP POP JUMP JUMPDEST PUSH1 0x0 PUSH1 0xA0 DUP3 ADD SWAP1 POP PUSH3 0xFFFFFF DUP4 MLOAD AND DUP3 MSTORE PUSH4 0xFFFFFFFF PUSH1 0x20 DUP5 ADD MLOAD AND PUSH1 0x20 DUP4 ADD MSTORE PUSH1 0x40 DUP4 ADD MLOAD PUSH1 0x40 DUP4 ADD MSTORE PUSH1 0x60 DUP4 ADD MLOAD PUSH1 0x60 DUP4 ADD MSTORE PUSH1 0x80 DUP4 ADD MLOAD PUSH1 0x80 DUP4 ADD MSTORE SWAP3 SWAP2 POP POP JUMP JUMPDEST SWAP1 DUP2 MSTORE PUSH1 0x20 ADD SWAP1 JUMP JUMPDEST PUSH4 0xFFFFFFFF DUP6 DUP2 AND DUP3 MSTORE DUP5 AND PUSH1 0x20 DUP3 ADD MSTORE PUSH1 0x40 DUP2 ADD DUP4 SWAP1 MSTORE PUSH1 0xA0 DUP2 ADD PUSH2 0x4288 PUSH1 0x60 DUP4 ADD DUP5 PUSH2 0x388C JUMP JUMPDEST SWAP6 SWAP5 POP POP POP POP POP JUMP JUMPDEST PUSH5 0xFFFFFFFFFF SWAP2 SWAP1 SWAP2 AND DUP2 MSTORE PUSH1 0x20 ADD SWAP1 JUMP JUMPDEST PUSH1 0xFF SWAP2 SWAP1 SWAP2 AND DUP2 MSTORE PUSH1 0x20 ADD SWAP1 JUMP JUMPDEST PUSH1 0x0 DUP1 DUP4 CALLDATALOAD PUSH1 0x1E NOT DUP5 CALLDATASIZE SUB ADD DUP2 SLT PUSH2 0x42C7 JUMPI DUP3 DUP4 REVERT JUMPDEST DUP4 ADD DUP1 CALLDATALOAD SWAP2 POP PUSH8 0xFFFFFFFFFFFFFFFF DUP3 GT ISZERO PUSH2 0x42E1 JUMPI DUP3 DUP4 REVERT JUMPDEST PUSH1 0x20 ADD SWAP2 POP PUSH1 0x40 DUP2 MUL CALLDATASIZE SUB DUP3 SGT ISZERO PUSH2 0x3521 JUMPI PUSH1 0x0 DUP1 REVERT JUMPDEST PUSH1 0x0 DUP1 DUP4 CALLDATALOAD PUSH1 0x1E NOT DUP5 CALLDATASIZE SUB ADD DUP2 SLT PUSH2 0x430E JUMPI DUP3 DUP4 REVERT JUMPDEST DUP4 ADD DUP1 CALLDATALOAD SWAP2 POP PUSH8 0xFFFFFFFFFFFFFFFF DUP3 GT ISZERO PUSH2 0x4328 JUMPI DUP3 DUP4 REVERT JUMPDEST PUSH1 0x20 SWAP1 DUP2 ADD SWAP3 POP DUP2 MUL CALLDATASIZE SUB DUP3 SGT ISZERO PUSH2 0x3521 JUMPI PUSH1 0x0 DUP1 REVERT JUMPDEST PUSH1 0x0 DUP3 CALLDATALOAD PUSH1 0x5E NOT DUP4 CALLDATASIZE SUB ADD DUP2 SLT PUSH2 0x4354 JUMPI DUP2 DUP3 REVERT JUMPDEST SWAP2 SWAP1 SWAP2 ADD SWAP3 SWAP2 POP POP JUMP JUMPDEST PUSH1 0x0 SWAP1 DUP2 MSTORE PUSH1 0x20 SWAP1 KECCAK256 SWAP1 JUMP JUMPDEST PUSH1 0x0 DUP3 NOT DUP3 GT ISZERO PUSH2 0x437D JUMPI PUSH2 0x437D PUSH2 0x44CC JUMP JUMPDEST POP ADD SWAP1 JUMP JUMPDEST PUSH1 0x0 PUSH4 0xFFFFFFFF DUP1 DUP4 AND DUP2 DUP6 AND DUP1 DUP4 SUB DUP3 GT ISZERO PUSH2 0x43A1 JUMPI PUSH2 0x43A1 PUSH2 0x44CC JUMP JUMPDEST ADD SWAP5 SWAP4 POP POP POP POP JUMP JUMPDEST PUSH1 0x0 DUP3 PUSH2 0x43C5 JUMPI PUSH4 0x4E487B71 PUSH1 0xE0 SHL DUP2 MSTORE PUSH1 0x12 PUSH1 0x4 MSTORE PUSH1 0x24 DUP2 REVERT JUMPDEST POP DIV SWAP1 JUMP JUMPDEST PUSH1 0x0 DUP2 PUSH1 0x0 NOT DIV DUP4 GT DUP3 ISZERO ISZERO AND ISZERO PUSH2 0x43E4 JUMPI PUSH2 0x43E4 PUSH2 0x44CC JUMP JUMPDEST POP MUL SWAP1 JUMP JUMPDEST PUSH1 0x0 DUP3 DUP3 LT ISZERO PUSH2 0x43FB JUMPI PUSH2 0x43FB PUSH2 0x44CC JUMP JUMPDEST POP SUB SWAP1 JUMP JUMPDEST PUSH9 0x10000000000000000 DUP4 GT ISZERO PUSH2 0x4419 JUMPI PUSH2 0x4419 PUSH2 0x44E2 JUMP JUMPDEST DUP1 SLOAD DUP4 DUP3 SSTORE DUP1 DUP5 LT ISZERO PUSH2 0x4450 JUMPI PUSH1 0x0 DUP3 DUP2 MSTORE PUSH1 0x20 DUP2 KECCAK256 DUP6 DUP2 ADD SWAP1 DUP4 ADD JUMPDEST DUP1 DUP3 LT ISZERO PUSH2 0x444C JUMPI DUP3 DUP3 SSTORE PUSH1 0x1 DUP3 ADD SWAP2 POP PUSH2 0x4436 JUMP JUMPDEST POP POP POP JUMPDEST POP DUP2 PUSH2 0x445B DUP3 PUSH2 0x435E JUMP JUMPDEST PUSH1 0x0 DUP1 JUMPDEST DUP7 DUP2 LT ISZERO PUSH2 0x4485 JUMPI PUSH2 0x4472 DUP5 DUP4 DUP6 PUSH2 0x46FA JUMP JUMPDEST PUSH1 0x40 SWAP4 SWAP1 SWAP4 ADD SWAP3 PUSH1 0x1 SWAP3 DUP4 ADD SWAP3 ADD PUSH2 0x445F JUMP JUMPDEST POP POP POP POP POP POP POP JUMP JUMPDEST PUSH1 0x0 PUSH3 0xFFFFFF DUP1 DUP4 AND DUP2 DUP2 EQ ISZERO PUSH2 0x44A7 JUMPI PUSH2 0x44A7 PUSH2 0x44CC JUMP JUMPDEST PUSH1 0x1 ADD SWAP4 SWAP3 POP POP POP JUMP JUMPDEST PUSH1 0x0 PUSH1 0x0 NOT DUP3 EQ ISZERO PUSH2 0x44C5 JUMPI PUSH2 0x44C5 PUSH2 0x44CC JUMP JUMPDEST POP PUSH1 0x1 ADD SWAP1 JUMP JUMPDEST PUSH4 0x4E487B71 PUSH1 0xE0 SHL PUSH1 0x0 MSTORE PUSH1 0x11 PUSH1 0x4 MSTORE PUSH1 0x24 PUSH1 0x0 REVERT JUMPDEST PUSH4 0x4E487B71 PUSH1 0xE0 SHL PUSH1 0x0 MSTORE PUSH1 0x41 PUSH1 0x4 MSTORE PUSH1 0x24 PUSH1 0x0 REVERT JUMPDEST PUSH1 0x0 DUP2 CALLDATALOAD PUSH4 0xFFFFFFFF DUP2 AND DUP2 EQ PUSH2 0xBDC JUMPI DUP2 DUP3 REVERT JUMPDEST PUSH4 0xFFFFFFFF PUSH2 0x451B DUP4 PUSH2 0x44F8 JUMP JUMPDEST AND PUSH4 0xFFFFFFFF NOT DUP3 SLOAD AND OR DUP1 DUP3 SSTORE PUSH8 0xFFFFFFFF00000000 PUSH2 0x453E PUSH1 0x20 DUP6 ADD PUSH2 0x44F8 JUMP JUMPDEST PUSH1 0x20 SHL AND PUSH8 0xFFFFFFFF00000000 NOT DUP3 AND OR DUP3 SSTORE POP PUSH1 0x40 DUP3 ADD CALLDATALOAD PUSH1 0x1 DUP3 ADD SSTORE PUSH1 0x2 DUP2 ADD PUSH1 0x60 DUP4 ADD CALLDATALOAD PUSH2 0x456E DUP2 PUSH2 0x477C JUMP JUMPDEST PUSH2 0x4578 DUP2 DUP4 PUSH2 0x46CB JUMP JUMPDEST POP PUSH1 0x80 DUP4 ADD CALLDATALOAD PUSH2 0x4587 DUP2 PUSH2 0x477C JUMP JUMPDEST PUSH2 0x1996 DUP2 DUP4 PUSH2 0x46DE JUMP JUMPDEST DUP2 CALLDATALOAD PUSH2 0x459C DUP2 PUSH2 0x477C JUMP JUMPDEST PUSH2 0x45A6 DUP2 DUP4 PUSH2 0x46CB JUMP JUMPDEST POP PUSH1 0x20 DUP3 ADD CALLDATALOAD PUSH2 0x45B5 DUP2 PUSH2 0x477C JUMP JUMPDEST PUSH2 0x13A8 DUP2 DUP4 PUSH2 0x46DE JUMP JUMPDEST DUP2 CALLDATALOAD PUSH1 0x1E NOT DUP4 CALLDATASIZE SUB ADD DUP2 SLT PUSH2 0x45D3 JUMPI PUSH1 0x0 DUP1 REVERT JUMPDEST DUP3 ADD DUP1 CALLDATALOAD PUSH8 0xFFFFFFFFFFFFFFFF DUP2 GT ISZERO PUSH2 0x45EC JUMPI PUSH1 0x0 DUP1 REVERT JUMPDEST PUSH1 0x20 SWAP2 DUP3 ADD SWAP2 DUP2 DUP2 MUL CALLDATASIZE SUB DUP4 SGT ISZERO PUSH2 0x4603 JUMPI PUSH1 0x0 DUP1 REVERT JUMPDEST PUSH9 0x10000000000000000 DUP3 GT ISZERO PUSH2 0x461C JUMPI PUSH2 0x461C PUSH2 0x44E2 JUMP JUMPDEST DUP4 SLOAD DUP3 DUP6 SSTORE DUP1 DUP4 LT ISZERO PUSH2 0x465A JUMPI PUSH1 0x0 DUP6 DUP2 MSTORE DUP3 DUP2 KECCAK256 DUP5 DUP2 ADD SWAP1 DUP4 ADD JUMPDEST DUP1 DUP3 LT ISZERO PUSH2 0x4656 JUMPI PUSH2 0x464B DUP4 DUP5 DUP5 PUSH2 0x473A JUMP JUMPDEST PUSH1 0x1 DUP3 ADD SWAP2 POP PUSH2 0x4638 JUMP JUMPDEST POP POP POP JUMPDEST POP PUSH2 0x4664 DUP5 PUSH2 0x435E JUMP JUMPDEST PUSH1 0x0 DUP1 JUMPDEST DUP5 DUP2 LT ISZERO PUSH2 0x468C JUMPI PUSH2 0x467C DUP7 CALLDATALOAD DUP4 DUP6 PUSH2 0x473A JUMP JUMPDEST SWAP5 DUP4 ADD SWAP5 PUSH1 0x1 SWAP3 DUP4 ADD SWAP3 ADD PUSH2 0x4668 JUMP JUMPDEST POP POP POP PUSH2 0x469B DUP2 DUP7 ADD DUP7 PUSH2 0x42B1 JUMP JUMPDEST SWAP4 POP SWAP2 POP POP PUSH2 0x46AE DUP3 DUP3 PUSH1 0x1 DUP7 ADD PUSH2 0x4400 JUMP JUMPDEST POP POP PUSH2 0x46BD PUSH1 0x40 DUP4 ADD DUP4 PUSH2 0x42B1 JUMP JUMPDEST PUSH2 0x1996 DUP2 DUP4 PUSH1 0x2 DUP7 ADD PUSH2 0x4400 JUMP JUMPDEST PUSH2 0xFFFF DUP3 AND PUSH2 0xFFFF NOT DUP3 SLOAD AND OR DUP2 SSTORE POP POP JUMP JUMPDEST DUP1 SLOAD PUSH4 0xFFFF0000 DUP4 PUSH1 0x10 SHL AND PUSH4 0xFFFF0000 NOT DUP3 AND OR DUP3 SSTORE POP POP POP JUMP JUMPDEST DUP2 ISZERO PUSH2 0x4716 JUMPI PUSH4 0x4E487B71 PUSH1 0xE0 SHL PUSH1 0x0 MSTORE PUSH1 0x0 PUSH1 0x4 MSTORE PUSH1 0x24 PUSH1 0x0 REVERT JUMPDEST DUP3 CALLDATALOAD PUSH2 0x4721 DUP2 PUSH2 0x477C JUMP JUMPDEST PUSH2 0x472B DUP2 DUP4 PUSH2 0x46CB JUMP JUMPDEST POP PUSH1 0x20 DUP4 ADD CALLDATALOAD PUSH2 0x4587 DUP2 PUSH2 0x477C JUMP JUMPDEST DUP1 SLOAD PUSH1 0x8 DUP4 MUL PUSH1 0x0 NOT DUP2 SHL DUP1 DUP7 DUP4 SHL AND DUP2 NOT DUP5 AND OR DUP5 SSTORE POP POP POP POP POP POP JUMP JUMPDEST PUSH1 0x1 PUSH1 0x1 PUSH1 0xA0 SHL SUB DUP2 AND DUP2 EQ PUSH2 0x2246 JUMPI PUSH1 0x0 DUP1 REVERT JUMPDEST DUP1 ISZERO ISZERO DUP2 EQ PUSH2 0x2246 JUMPI PUSH1 0x0 DUP1 REVERT JUMPDEST PUSH2 0xFFFF DUP2 AND DUP2 EQ PUSH2 0x2246 JUMPI PUSH1 0x0 DUP1 REVERT INVALID LOG2 PUSH5 0x6970667358 0x22 SLT KECCAK256 0x4C CREATE 0xE6 SWAP9 0xCD DELEGATECALL 0x4C 0xEC BLOCKHASH 0xC8 PUSH2 0x1B50 DUP13 SMOD CODECOPY 0xEA 0xBA 0x29 GASPRICE 0x2B PUSH29 0x104036BEC1FCAC3A97D364736F6C634300080000330000000000000000 "},"methodIdentifiers":{"addBoostType((uint32,uint32,uint256,(uint16,uint16)))":"5c3c9587","allowSpending(address,bool)":"53478562","allowance(address,address)":"dd62ed3e","allowedToSpend(address,address)":"e3eba060","approve(address,uint256)":"095ea7b3","authorize(address)":"b6a5d7de","balanceOf(address)":"70a08231","boostTypes(uint256)":"f1f032f0","buyBoost(uint256)":"73af2e29","canTreeLevelUp(uint256,uint256)":"3d3cae07","compound(uint256)":"aa5f7e26","compoundFor(address,uint256)":"451f3caf","decimals()":"313ce567","deposit(uint256)":"b6b55f25","depositWithRefer(uint256,address)":"7fe6b8b6","editBoostType(uint256,(uint32,uint32,uint256,(uint16,uint16)))":"71b322dc","editMultipleTreeTypes(uint256[],(uint256[],(uint16,uint16)[],(uint16,uint16)[])[])":"0b1d7605","editTreeType(uint256,(uint256[],(uint16,uint16)[],(uint16,uint16)[]))":"718abfba","getAvailableYield(uint256)":"730417dc","getCurrentBoost(address)":"558ac136","getMyPlotState(uint256)":"9e7af3c7","getPlotState(address,uint256)":"d9d5fc96","getTreeType(uint256)":"7776bbbd","getTreeTypePrice(uint256,uint256)":"18aac6df","getYieldByTime(uint256,uint256,(uint16,uint16))":"8b106926","investInTree(uint256,uint256)":"df7cbee1","isAuthorized(address)":"fe9fbb80","isOwner(address)":"2f54bf6e","maxYieldTime()":"dc4fd819","mintPrivateSaleBucks()":"40e44267","name()":"06fdde03","plantFirstTree(uint256)":"d1225a9b","redeemBUSD(uint256)":"fe9be086","redeemBUSDFor(address,uint256)":"032c9dca","redeemFarmbuck(uint256)":"f929c98b","redeemFarmbuckFor(address,uint256)":"ae901021","removeBoostType(uint256)":"57f43f8d","setBoostsAvailable(bool)":"f1abe2ca","setPrivateSaleMintAmount(uint256)":"9388e3a4","setRefererAmount((uint16,uint16))":"4416c3b4","setTransferAllowed(bool)":"b3942cbd","spendingAllowed(address,address)":"4c4a6dd0","symbol()":"95d89b41","totalSupply()":"18160ddd","transfer(address,uint256)":"a9059cbb","transferFrom(address,address,uint256)":"23b872dd","transferOwnership(address)":"f2fde38b","unauthorize(address)":"f0b37c04"}}}}}