{
  "_format": "hh-sol-artifact-1",
  "contractName": "TreeFarm",
  "sourceName": "contracts/TreeFarm(1).sol",
  "abi": [
    {
      "inputs": [],
      "stateMutability": "nonpayable",
      "type": "constructor"
    },
    {
      "anonymous": false,
      "inputs": [
        {
          "indexed": true,
          "internalType": "address",
          "name": "owner",
          "type": "address"
        },
        {
          "indexed": true,
          "internalType": "address",
          "name": "spender",
          "type": "address"
        },
        {
          "indexed": false,
          "internalType": "uint256",
          "name": "value",
          "type": "uint256"
        }
      ],
      "name": "Approval",
      "type": "event"
    },
    {
      "anonymous": false,
      "inputs": [
        {
          "indexed": true,
          "internalType": "address",
          "name": "owner",
          "type": "address"
        },
        {
          "indexed": true,
          "internalType": "uint256",
          "name": "plot",
          "type": "uint256"
        },
        {
          "indexed": false,
          "internalType": "uint256",
          "name": "amount",
          "type": "uint256"
        }
      ],
      "name": "Compounded",
      "type": "event"
    },
    {
      "anonymous": false,
      "inputs": [
        {
          "indexed": true,
          "internalType": "address",
          "name": "owner",
          "type": "address"
        },
        {
          "indexed": true,
          "internalType": "address",
          "name": "spender",
          "type": "address"
        },
        {
          "indexed": false,
          "internalType": "bool",
          "name": "allowed",
          "type": "bool"
        }
      ],
      "name": "FarmBuckApproval",
      "type": "event"
    },
    {
      "anonymous": false,
      "inputs": [
        {
          "indexed": true,
          "internalType": "address",
          "name": "buyer",
          "type": "address"
        },
        {
          "indexed": false,
          "internalType": "uint256",
          "name": "amount",
          "type": "uint256"
        }
      ],
      "name": "FarmBuckPurchase",
      "type": "event"
    },
    {
      "anonymous": false,
      "inputs": [
        {
          "indexed": true,
          "internalType": "address",
          "name": "owner",
          "type": "address"
        },
        {
          "indexed": true,
          "internalType": "uint256",
          "name": "plot",
          "type": "uint256"
        },
        {
          "indexed": false,
          "internalType": "uint256",
          "name": "amount",
          "type": "uint256"
        }
      ],
      "name": "Invested",
      "type": "event"
    },
    {
      "anonymous": false,
      "inputs": [
        {
          "indexed": false,
          "internalType": "address",
          "name": "owner",
          "type": "address"
        }
      ],
      "name": "OwnershipTransferred",
      "type": "event"
    },
    {
      "anonymous": false,
      "inputs": [
        {
          "indexed": true,
          "internalType": "address",
          "name": "owner",
          "type": "address"
        },
        {
          "indexed": true,
          "internalType": "uint256",
          "name": "plot",
          "type": "uint256"
        },
        {
          "indexed": false,
          "internalType": "uint256",
          "name": "amount",
          "type": "uint256"
        }
      ],
      "name": "RedeemBUSD",
      "type": "event"
    },
    {
      "anonymous": false,
      "inputs": [
        {
          "indexed": true,
          "internalType": "address",
          "name": "owner",
          "type": "address"
        },
        {
          "indexed": true,
          "internalType": "uint256",
          "name": "plot",
          "type": "uint256"
        },
        {
          "indexed": false,
          "internalType": "uint256",
          "name": "amount",
          "type": "uint256"
        }
      ],
      "name": "RedeemFarmBuck",
      "type": "event"
    },
    {
      "anonymous": false,
      "inputs": [
        {
          "indexed": true,
          "internalType": "address",
          "name": "from",
          "type": "address"
        },
        {
          "indexed": true,
          "internalType": "address",
          "name": "to",
          "type": "address"
        },
        {
          "indexed": false,
          "internalType": "uint256",
          "name": "value",
          "type": "uint256"
        }
      ],
      "name": "Transfer",
      "type": "event"
    },
    {
      "anonymous": false,
      "inputs": [
        {
          "indexed": true,
          "internalType": "address",
          "name": "owner",
          "type": "address"
        },
        {
          "indexed": true,
          "internalType": "uint256",
          "name": "plot",
          "type": "uint256"
        }
      ],
      "name": "TreePlant",
      "type": "event"
    },
    {
      "inputs": [
        {
          "components": [
            {
              "internalType": "uint32",
              "name": "start",
              "type": "uint32"
            },
            {
              "internalType": "uint32",
              "name": "duration",
              "type": "uint32"
            },
            {
              "internalType": "uint256",
              "name": "price",
              "type": "uint256"
            },
            {
              "components": [
                {
                  "internalType": "uint16",
                  "name": "numerator",
                  "type": "uint16"
                },
                {
                  "internalType": "uint16",
                  "name": "denominator",
                  "type": "uint16"
                }
              ],
              "internalType": "struct Fraction",
              "name": "percentage",
              "type": "tuple"
            }
          ],
          "internalType": "struct Boost",
          "name": "btype",
          "type": "tuple"
        }
      ],
      "name": "addBoostType",
      "outputs": [],
      "stateMutability": "nonpayable",
      "type": "function"
    },
    {
      "inputs": [
        {
          "internalType": "address",
          "name": "spender",
          "type": "address"
        },
        {
          "internalType": "bool",
          "name": "allowed",
          "type": "bool"
        }
      ],
      "name": "allowSpending",
      "outputs": [],
      "stateMutability": "nonpayable",
      "type": "function"
    },
    {
      "inputs": [
        {
          "internalType": "address",
          "name": "_owner",
          "type": "address"
        },
        {
          "internalType": "address",
          "name": "spender",
          "type": "address"
        }
      ],
      "name": "allowance",
      "outputs": [
        {
          "internalType": "uint256",
          "name": "",
          "type": "uint256"
        }
      ],
      "stateMutability": "view",
      "type": "function"
    },
    {
      "inputs": [
        {
          "internalType": "address",
          "name": "_owner",
          "type": "address"
        },
        {
          "internalType": "address",
          "name": "spender",
          "type": "address"
        }
      ],
      "name": "allowedToSpend",
      "outputs": [
        {
          "internalType": "bool",
          "name": "",
          "type": "bool"
        }
      ],
      "stateMutability": "view",
      "type": "function"
    },
    {
      "inputs": [
        {
          "internalType": "address",
          "name": "spender",
          "type": "address"
        },
        {
          "internalType": "uint256",
          "name": "amount",
          "type": "uint256"
        }
      ],
      "name": "approve",
      "outputs": [
        {
          "internalType": "bool",
          "name": "",
          "type": "bool"
        }
      ],
      "stateMutability": "nonpayable",
      "type": "function"
    },
    {
      "inputs": [
        {
          "internalType": "address",
          "name": "adr",
          "type": "address"
        }
      ],
      "name": "authorize",
      "outputs": [],
      "stateMutability": "nonpayable",
      "type": "function"
    },
    {
      "inputs": [
        {
          "internalType": "address",
          "name": "farmer",
          "type": "address"
        }
      ],
      "name": "balanceOf",
      "outputs": [
        {
          "internalType": "uint256",
          "name": "",
          "type": "uint256"
        }
      ],
      "stateMutability": "view",
      "type": "function"
    },
    {
      "inputs": [
        {
          "internalType": "uint256",
          "name": "",
          "type": "uint256"
        }
      ],
      "name": "boostTypes",
      "outputs": [
        {
          "internalType": "uint32",
          "name": "start",
          "type": "uint32"
        },
        {
          "internalType": "uint32",
          "name": "duration",
          "type": "uint32"
        },
        {
          "internalType": "uint256",
          "name": "price",
          "type": "uint256"
        },
        {
          "components": [
            {
              "internalType": "uint16",
              "name": "numerator",
              "type": "uint16"
            },
            {
              "internalType": "uint16",
              "name": "denominator",
              "type": "uint16"
            }
          ],
          "internalType": "struct Fraction",
          "name": "percentage",
          "type": "tuple"
        }
      ],
      "stateMutability": "view",
      "type": "function"
    },
    {
      "inputs": [
        {
          "internalType": "uint256",
          "name": "index",
          "type": "uint256"
        }
      ],
      "name": "buyBoost",
      "outputs": [],
      "stateMutability": "nonpayable",
      "type": "function"
    },
    {
      "inputs": [
        {
          "internalType": "uint256",
          "name": "plot",
          "type": "uint256"
        },
        {
          "internalType": "uint256",
          "name": "currentLevel",
          "type": "uint256"
        }
      ],
      "name": "canTreeLevelUp",
      "outputs": [
        {
          "internalType": "bool",
          "name": "",
          "type": "bool"
        }
      ],
      "stateMutability": "view",
      "type": "function"
    },
    {
      "inputs": [
        {
          "internalType": "uint256",
          "name": "plot",
          "type": "uint256"
        }
      ],
      "name": "compound",
      "outputs": [],
      "stateMutability": "nonpayable",
      "type": "function"
    },
    {
      "inputs": [
        {
          "internalType": "address",
          "name": "receiver",
          "type": "address"
        },
        {
          "internalType": "uint256",
          "name": "plot",
          "type": "uint256"
        }
      ],
      "name": "compoundFor",
      "outputs": [],
      "stateMutability": "nonpayable",
      "type": "function"
    },
    {
      "inputs": [],
      "name": "decimals",
      "outputs": [
        {
          "internalType": "uint8",
          "name": "",
          "type": "uint8"
        }
      ],
      "stateMutability": "pure",
      "type": "function"
    },
    {
      "inputs": [
        {
          "internalType": "uint256",
          "name": "amount",
          "type": "uint256"
        }
      ],
      "name": "deposit",
      "outputs": [],
      "stateMutability": "nonpayable",
      "type": "function"
    },
    {
      "inputs": [
        {
          "internalType": "uint256",
          "name": "amount",
          "type": "uint256"
        },
        {
          "internalType": "address",
          "name": "referer",
          "type": "address"
        }
      ],
      "name": "depositWithRefer",
      "outputs": [],
      "stateMutability": "nonpayable",
      "type": "function"
    },
    {
      "inputs": [
        {
          "internalType": "uint256",
          "name": "index",
          "type": "uint256"
        },
        {
          "components": [
            {
              "internalType": "uint32",
              "name": "start",
              "type": "uint32"
            },
            {
              "internalType": "uint32",
              "name": "duration",
              "type": "uint32"
            },
            {
              "internalType": "uint256",
              "name": "price",
              "type": "uint256"
            },
            {
              "components": [
                {
                  "internalType": "uint16",
                  "name": "numerator",
                  "type": "uint16"
                },
                {
                  "internalType": "uint16",
                  "name": "denominator",
                  "type": "uint16"
                }
              ],
              "internalType": "struct Fraction",
              "name": "percentage",
              "type": "tuple"
            }
          ],
          "internalType": "struct Boost",
          "name": "btype",
          "type": "tuple"
        }
      ],
      "name": "editBoostType",
      "outputs": [],
      "stateMutability": "nonpayable",
      "type": "function"
    },
    {
      "inputs": [
        {
          "internalType": "uint256[]",
          "name": "indexes",
          "type": "uint256[]"
        },
        {
          "components": [
            {
              "internalType": "uint256[]",
              "name": "pricePerLevel",
              "type": "uint256[]"
            },
            {
              "components": [
                {
                  "internalType": "uint16",
                  "name": "numerator",
                  "type": "uint16"
                },
                {
                  "internalType": "uint16",
                  "name": "denominator",
                  "type": "uint16"
                }
              ],
              "internalType": "struct Fraction[]",
              "name": "yieldPerLevel",
              "type": "tuple[]"
            },
            {
              "components": [
                {
                  "internalType": "uint16",
                  "name": "numerator",
                  "type": "uint16"
                },
                {
                  "internalType": "uint16",
                  "name": "denominator",
                  "type": "uint16"
                }
              ],
              "internalType": "struct Fraction[]",
              "name": "taxPerLevel",
              "type": "tuple[]"
            }
          ],
          "internalType": "struct TreeType[]",
          "name": "ttypes",
          "type": "tuple[]"
        }
      ],
      "name": "editMultipleTreeTypes",
      "outputs": [],
      "stateMutability": "nonpayable",
      "type": "function"
    },
    {
      "inputs": [
        {
          "internalType": "uint256",
          "name": "index",
          "type": "uint256"
        },
        {
          "components": [
            {
              "internalType": "uint256[]",
              "name": "pricePerLevel",
              "type": "uint256[]"
            },
            {
              "components": [
                {
                  "internalType": "uint16",
                  "name": "numerator",
                  "type": "uint16"
                },
                {
                  "internalType": "uint16",
                  "name": "denominator",
                  "type": "uint16"
                }
              ],
              "internalType": "struct Fraction[]",
              "name": "yieldPerLevel",
              "type": "tuple[]"
            },
            {
              "components": [
                {
                  "internalType": "uint16",
                  "name": "numerator",
                  "type": "uint16"
                },
                {
                  "internalType": "uint16",
                  "name": "denominator",
                  "type": "uint16"
                }
              ],
              "internalType": "struct Fraction[]",
              "name": "taxPerLevel",
              "type": "tuple[]"
            }
          ],
          "internalType": "struct TreeType",
          "name": "ttype",
          "type": "tuple"
        }
      ],
      "name": "editTreeType",
      "outputs": [],
      "stateMutability": "nonpayable",
      "type": "function"
    },
    {
      "inputs": [
        {
          "internalType": "uint256",
          "name": "plot",
          "type": "uint256"
        }
      ],
      "name": "getAvailableYield",
      "outputs": [
        {
          "internalType": "uint256",
          "name": "",
          "type": "uint256"
        }
      ],
      "stateMutability": "view",
      "type": "function"
    },
    {
      "inputs": [
        {
          "internalType": "address",
          "name": "booster",
          "type": "address"
        }
      ],
      "name": "getCurrentBoost",
      "outputs": [
        {
          "components": [
            {
              "internalType": "uint32",
              "name": "start",
              "type": "uint32"
            },
            {
              "internalType": "uint32",
              "name": "duration",
              "type": "uint32"
            },
            {
              "internalType": "uint256",
              "name": "price",
              "type": "uint256"
            },
            {
              "components": [
                {
                  "internalType": "uint16",
                  "name": "numerator",
                  "type": "uint16"
                },
                {
                  "internalType": "uint16",
                  "name": "denominator",
                  "type": "uint16"
                }
              ],
              "internalType": "struct Fraction",
              "name": "percentage",
              "type": "tuple"
            }
          ],
          "internalType": "struct Boost",
          "name": "",
          "type": "tuple"
        }
      ],
      "stateMutability": "view",
      "type": "function"
    },
    {
      "inputs": [
        {
          "internalType": "uint256",
          "name": "plot",
          "type": "uint256"
        }
      ],
      "name": "getMyPlotState",
      "outputs": [
        {
          "components": [
            {
              "internalType": "uint24",
              "name": "currentLevel",
              "type": "uint24"
            },
            {
              "internalType": "uint32",
              "name": "lastYield",
              "type": "uint32"
            },
            {
              "internalType": "uint256",
              "name": "investedBucks",
              "type": "uint256"
            },
            {
              "internalType": "uint256",
              "name": "yieldedBucks",
              "type": "uint256"
            },
            {
              "internalType": "uint256",
              "name": "yieldedBUSD",
              "type": "uint256"
            }
          ],
          "internalType": "struct Tree",
          "name": "",
          "type": "tuple"
        }
      ],
      "stateMutability": "view",
      "type": "function"
    },
    {
      "inputs": [
        {
          "internalType": "address",
          "name": "owner",
          "type": "address"
        },
        {
          "internalType": "uint256",
          "name": "plot",
          "type": "uint256"
        }
      ],
      "name": "getPlotState",
      "outputs": [
        {
          "components": [
            {
              "internalType": "uint24",
              "name": "currentLevel",
              "type": "uint24"
            },
            {
              "internalType": "uint32",
              "name": "lastYield",
              "type": "uint32"
            },
            {
              "internalType": "uint256",
              "name": "investedBucks",
              "type": "uint256"
            },
            {
              "internalType": "uint256",
              "name": "yieldedBucks",
              "type": "uint256"
            },
            {
              "internalType": "uint256",
              "name": "yieldedBUSD",
              "type": "uint256"
            }
          ],
          "internalType": "struct Tree",
          "name": "",
          "type": "tuple"
        }
      ],
      "stateMutability": "view",
      "type": "function"
    },
    {
      "inputs": [
        {
          "internalType": "uint256",
          "name": "plot",
          "type": "uint256"
        }
      ],
      "name": "getTreeType",
      "outputs": [
        {
          "components": [
            {
              "internalType": "uint256[]",
              "name": "pricePerLevel",
              "type": "uint256[]"
            },
            {
              "components": [
                {
                  "internalType": "uint16",
                  "name": "numerator",
                  "type": "uint16"
                },
                {
                  "internalType": "uint16",
                  "name": "denominator",
                  "type": "uint16"
                }
              ],
              "internalType": "struct Fraction[]",
              "name": "yieldPerLevel",
              "type": "tuple[]"
            },
            {
              "components": [
                {
                  "internalType": "uint16",
                  "name": "numerator",
                  "type": "uint16"
                },
                {
                  "internalType": "uint16",
                  "name": "denominator",
                  "type": "uint16"
                }
              ],
              "internalType": "struct Fraction[]",
              "name": "taxPerLevel",
              "type": "tuple[]"
            }
          ],
          "internalType": "struct TreeType",
          "name": "",
          "type": "tuple"
        }
      ],
      "stateMutability": "view",
      "type": "function"
    },
    {
      "inputs": [
        {
          "internalType": "uint256",
          "name": "plot",
          "type": "uint256"
        },
        {
          "internalType": "uint256",
          "name": "level",
          "type": "uint256"
        }
      ],
      "name": "getTreeTypePrice",
      "outputs": [
        {
          "internalType": "uint256",
          "name": "",
          "type": "uint256"
        }
      ],
      "stateMutability": "view",
      "type": "function"
    },
    {
      "inputs": [
        {
          "internalType": "uint256",
          "name": "investment",
          "type": "uint256"
        },
        {
          "internalType": "uint256",
          "name": "time",
          "type": "uint256"
        },
        {
          "components": [
            {
              "internalType": "uint16",
              "name": "numerator",
              "type": "uint16"
            },
            {
              "internalType": "uint16",
              "name": "denominator",
              "type": "uint16"
            }
          ],
          "internalType": "struct Fraction",
          "name": "yield",
          "type": "tuple"
        }
      ],
      "name": "getYieldByTime",
      "outputs": [
        {
          "internalType": "uint256",
          "name": "",
          "type": "uint256"
        }
      ],
      "stateMutability": "pure",
      "type": "function"
    },
    {
      "inputs": [
        {
          "internalType": "uint256",
          "name": "plot",
          "type": "uint256"
        },
        {
          "internalType": "uint256",
          "name": "amount",
          "type": "uint256"
        }
      ],
      "name": "investInTree",
      "outputs": [],
      "stateMutability": "nonpayable",
      "type": "function"
    },
    {
      "inputs": [
        {
          "internalType": "address",
          "name": "adr",
          "type": "address"
        }
      ],
      "name": "isAuthorized",
      "outputs": [
        {
          "internalType": "bool",
          "name": "",
          "type": "bool"
        }
      ],
      "stateMutability": "view",
      "type": "function"
    },
    {
      "inputs": [
        {
          "internalType": "address",
          "name": "account",
          "type": "address"
        }
      ],
      "name": "isOwner",
      "outputs": [
        {
          "internalType": "bool",
          "name": "",
          "type": "bool"
        }
      ],
      "stateMutability": "view",
      "type": "function"
    },
    {
      "inputs": [],
      "name": "maxYieldTime",
      "outputs": [
        {
          "internalType": "uint40",
          "name": "",
          "type": "uint40"
        }
      ],
      "stateMutability": "view",
      "type": "function"
    },
    {
      "inputs": [],
      "name": "mintPrivateSaleBucks",
      "outputs": [],
      "stateMutability": "nonpayable",
      "type": "function"
    },
    {
      "inputs": [],
      "name": "name",
      "outputs": [
        {
          "internalType": "string",
          "name": "",
          "type": "string"
        }
      ],
      "stateMutability": "pure",
      "type": "function"
    },
    {
      "inputs": [
        {
          "internalType": "uint256",
          "name": "plot",
          "type": "uint256"
        }
      ],
      "name": "plantFirstTree",
      "outputs": [],
      "stateMutability": "nonpayable",
      "type": "function"
    },
    {
      "inputs": [
        {
          "internalType": "uint256",
          "name": "plot",
          "type": "uint256"
        }
      ],
      "name": "redeemBUSD",
      "outputs": [],
      "stateMutability": "nonpayable",
      "type": "function"
    },
    {
      "inputs": [
        {
          "internalType": "address",
          "name": "receiver",
          "type": "address"
        },
        {
          "internalType": "uint256",
          "name": "plot",
          "type": "uint256"
        }
      ],
      "name": "redeemBUSDFor",
      "outputs": [],
      "stateMutability": "nonpayable",
      "type": "function"
    },
    {
      "inputs": [
        {
          "internalType": "uint256",
          "name": "plot",
          "type": "uint256"
        }
      ],
      "name": "redeemFarmbuck",
      "outputs": [],
      "stateMutability": "nonpayable",
      "type": "function"
    },
    {
      "inputs": [
        {
          "internalType": "address",
          "name": "receiver",
          "type": "address"
        },
        {
          "internalType": "uint256",
          "name": "plot",
          "type": "uint256"
        }
      ],
      "name": "redeemFarmbuckFor",
      "outputs": [],
      "stateMutability": "nonpayable",
      "type": "function"
    },
    {
      "inputs": [
        {
          "internalType": "uint256",
          "name": "index",
          "type": "uint256"
        }
      ],
      "name": "removeBoostType",
      "outputs": [],
      "stateMutability": "nonpayable",
      "type": "function"
    },
    {
      "inputs": [
        {
          "internalType": "bool",
          "name": "active",
          "type": "bool"
        }
      ],
      "name": "setBoostsAvailable",
      "outputs": [],
      "stateMutability": "nonpayable",
      "type": "function"
    },
    {
      "inputs": [
        {
          "internalType": "uint256",
          "name": "amount",
          "type": "uint256"
        }
      ],
      "name": "setPrivateSaleMintAmount",
      "outputs": [],
      "stateMutability": "nonpayable",
      "type": "function"
    },
    {
      "inputs": [
        {
          "components": [
            {
              "internalType": "uint16",
              "name": "numerator",
              "type": "uint16"
            },
            {
              "internalType": "uint16",
              "name": "denominator",
              "type": "uint16"
            }
          ],
          "internalType": "struct Fraction",
          "name": "fr",
          "type": "tuple"
        }
      ],
      "name": "setRefererAmount",
      "outputs": [],
      "stateMutability": "nonpayable",
      "type": "function"
    },
    {
      "inputs": [
        {
          "internalType": "bool",
          "name": "allow",
          "type": "bool"
        }
      ],
      "name": "setTransferAllowed",
      "outputs": [],
      "stateMutability": "nonpayable",
      "type": "function"
    },
    {
      "inputs": [
        {
          "internalType": "address",
          "name": "_owner",
          "type": "address"
        },
        {
          "internalType": "address",
          "name": "spender",
          "type": "address"
        }
      ],
      "name": "spendingAllowed",
      "outputs": [
        {
          "internalType": "bool",
          "name": "",
          "type": "bool"
        }
      ],
      "stateMutability": "view",
      "type": "function"
    },
    {
      "inputs": [],
      "name": "symbol",
      "outputs": [
        {
          "internalType": "string",
          "name": "",
          "type": "string"
        }
      ],
      "stateMutability": "pure",
      "type": "function"
    },
    {
      "inputs": [],
      "name": "totalSupply",
      "outputs": [
        {
          "internalType": "uint256",
          "name": "",
          "type": "uint256"
        }
      ],
      "stateMutability": "view",
      "type": "function"
    },
    {
      "inputs": [
        {
          "internalType": "address",
          "name": "recipient",
          "type": "address"
        },
        {
          "internalType": "uint256",
          "name": "amount",
          "type": "uint256"
        }
      ],
      "name": "transfer",
      "outputs": [
        {
          "internalType": "bool",
          "name": "",
          "type": "bool"
        }
      ],
      "stateMutability": "nonpayable",
      "type": "function"
    },
    {
      "inputs": [
        {
          "internalType": "address",
          "name": "sender",
          "type": "address"
        },
        {
          "internalType": "address",
          "name": "recipient",
          "type": "address"
        },
        {
          "internalType": "uint256",
          "name": "amount",
          "type": "uint256"
        }
      ],
      "name": "transferFrom",
      "outputs": [
        {
          "internalType": "bool",
          "name": "",
          "type": "bool"
        }
      ],
      "stateMutability": "nonpayable",
      "type": "function"
    },
    {
      "inputs": [
        {
          "internalType": "address payable",
          "name": "adr",
          "type": "address"
        }
      ],
      "name": "transferOwnership",
      "outputs": [],
      "stateMutability": "nonpayable",
      "type": "function"
    },
    {
      "inputs": [
        {
          "internalType": "address",
          "name": "adr",
          "type": "address"
        }
      ],
      "name": "unauthorize",
      "outputs": [],
      "stateMutability": "nonpayable",
      "type": "function"
    }
  ],
  "bytecode": "0x60a060405262015180600360006101000a81548164ffffffffff021916908364ffffffffff160217905550683635c9adc5dea00000602a556040518060400160405280600561ffff168152602001606461ffff16815250602b60008201518160000160006101000a81548161ffff021916908361ffff16021790555060208201518160000160026101000a81548161ffff021916908361ffff16021790555050506000603160006101000a81548160ff021916908315150217905550348015620000c857600080fd5b5033806000806101000a81548173ffffffffffffffffffffffffffffffffffffffff021916908373ffffffffffffffffffffffffffffffffffffffff16021790555060018060008373ffffffffffffffffffffffffffffffffffffffff1673ffffffffffffffffffffffffffffffffffffffff16815260200190815260200160002060006101000a81548160ff02191690831515021790555050600060614614156200018b5773ed24fc36d5ee211ea25a80239fb8c4cfd80f12ee9050620001a3565b73e9e7cea3dedca5984780bafc599bd69add087d5690505b8073ffffffffffffffffffffffffffffffffffffffff1660808173ffffffffffffffffffffffffffffffffffffffff1681525050506080516175c26200020260003960008181610c960152818161412b0152614c0901526175c26000f3fe608060405234801561001057600080fd5b50600436106102a05760003560e01c80637fe6b8b611610167578063d9d5fc96116100ce578063f1abe2ca11610087578063f1abe2ca14610875578063f1f032f014610891578063f2fde38b146108c4578063f929c98b146108e0578063fe9be086146108fc578063fe9fbb8014610918576102a0565b8063d9d5fc961461078f578063dc4fd819146107bf578063dd62ed3e146107dd578063df7cbee11461080d578063e3eba06014610829578063f0b37c0414610859576102a0565b8063aa5f7e2611610120578063aa5f7e26146106e7578063ae90102114610703578063b3942cbd1461071f578063b6a5d7de1461073b578063b6b55f2514610757578063d1225a9b14610773576102a0565b80637fe6b8b6146106015780638b1069261461061d5780639388e3a41461064d57806395d89b41146106695780639e7af3c714610687578063a9059cbb146106b7576102a0565b8063451f3caf1161020b57806370a08231116101c457806370a082311461051d578063718abfba1461054d57806371b322dc14610569578063730417dc1461058557806373af2e29146105b55780637776bbbd146105d1576102a0565b8063451f3caf1461044d5780634c4a6dd0146104695780635347856214610499578063558ac136146104b557806357f43f8d146104e55780635c3c958714610501576102a0565b806323b872dd1161025d57806323b872dd146103795780632f54bf6e146103a9578063313ce567146103d95780633d3cae07146103f757806340e44267146104275780634416c3b414610431576102a0565b8063032c9dca146102a557806306fdde03146102c1578063095ea7b3146102df5780630b1d76051461030f57806318160ddd1461032b57806318aac6df14610349575b600080fd5b6102bf60048036038101906102ba9190615040565b610948565b005b6102c9610e81565b6040516102d69190615119565b60405180910390f35b6102f960048036038101906102f49190615040565b610ebe565b6040516103069190615156565b60405180910390f35b6103296004803603810190610324919061522c565b610f43565b005b610333611244565b60405161034091906152bc565b60405180910390f35b610363600480360381019061035e91906152d7565b61124e565b60405161037091906152bc565b60405180910390f35b610393600480360381019061038e9190615317565b6114ba565b6040516103a09190615156565b60405180910390f35b6103c360048036038101906103be919061536a565b6115c0565b6040516103d09190615156565b60405180910390f35b6103e1611619565b6040516103ee91906153b3565b60405180910390f35b610411600480360381019061040c91906152d7565b611622565b60405161041e9190615156565b60405180910390f35b61042f61182f565b005b61044b600480360381019061044691906153f2565b611945565b005b61046760048036038101906104629190615040565b6119a2565b005b610483600480360381019061047e919061541f565b611a69565b6040516104909190615156565b60405180910390f35b6104b360048036038101906104ae919061548b565b611afd565b005b6104cf60048036038101906104ca919061536a565b611bfa565b6040516104dc919061559a565b60405180910390f35b6104ff60048036038101906104fa91906155b5565b611cfd565b005b61051b60048036038101906105169190615601565b611f16565b005b6105376004803603810190610532919061536a565b611f9b565b60405161054491906152bc565b60405180910390f35b6105676004803603810190610562919061564d565b611fe4565b005b610583600480360381019061057e91906156a9565b6122cf565b005b61059f600480360381019061059a91906155b5565b61234d565b6040516105ac91906152bc565b60405180910390f35b6105cf60048036038101906105ca91906155b5565b6123a5565b005b6105eb60048036038101906105e691906155b5565b61281c565b6040516105f891906158a5565b60405180910390f35b61061b600480360381019061061691906158c7565b6129dc565b005b61063760048036038101906106329190615a03565b612a67565b60405161064491906152bc565b60405180910390f35b610667600480360381019061066291906155b5565b612b09565b005b610671612ba8565b60405161067e9190615119565b60405180910390f35b6106a1600480360381019061069c91906155b5565b612be5565b6040516106ae9190615adc565b60405180910390f35b6106d160048036038101906106cc9190615040565b612bfe565b6040516106de9190615156565b60405180910390f35b61070160048036038101906106fc91906155b5565b612cba565b005b61071d60048036038101906107189190615040565b612d6c565b005b61073960048036038101906107349190615af7565b613033565b005b6107556004803603810190610750919061536a565b613098565b005b610771600480360381019061076c91906155b5565b61313a565b005b61078d600480360381019061078891906155b5565b613146565b005b6107a960048036038101906107a49190615040565b613513565b6040516107b69190615adc565b60405180910390f35b6107c761362f565b6040516107d49190615b44565b60405180910390f35b6107f760048036038101906107f2919061541f565b613646565b60405161080491906152bc565b60405180910390f35b610827600480360381019061082291906152d7565b61366c565b005b610843600480360381019061083e919061541f565b6137e0565b6040516108509190615156565b60405180910390f35b610873600480360381019061086e919061536a565b613874565b005b61088f600480360381019061088a9190615af7565b613917565b005b6108ab60048036038101906108a691906155b5565b61397c565b6040516108bb9493929190615b9d565b60405180910390f35b6108de60048036038101906108d99190615c20565b613a26565b005b6108fa60048036038101906108f591906155b5565b613b3f565b005b610916600480360381019061091191906155b5565b613df1565b005b610932600480360381019061092d919061536a565b614315565b60405161093f9190615156565b60405180910390f35b80600c811061098c576040517f08c379a000000000000000000000000000000000000000000000000000000000815260040161098390615c99565b60405180910390fd5b6109968333611a69565b61099f57600080fd5b60006109ab848461436b565b90506000600484600c81106109c3576109c2615cb9565b5b6003020160405180606001604052908160008201805480602002602001604051908101604052809291908181526020018280548015610a2157602002820191906000526020600020905b815481526020019060010190808311610a0d575b5050505050815260200160018201805480602002602001604051908101604052809291908181526020016000905b82821015610abd578382906000526020600020016040518060400160405290816000820160009054906101000a900461ffff1661ffff1661ffff1681526020016000820160029054906101000a900461ffff1661ffff1661ffff168152505081526020019060010190610a4f565b50505050815260200160028201805480602002602001604051908101604052809291908181526020016000905b82821015610b58578382906000526020600020016040518060400160405290816000820160009054906101000a900461ffff1661ffff1661ffff1681526020016000820160029054906101000a900461ffff1661ffff1661ffff168152505081526020019060010190610aea565b505050508152505090506000602e60008773ffffffffffffffffffffffffffffffffffffffff1673ffffffffffffffffffffffffffffffffffffffff16815260200190815260200160002085600c8110610bb557610bb4615cb9565b5b600402016040518060a00160405290816000820160009054906101000a900462ffffff1662ffffff1662ffffff1681526020016000820160039054906101000a900463ffffffff1663ffffffff1663ffffffff1681526020016001820154815260200160028201548152602001600382015481525050905060008260400151826000015162ffffff1681518110610c4f57610c4e615cb9565b5b602002602001015190506000816020015161ffff16826000015161ffff1686610c789190615d17565b610c829190615da0565b905060008186610c929190615dd1565b90507f000000000000000000000000000000000000000000000000000000000000000073ffffffffffffffffffffffffffffffffffffffff1663a9059cbb8a836040518363ffffffff1660e01b8152600401610cef929190615e14565b6020604051808303816000875af1158015610d0e573d6000803e3d6000fd5b505050506040513d601f19601f82011682018060405250810190610d329190615e52565b508084608001818151610d459190615e7f565b9150818152505042846020019063ffffffff16908163ffffffff168152505083602e60008b73ffffffffffffffffffffffffffffffffffffffff1673ffffffffffffffffffffffffffffffffffffffff16815260200190815260200160002089600c8110610db657610db5615cb9565b5b6004020160008201518160000160006101000a81548162ffffff021916908362ffffff16021790555060208201518160000160036101000a81548163ffffffff021916908363ffffffff160217905550604082015181600101556060820151816002015560808201518160030155905050878973ffffffffffffffffffffffffffffffffffffffff167f888f19217ddad5c6a51226c6812abe28b4400e72206c3b170ae84829bd03a7a088604051610e6e91906152bc565b60405180910390a3505050505050505050565b60606040518060400160405280600881526020017f4661726d4275636b000000000000000000000000000000000000000000000000815250905090565b600080600083119050610ed18482611afd565b8373ffffffffffffffffffffffffffffffffffffffff163373ffffffffffffffffffffffffffffffffffffffff167f8c5be1e5ebec7d5bd14f71427d1e84f3dd0314c0f7b2291e5b200ac8c7c3b925600254604051610f3091906152bc565b60405180910390a3600191505092915050565b610f4c33614315565b610f8b576040517f08c379a0000000000000000000000000000000000000000000000000000000008152600401610f8290615f21565b60405180910390fd5b818190508484905014610fd3576040517f08c379a0000000000000000000000000000000000000000000000000000000008152600401610fca90615f8d565b60405180910390fd5b60005b8484905081101561123d576000838383818110610ff657610ff5615cb9565b5b90506020028101906110089190615fbc565b80600001906110179190615fe4565b905011801561105b5750600083838381811061103657611035615cb9565b5b90506020028101906110489190615fbc565b80602001906110579190616047565b9050115b801561109c5750600083838381811061107757611076615cb9565b5b90506020028101906110899190615fbc565b80604001906110989190616047565b9050115b801561111157508282828181106110b6576110b5615cb9565b5b90506020028101906110c89190615fbc565b80602001906110d79190616047565b90508383838181106110ec576110eb615cb9565b5b90506020028101906110fe9190615fbc565b806000019061110d9190615fe4565b9050145b8015611186575082828281811061112b5761112a615cb9565b5b905060200281019061113d9190615fbc565b806040019061114c9190616047565b905083838381811061116157611160615cb9565b5b90506020028101906111739190615fbc565b80602001906111829190616047565b9050145b6111c5576040517f08c379a00000000000000000000000000000000000000000000000000000000081526004016111bc90616168565b60405180910390fd5b8282828181106111d8576111d7615cb9565b5b90506020028101906111ea9190615fbc565b60048686848181106111ff576111fe615cb9565b5b90506020020135600c811061121757611216615cb9565b5b600302018181611227919061672f565b90505080806112359061673d565b915050610fd6565b5050505050565b6000600254905090565b600082600c8110611294576040517f08c379a000000000000000000000000000000000000000000000000000000000815260040161128b90615c99565b60405180910390fd5b6000600485600c81106112aa576112a9615cb9565b5b600302016040518060600160405290816000820180548060200260200160405190810160405280929190818152602001828054801561130857602002820191906000526020600020905b8154815260200190600101908083116112f4575b5050505050815260200160018201805480602002602001604051908101604052809291908181526020016000905b828210156113a4578382906000526020600020016040518060400160405290816000820160009054906101000a900461ffff1661ffff1661ffff1681526020016000820160029054906101000a900461ffff1661ffff1661ffff168152505081526020019060010190611336565b50505050815260200160028201805480602002602001604051908101604052809291908181526020016000905b8282101561143f578382906000526020600020016040518060400160405290816000820160009054906101000a900461ffff1661ffff1661ffff1681526020016000820160029054906101000a900461ffff1661ffff1661ffff1681525050815260200190600101906113d1565b50505050815250509050838160000151511015611491576040517f08c379a0000000000000000000000000000000000000000000000000000000008152600401611488906167d2565b60405180910390fd5b806000015184815181106114a8576114a7615cb9565b5b60200260200101519250505092915050565b6000603160009054906101000a900460ff1680611522575060008054906101000a900473ffffffffffffffffffffffffffffffffffffffff1673ffffffffffffffffffffffffffffffffffffffff163373ffffffffffffffffffffffffffffffffffffffff16145b611561576040517f08c379a000000000000000000000000000000000000000000000000000000000815260040161155890616864565b60405180910390fd5b61156c8484846146d0565b6115768433611a69565b6115b5576040517f08c379a00000000000000000000000000000000000000000000000000000000081526004016115ac906168f6565b60405180910390fd5b600190509392505050565b60008060009054906101000a900473ffffffffffffffffffffffffffffffffffffffff1673ffffffffffffffffffffffffffffffffffffffff168273ffffffffffffffffffffffffffffffffffffffff16149050919050565b60006012905090565b600082600c8110611668576040517f08c379a000000000000000000000000000000000000000000000000000000000815260040161165f90615c99565b60405180910390fd5b6000600485600c811061167e5761167d615cb9565b5b60030201604051806060016040529081600082018054806020026020016040519081016040528092919081815260200182805480156116dc57602002820191906000526020600020905b8154815260200190600101908083116116c8575b5050505050815260200160018201805480602002602001604051908101604052809291908181526020016000905b82821015611778578382906000526020600020016040518060400160405290816000820160009054906101000a900461ffff1661ffff1661ffff1681526020016000820160029054906101000a900461ffff1661ffff1661ffff16815250508152602001906001019061170a565b50505050815260200160028201805480602002602001604051908101604052809291908181526020016000905b82821015611813578382906000526020600020016040518060400160405290816000820160009054906101000a900461ffff1661ffff1661ffff1681526020016000820160029054906101000a900461ffff1661ffff1661ffff1681525050815260200190600101906117a5565b5050505081525050905080600001515184109250505092915050565b61183833614315565b611877576040517f08c379a000000000000000000000000000000000000000000000000000000000815260040161186e90615f21565b60405180910390fd5b602960019054906101000a900460ff16156118c7576040517f08c379a00000000000000000000000000000000000000000000000000000000081526004016118be90616988565b60405180910390fd5b602a54602c60003373ffffffffffffffffffffffffffffffffffffffff1673ffffffffffffffffffffffffffffffffffffffff16815260200190815260200160002060008282540192505081905550602a546002600082825401925050819055506001602960016101000a81548160ff021916908315150217905550565b61194e33614315565b61198d576040517f08c379a000000000000000000000000000000000000000000000000000000000815260040161198490615f21565b60405180910390fd5b80602b818161199c91906169a8565b90505050565b80600c81106119e6576040517f08c379a00000000000000000000000000000000000000000000000000000000081526004016119dd90615c99565b60405180910390fd5b6119f08333611a69565b6119f957600080fd5b6000611a05848461436b565b9050611a148385836001614978565b828473ffffffffffffffffffffffffffffffffffffffff167f820cea42e8517cf1ec6d4e9db93909255f07c45f7eb0a7c7b5a0f8bdcfc2e5bf83604051611a5b91906152bc565b60405180910390a350505050565b6000602d60008473ffffffffffffffffffffffffffffffffffffffff1673ffffffffffffffffffffffffffffffffffffffff16815260200190815260200160002060008373ffffffffffffffffffffffffffffffffffffffff1673ffffffffffffffffffffffffffffffffffffffff16815260200190815260200160002060009054906101000a900460ff16905092915050565b80602d60003373ffffffffffffffffffffffffffffffffffffffff1673ffffffffffffffffffffffffffffffffffffffff16815260200190815260200160002060008473ffffffffffffffffffffffffffffffffffffffff1673ffffffffffffffffffffffffffffffffffffffff16815260200190815260200160002060006101000a81548160ff0219169083151502179055508173ffffffffffffffffffffffffffffffffffffffff163373ffffffffffffffffffffffffffffffffffffffff167f0c8df66a7b22af6c2076e2c0586bca7548f9584b071221f363cde24bdbd9e62f83604051611bee9190615156565b60405180910390a35050565b611c02614ee1565b602f60008373ffffffffffffffffffffffffffffffffffffffff1673ffffffffffffffffffffffffffffffffffffffff1681526020019081526020016000206040518060800160405290816000820160009054906101000a900463ffffffff1663ffffffff1663ffffffff1681526020016000820160049054906101000a900463ffffffff1663ffffffff1663ffffffff16815260200160018201548152602001600282016040518060400160405290816000820160009054906101000a900461ffff1661ffff1661ffff1681526020016000820160029054906101000a900461ffff1661ffff1661ffff1681525050815250509050919050565b611d0633614315565b611d45576040517f08c379a0000000000000000000000000000000000000000000000000000000008152600401611d3c90615f21565b60405180910390fd5b60286001602880549050611d599190615dd1565b81548110611d6a57611d69615cb9565b5b906000526020600020906003020160288281548110611d8c57611d8b615cb9565b5b90600052602060002090600302016000820160009054906101000a900463ffffffff168160000160006101000a81548163ffffffff021916908363ffffffff1602179055506000820160049054906101000a900463ffffffff168160000160046101000a81548163ffffffff021916908363ffffffff1602179055506001820154816001015560028201816002016000820160009054906101000a900461ffff168160000160006101000a81548161ffff021916908361ffff1602179055506000820160029054906101000a900461ffff168160000160026101000a81548161ffff021916908361ffff16021790555050509050506028805480611e9357611e926169b6565b5b6001900381819060005260206000209060030201600080820160006101000a81549063ffffffff02191690556000820160046101000a81549063ffffffff0219169055600182016000905560028201600080820160006101000a81549061ffff02191690556000820160026101000a81549061ffff021916905550505050905550565b611f1f33614315565b611f5e576040517f08c379a0000000000000000000000000000000000000000000000000000000008152600401611f5590615f21565b60405180910390fd5b60288190806001815401808255809150506001900390600052602060002090600302016000909190919091508181611f969190616bc3565b505050565b6000602c60008373ffffffffffffffffffffffffffffffffffffffff1673ffffffffffffffffffffffffffffffffffffffff168152602001908152602001600020549050919050565b611fed33614315565b61202c576040517f08c379a000000000000000000000000000000000000000000000000000000000815260040161202390615f21565b60405180910390fd5b80600081806000019061203f9190615fe4565b905011612081576040517f08c379a000000000000000000000000000000000000000000000000000000000815260040161207890616c43565b60405180910390fd5b60008180602001906120939190616047565b9050116120d5576040517f08c379a00000000000000000000000000000000000000000000000000000000081526004016120cc90616cd5565b60405180910390fd5b60008180604001906120e79190616047565b905011612129576040517f08c379a000000000000000000000000000000000000000000000000000000000815260040161212090616d67565b60405180910390fd5b8080602001906121399190616047565b905081806000019061214b9190615fe4565b905014801561217b57508080604001906121659190616047565b90508180602001906121779190616047565b9050145b6121ba576040517f08c379a00000000000000000000000000000000000000000000000000000000081526004016121b190616df9565b60405180910390fd5b60008280600001906121cc9190615fe4565b90501180156121ec575060008280602001906121e89190616047565b9050115b8015612209575060008280604001906122059190616047565b9050115b801561223657508180602001906122209190616047565b90508280600001906122329190615fe4565b9050145b8015612263575081806040019061224d9190616047565b905082806020019061225f9190616047565b9050145b6122a2576040517f08c379a000000000000000000000000000000000000000000000000000000000815260040161229990616168565b60405180910390fd5b81600484600c81106122b7576122b6615cb9565b5b6003020181816122c7919061672f565b905050505050565b6122d833614315565b612317576040517f08c379a000000000000000000000000000000000000000000000000000000000815260040161230e90615f21565b60405180910390fd5b806028838154811061232c5761232b615cb9565b5b906000526020600020906003020181816123469190616bc3565b9050505050565b600081600c8110612393576040517f08c379a000000000000000000000000000000000000000000000000000000000815260040161238a90615c99565b60405180910390fd5b61239d338461436b565b915050919050565b602960009054906101000a900460ff166123f4576040517f08c379a00000000000000000000000000000000000000000000000000000000081526004016123eb90616e8b565b60405180910390fd5b6000602f60003373ffffffffffffffffffffffffffffffffffffffff1673ffffffffffffffffffffffffffffffffffffffff1681526020019081526020016000206040518060800160405290816000820160009054906101000a900463ffffffff1663ffffffff1663ffffffff1681526020016000820160049054906101000a900463ffffffff1663ffffffff1663ffffffff16815260200160018201548152602001600282016040518060400160405290816000820160009054906101000a900461ffff1661ffff1661ffff1681526020016000820160029054906101000a900461ffff1661ffff1661ffff16815250508152505090506000816000015163ffffffff16111561255b5742816020015182600001516125149190616eab565b63ffffffff161061255a576040517f08c379a000000000000000000000000000000000000000000000000000000000815260040161255190616f31565b60405180910390fd5b5b60006028838154811061257157612570615cb9565b5b90600052602060002090600302016040518060800160405290816000820160009054906101000a900463ffffffff1663ffffffff1663ffffffff1681526020016000820160049054906101000a900463ffffffff1663ffffffff1663ffffffff16815260200160018201548152602001600282016040518060400160405290816000820160009054906101000a900461ffff1661ffff1661ffff1681526020016000820160029054906101000a900461ffff1661ffff1661ffff16815250508152505090508060400151602c60003373ffffffffffffffffffffffffffffffffffffffff1673ffffffffffffffffffffffffffffffffffffffff1681526020019081526020016000205410156126bc576040517f08c379a00000000000000000000000000000000000000000000000000000000081526004016126b390616fc3565b60405180910390fd5b8060400151602c60003373ffffffffffffffffffffffffffffffffffffffff1673ffffffffffffffffffffffffffffffffffffffff16815260200190815260200160002060008282540392505081905550600081905042816000019063ffffffff16908163ffffffff168152505080602f60003373ffffffffffffffffffffffffffffffffffffffff1673ffffffffffffffffffffffffffffffffffffffff16815260200190815260200160002060008201518160000160006101000a81548163ffffffff021916908363ffffffff16021790555060208201518160000160046101000a81548163ffffffff021916908363ffffffff1602179055506040820151816001015560608201518160020160008201518160000160006101000a81548161ffff021916908361ffff16021790555060208201518160000160026101000a81548161ffff021916908361ffff160217905550505090505050505050565b612824614f1b565b600482600c811061283857612837615cb9565b5b600302016040518060600160405290816000820180548060200260200160405190810160405280929190818152602001828054801561289657602002820191906000526020600020905b815481526020019060010190808311612882575b5050505050815260200160018201805480602002602001604051908101604052809291908181526020016000905b82821015612932578382906000526020600020016040518060400160405290816000820160009054906101000a900461ffff1661ffff1661ffff1681526020016000820160029054906101000a900461ffff1661ffff1661ffff1681525050815260200190600101906128c4565b50505050815260200160028201805480602002602001604051908101604052809291908181526020016000905b828210156129cd578382906000526020600020016040518060400160405290816000820160009054906101000a900461ffff1661ffff1661ffff1681526020016000820160029054906101000a900461ffff1661ffff1661ffff16815250508152602001906001019061295f565b50505050815250509050919050565b80603060003373ffffffffffffffffffffffffffffffffffffffff1673ffffffffffffffffffffffffffffffffffffffff16815260200190815260200160002060006101000a81548173ffffffffffffffffffffffffffffffffffffffff021916908373ffffffffffffffffffffffffffffffffffffffff160217905550612a6382614c07565b5050565b600080612710905060006201518060648387612a839190615d17565b612a8d9190615d17565b612a979190615da0565b90506000846020015161ffff16856000015161ffff168489612ab99190615d17565b612ac39190615d17565b612acd9190615da0565b9050828360648484612adf9190615d17565b612ae99190615da0565b612af39190615da0565b612afd9190615da0565b93505050509392505050565b612b1233614315565b612b51576040517f08c379a0000000000000000000000000000000000000000000000000000000008152600401612b4890615f21565b60405180910390fd5b6a084595161401484a0000008110612b9e576040517f08c379a0000000000000000000000000000000000000000000000000000000008152600401612b9590617055565b60405180910390fd5b80602a8190555050565b60606040518060400160405280600581526020017f464255434b000000000000000000000000000000000000000000000000000000815250905090565b612bed614f3c565b612bf73383613513565b9050919050565b6000603160009054906101000a900460ff1680612c66575060008054906101000a900473ffffffffffffffffffffffffffffffffffffffff1673ffffffffffffffffffffffffffffffffffffffff163373ffffffffffffffffffffffffffffffffffffffff16145b612ca5576040517f08c379a0000000000000000000000000000000000000000000000000000000008152600401612c9c90616864565b60405180910390fd5b612cb03384846146d0565b6001905092915050565b80600c8110612cfe576040517f08c379a0000000000000000000000000000000000000000000000000000000008152600401612cf590615c99565b60405180910390fd5b6000612d098361234d565b9050612d188333836001614978565b823373ffffffffffffffffffffffffffffffffffffffff167f820cea42e8517cf1ec6d4e9db93909255f07c45f7eb0a7c7b5a0f8bdcfc2e5bf83604051612d5f91906152bc565b60405180910390a3505050565b80600c8110612db0576040517f08c379a0000000000000000000000000000000000000000000000000000000008152600401612da790615c99565b60405180910390fd5b612dba8333611a69565b612dc357600080fd5b6000612dcf848461436b565b90506000602e60008673ffffffffffffffffffffffffffffffffffffffff1673ffffffffffffffffffffffffffffffffffffffff16815260200190815260200160002084600c8110612e2457612e23615cb9565b5b600402016040518060a00160405290816000820160009054906101000a900462ffffff1662ffffff1662ffffff1681526020016000820160039054906101000a900463ffffffff1663ffffffff1663ffffffff1681526020016001820154815260200160028201548152602001600382015481525050905081602c60008773ffffffffffffffffffffffffffffffffffffffff1673ffffffffffffffffffffffffffffffffffffffff168152602001908152602001600020600082825401925050819055508181606001818151612efb9190615e7f565b9150818152505042816020019063ffffffff16908163ffffffff168152505080602e60008773ffffffffffffffffffffffffffffffffffffffff1673ffffffffffffffffffffffffffffffffffffffff16815260200190815260200160002085600c8110612f6c57612f6b615cb9565b5b6004020160008201518160000160006101000a81548162ffffff021916908362ffffff16021790555060208201518160000160036101000a81548163ffffffff021916908363ffffffff160217905550604082015181600101556060820151816002015560808201518160030155905050838573ffffffffffffffffffffffffffffffffffffffff167fd4c220a036e494dc8d9e171d2a06a37f490ec132e69a1ff788e87d75ba6865688460405161302491906152bc565b60405180910390a35050505050565b61303c33614315565b61307b576040517f08c379a000000000000000000000000000000000000000000000000000000000815260040161307290615f21565b60405180910390fd5b80603160006101000a81548160ff02191690831515021790555050565b6130a1336115c0565b6130e0576040517f08c379a00000000000000000000000000000000000000000000000000000000081526004016130d7906170c1565b60405180910390fd5b60018060008373ffffffffffffffffffffffffffffffffffffffff1673ffffffffffffffffffffffffffffffffffffffff16815260200190815260200160002060006101000a81548160ff02191690831515021790555050565b61314381614c07565b50565b80600c811061318a576040517f08c379a000000000000000000000000000000000000000000000000000000000815260040161318190615c99565b60405180910390fd5b600061319783600061124e565b905080602c60003373ffffffffffffffffffffffffffffffffffffffff1673ffffffffffffffffffffffffffffffffffffffff16815260200190815260200160002054101561321b576040517f08c379a00000000000000000000000000000000000000000000000000000000081526004016132129061712d565b60405180910390fd5b6000602e60003373ffffffffffffffffffffffffffffffffffffffff1673ffffffffffffffffffffffffffffffffffffffff16815260200190815260200160002084600c811061326e5761326d615cb9565b5b600402016040518060a00160405290816000820160009054906101000a900462ffffff1662ffffff1662ffffff1681526020016000820160039054906101000a900463ffffffff1663ffffffff1663ffffffff168152602001600182015481526020016002820154815260200160038201548152505090506000816000015162ffffff1614613332576040517f08c379a0000000000000000000000000000000000000000000000000000000008152600401613329906171bf565b60405180910390fd5b81602c60003373ffffffffffffffffffffffffffffffffffffffff1673ffffffffffffffffffffffffffffffffffffffff168152602001908152602001600020600082825403925050819055506001602e60003373ffffffffffffffffffffffffffffffffffffffff1673ffffffffffffffffffffffffffffffffffffffff16815260200190815260200160002085600c81106133d2576133d1615cb9565b5b6004020160000160006101000a81548162ffffff021916908362ffffff16021790555081602e60003373ffffffffffffffffffffffffffffffffffffffff1673ffffffffffffffffffffffffffffffffffffffff16815260200190815260200160002085600c811061344757613446615cb9565b5b600402016001018190555042602e60003373ffffffffffffffffffffffffffffffffffffffff1673ffffffffffffffffffffffffffffffffffffffff16815260200190815260200160002085600c81106134a4576134a3615cb9565b5b6004020160000160036101000a81548163ffffffff021916908363ffffffff160217905550833373ffffffffffffffffffffffffffffffffffffffff167fbfec54def49903f34ca9cf2128a54145e70ab76a425316fad737a5901cf820d460405160405180910390a350505050565b61351b614f3c565b81600c811061355f576040517f08c379a000000000000000000000000000000000000000000000000000000000815260040161355690615c99565b60405180910390fd5b602e60008573ffffffffffffffffffffffffffffffffffffffff1673ffffffffffffffffffffffffffffffffffffffff16815260200190815260200160002083600c81106135b0576135af615cb9565b5b600402016040518060a00160405290816000820160009054906101000a900462ffffff1662ffffff1662ffffff1681526020016000820160039054906101000a900463ffffffff1663ffffffff1663ffffffff168152602001600182015481526020016002820154815260200160038201548152505091505092915050565b600360009054906101000a900464ffffffffff1681565b60006136528383611a69565b15613661576002549050613666565b600090505b92915050565b81600c81106136b0576040517f08c379a00000000000000000000000000000000000000000000000000000000081526004016136a790615c99565b60405180910390fd5b81602c60003373ffffffffffffffffffffffffffffffffffffffff1673ffffffffffffffffffffffffffffffffffffffff168152602001908152602001600020541015613732576040517f08c379a00000000000000000000000000000000000000000000000000000000081526004016137299061712d565b60405180910390fd5b61373f8333846000614978565b81602c60003373ffffffffffffffffffffffffffffffffffffffff1673ffffffffffffffffffffffffffffffffffffffff16815260200190815260200160002060008282540392505081905550823373ffffffffffffffffffffffffffffffffffffffff167f9e9d071824fd57d062ca63fd8b786d8da48a6807eebbcb2d83f9e8d21398e28c846040516137d391906152bc565b60405180910390a3505050565b6000602d60008473ffffffffffffffffffffffffffffffffffffffff1673ffffffffffffffffffffffffffffffffffffffff16815260200190815260200160002060008373ffffffffffffffffffffffffffffffffffffffff1673ffffffffffffffffffffffffffffffffffffffff16815260200190815260200160002060009054906101000a900460ff16905092915050565b61387d336115c0565b6138bc576040517f08c379a00000000000000000000000000000000000000000000000000000000081526004016138b3906170c1565b60405180910390fd5b6000600160008373ffffffffffffffffffffffffffffffffffffffff1673ffffffffffffffffffffffffffffffffffffffff16815260200190815260200160002060006101000a81548160ff02191690831515021790555050565b61392033614315565b61395f576040517f08c379a000000000000000000000000000000000000000000000000000000000815260040161395690615f21565b60405180910390fd5b80602960006101000a81548160ff02191690831515021790555050565b6028818154811061398c57600080fd5b90600052602060002090600302016000915090508060000160009054906101000a900463ffffffff16908060000160049054906101000a900463ffffffff1690806001015490806002016040518060400160405290816000820160009054906101000a900461ffff1661ffff1661ffff1681526020016000820160029054906101000a900461ffff1661ffff1661ffff1681525050905084565b613a2f336115c0565b613a6e576040517f08c379a0000000000000000000000000000000000000000000000000000000008152600401613a65906170c1565b60405180910390fd5b806000806101000a81548173ffffffffffffffffffffffffffffffffffffffff021916908373ffffffffffffffffffffffffffffffffffffffff16021790555060018060008373ffffffffffffffffffffffffffffffffffffffff1673ffffffffffffffffffffffffffffffffffffffff16815260200190815260200160002060006101000a81548160ff0219169083151502179055507f04dba622d284ed0014ee4b9a6a68386be1a4c08a4913ae272de89199cc68616381604051613b349190617234565b60405180910390a150565b80600c8110613b83576040517f08c379a0000000000000000000000000000000000000000000000000000000008152600401613b7a90615c99565b60405180910390fd5b6000613b8e8361234d565b90506000602e60003373ffffffffffffffffffffffffffffffffffffffff1673ffffffffffffffffffffffffffffffffffffffff16815260200190815260200160002084600c8110613be357613be2615cb9565b5b600402016040518060a00160405290816000820160009054906101000a900462ffffff1662ffffff1662ffffff1681526020016000820160039054906101000a900463ffffffff1663ffffffff1663ffffffff1681526020016001820154815260200160028201548152602001600382015481525050905081602c60003373ffffffffffffffffffffffffffffffffffffffff1673ffffffffffffffffffffffffffffffffffffffff168152602001908152602001600020600082825401925050819055508181606001818151613cba9190615e7f565b9150818152505042816020019063ffffffff16908163ffffffff168152505080602e60003373ffffffffffffffffffffffffffffffffffffffff1673ffffffffffffffffffffffffffffffffffffffff16815260200190815260200160002085600c8110613d2b57613d2a615cb9565b5b6004020160008201518160000160006101000a81548162ffffff021916908362ffffff16021790555060208201518160000160036101000a81548163ffffffff021916908363ffffffff160217905550604082015181600101556060820151816002015560808201518160030155905050833373ffffffffffffffffffffffffffffffffffffffff167fd4c220a036e494dc8d9e171d2a06a37f490ec132e69a1ff788e87d75ba68656884604051613de391906152bc565b60405180910390a350505050565b80600c8110613e35576040517f08c379a0000000000000000000000000000000000000000000000000000000008152600401613e2c90615c99565b60405180910390fd5b6000613e408361234d565b90506000600484600c8110613e5857613e57615cb9565b5b6003020160405180606001604052908160008201805480602002602001604051908101604052809291908181526020018280548015613eb657602002820191906000526020600020905b815481526020019060010190808311613ea2575b5050505050815260200160018201805480602002602001604051908101604052809291908181526020016000905b82821015613f52578382906000526020600020016040518060400160405290816000820160009054906101000a900461ffff1661ffff1661ffff1681526020016000820160029054906101000a900461ffff1661ffff1661ffff168152505081526020019060010190613ee4565b50505050815260200160028201805480602002602001604051908101604052809291908181526020016000905b82821015613fed578382906000526020600020016040518060400160405290816000820160009054906101000a900461ffff1661ffff1661ffff1681526020016000820160029054906101000a900461ffff1661ffff1661ffff168152505081526020019060010190613f7f565b505050508152505090506000602e60003373ffffffffffffffffffffffffffffffffffffffff1673ffffffffffffffffffffffffffffffffffffffff16815260200190815260200160002085600c811061404a57614049615cb9565b5b600402016040518060a00160405290816000820160009054906101000a900462ffffff1662ffffff1662ffffff1681526020016000820160039054906101000a900463ffffffff1663ffffffff1663ffffffff1681526020016001820154815260200160028201548152602001600382015481525050905060008260400151826000015162ffffff16815181106140e4576140e3615cb9565b5b602002602001015190506000816020015161ffff16826000015161ffff168661410d9190615d17565b6141179190615da0565b9050600081866141279190615dd1565b90507f000000000000000000000000000000000000000000000000000000000000000073ffffffffffffffffffffffffffffffffffffffff1663a9059cbb33836040518363ffffffff1660e01b8152600401614184929190615e14565b6020604051808303816000875af11580156141a3573d6000803e3d6000fd5b505050506040513d601f19601f820116820180604052508101906141c79190615e52565b5080846080018181516141da9190615e7f565b9150818152505042846020019063ffffffff16908163ffffffff168152505083602e60003373ffffffffffffffffffffffffffffffffffffffff1673ffffffffffffffffffffffffffffffffffffffff16815260200190815260200160002089600c811061424b5761424a615cb9565b5b6004020160008201518160000160006101000a81548162ffffff021916908362ffffff16021790555060208201518160000160036101000a81548163ffffffff021916908363ffffffff160217905550604082015181600101556060820151816002015560808201518160030155905050873373ffffffffffffffffffffffffffffffffffffffff167f888f19217ddad5c6a51226c6812abe28b4400e72206c3b170ae84829bd03a7a08860405161430391906152bc565b60405180910390a35050505050505050565b6000600160008373ffffffffffffffffffffffffffffffffffffffff1673ffffffffffffffffffffffffffffffffffffffff16815260200190815260200160002060009054906101000a900460ff169050919050565b600080602e60008573ffffffffffffffffffffffffffffffffffffffff1673ffffffffffffffffffffffffffffffffffffffff16815260200190815260200160002083600c81106143bf576143be615cb9565b5b600402016040518060a00160405290816000820160009054906101000a900462ffffff1662ffffff1662ffffff1681526020016000820160039054906101000a900463ffffffff1663ffffffff1663ffffffff168152602001600182015481526020016002820154815260200160038201548152505090506000816020015163ffffffff164261444f9190615dd1565b90506000811415614465576000925050506146ca565b6000600485600c811061447b5761447a615cb9565b5b60030201600101836000015162ffffff168154811061449d5761449c615cb9565b5b906000526020600020016040518060400160405290816000820160009054906101000a900461ffff1661ffff1661ffff1681526020016000820160029054906101000a900461ffff1661ffff1661ffff168152505090506000600360009054906101000a900464ffffffffff1664ffffffffff16831161451d5782614539565b600360009054906101000a900464ffffffffff1664ffffffffff165b9050600061454c85604001518385612a67565b9050602960009054906101000a900460ff16156146c1576000602f60008a73ffffffffffffffffffffffffffffffffffffffff1673ffffffffffffffffffffffffffffffffffffffff1681526020019081526020016000206040518060800160405290816000820160009054906101000a900463ffffffff1663ffffffff1663ffffffff1681526020016000820160049054906101000a900463ffffffff1663ffffffff1663ffffffff16815260200160018201548152602001600282016040518060400160405290816000820160009054906101000a900461ffff1661ffff1661ffff1681526020016000820160029054906101000a900461ffff1661ffff1661ffff168152505081525050905042816020015182600001516146709190616eab565b63ffffffff1611156146bf57600081606001516020015161ffff1682606001516000015161ffff16846146a39190615d17565b6146ad9190615da0565b905080836146bb9190615e7f565b9250505b505b80955050505050505b92915050565b600073ffffffffffffffffffffffffffffffffffffffff168373ffffffffffffffffffffffffffffffffffffffff161415614740576040517f08c379a0000000000000000000000000000000000000000000000000000000008152600401614737906172c1565b60405180910390fd5b600073ffffffffffffffffffffffffffffffffffffffff168273ffffffffffffffffffffffffffffffffffffffff1614156147b0576040517f08c379a00000000000000000000000000000000000000000000000000000000081526004016147a790617353565b60405180910390fd5b600081116147f3576040517f08c379a00000000000000000000000000000000000000000000000000000000081526004016147ea906173e5565b60405180910390fd5b6000602c60008573ffffffffffffffffffffffffffffffffffffffff1673ffffffffffffffffffffffffffffffffffffffff1681526020019081526020016000205490508181101561487a576040517f08c379a000000000000000000000000000000000000000000000000000000000815260040161487190617477565b60405180910390fd5b818103602c60008673ffffffffffffffffffffffffffffffffffffffff1673ffffffffffffffffffffffffffffffffffffffff1681526020019081526020016000208190555081602c60008573ffffffffffffffffffffffffffffffffffffffff1673ffffffffffffffffffffffffffffffffffffffff168152602001908152602001600020600082825401925050819055508273ffffffffffffffffffffffffffffffffffffffff168473ffffffffffffffffffffffffffffffffffffffff167fddf252ad1be2c89b69c2b068fc378daa952ba7f163c4a11628f55a4df523b3ef8460405161496a91906152bc565b60405180910390a350505050565b6000602e60008573ffffffffffffffffffffffffffffffffffffffff1673ffffffffffffffffffffffffffffffffffffffff16815260200190815260200160002085600c81106149cb576149ca615cb9565b5b600402016040518060a00160405290816000820160009054906101000a900462ffffff1662ffffff1662ffffff1681526020016000820160039054906101000a900463ffffffff1663ffffffff1663ffffffff168152602001600182015481526020016002820154815260200160038201548152505090506000816000015162ffffff1611614a8f576040517f08c379a0000000000000000000000000000000000000000000000000000000008152600401614a8690617509565b60405180910390fd5b8281604001818151614aa19190615e7f565b91508181525050614abb85826000015162ffffff16611622565b15614b05576000614ad586836000015162ffffff1661124e565b905080826040015110614b0357816000018051809190614af490617529565b62ffffff1662ffffff16815250505b505b8115614b3d578281606001818151614b1d9190615e7f565b9150818152505042816020019063ffffffff16908163ffffffff16815250505b80602e60008673ffffffffffffffffffffffffffffffffffffffff1673ffffffffffffffffffffffffffffffffffffffff16815260200190815260200160002086600c8110614b8f57614b8e615cb9565b5b6004020160008201518160000160006101000a81548162ffffff021916908362ffffff16021790555060208201518160000160036101000a81548163ffffffff021916908363ffffffff1602179055506040820151816001015560608201518160020155608082015181600301559050505050505050565b7f000000000000000000000000000000000000000000000000000000000000000073ffffffffffffffffffffffffffffffffffffffff166323b872dd3330846040518463ffffffff1660e01b8152600401614c6493929190617555565b6020604051808303816000875af1158015614c83573d6000803e3d6000fd5b505050506040513d601f19601f82011682018060405250810190614ca79190615e52565b614cb057600080fd5b80602c60003373ffffffffffffffffffffffffffffffffffffffff1673ffffffffffffffffffffffffffffffffffffffff16815260200190815260200160002060008282540192505081905550600073ffffffffffffffffffffffffffffffffffffffff16603060003373ffffffffffffffffffffffffffffffffffffffff1673ffffffffffffffffffffffffffffffffffffffff16815260200190815260200160002060009054906101000a900473ffffffffffffffffffffffffffffffffffffffff1673ffffffffffffffffffffffffffffffffffffffff1614614e90576000602b60000160029054906101000a900461ffff1661ffff16602b60000160009054906101000a900461ffff1661ffff1683614dcd9190615d17565b614dd79190615da0565b905080602c6000603060003373ffffffffffffffffffffffffffffffffffffffff1673ffffffffffffffffffffffffffffffffffffffff16815260200190815260200160002060009054906101000a900473ffffffffffffffffffffffffffffffffffffffff1673ffffffffffffffffffffffffffffffffffffffff1673ffffffffffffffffffffffffffffffffffffffff1681526020019081526020016000206000828254614e879190615e7f565b92505081905550505b3373ffffffffffffffffffffffffffffffffffffffff167f9b5ce49ffbc992ee67baad9481ff227141a5c0c1a324c22392a4581857d3e21582604051614ed691906152bc565b60405180910390a250565b6040518060800160405280600063ffffffff168152602001600063ffffffff16815260200160008152602001614f15614f76565b81525090565b60405180606001604052806060815260200160608152602001606081525090565b6040518060a00160405280600062ffffff168152602001600063ffffffff1681526020016000815260200160008152602001600081525090565b6040518060400160405280600061ffff168152602001600061ffff1681525090565b6000604051905090565b600080fd5b600080fd5b600073ffffffffffffffffffffffffffffffffffffffff82169050919050565b6000614fd782614fac565b9050919050565b614fe781614fcc565b8114614ff257600080fd5b50565b60008135905061500481614fde565b92915050565b6000819050919050565b61501d8161500a565b811461502857600080fd5b50565b60008135905061503a81615014565b92915050565b6000806040838503121561505757615056614fa2565b5b600061506585828601614ff5565b92505060206150768582860161502b565b9150509250929050565b600081519050919050565b600082825260208201905092915050565b60005b838110156150ba57808201518184015260208101905061509f565b838111156150c9576000848401525b50505050565b6000601f19601f8301169050919050565b60006150eb82615080565b6150f5818561508b565b935061510581856020860161509c565b61510e816150cf565b840191505092915050565b6000602082019050818103600083015261513381846150e0565b905092915050565b60008115159050919050565b6151508161513b565b82525050565b600060208201905061516b6000830184615147565b92915050565b600080fd5b600080fd5b600080fd5b60008083601f84011261519657615195615171565b5b8235905067ffffffffffffffff8111156151b3576151b2615176565b5b6020830191508360208202830111156151cf576151ce61517b565b5b9250929050565b60008083601f8401126151ec576151eb615171565b5b8235905067ffffffffffffffff81111561520957615208615176565b5b6020830191508360208202830111156152255761522461517b565b5b9250929050565b6000806000806040858703121561524657615245614fa2565b5b600085013567ffffffffffffffff81111561526457615263614fa7565b5b61527087828801615180565b9450945050602085013567ffffffffffffffff81111561529357615292614fa7565b5b61529f878288016151d6565b925092505092959194509250565b6152b68161500a565b82525050565b60006020820190506152d160008301846152ad565b92915050565b600080604083850312156152ee576152ed614fa2565b5b60006152fc8582860161502b565b925050602061530d8582860161502b565b9150509250929050565b6000806000606084860312156153305761532f614fa2565b5b600061533e86828701614ff5565b935050602061534f86828701614ff5565b92505060406153608682870161502b565b9150509250925092565b6000602082840312156153805761537f614fa2565b5b600061538e84828501614ff5565b91505092915050565b600060ff82169050919050565b6153ad81615397565b82525050565b60006020820190506153c860008301846153a4565b92915050565b600080fd5b6000604082840312156153e9576153e86153ce565b5b81905092915050565b60006040828403121561540857615407614fa2565b5b6000615416848285016153d3565b91505092915050565b6000806040838503121561543657615435614fa2565b5b600061544485828601614ff5565b925050602061545585828601614ff5565b9150509250929050565b6154688161513b565b811461547357600080fd5b50565b6000813590506154858161545f565b92915050565b600080604083850312156154a2576154a1614fa2565b5b60006154b085828601614ff5565b92505060206154c185828601615476565b9150509250929050565b600063ffffffff82169050919050565b6154e4816154cb565b82525050565b6154f38161500a565b82525050565b600061ffff82169050919050565b615510816154f9565b82525050565b60408201600082015161552c6000850182615507565b50602082015161553f6020850182615507565b50505050565b60a08201600082015161555b60008501826154db565b50602082015161556e60208501826154db565b50604082015161558160408501826154ea565b5060608201516155946060850182615516565b50505050565b600060a0820190506155af6000830184615545565b92915050565b6000602082840312156155cb576155ca614fa2565b5b60006155d98482850161502b565b91505092915050565b600060a082840312156155f8576155f76153ce565b5b81905092915050565b600060a0828403121561561757615616614fa2565b5b6000615625848285016155e2565b91505092915050565b600060608284031215615644576156436153ce565b5b81905092915050565b6000806040838503121561566457615663614fa2565b5b60006156728582860161502b565b925050602083013567ffffffffffffffff81111561569357615692614fa7565b5b61569f8582860161562e565b9150509250929050565b60008060c083850312156156c0576156bf614fa2565b5b60006156ce8582860161502b565b92505060206156df858286016155e2565b9150509250929050565b600081519050919050565b600082825260208201905092915050565b6000819050602082019050919050565b600061572183836154ea565b60208301905092915050565b6000602082019050919050565b6000615745826156e9565b61574f81856156f4565b935061575a83615705565b8060005b8381101561578b5781516157728882615715565b975061577d8361572d565b92505060018101905061575e565b5085935050505092915050565b600081519050919050565b600082825260208201905092915050565b6000819050602082019050919050565b60006157d08383615516565b60408301905092915050565b6000602082019050919050565b60006157f482615798565b6157fe81856157a3565b9350615809836157b4565b8060005b8381101561583a57815161582188826157c4565b975061582c836157dc565b92505060018101905061580d565b5085935050505092915050565b60006060830160008301518482036000860152615864828261573a565b9150506020830151848203602086015261587e82826157e9565b9150506040830151848203604086015261589882826157e9565b9150508091505092915050565b600060208201905081810360008301526158bf8184615847565b905092915050565b600080604083850312156158de576158dd614fa2565b5b60006158ec8582860161502b565b92505060206158fd85828601614ff5565b9150509250929050565b600080fd5b7f4e487b7100000000000000000000000000000000000000000000000000000000600052604160045260246000fd5b615944826150cf565b810181811067ffffffffffffffff821117156159635761596261590c565b5b80604052505050565b6000615976614f98565b9050615982828261593b565b919050565b615990816154f9565b811461599b57600080fd5b50565b6000813590506159ad81615987565b92915050565b6000604082840312156159c9576159c8615907565b5b6159d3604061596c565b905060006159e38482850161599e565b60008301525060206159f78482850161599e565b60208301525092915050565b600080600060808486031215615a1c57615a1b614fa2565b5b6000615a2a8682870161502b565b9350506020615a3b8682870161502b565b9250506040615a4c868287016159b3565b9150509250925092565b600062ffffff82169050919050565b615a6e81615a56565b82525050565b60a082016000820151615a8a6000850182615a65565b506020820151615a9d60208501826154db565b506040820151615ab060408501826154ea565b506060820151615ac360608501826154ea565b506080820151615ad660808501826154ea565b50505050565b600060a082019050615af16000830184615a74565b92915050565b600060208284031215615b0d57615b0c614fa2565b5b6000615b1b84828501615476565b91505092915050565b600064ffffffffff82169050919050565b615b3e81615b24565b82525050565b6000602082019050615b596000830184615b35565b92915050565b615b68816154cb565b82525050565b604082016000820151615b846000850182615507565b506020820151615b976020850182615507565b50505050565b600060a082019050615bb26000830187615b5f565b615bbf6020830186615b5f565b615bcc60408301856152ad565b615bd96060830184615b6e565b95945050505050565b6000615bed82614fac565b9050919050565b615bfd81615be2565b8114615c0857600080fd5b50565b600081359050615c1a81615bf4565b92915050565b600060208284031215615c3657615c35614fa2565b5b6000615c4484828501615c0b565b91505092915050565b7f5468617420706c6f7420646f6573206e6f742065786973742e00000000000000600082015250565b6000615c8360198361508b565b9150615c8e82615c4d565b602082019050919050565b60006020820190508181036000830152615cb281615c76565b9050919050565b7f4e487b7100000000000000000000000000000000000000000000000000000000600052603260045260246000fd5b7f4e487b7100000000000000000000000000000000000000000000000000000000600052601160045260246000fd5b6000615d228261500a565b9150615d2d8361500a565b9250817fffffffffffffffffffffffffffffffffffffffffffffffffffffffffffffffff0483118215151615615d6657615d65615ce8565b5b828202905092915050565b7f4e487b7100000000000000000000000000000000000000000000000000000000600052601260045260246000fd5b6000615dab8261500a565b9150615db68361500a565b925082615dc657615dc5615d71565b5b828204905092915050565b6000615ddc8261500a565b9150615de78361500a565b925082821015615dfa57615df9615ce8565b5b828203905092915050565b615e0e81614fcc565b82525050565b6000604082019050615e296000830185615e05565b615e3660208301846152ad565b9392505050565b600081519050615e4c8161545f565b92915050565b600060208284031215615e6857615e67614fa2565b5b6000615e7684828501615e3d565b91505092915050565b6000615e8a8261500a565b9150615e958361500a565b9250827fffffffffffffffffffffffffffffffffffffffffffffffffffffffffffffffff03821115615eca57615ec9615ce8565b5b828201905092915050565b7f21415554484f52495a4544000000000000000000000000000000000000000000600082015250565b6000615f0b600b8361508b565b9150615f1682615ed5565b602082019050919050565b60006020820190508181036000830152615f3a81615efe565b9050919050565b7f4172726179206d69736d617463682e0000000000000000000000000000000000600082015250565b6000615f77600f8361508b565b9150615f8282615f41565b602082019050919050565b60006020820190508181036000830152615fa681615f6a565b9050919050565b600080fd5b600080fd5b600080fd5b600082356001606003833603038112615fd857615fd7615fad565b5b80830191505092915050565b6000808335600160200384360303811261600157616000615fad565b5b80840192508235915067ffffffffffffffff82111561602357616022615fb2565b5b60208301925060208202360383131561603f5761603e615fb7565b5b509250929050565b6000808335600160200384360303811261606457616063615fad565b5b80840192508235915067ffffffffffffffff82111561608657616085615fb2565b5b6020830192506040820236038313156160a2576160a1615fb7565b5b509250929050565b7f57726f6e67207472656520636f6e66696775726174696f6e2e204d757374206860008201527f617665206174206c65617374206f6e65206c6576656c20616e642073616d652060208201527f656e747269657320666f722070726963652c207969656c642c20616e6420746160408201527f782e000000000000000000000000000000000000000000000000000000000000606082015250565b600061615260628361508b565b915061615d826160aa565b608082019050919050565b6000602082019050818103600083015261618181616145565b9050919050565b7f4e487b7100000000000000000000000000000000000000000000000000000000600052600060045260246000fd5b6000819050919050565b600081549050919050565b60008190506001806001038301049050919050565b60008190508160005260206000209050919050565b600082821b905092915050565b6000600883026162337fffffffffffffffffffffffffffffffffffffffffffffffffffffffffffffffff826161f6565b61623d86836161f6565b95508019841693508086168417925050509392505050565b6000819050919050565b600061627a6162756162708461500a565b616255565b61500a565b9050919050565b6000819050919050565b6162948361625f565b6162a86162a082616281565b848454616203565b825550505050565b600090565b6162bd6162b0565b6162c881848461628b565b505050565b5b818110156162ec576162e16000826162b5565b6001810190506162ce565b5050565b8183101561632957616301826161cc565b61630a846161cc565b616313836161e1565b81810183820161632381836162cd565b50505050505b505050565b680100000000000000008211156163485761634761590c565b5b616351816161c1565b82825561635f8382846162f0565b505050565b600082905092915050565b6000813561637c81615014565b80915050919050565b61638f8383616364565b616399818361632e565b6163a2836161b7565b6163ab836161e1565b6000805b848110156163e657836163c18161636f565b90506163ce81848661628b565b602085019450600184019350506001810190506163af565b5050505050505050565b6163fb838383616385565b505050565b6000819050919050565b600081549050919050565b60008190506001806001038301049050919050565b60008190508160005260206000209050919050565b60008082015550565b6000821461645957616458616188565b5b6164628161643f565b5050565b5b818110156164855761647a600082616448565b600181019050616467565b5050565b818310156164c25761649a82616415565b6164a384616415565b6164ac8361642a565b8181018382016164bc8183616466565b50505050505b505050565b680100000000000000008211156164e1576164e061590c565b5b6164ea8161640a565b8282556164f8838284616489565b505050565b600082905092915050565b6000813561651581615987565b80915050919050565b60008160001b9050919050565b600061ffff6165398461651e565b9350801983169250808416831791505092915050565b600061656a616565616560846154f9565b616255565b6154f9565b9050919050565b6000819050919050565b6165848261654f565b61659761659082616571565b835461652b565b8255505050565b60008160101b9050919050565b600063ffff00006165bb8461659e565b9350801983169250808416831791505092915050565b6165da8261654f565b6165ed6165e682616571565b83546165ab565b8255505050565b60008101600083018061660681616508565b9050616612818461657b565b50505060008101602083018061662781616508565b905061663381846165d1565b5050505050565b811561664957616648616188565b5b61665383826165f4565b505050565b61666283836164fd565b61666c81836164c7565b61667583616400565b61667e8361642a565b6000805b848110156166ae578361669681848661663a565b60408501945060018401935050600181019050616682565b5050505050505050565b6166c3838383616658565b505050565b60008101600083016166da8185615fe4565b6166e58183866163f0565b5050505060018101602083016166fb8185616047565b6167068183866166b8565b50505050600281016040830161671c8185616047565b6167278183866166b8565b505050505050565b61673982826166c8565b5050565b60006167488261500a565b91507fffffffffffffffffffffffffffffffffffffffffffffffffffffffffffffffff82141561677b5761677a615ce8565b5b600182019050919050565b7f496e76616c6964206c6576656c2071756572792e000000000000000000000000600082015250565b60006167bc60148361508b565b91506167c782616786565b602082019050919050565b600060208201905081810360008301526167eb816167af565b9050919050565b7f4661726d4275636b207472616e73666572206973206e6f742063757272656e7460008201527f6c7920616c6c6f7765642e000000000000000000000000000000000000000000602082015250565b600061684e602b8361508b565b9150616859826167f2565b604082019050919050565b6000602082019050818103600083015261687d81616841565b9050919050565b7f596f7520617265206e6f7420616c6c6f77656420746f207370656e642074686f60008201527f7365204661726d4275636b732e00000000000000000000000000000000000000602082015250565b60006168e0602d8361508b565b91506168eb82616884565b604082019050919050565b6000602082019050818103600083015261690f816168d3565b9050919050565b7f507269766174652073616c65204661726d4275636b7320616c7265616479206d60008201527f696e7465642e0000000000000000000000000000000000000000000000000000602082015250565b600061697260268361508b565b915061697d82616916565b604082019050919050565b600060208201905081810360008301526169a181616965565b9050919050565b6169b282826165f4565b5050565b7f4e487b7100000000000000000000000000000000000000000000000000000000600052603160045260246000fd5b6169ee816154cb565b81146169f957600080fd5b50565b60008135616a09816169e5565b80915050919050565b600063ffffffff616a228461651e565b9350801983169250808416831791505092915050565b6000616a53616a4e616a49846154cb565b616255565b6154cb565b9050919050565b6000819050919050565b616a6d82616a38565b616a80616a7982616a5a565b8354616a12565b8255505050565b60008160201b9050919050565b600067ffffffff00000000616aa884616a87565b9350801983169250808416831791505092915050565b616ac782616a38565b616ada616ad382616a5a565b8354616a94565b8255505050565b60007fffffffffffffffffffffffffffffffffffffffffffffffffffffffffffffffff616b0d8461651e565b9350801983169250808416831791505092915050565b616b2c8261625f565b616b3f616b3882616281565b8354616ae1565b8255505050565b600081016000830180616b58816169fc565b9050616b648184616a64565b505050600081016020830180616b79816169fc565b9050616b858184616abe565b505050600181016040830180616b9a8161636f565b9050616ba68184616b23565b505050600281016060830180616bbc81846169a8565b5050505050565b616bcd8282616b46565b5050565b7f50726963652077726f6e673a2054726565206e6565647320746f20686176652060008201527f6174206c65617374206f6e65206c6576656c2e00000000000000000000000000602082015250565b6000616c2d60338361508b565b9150616c3882616bd1565b604082019050919050565b60006020820190508181036000830152616c5c81616c20565b9050919050565b7f5969656c642077726f6e673a2054726565206e6565647320746f20686176652060008201527f6174206c65617374206f6e65206c6576656c2e00000000000000000000000000602082015250565b6000616cbf60338361508b565b9150616cca82616c63565b604082019050919050565b60006020820190508181036000830152616cee81616cb2565b9050919050565b7f5461782077726f6e673a2054726565206e6565647320746f206861766520617460008201527f206c65617374206f6e65206c6576656c2e000000000000000000000000000000602082015250565b6000616d5160318361508b565b9150616d5c82616cf5565b604082019050919050565b60006020820190508181036000830152616d8081616d44565b9050919050565b7f54726565206d75737420686176652073616d6520656e7472696573206f6e207060008201527f726963652c207969656c642c20616e642074617820706572206c6576656c2e00602082015250565b6000616de3603f8361508b565b9150616dee82616d87565b604082019050919050565b60006020820190508181036000830152616e1281616dd6565b9050919050565b7f426f6f737420617265206e6f742063757272656e746c7920617661696c61626c60008201527f652e000000000000000000000000000000000000000000000000000000000000602082015250565b6000616e7560228361508b565b9150616e8082616e19565b604082019050919050565b60006020820190508181036000830152616ea481616e68565b9050919050565b6000616eb6826154cb565b9150616ec1836154cb565b92508263ffffffff03821115616eda57616ed9615ce8565b5b828201905092915050565b7f596f75207374696c6c206861766520616e2061637469766520626f6f73742e00600082015250565b6000616f1b601f8361508b565b9150616f2682616ee5565b602082019050919050565b60006020820190508181036000830152616f4a81616f0e565b9050919050565b7f596f7520646f206e6f74206f776e20656e6f756768206661726d6275636b732060008201527f746f20626f6f73742e0000000000000000000000000000000000000000000000602082015250565b6000616fad60298361508b565b9150616fb882616f51565b604082019050919050565b60006020820190508181036000830152616fdc81616fa0565b9050919050565b7f50726573616c65206d696e7420616d6f756e74206973206c696d69746564207460008201527f6f20612073656e7369626c65206e756d6265722e000000000000000000000000602082015250565b600061703f60348361508b565b915061704a82616fe3565b604082019050919050565b6000602082019050818103600083015261706e81617032565b9050919050565b7f214f574e45520000000000000000000000000000000000000000000000000000600082015250565b60006170ab60068361508b565b91506170b682617075565b602082019050919050565b600060208201905081810360008301526170da8161709e565b9050919050565b7f596f7520646f206e6f74206f776e20656e6f756768206661726d6275636b732e600082015250565b600061711760208361508b565b9150617122826170e1565b602082019050919050565b600060208201905081810360008301526171468161710a565b9050919050565b7f596f75206861766520616c726561647920706c616e746564207468652066697260008201527f7374207472656520696e207468617420706c6f74210000000000000000000000602082015250565b60006171a960358361508b565b91506171b48261714d565b604082019050919050565b600060208201905081810360008301526171d88161719c565b9050919050565b60006171fa6171f56171f084614fac565b616255565b614fac565b9050919050565b600061720c826171df565b9050919050565b600061721e82617201565b9050919050565b61722e81617213565b82525050565b60006020820190506172496000830184617225565b92915050565b7f4661726d4275636b3a207472616e736665722066726f6d20746865207a65726f60008201527f20616464726573732e0000000000000000000000000000000000000000000000602082015250565b60006172ab60298361508b565b91506172b68261724f565b604082019050919050565b600060208201905081810360008301526172da8161729e565b9050919050565b7f4661726d4275636b3a207472616e7366657220746f20746865207a65726f206160008201527f6464726573732e00000000000000000000000000000000000000000000000000602082015250565b600061733d60278361508b565b9150617348826172e1565b604082019050919050565b6000602082019050818103600083015261736c81617330565b9050919050565b7f4661726d4275636b3a205472616e7366657220616d6f756e74206d757374206260008201527f652067726561746572207468616e207a65726f2e000000000000000000000000602082015250565b60006173cf60348361508b565b91506173da82617373565b604082019050919050565b600060208201905081810360008301526173fe816173c2565b9050919050565b7f53656e64657220646f6573206e6f74206f776e20656e6f756768204661726d4260008201527f75636b732e000000000000000000000000000000000000000000000000000000602082015250565b600061746160258361508b565b915061746c82617405565b604082019050919050565b6000602082019050818103600083015261749081617454565b9050919050565b7f4e6f2074726565206f6e207468697320706c6f742c20796f752068617665207460008201527f6f20706c616e742069742066697273742e000000000000000000000000000000602082015250565b60006174f360318361508b565b91506174fe82617497565b604082019050919050565b60006020820190508181036000830152617522816174e6565b9050919050565b600061753482615a56565b915062ffffff82141561754a57617549615ce8565b5b600182019050919050565b600060608201905061756a6000830186615e05565b6175776020830185615e05565b61758460408301846152ad565b94935050505056fea2646970667358221220a60b8de54c9e6f51c5921fcb4bf77c126b4110c85a3effb3574d23f7d4bde7b064736f6c634300080a0033",
  "linkReferences": {},
  "deployedLinkReferences": {}
}