{
  "_format": "hh-sol-artifact-1",
  "contractName": "TreeFarm",
  "sourceName": "contracts/TreeFarm(1).sol",
  "abi": [
    {
      "inputs": [],
      "stateMutability": "nonpayable",
      "type": "constructor"
    },
    {
      "anonymous": false,
      "inputs": [
        {
          "indexed": true,
          "internalType": "address",
          "name": "owner",
          "type": "address"
        },
        {
          "indexed": true,
          "internalType": "address",
          "name": "spender",
          "type": "address"
        },
        {
          "indexed": false,
          "internalType": "uint256",
          "name": "value",
          "type": "uint256"
        }
      ],
      "name": "Approval",
      "type": "event"
    },
    {
      "anonymous": false,
      "inputs": [
        {
          "indexed": true,
          "internalType": "address",
          "name": "owner",
          "type": "address"
        },
        {
          "indexed": true,
          "internalType": "uint256",
          "name": "plot",
          "type": "uint256"
        },
        {
          "indexed": false,
          "internalType": "uint256",
          "name": "amount",
          "type": "uint256"
        }
      ],
      "name": "Compounded",
      "type": "event"
    },
    {
      "anonymous": false,
      "inputs": [
        {
          "indexed": true,
          "internalType": "address",
          "name": "owner",
          "type": "address"
        },
        {
          "indexed": true,
          "internalType": "address",
          "name": "spender",
          "type": "address"
        },
        {
          "indexed": false,
          "internalType": "bool",
          "name": "allowed",
          "type": "bool"
        }
      ],
      "name": "FarmBuckApproval",
      "type": "event"
    },
    {
      "anonymous": false,
      "inputs": [
        {
          "indexed": true,
          "internalType": "address",
          "name": "buyer",
          "type": "address"
        },
        {
          "indexed": false,
          "internalType": "uint256",
          "name": "amount",
          "type": "uint256"
        }
      ],
      "name": "FarmBuckPurchase",
      "type": "event"
    },
    {
      "anonymous": false,
      "inputs": [
        {
          "indexed": true,
          "internalType": "address",
          "name": "owner",
          "type": "address"
        },
        {
          "indexed": true,
          "internalType": "uint256",
          "name": "plot",
          "type": "uint256"
        },
        {
          "indexed": false,
          "internalType": "uint256",
          "name": "amount",
          "type": "uint256"
        }
      ],
      "name": "Invested",
      "type": "event"
    },
    {
      "anonymous": false,
      "inputs": [
        {
          "indexed": false,
          "internalType": "address",
          "name": "owner",
          "type": "address"
        }
      ],
      "name": "OwnershipTransferred",
      "type": "event"
    },
    {
      "anonymous": false,
      "inputs": [
        {
          "indexed": true,
          "internalType": "address",
          "name": "owner",
          "type": "address"
        },
        {
          "indexed": true,
          "internalType": "uint256",
          "name": "plot",
          "type": "uint256"
        },
        {
          "indexed": false,
          "internalType": "uint256",
          "name": "amount",
          "type": "uint256"
        }
      ],
      "name": "RedeemBUSD",
      "type": "event"
    },
    {
      "anonymous": false,
      "inputs": [
        {
          "indexed": true,
          "internalType": "address",
          "name": "owner",
          "type": "address"
        },
        {
          "indexed": true,
          "internalType": "uint256",
          "name": "plot",
          "type": "uint256"
        },
        {
          "indexed": false,
          "internalType": "uint256",
          "name": "amount",
          "type": "uint256"
        }
      ],
      "name": "RedeemFarmBuck",
      "type": "event"
    },
    {
      "anonymous": false,
      "inputs": [
        {
          "indexed": true,
          "internalType": "address",
          "name": "from",
          "type": "address"
        },
        {
          "indexed": true,
          "internalType": "address",
          "name": "to",
          "type": "address"
        },
        {
          "indexed": false,
          "internalType": "uint256",
          "name": "value",
          "type": "uint256"
        }
      ],
      "name": "Transfer",
      "type": "event"
    },
    {
      "anonymous": false,
      "inputs": [
        {
          "indexed": true,
          "internalType": "address",
          "name": "owner",
          "type": "address"
        },
        {
          "indexed": true,
          "internalType": "uint256",
          "name": "plot",
          "type": "uint256"
        }
      ],
      "name": "TreePlant",
      "type": "event"
    },
    {
      "inputs": [
        {
          "components": [
            {
              "internalType": "uint32",
              "name": "start",
              "type": "uint32"
            },
            {
              "internalType": "uint32",
              "name": "duration",
              "type": "uint32"
            },
            {
              "internalType": "uint256",
              "name": "price",
              "type": "uint256"
            },
            {
              "components": [
                {
                  "internalType": "uint16",
                  "name": "numerator",
                  "type": "uint16"
                },
                {
                  "internalType": "uint16",
                  "name": "denominator",
                  "type": "uint16"
                }
              ],
              "internalType": "struct Fraction",
              "name": "percentage",
              "type": "tuple"
            }
          ],
          "internalType": "struct Boost",
          "name": "btype",
          "type": "tuple"
        }
      ],
      "name": "addBoostType",
      "outputs": [],
      "stateMutability": "nonpayable",
      "type": "function"
    },
    {
      "inputs": [
        {
          "internalType": "address",
          "name": "spender",
          "type": "address"
        },
        {
          "internalType": "bool",
          "name": "allowed",
          "type": "bool"
        }
      ],
      "name": "allowSpending",
      "outputs": [],
      "stateMutability": "nonpayable",
      "type": "function"
    },
    {
      "inputs": [
        {
          "internalType": "address",
          "name": "_owner",
          "type": "address"
        },
        {
          "internalType": "address",
          "name": "spender",
          "type": "address"
        }
      ],
      "name": "allowance",
      "outputs": [
        {
          "internalType": "uint256",
          "name": "",
          "type": "uint256"
        }
      ],
      "stateMutability": "view",
      "type": "function"
    },
    {
      "inputs": [
        {
          "internalType": "address",
          "name": "_owner",
          "type": "address"
        },
        {
          "internalType": "address",
          "name": "spender",
          "type": "address"
        }
      ],
      "name": "allowedToSpend",
      "outputs": [
        {
          "internalType": "bool",
          "name": "",
          "type": "bool"
        }
      ],
      "stateMutability": "view",
      "type": "function"
    },
    {
      "inputs": [
        {
          "internalType": "address",
          "name": "spender",
          "type": "address"
        },
        {
          "internalType": "uint256",
          "name": "amount",
          "type": "uint256"
        }
      ],
      "name": "approve",
      "outputs": [
        {
          "internalType": "bool",
          "name": "",
          "type": "bool"
        }
      ],
      "stateMutability": "nonpayable",
      "type": "function"
    },
    {
      "inputs": [
        {
          "internalType": "address",
          "name": "adr",
          "type": "address"
        }
      ],
      "name": "authorize",
      "outputs": [],
      "stateMutability": "nonpayable",
      "type": "function"
    },
    {
      "inputs": [
        {
          "internalType": "address",
          "name": "farmer",
          "type": "address"
        }
      ],
      "name": "balanceOf",
      "outputs": [
        {
          "internalType": "uint256",
          "name": "",
          "type": "uint256"
        }
      ],
      "stateMutability": "view",
      "type": "function"
    },
    {
      "inputs": [
        {
          "internalType": "uint256",
          "name": "",
          "type": "uint256"
        }
      ],
      "name": "boostTypes",
      "outputs": [
        {
          "internalType": "uint32",
          "name": "start",
          "type": "uint32"
        },
        {
          "internalType": "uint32",
          "name": "duration",
          "type": "uint32"
        },
        {
          "internalType": "uint256",
          "name": "price",
          "type": "uint256"
        },
        {
          "components": [
            {
              "internalType": "uint16",
              "name": "numerator",
              "type": "uint16"
            },
            {
              "internalType": "uint16",
              "name": "denominator",
              "type": "uint16"
            }
          ],
          "internalType": "struct Fraction",
          "name": "percentage",
          "type": "tuple"
        }
      ],
      "stateMutability": "view",
      "type": "function"
    },
    {
      "inputs": [
        {
          "internalType": "uint256",
          "name": "index",
          "type": "uint256"
        }
      ],
      "name": "buyBoost",
      "outputs": [],
      "stateMutability": "nonpayable",
      "type": "function"
    },
    {
      "inputs": [
        {
          "internalType": "uint256",
          "name": "plot",
          "type": "uint256"
        },
        {
          "internalType": "uint256",
          "name": "currentLevel",
          "type": "uint256"
        }
      ],
      "name": "canTreeLevelUp",
      "outputs": [
        {
          "internalType": "bool",
          "name": "",
          "type": "bool"
        }
      ],
      "stateMutability": "view",
      "type": "function"
    },
    {
      "inputs": [
        {
          "internalType": "uint256",
          "name": "plot",
          "type": "uint256"
        }
      ],
      "name": "compound",
      "outputs": [],
      "stateMutability": "nonpayable",
      "type": "function"
    },
    {
      "inputs": [
        {
          "internalType": "address",
          "name": "receiver",
          "type": "address"
        },
        {
          "internalType": "uint256",
          "name": "plot",
          "type": "uint256"
        }
      ],
      "name": "compoundFor",
      "outputs": [],
      "stateMutability": "nonpayable",
      "type": "function"
    },
    {
      "inputs": [],
      "name": "decimals",
      "outputs": [
        {
          "internalType": "uint8",
          "name": "",
          "type": "uint8"
        }
      ],
      "stateMutability": "pure",
      "type": "function"
    },
    {
      "inputs": [
        {
          "internalType": "uint256",
          "name": "amount",
          "type": "uint256"
        }
      ],
      "name": "deposit",
      "outputs": [],
      "stateMutability": "nonpayable",
      "type": "function"
    },
    {
      "inputs": [
        {
          "internalType": "uint256",
          "name": "amount",
          "type": "uint256"
        },
        {
          "internalType": "address",
          "name": "referer",
          "type": "address"
        }
      ],
      "name": "depositWithRefer",
      "outputs": [],
      "stateMutability": "nonpayable",
      "type": "function"
    },
    {
      "inputs": [
        {
          "internalType": "uint256",
          "name": "index",
          "type": "uint256"
        },
        {
          "components": [
            {
              "internalType": "uint32",
              "name": "start",
              "type": "uint32"
            },
            {
              "internalType": "uint32",
              "name": "duration",
              "type": "uint32"
            },
            {
              "internalType": "uint256",
              "name": "price",
              "type": "uint256"
            },
            {
              "components": [
                {
                  "internalType": "uint16",
                  "name": "numerator",
                  "type": "uint16"
                },
                {
                  "internalType": "uint16",
                  "name": "denominator",
                  "type": "uint16"
                }
              ],
              "internalType": "struct Fraction",
              "name": "percentage",
              "type": "tuple"
            }
          ],
          "internalType": "struct Boost",
          "name": "btype",
          "type": "tuple"
        }
      ],
      "name": "editBoostType",
      "outputs": [],
      "stateMutability": "nonpayable",
      "type": "function"
    },
    {
      "inputs": [
        {
          "internalType": "uint256[]",
          "name": "indexes",
          "type": "uint256[]"
        },
        {
          "components": [
            {
              "internalType": "uint256[]",
              "name": "pricePerLevel",
              "type": "uint256[]"
            },
            {
              "components": [
                {
                  "internalType": "uint16",
                  "name": "numerator",
                  "type": "uint16"
                },
                {
                  "internalType": "uint16",
                  "name": "denominator",
                  "type": "uint16"
                }
              ],
              "internalType": "struct Fraction[]",
              "name": "yieldPerLevel",
              "type": "tuple[]"
            },
            {
              "components": [
                {
                  "internalType": "uint16",
                  "name": "numerator",
                  "type": "uint16"
                },
                {
                  "internalType": "uint16",
                  "name": "denominator",
                  "type": "uint16"
                }
              ],
              "internalType": "struct Fraction[]",
              "name": "taxPerLevel",
              "type": "tuple[]"
            }
          ],
          "internalType": "struct TreeType[]",
          "name": "ttypes",
          "type": "tuple[]"
        }
      ],
      "name": "editMultipleTreeTypes",
      "outputs": [],
      "stateMutability": "nonpayable",
      "type": "function"
    },
    {
      "inputs": [
        {
          "internalType": "uint256",
          "name": "index",
          "type": "uint256"
        },
        {
          "components": [
            {
              "internalType": "uint256[]",
              "name": "pricePerLevel",
              "type": "uint256[]"
            },
            {
              "components": [
                {
                  "internalType": "uint16",
                  "name": "numerator",
                  "type": "uint16"
                },
                {
                  "internalType": "uint16",
                  "name": "denominator",
                  "type": "uint16"
                }
              ],
              "internalType": "struct Fraction[]",
              "name": "yieldPerLevel",
              "type": "tuple[]"
            },
            {
              "components": [
                {
                  "internalType": "uint16",
                  "name": "numerator",
                  "type": "uint16"
                },
                {
                  "internalType": "uint16",
                  "name": "denominator",
                  "type": "uint16"
                }
              ],
              "internalType": "struct Fraction[]",
              "name": "taxPerLevel",
              "type": "tuple[]"
            }
          ],
          "internalType": "struct TreeType",
          "name": "ttype",
          "type": "tuple"
        }
      ],
      "name": "editTreeType",
      "outputs": [],
      "stateMutability": "nonpayable",
      "type": "function"
    },
    {
      "inputs": [
        {
          "internalType": "uint256",
          "name": "plot",
          "type": "uint256"
        }
      ],
      "name": "getAvailableYield",
      "outputs": [
        {
          "internalType": "uint256",
          "name": "",
          "type": "uint256"
        }
      ],
      "stateMutability": "view",
      "type": "function"
    },
    {
      "inputs": [
        {
          "internalType": "address",
          "name": "booster",
          "type": "address"
        }
      ],
      "name": "getCurrentBoost",
      "outputs": [
        {
          "components": [
            {
              "internalType": "uint32",
              "name": "start",
              "type": "uint32"
            },
            {
              "internalType": "uint32",
              "name": "duration",
              "type": "uint32"
            },
            {
              "internalType": "uint256",
              "name": "price",
              "type": "uint256"
            },
            {
              "components": [
                {
                  "internalType": "uint16",
                  "name": "numerator",
                  "type": "uint16"
                },
                {
                  "internalType": "uint16",
                  "name": "denominator",
                  "type": "uint16"
                }
              ],
              "internalType": "struct Fraction",
              "name": "percentage",
              "type": "tuple"
            }
          ],
          "internalType": "struct Boost",
          "name": "",
          "type": "tuple"
        }
      ],
      "stateMutability": "view",
      "type": "function"
    },
    {
      "inputs": [
        {
          "internalType": "uint256",
          "name": "plot",
          "type": "uint256"
        }
      ],
      "name": "getMyPlotState",
      "outputs": [
        {
          "components": [
            {
              "internalType": "uint24",
              "name": "currentLevel",
              "type": "uint24"
            },
            {
              "internalType": "uint32",
              "name": "lastYield",
              "type": "uint32"
            },
            {
              "internalType": "uint256",
              "name": "investedBucks",
              "type": "uint256"
            },
            {
              "internalType": "uint256",
              "name": "yieldedBucks",
              "type": "uint256"
            },
            {
              "internalType": "uint256",
              "name": "yieldedBUSD",
              "type": "uint256"
            }
          ],
          "internalType": "struct Tree",
          "name": "",
          "type": "tuple"
        }
      ],
      "stateMutability": "view",
      "type": "function"
    },
    {
      "inputs": [
        {
          "internalType": "address",
          "name": "owner",
          "type": "address"
        },
        {
          "internalType": "uint256",
          "name": "plot",
          "type": "uint256"
        }
      ],
      "name": "getPlotState",
      "outputs": [
        {
          "components": [
            {
              "internalType": "uint24",
              "name": "currentLevel",
              "type": "uint24"
            },
            {
              "internalType": "uint32",
              "name": "lastYield",
              "type": "uint32"
            },
            {
              "internalType": "uint256",
              "name": "investedBucks",
              "type": "uint256"
            },
            {
              "internalType": "uint256",
              "name": "yieldedBucks",
              "type": "uint256"
            },
            {
              "internalType": "uint256",
              "name": "yieldedBUSD",
              "type": "uint256"
            }
          ],
          "internalType": "struct Tree",
          "name": "",
          "type": "tuple"
        }
      ],
      "stateMutability": "view",
      "type": "function"
    },
    {
      "inputs": [
        {
          "internalType": "uint256",
          "name": "plot",
          "type": "uint256"
        }
      ],
      "name": "getTreeType",
      "outputs": [
        {
          "components": [
            {
              "internalType": "uint256[]",
              "name": "pricePerLevel",
              "type": "uint256[]"
            },
            {
              "components": [
                {
                  "internalType": "uint16",
                  "name": "numerator",
                  "type": "uint16"
                },
                {
                  "internalType": "uint16",
                  "name": "denominator",
                  "type": "uint16"
                }
              ],
              "internalType": "struct Fraction[]",
              "name": "yieldPerLevel",
              "type": "tuple[]"
            },
            {
              "components": [
                {
                  "internalType": "uint16",
                  "name": "numerator",
                  "type": "uint16"
                },
                {
                  "internalType": "uint16",
                  "name": "denominator",
                  "type": "uint16"
                }
              ],
              "internalType": "struct Fraction[]",
              "name": "taxPerLevel",
              "type": "tuple[]"
            }
          ],
          "internalType": "struct TreeType",
          "name": "",
          "type": "tuple"
        }
      ],
      "stateMutability": "view",
      "type": "function"
    },
    {
      "inputs": [
        {
          "internalType": "uint256",
          "name": "plot",
          "type": "uint256"
        },
        {
          "internalType": "uint256",
          "name": "level",
          "type": "uint256"
        }
      ],
      "name": "getTreeTypePrice",
      "outputs": [
        {
          "internalType": "uint256",
          "name": "",
          "type": "uint256"
        }
      ],
      "stateMutability": "view",
      "type": "function"
    },
    {
      "inputs": [
        {
          "internalType": "uint256",
          "name": "investment",
          "type": "uint256"
        },
        {
          "internalType": "uint256",
          "name": "time",
          "type": "uint256"
        },
        {
          "components": [
            {
              "internalType": "uint16",
              "name": "numerator",
              "type": "uint16"
            },
            {
              "internalType": "uint16",
              "name": "denominator",
              "type": "uint16"
            }
          ],
          "internalType": "struct Fraction",
          "name": "yield",
          "type": "tuple"
        }
      ],
      "name": "getYieldByTime",
      "outputs": [
        {
          "internalType": "uint256",
          "name": "",
          "type": "uint256"
        }
      ],
      "stateMutability": "pure",
      "type": "function"
    },
    {
      "inputs": [
        {
          "internalType": "uint256",
          "name": "plot",
          "type": "uint256"
        },
        {
          "internalType": "uint256",
          "name": "amount",
          "type": "uint256"
        }
      ],
      "name": "investInTree",
      "outputs": [],
      "stateMutability": "nonpayable",
      "type": "function"
    },
    {
      "inputs": [
        {
          "internalType": "address",
          "name": "adr",
          "type": "address"
        }
      ],
      "name": "isAuthorized",
      "outputs": [
        {
          "internalType": "bool",
          "name": "",
          "type": "bool"
        }
      ],
      "stateMutability": "view",
      "type": "function"
    },
    {
      "inputs": [
        {
          "internalType": "address",
          "name": "account",
          "type": "address"
        }
      ],
      "name": "isOwner",
      "outputs": [
        {
          "internalType": "bool",
          "name": "",
          "type": "bool"
        }
      ],
      "stateMutability": "view",
      "type": "function"
    },
    {
      "inputs": [],
      "name": "maxYieldTime",
      "outputs": [
        {
          "internalType": "uint40",
          "name": "",
          "type": "uint40"
        }
      ],
      "stateMutability": "view",
      "type": "function"
    },
    {
      "inputs": [],
      "name": "mintPrivateSaleBucks",
      "outputs": [],
      "stateMutability": "nonpayable",
      "type": "function"
    },
    {
      "inputs": [],
      "name": "name",
      "outputs": [
        {
          "internalType": "string",
          "name": "",
          "type": "string"
        }
      ],
      "stateMutability": "pure",
      "type": "function"
    },
    {
      "inputs": [
        {
          "internalType": "uint256",
          "name": "plot",
          "type": "uint256"
        }
      ],
      "name": "plantFirstTree",
      "outputs": [],
      "stateMutability": "nonpayable",
      "type": "function"
    },
    {
      "inputs": [
        {
          "internalType": "uint256",
          "name": "plot",
          "type": "uint256"
        }
      ],
      "name": "redeemBUSD",
      "outputs": [],
      "stateMutability": "nonpayable",
      "type": "function"
    },
    {
      "inputs": [
        {
          "internalType": "address",
          "name": "receiver",
          "type": "address"
        },
        {
          "internalType": "uint256",
          "name": "plot",
          "type": "uint256"
        }
      ],
      "name": "redeemBUSDFor",
      "outputs": [],
      "stateMutability": "nonpayable",
      "type": "function"
    },
    {
      "inputs": [
        {
          "internalType": "uint256",
          "name": "plot",
          "type": "uint256"
        }
      ],
      "name": "redeemFarmbuck",
      "outputs": [],
      "stateMutability": "nonpayable",
      "type": "function"
    },
    {
      "inputs": [
        {
          "internalType": "address",
          "name": "receiver",
          "type": "address"
        },
        {
          "internalType": "uint256",
          "name": "plot",
          "type": "uint256"
        }
      ],
      "name": "redeemFarmbuckFor",
      "outputs": [],
      "stateMutability": "nonpayable",
      "type": "function"
    },
    {
      "inputs": [
        {
          "internalType": "uint256",
          "name": "index",
          "type": "uint256"
        }
      ],
      "name": "removeBoostType",
      "outputs": [],
      "stateMutability": "nonpayable",
      "type": "function"
    },
    {
      "inputs": [
        {
          "internalType": "bool",
          "name": "active",
          "type": "bool"
        }
      ],
      "name": "setBoostsAvailable",
      "outputs": [],
      "stateMutability": "nonpayable",
      "type": "function"
    },
    {
      "inputs": [
        {
          "internalType": "uint256",
          "name": "amount",
          "type": "uint256"
        }
      ],
      "name": "setPrivateSaleMintAmount",
      "outputs": [],
      "stateMutability": "nonpayable",
      "type": "function"
    },
    {
      "inputs": [
        {
          "components": [
            {
              "internalType": "uint16",
              "name": "numerator",
              "type": "uint16"
            },
            {
              "internalType": "uint16",
              "name": "denominator",
              "type": "uint16"
            }
          ],
          "internalType": "struct Fraction",
          "name": "fr",
          "type": "tuple"
        }
      ],
      "name": "setRefererAmount",
      "outputs": [],
      "stateMutability": "nonpayable",
      "type": "function"
    },
    {
      "inputs": [
        {
          "internalType": "bool",
          "name": "allow",
          "type": "bool"
        }
      ],
      "name": "setTransferAllowed",
      "outputs": [],
      "stateMutability": "nonpayable",
      "type": "function"
    },
    {
      "inputs": [
        {
          "internalType": "address",
          "name": "_owner",
          "type": "address"
        },
        {
          "internalType": "address",
          "name": "spender",
          "type": "address"
        }
      ],
      "name": "spendingAllowed",
      "outputs": [
        {
          "internalType": "bool",
          "name": "",
          "type": "bool"
        }
      ],
      "stateMutability": "view",
      "type": "function"
    },
    {
      "inputs": [],
      "name": "symbol",
      "outputs": [
        {
          "internalType": "string",
          "name": "",
          "type": "string"
        }
      ],
      "stateMutability": "pure",
      "type": "function"
    },
    {
      "inputs": [],
      "name": "totalSupply",
      "outputs": [
        {
          "internalType": "uint256",
          "name": "",
          "type": "uint256"
        }
      ],
      "stateMutability": "view",
      "type": "function"
    },
    {
      "inputs": [
        {
          "internalType": "address",
          "name": "recipient",
          "type": "address"
        },
        {
          "internalType": "uint256",
          "name": "amount",
          "type": "uint256"
        }
      ],
      "name": "transfer",
      "outputs": [
        {
          "internalType": "bool",
          "name": "",
          "type": "bool"
        }
      ],
      "stateMutability": "nonpayable",
      "type": "function"
    },
    {
      "inputs": [
        {
          "internalType": "address",
          "name": "sender",
          "type": "address"
        },
        {
          "internalType": "address",
          "name": "recipient",
          "type": "address"
        },
        {
          "internalType": "uint256",
          "name": "amount",
          "type": "uint256"
        }
      ],
      "name": "transferFrom",
      "outputs": [
        {
          "internalType": "bool",
          "name": "",
          "type": "bool"
        }
      ],
      "stateMutability": "nonpayable",
      "type": "function"
    },
    {
      "inputs": [
        {
          "internalType": "address payable",
          "name": "adr",
          "type": "address"
        }
      ],
      "name": "transferOwnership",
      "outputs": [],
      "stateMutability": "nonpayable",
      "type": "function"
    },
    {
      "inputs": [
        {
          "internalType": "address",
          "name": "adr",
          "type": "address"
        }
      ],
      "name": "unauthorize",
      "outputs": [],
      "stateMutability": "nonpayable",
      "type": "function"
    }
  ],
  "bytecode": "0x600380546201518064ffffffffff19909116179055683635c9adc5dea00000602a5560e0604052600560a0819052606460c052602b805461ffff191690911763ffff00001916626400001790556031805460ff191690553480156200006357600080fd5b50600080546001600160a01b03191633908117825581526001602081905260408220805460ff191690911790556061461415620000b6575073ed24fc36d5ee211ea25a80239fb8c4cfd80f12ee620000cd565b5073e9e7cea3dedca5984780bafc599bd69add087d565b606081901b6001600160601b0319166080526001600160a01b03166147c26200010f600039600081816109a701528181612bcf01526132c601526147c26000f3fe608060405234801561001057600080fd5b50600436106103205760003560e01c80637fe6b8b6116101a7578063d9d5fc96116100ee578063f1abe2ca11610097578063f929c98b11610071578063f929c98b146106aa578063fe9be086146106bd578063fe9fbb80146106d057610320565b8063f1abe2ca14610661578063f1f032f014610674578063f2fde38b1461069757610320565b8063df7cbee1116100c8578063df7cbee11461063b578063e3eba0601461042f578063f0b37c041461064e57610320565b8063d9d5fc9614610600578063dc4fd81914610613578063dd62ed3e1461062857610320565b8063aa5f7e2611610150578063b6a5d7de1161012a578063b6a5d7de146105c7578063b6b55f25146105da578063d1225a9b146105ed57610320565b8063aa5f7e261461058e578063ae901021146105a1578063b3942cbd146105b457610320565b806395d89b411161018157806395d89b41146105535780639e7af3c71461055b578063a9059cbb1461057b57610320565b80637fe6b8b61461051a5780638b1069261461052d5780639388e3a41461054057610320565b8063451f3caf1161026b57806370a0823111610214578063730417dc116101ee578063730417dc146104d457806373af2e29146104e75780637776bbbd146104fa57610320565b806370a082311461049b578063718abfba146104ae57806371b322dc146104c157610320565b8063558ac13611610245578063558ac1361461045557806357f43f8d146104755780635c3c95871461048857610320565b8063451f3caf1461041c5780634c4a6dd01461042f578063534785621461044257610320565b806323b872dd116102cd5780633d3cae07116102a75780633d3cae07146103ee57806340e44267146104015780634416c3b41461040957610320565b806323b872dd146103b35780632f54bf6e146103c6578063313ce567146103d957610320565b80630b1d7605116102fe5780630b1d76051461037857806318160ddd1461038b57806318aac6df146103a057610320565b8063032c9dca1461032557806306fdde031461033a578063095ea7b314610358575b600080fd5b610338610333366004613600565b6106e3565b005b610342610b43565b60405161034f91906138fe565b60405180910390f35b61036b610366366004613600565b610b7a565b60405161034f91906138f3565b61033861038636600461362b565b610be2565b610393610ee1565b60405161034f9190614256565b6103936103ae3660046137a0565b610ee7565b61036b6103c1366004613593565b6110cd565b61036b6103d436600461353f565b611142565b6103e1611156565b60405161034f91906142a3565b61036b6103fc3660046137a0565b61115b565b6103386112f4565b6103386104173660046136e7565b611376565b61033861042a366004613600565b6113ad565b61036b61043d36600461355b565b611444565b6103386104503660046135d3565b611472565b61046861046336600461353f565b6114e1565b60405161034f9190614149565b6103386104833660046136f8565b611560565b6103386104963660046136cc565b6116ce565b6103936104a936600461353f565b611734565b6103386104bc366004613760565b61174f565b6103386104cf366004613734565b611935565b6103936104e23660046136f8565b61199c565b6103386104f53660046136f8565b6119d0565b61050d6105083660046136f8565b611c00565b60405161034f9190614185565b610338610528366004613710565b611d76565b61039361053b3660046137c1565b611db8565b61033861054e3660046136f8565b611e50565b610342611ea4565b61056e6105693660046136f8565b611edb565b60405161034f9190614211565b61036b610589366004613600565b611eed565b61033861059c3660046136f8565b611f3b565b6103386105af366004613600565b611fbd565b6103386105c2366004613694565b6121b9565b6103386105d536600461353f565b6121f1565b6103386105e83660046136f8565b61223d565b6103386105fb3660046136f8565b612249565b61056e61060e366004613600565b612465565b61061b61251e565b60405161034f9190614291565b61039361063636600461355b565b61252b565b6103386106493660046137a0565b61254e565b61033861065c36600461353f565b6125f4565b61033861066f366004613694565b61263a565b6106876106823660046136f8565b612672565b60405161034f949392919061425f565b6103386106a536600461353f565b6126da565b6103386106b83660046136f8565b61277c565b6103386106cb3660046136f8565b612931565b61036b6106de36600461353f565b612d58565b80600c811061070d5760405162461bcd60e51b815260040161070490613ef9565b60405180910390fd5b6107178333611444565b61072057600080fd5b600061072c8484612d76565b90506000600484600c811061075157634e487b7160e01b600052603260045260246000fd5b60030201604051806060016040529081600082018054806020026020016040519081016040528092919081815260200182805480156107af57602002820191906000526020600020905b81548152602001906001019080831161079b575b5050505050815260200160018201805480602002602001604051908101604052809291908181526020016000905b82821015610820576000848152602090819020604080518082019091529084015461ffff80821683526201000090910416818301528252600190920191016107dd565b50505050815260200160028201805480602002602001604051908101604052809291908181526020016000905b82821015610890576000848152602090819020604080518082019091529084015461ffff808216835262010000909104168183015282526001909201910161084d565b505050915250506001600160a01b0386166000908152602e602052604081209192509085600c81106108d257634e487b7160e01b600052603260045260246000fd5b6040805160a08101825260049290920292909201805462ffffff8116808452630100000090910463ffffffff1660208401526001820154838501526002820154606084015260039091015460808301529184015180519193506000929091811061094c57634e487b7160e01b600052603260045260246000fd5b602002602001015190506000816020015161ffff16826000015161ffff168661097591906143ca565b61097f91906143aa565b9050600061098d82876143e9565b60405163a9059cbb60e01b81529091506001600160a01b037f0000000000000000000000000000000000000000000000000000000000000000169063a9059cbb906109de908c9085906004016138da565b602060405180830381600087803b1580156109f857600080fd5b505af1158015610a0c573d6000803e3d6000fd5b505050506040513d601f19601f82011682018060405250810190610a3091906136b0565b508084608001818151610a43919061436a565b90525063ffffffff42166020808601919091526001600160a01b038a166000908152602e90915260409020849089600c8110610a8f57634e487b7160e01b600052603260045260246000fd5b8251600491909102919091018054602084015163ffffffff1663010000000266ffffffff0000001962ffffff90941662ffffff1990921691909117929092169190911781556040808301516001830155606083015160028301556080909201516003909101555188906001600160a01b038b16907f888f19217ddad5c6a51226c6812abe28b4400e72206c3b170ae84829bd03a7a090610b30908a90614256565b60405180910390a3505050505050505050565b60408051808201909152600881527f4661726d4275636b000000000000000000000000000000000000000000000000602082015290565b6000811515610b898482611472565b836001600160a01b0316336001600160a01b03167f8c5be1e5ebec7d5bd14f71427d1e84f3dd0314c0f7b2291e5b200ac8c7c3b925600254604051610bce9190614256565b60405180910390a360019150505b92915050565b610beb33612d58565b610c075760405162461bcd60e51b815260040161070490614112565b828114610c265760405162461bcd60e51b815260040161070490613beb565b60005b83811015610eda576000838383818110610c5357634e487b7160e01b600052603260045260246000fd5b9050602002810190610c65919061433f565b610c6f90806142f8565b9050118015610cbf57506000838383818110610c9b57634e487b7160e01b600052603260045260246000fd5b9050602002810190610cad919061433f565b610cbb9060208101906142b1565b9050115b8015610d0c57506000838383818110610ce857634e487b7160e01b600052603260045260246000fd5b9050602002810190610cfa919061433f565b610d089060408101906142b1565b9050115b8015610d955750828282818110610d3357634e487b7160e01b600052603260045260246000fd5b9050602002810190610d45919061433f565b610d539060208101906142b1565b9050838383818110610d7557634e487b7160e01b600052603260045260246000fd5b9050602002810190610d87919061433f565b610d9190806142f8565b9050145b8015610e225750828282818110610dbc57634e487b7160e01b600052603260045260246000fd5b9050602002810190610dce919061433f565b610ddc9060408101906142b1565b9050838383818110610dfe57634e487b7160e01b600052603260045260246000fd5b9050602002810190610e10919061433f565b610e1e9060208101906142b1565b9050145b610e3e5760405162461bcd60e51b815260040161070490613df3565b828282818110610e5e57634e487b7160e01b600052603260045260246000fd5b9050602002810190610e70919061433f565b6004868684818110610e9257634e487b7160e01b600052603260045260246000fd5b90506020020135600c8110610eb757634e487b7160e01b600052603260045260246000fd5b60030201610ec582826145bf565b50819050610ed2816144b1565b915050610c29565b5050505050565b60025490565b600082600c8110610f0a5760405162461bcd60e51b815260040161070490613ef9565b6000600485600c8110610f2d57634e487b7160e01b600052603260045260246000fd5b6003020160405180606001604052908160008201805480602002602001604051908101604052809291908181526020018280548015610f8b57602002820191906000526020600020905b815481526020019060010190808311610f77575b5050505050815260200160018201805480602002602001604051908101604052809291908181526020016000905b82821015610ffc576000848152602090819020604080518082019091529084015461ffff8082168352620100009091041681830152825260019092019101610fb9565b50505050815260200160028201805480602002602001604051908101604052809291908181526020016000905b8282101561106c576000848152602090819020604080518082019091529084015461ffff8082168352620100009091041681830152825260019092019101611029565b505050915250508051519091508411156110985760405162461bcd60e51b815260040161070490613afa565b80518051859081106110ba57634e487b7160e01b600052603260045260246000fd5b60200260200101519250505b5092915050565b60315460009060ff16806110eb57506000546001600160a01b031633145b6111075760405162461bcd60e51b815260040161070490613e9c565b611112848484612fbb565b61111c8433611444565b6111385760405162461bcd60e51b815260040161070490613cdc565b5060019392505050565b6000546001600160a01b0390811691161490565b601290565b600082600c811061117e5760405162461bcd60e51b815260040161070490613ef9565b6000600485600c81106111a157634e487b7160e01b600052603260045260246000fd5b60030201604051806060016040529081600082018054806020026020016040519081016040528092919081815260200182805480156111ff57602002820191906000526020600020905b8154815260200190600101908083116111eb575b5050505050815260200160018201805480602002602001604051908101604052809291908181526020016000905b82821015611270576000848152602090819020604080518082019091529084015461ffff808216835262010000909104168183015282526001909201910161122d565b50505050815260200160028201805480602002602001604051908101604052809291908181526020016000905b828210156112e0576000848152602090819020604080518082019091529084015461ffff808216835262010000909104168183015282526001909201910161129d565b505050915250505151909310949350505050565b6112fd33612d58565b6113195760405162461bcd60e51b815260040161070490614112565b602954610100900460ff16156113415760405162461bcd60e51b815260040161070490613b31565b602a8054336000908152602c6020526040902080549091019055546002805490910190556029805461ff001916610100179055565b61137f33612d58565b61139b5760405162461bcd60e51b815260040161070490614112565b80602b6113a88282614591565b505050565b80600c81106113ce5760405162461bcd60e51b815260040161070490613ef9565b6113d88333611444565b6113e157600080fd5b60006113ed8484612d76565b90506113fc83858360016130be565b82846001600160a01b03167f820cea42e8517cf1ec6d4e9db93909255f07c45f7eb0a7c7b5a0f8bdcfc2e5bf836040516114369190614256565b60405180910390a350505050565b6001600160a01b039182166000908152602d6020908152604080832093909416825291909152205460ff1690565b336000818152602d602090815260408083206001600160a01b038716808552925291829020805460ff191685151517905590519091907f0c8df66a7b22af6c2076e2c0586bca7548f9584b071221f363cde24bdbd9e62f906114d59085906138f3565b60405180910390a35050565b6114e9613434565b506001600160a01b03166000908152602f60209081526040918290208251608081018452815463ffffffff80821683526401000000009091041681840152600182015481850152835180850190945260029091015461ffff8082168552620100009091041691830191909152606081019190915290565b61156933612d58565b6115855760405162461bcd60e51b815260040161070490614112565b60288054611595906001906143e9565b815481106115b357634e487b7160e01b600052603260045260246000fd5b9060005260206000209060030201602882815481106115e257634e487b7160e01b600052603260045260246000fd5b600091825260209091208254600390920201805463ffffffff191663ffffffff9283161780825583546401000000009081900490931690920267ffffffff0000000019909216919091178155600180830154908201556002918201805492909101805461ffff191661ffff938416178082559154620100009081900490931690920263ffff000019909116179055602880548061168f57634e487b7160e01b600052603160045260246000fd5b600082815260208120600360001990930192830201805467ffffffffffffffff191681556001810191909155600201805463ffffffff19169055905550565b6116d733612d58565b6116f35760405162461bcd60e51b815260040161070490614112565b6028805460018101825560009190915281906003027fe16da923a2d88192e5070f37b4571d58682c0d66212ec634d495f33de3f77ab5016113a8828261450d565b6001600160a01b03166000908152602c602052604090205490565b61175833612d58565b6117745760405162461bcd60e51b815260040161070490614112565b80600061178182806142f8565b9050116117a05760405162461bcd60e51b815260040161070490614058565b60006117af60208301836142b1565b9050116117ce5760405162461bcd60e51b8152600401610704906139ae565b60006117dd60408301836142b1565b9050116117fc5760405162461bcd60e51b815260040161070490613d39565b61180960208201826142b1565b905061181582806142f8565b905014801561183f575061182c60408201826142b1565b905061183b60208301836142b1565b9050145b61185b5760405162461bcd60e51b815260040161070490613c22565b600061186783806142f8565b90501180156118845750600061188060208401846142b1565b9050115b801561189e5750600061189a60408401846142b1565b9050115b80156118c257506118b260208301836142b1565b90506118be83806142f8565b9050145b80156118e957506118d660408301836142b1565b90506118e560208401846142b1565b9050145b6119055760405162461bcd60e51b815260040161070490613df3565b81600484600c811061192757634e487b7160e01b600052603260045260246000fd5b60030201610eda82826145bf565b61193e33612d58565b61195a5760405162461bcd60e51b815260040161070490614112565b806028838154811061197c57634e487b7160e01b600052603260045260246000fd5b90600052602060002090600302018181611996919061450d565b50505050565b600081600c81106119bf5760405162461bcd60e51b815260040161070490613ef9565b6119c93384612d76565b9392505050565b60295460ff166119f25760405162461bcd60e51b815260040161070490613a0b565b336000908152602f60209081526040918290208251608081018452815463ffffffff8082168352640100000000909104811682850152600183015482860152845180860190955260029092015461ffff80821686526201000090910416928401929092526060820192909252805190911615611a9d57602081015181514291611a7a91614382565b63ffffffff1610611a9d5760405162461bcd60e51b815260040161070490614021565b600060288381548110611ac057634e487b7160e01b600052603260045260246000fd5b60009182526020808320604080516080810182526003909402909101805463ffffffff8082168652640100000000909104168484015260018101548483019081528251808401845260029092015461ffff8082168452620100009091041682850152606085019190915251338552602c909252909220549092501015611b585760405162461bcd60e51b815260040161070490613a9d565b60408082018051336000818152602c602090815285822080549490940390935563ffffffff4281168752918152602f835293909320845181548387015186166401000000000267ffffffff00000000199290961663ffffffff19909116171693909317835590516001830155606090920151805160029092018054919093015161ffff908116620100000263ffff0000199190931661ffff1990921691909117161790555050565b611c0861346d565b600482600c8110611c2957634e487b7160e01b600052603260045260246000fd5b6003020160405180606001604052908160008201805480602002602001604051908101604052809291908181526020018280548015611c8757602002820191906000526020600020905b815481526020019060010190808311611c73575b5050505050815260200160018201805480602002602001604051908101604052809291908181526020016000905b82821015611cf8576000848152602090819020604080518082019091529084015461ffff8082168352620100009091041681830152825260019092019101611cb5565b50505050815260200160028201805480602002602001604051908101604052809291908181526020016000905b82821015611d68576000848152602090819020604080518082019091529084015461ffff8082168352620100009091041681830152825260019092019101611d25565b505050915250909392505050565b336000908152603060205260409020805473ffffffffffffffffffffffffffffffffffffffff19166001600160a01b038316179055611db482613296565b5050565b60006127108162015180611dcc83876143ca565b611dd79060646143ca565b611de191906143aa565b90506000846020015161ffff16856000015161ffff168489611e0391906143ca565b611e0d91906143ca565b611e1791906143aa565b905082806064611e2785856143ca565b611e3191906143aa565b611e3b91906143aa565b611e4591906143aa565b979650505050505050565b611e5933612d58565b611e755760405162461bcd60e51b815260040161070490614112565b6a084595161401484a0000008110611e9f5760405162461bcd60e51b815260040161070490613c7f565b602a55565b60408051808201909152600581527f464255434b000000000000000000000000000000000000000000000000000000602082015290565b611ee361348e565b610bdc3383612465565b60315460009060ff1680611f0b57506000546001600160a01b031633145b611f275760405162461bcd60e51b815260040161070490613e9c565b611f32338484612fbb565b50600192915050565b80600c8110611f5c5760405162461bcd60e51b815260040161070490613ef9565b6000611f678361199c565b9050611f7683338360016130be565b82336001600160a01b03167f820cea42e8517cf1ec6d4e9db93909255f07c45f7eb0a7c7b5a0f8bdcfc2e5bf83604051611fb09190614256565b60405180910390a3505050565b80600c8110611fde5760405162461bcd60e51b815260040161070490613ef9565b611fe88333611444565b611ff157600080fd5b6000611ffd8484612d76565b6001600160a01b0385166000908152602e602052604081209192509084600c811061203857634e487b7160e01b600052603260045260246000fd5b6040805160a08101825260049290920292909201805462ffffff811683526301000000900463ffffffff1660208084019190915260018201548385015260028201546060840190815260039092015460808401526001600160a01b0389166000908152602c9091529290922080548501905581519092508391906120bd90839061436a565b90525063ffffffff42166020808301919091526001600160a01b0386166000908152602e90915260409020819085600c811061210957634e487b7160e01b600052603260045260246000fd5b8251600491909102919091018054602084015163ffffffff1663010000000266ffffffff0000001962ffffff90941662ffffff1990921691909117929092169190911781556040808301516001830155606083015160028301556080909201516003909101555184906001600160a01b038716907fd4c220a036e494dc8d9e171d2a06a37f490ec132e69a1ff788e87d75ba686568906121aa908690614256565b60405180910390a35050505050565b6121c233612d58565b6121de5760405162461bcd60e51b815260040161070490614112565b6031805460ff1916911515919091179055565b6121fa33611142565b6122165760405162461bcd60e51b815260040161070490613f8d565b6001600160a01b03166000908152600160208190526040909120805460ff19169091179055565b61224681613296565b50565b80600c811061226a5760405162461bcd60e51b815260040161070490613ef9565b6000612277836000610ee7565b336000908152602c60205260409020549091508111156122a95760405162461bcd60e51b815260040161070490613a68565b336000908152602e6020526040812084600c81106122d757634e487b7160e01b600052603260045260246000fd5b6040805160a08101825260049290920292909201805462ffffff8116808452630100000090910463ffffffff166020840152600182015493830193909352600281015460608301526003015460808201529150156123475760405162461bcd60e51b815260040161070490613d96565b336000908152602c6020908152604080832080548690039055602e909152902060019085600c811061238957634e487b7160e01b600052603260045260246000fd5b60040201805462ffffff191662ffffff92909216919091179055336000908152602e60205260409020829085600c81106123d357634e487b7160e01b600052603260045260246000fd5b6004020160010155336000908152602e60205260409020429085600c811061240b57634e487b7160e01b600052603260045260246000fd5b60040201805463ffffffff9290921663010000000266ffffffff00000019909216919091179055604051849033907fbfec54def49903f34ca9cf2128a54145e70ab76a425316fad737a5901cf820d490600090a350505050565b61246d61348e565b81600c811061248e5760405162461bcd60e51b815260040161070490613ef9565b6001600160a01b0384166000908152602e6020526040902083600c81106124c557634e487b7160e01b600052603260045260246000fd5b6040805160a08101825260049290920292909201805462ffffff811683526301000000900463ffffffff166020830152600181015492820192909252600282015460608201526003909101546080820152949350505050565b60035464ffffffffff1681565b60006125378383611444565b156125455750600254610bdc565b50600092915050565b81600c811061256f5760405162461bcd60e51b815260040161070490613ef9565b336000908152602c602052604090205482111561259e5760405162461bcd60e51b815260040161070490613a68565b6125ab83338460006130be565b336000818152602c60205260409081902080548590039055518491907f9e9d071824fd57d062ca63fd8b786d8da48a6807eebbcb2d83f9e8d21398e28c90611fb0908690614256565b6125fd33611142565b6126195760405162461bcd60e51b815260040161070490613f8d565b6001600160a01b03166000908152600160205260409020805460ff19169055565b61264333612d58565b61265f5760405162461bcd60e51b815260040161070490614112565b6029805460ff1916911515919091179055565b6028818154811061268257600080fd5b6000918252602091829020600390910201805460018201546040805180820190915260029093015461ffff808216855262010000909104169383019390935263ffffffff808216945064010000000090910416919084565b6126e333611142565b6126ff5760405162461bcd60e51b815260040161070490613f8d565b6000805473ffffffffffffffffffffffffffffffffffffffff19166001600160a01b0383169081178255815260016020819052604091829020805460ff19169091179055517f04dba622d284ed0014ee4b9a6a68386be1a4c08a4913ae272de89199cc686163906127719083906138a2565b60405180910390a150565b80600c811061279d5760405162461bcd60e51b815260040161070490613ef9565b60006127a88361199c565b336000908152602e602052604081209192509084600c81106127da57634e487b7160e01b600052603260045260246000fd5b6040805160a08101825260049290920292909201805462ffffff811683526301000000900463ffffffff166020808401919091526001820154838501526002820154606084019081526003909201546080840152336000908152602c90915292909220805485019055815190925083919061285690839061436a565b90525063ffffffff4216602080830191909152336000908152602e90915260409020819085600c811061289957634e487b7160e01b600052603260045260246000fd5b8251600491909102919091018054602084015163ffffffff1663010000000266ffffffff0000001962ffffff90941662ffffff19909216919091179290921691909117815560408083015160018301556060830151600283015560809092015160039091015551849033907fd4c220a036e494dc8d9e171d2a06a37f490ec132e69a1ff788e87d75ba68656890611436908690614256565b80600c81106129525760405162461bcd60e51b815260040161070490613ef9565b600061295d8361199c565b90506000600484600c811061298257634e487b7160e01b600052603260045260246000fd5b60030201604051806060016040529081600082018054806020026020016040519081016040528092919081815260200182805480156129e057602002820191906000526020600020905b8154815260200190600101908083116129cc575b5050505050815260200160018201805480602002602001604051908101604052809291908181526020016000905b82821015612a51576000848152602090819020604080518082019091529084015461ffff8082168352620100009091041681830152825260019092019101612a0e565b50505050815260200160028201805480602002602001604051908101604052809291908181526020016000905b82821015612ac1576000848152602090819020604080518082019091529084015461ffff8082168352620100009091041681830152825260019092019101612a7e565b50505091525050336000908152602e602052604081209192509085600c8110612afa57634e487b7160e01b600052603260045260246000fd5b6040805160a08101825260049290920292909201805462ffffff8116808452630100000090910463ffffffff16602084015260018201548385015260028201546060840152600390910154608083015291840151805191935060009290918110612b7457634e487b7160e01b600052603260045260246000fd5b602002602001015190506000816020015161ffff16826000015161ffff1686612b9d91906143ca565b612ba791906143aa565b90506000612bb582876143e9565b60405163a9059cbb60e01b81529091506001600160a01b037f0000000000000000000000000000000000000000000000000000000000000000169063a9059cbb90612c0690339085906004016138da565b602060405180830381600087803b158015612c2057600080fd5b505af1158015612c34573d6000803e3d6000fd5b505050506040513d601f19601f82011682018060405250810190612c5891906136b0565b508084608001818151612c6b919061436a565b90525063ffffffff4216602080860191909152336000908152602e90915260409020849089600c8110612cae57634e487b7160e01b600052603260045260246000fd5b8251600491909102919091018054602084015163ffffffff1663010000000266ffffffff0000001962ffffff90941662ffffff19909216919091179290921691909117815560408083015160018301556060830151600283015560809092015160039091015551889033907f888f19217ddad5c6a51226c6812abe28b4400e72206c3b170ae84829bd03a7a090612d46908a90614256565b60405180910390a35050505050505050565b6001600160a01b031660009081526001602052604090205460ff1690565b6001600160a01b0382166000908152602e60205260408120819083600c8110612daf57634e487b7160e01b600052603260045260246000fd5b6040805160a08101825260049290920292909201805462ffffff811683526301000000900463ffffffff1660208301819052600182015493830193909352600281015460608301526003015460808201529150600090612e0f90426143e9565b905080612e2157600092505050610bdc565b6000600485600c8110612e4457634e487b7160e01b600052603260045260246000fd5b60030201600101836000015162ffffff1681548110612e7357634e487b7160e01b600052603260045260246000fd5b600091825260208083206040805180820190915292015461ffff808216845262010000909104169082015260035490925064ffffffffff168311612eb75782612ec2565b60035464ffffffffff165b90506000612ed585604001518385611db8565b60295490915060ff1615611e45576001600160a01b0388166000908152602f60209081526040918290208251608081018452815463ffffffff808216835264010000000090910416818401908152600183015482860152845180860190955260029092015461ffff80821686526201000090910416928401929092526060820192909252905181514291612f6891614382565b63ffffffff161115612faf5760608101516020810151905160009161ffff90811691612f959116856143ca565b612f9f91906143aa565b9050612fab818461436a565b9250505b50979650505050505050565b6001600160a01b038316612fe15760405162461bcd60e51b815260040161070490613951565b6001600160a01b0382166130075760405162461bcd60e51b815260040161070490613fc4565b600081116130275760405162461bcd60e51b815260040161070490613b8e565b6001600160a01b0383166000908152602c6020526040902054818110156130605760405162461bcd60e51b8152600401610704906140b5565b6001600160a01b038085166000818152602c602052604080822086860390559286168082529083902080548601905591517fddf252ad1be2c89b69c2b068fc378daa952ba7f163c4a11628f55a4df523b3ef90611436908690614256565b6001600160a01b0383166000908152602e6020526040812085600c81106130f557634e487b7160e01b600052603260045260246000fd5b6040805160a08101825260049290920292909201805462ffffff8116808452630100000090910463ffffffff1660208401526001820154938301939093526002810154606083015260030154608082015291506131645760405162461bcd60e51b815260040161070490613f30565b8281604001818151613176919061436a565b905250805161318b90869062ffffff1661115b565b156131c95760006131a586836000015162ffffff16610ee7565b9050808260400151106131c7578151826131be8261448e565b62ffffff169052505b505b81156131f15782816060018181516131e1919061436a565b90525063ffffffff421660208201525b6001600160a01b0384166000908152602e60205260409020819086600c811061322a57634e487b7160e01b600052603260045260246000fd5b8251600491909102919091018054602084015163ffffffff1663010000000266ffffffff0000001962ffffff90941662ffffff19909216919091179290921691909117815560408201516001820155606082015160028201556080909101516003909101555050505050565b6040517f23b872dd0000000000000000000000000000000000000000000000000000000081526001600160a01b037f000000000000000000000000000000000000000000000000000000000000000016906323b872dd906132ff903390309086906004016138b6565b602060405180830381600087803b15801561331957600080fd5b505af115801561332d573d6000803e3d6000fd5b505050506040513d601f19601f8201168201806040525081019061335191906136b0565b61335a57600080fd5b336000908152602c6020908152604080832080548501905560309091529020546001600160a01b0316156133f057602b5460009061ffff6201000082048116916133a59116846143ca565b6133af91906143aa565b336000908152603060209081526040808320546001600160a01b03168352602c9091528120805492935083929091906133e990849061436a565b9091555050505b336001600160a01b03167f9b5ce49ffbc992ee67baad9481ff227141a5c0c1a324c22392a4581857d3e215826040516134299190614256565b60405180910390a250565b6040518060800160405280600063ffffffff168152602001600063ffffffff168152602001600081526020016134686134c8565b905290565b60405180606001604052806060815260200160608152602001606081525090565b6040518060a00160405280600062ffffff168152602001600063ffffffff1681526020016000815260200160008152602001600081525090565b604080518082019091526000808252602082015290565b60008083601f8401126134f0578182fd5b50813567ffffffffffffffff811115613507578182fd5b602083019150836020808302850101111561352157600080fd5b9250929050565b600060a08284031215613539578081fd5b50919050565b600060208284031215613550578081fd5b81356119c981614759565b6000806040838503121561356d578081fd5b823561357881614759565b9150602083013561358881614759565b809150509250929050565b6000806000606084860312156135a7578081fd5b83356135b281614759565b925060208401356135c281614759565b929592945050506040919091013590565b600080604083850312156135e5578182fd5b82356135f081614759565b915060208301356135888161476e565b60008060408385031215613612578182fd5b823561361d81614759565b946020939093013593505050565b60008060008060408587031215613640578081fd5b843567ffffffffffffffff80821115613657578283fd5b613663888389016134df565b9096509450602087013591508082111561367b578283fd5b50613688878288016134df565b95989497509550505050565b6000602082840312156136a5578081fd5b81356119c98161476e565b6000602082840312156136c1578081fd5b81516119c98161476e565b600060a082840312156136dd578081fd5b6119c98383613528565b600060408284031215613539578081fd5b600060208284031215613709578081fd5b5035919050565b60008060408385031215613722578182fd5b82359150602083013561358881614759565b60008060c08385031215613746578182fd5b823591506137578460208501613528565b90509250929050565b60008060408385031215613772578182fd5b82359150602083013567ffffffffffffffff81111561378f578182fd5b830160608186031215613588578182fd5b600080604083850312156137b2578182fd5b50508035926020909101359150565b600080600083850360808112156137d6578182fd5b84359350602085013592506040603f19820112156137f2578182fd5b506040516040810181811067ffffffffffffffff82111715613816576138166144e2565b60409081528501356138278161477c565b815260608501356138378161477c565b602082015292959194509192509050565b6000815180845260208085019450808401835b838110156138815761386e87835161388c565b604096909601959082019060010161385b565b509495945050505050565b805161ffff908116835260209182015116910152565b6001600160a01b0391909116815260200190565b6001600160a01b039384168152919092166020820152604081019190915260600190565b6001600160a01b03929092168252602082015260400190565b901515815260200190565b6000602080835283518082850152825b8181101561392a5785810183015185820160400152820161390e565b8181111561393b5783604083870101525b50601f01601f1916929092016040019392505050565b60208082526029908201527f4661726d4275636b3a207472616e736665722066726f6d20746865207a65726f60408201527f20616464726573732e0000000000000000000000000000000000000000000000606082015260800190565b60208082526033908201527f5969656c642077726f6e673a2054726565206e6565647320746f20686176652060408201527f6174206c65617374206f6e65206c6576656c2e00000000000000000000000000606082015260800190565b60208082526022908201527f426f6f737420617265206e6f742063757272656e746c7920617661696c61626c60408201527f652e000000000000000000000000000000000000000000000000000000000000606082015260800190565b6020808252818101527f596f7520646f206e6f74206f776e20656e6f756768206661726d6275636b732e604082015260600190565b60208082526029908201527f596f7520646f206e6f74206f776e20656e6f756768206661726d6275636b732060408201527f746f20626f6f73742e0000000000000000000000000000000000000000000000606082015260800190565b60208082526014908201527f496e76616c6964206c6576656c2071756572792e000000000000000000000000604082015260600190565b60208082526026908201527f507269766174652073616c65204661726d4275636b7320616c7265616479206d60408201527f696e7465642e0000000000000000000000000000000000000000000000000000606082015260800190565b60208082526034908201527f4661726d4275636b3a205472616e7366657220616d6f756e74206d757374206260408201527f652067726561746572207468616e207a65726f2e000000000000000000000000606082015260800190565b6020808252600f908201527f4172726179206d69736d617463682e0000000000000000000000000000000000604082015260600190565b6020808252603f908201527f54726565206d75737420686176652073616d6520656e7472696573206f6e207060408201527f726963652c207969656c642c20616e642074617820706572206c6576656c2e00606082015260800190565b60208082526034908201527f50726573616c65206d696e7420616d6f756e74206973206c696d69746564207460408201527f6f20612073656e7369626c65206e756d6265722e000000000000000000000000606082015260800190565b6020808252602d908201527f596f7520617265206e6f7420616c6c6f77656420746f207370656e642074686f60408201527f7365204661726d4275636b732e00000000000000000000000000000000000000606082015260800190565b60208082526031908201527f5461782077726f6e673a2054726565206e6565647320746f206861766520617460408201527f206c65617374206f6e65206c6576656c2e000000000000000000000000000000606082015260800190565b60208082526035908201527f596f75206861766520616c726561647920706c616e746564207468652066697260408201527f7374207472656520696e207468617420706c6f74210000000000000000000000606082015260800190565b60208082526062908201527f57726f6e67207472656520636f6e66696775726174696f6e2e204d757374206860408201527f617665206174206c65617374206f6e65206c6576656c20616e642073616d652060608201527f656e747269657320666f722070726963652c207969656c642c20616e6420746160808201527f782e00000000000000000000000000000000000000000000000000000000000060a082015260c00190565b6020808252602b908201527f4661726d4275636b207472616e73666572206973206e6f742063757272656e7460408201527f6c7920616c6c6f7765642e000000000000000000000000000000000000000000606082015260800190565b60208082526019908201527f5468617420706c6f7420646f6573206e6f742065786973742e00000000000000604082015260600190565b60208082526031908201527f4e6f2074726565206f6e207468697320706c6f742c20796f752068617665207460408201527f6f20706c616e742069742066697273742e000000000000000000000000000000606082015260800190565b60208082526006908201527f214f574e45520000000000000000000000000000000000000000000000000000604082015260600190565b60208082526027908201527f4661726d4275636b3a207472616e7366657220746f20746865207a65726f206160408201527f6464726573732e00000000000000000000000000000000000000000000000000606082015260800190565b6020808252601f908201527f596f75207374696c6c206861766520616e2061637469766520626f6f73742e00604082015260600190565b60208082526033908201527f50726963652077726f6e673a2054726565206e6565647320746f20686176652060408201527f6174206c65617374206f6e65206c6576656c2e00000000000000000000000000606082015260800190565b60208082526025908201527f53656e64657220646f6573206e6f74206f776e20656e6f756768204661726d4260408201527f75636b732e000000000000000000000000000000000000000000000000000000606082015260800190565b6020808252600b908201527f21415554484f52495a4544000000000000000000000000000000000000000000604082015260600190565b600060a08201905063ffffffff808451168352806020850151166020840152506040830151604083015260608301516110c6606084018261388c565b6020808252825160608383015280516080840181905260009291820190839060a08601905b808310156141ca57835182529284019260019290920191908401906141aa565b50838701519350601f199250828682030160408701526141ea8185613848565b935050506040850151818584030160608601526142078382613848565b9695505050505050565b600060a08201905062ffffff835116825263ffffffff602084015116602083015260408301516040830152606083015160608301526080830151608083015292915050565b90815260200190565b63ffffffff8581168252841660208201526040810183905260a08101614288606083018461388c565b95945050505050565b64ffffffffff91909116815260200190565b60ff91909116815260200190565b6000808335601e198436030181126142c7578283fd5b83018035915067ffffffffffffffff8211156142e1578283fd5b602001915060408102360382131561352157600080fd5b6000808335601e1984360301811261430e578283fd5b83018035915067ffffffffffffffff821115614328578283fd5b602090810192508102360382131561352157600080fd5b60008235605e19833603018112614354578182fd5b9190910192915050565b60009081526020902090565b6000821982111561437d5761437d6144cc565b500190565b600063ffffffff8083168185168083038211156143a1576143a16144cc565b01949350505050565b6000826143c557634e487b7160e01b81526012600452602481fd5b500490565b60008160001904831182151516156143e4576143e46144cc565b500290565b6000828210156143fb576143fb6144cc565b500390565b68010000000000000000831115614419576144196144e2565b805483825580841015614450576000828152602081208581019083015b8082101561444c57828255600182019150614436565b5050505b508161445b8261435e565b6000805b86811015614485576144728483856146fa565b604093909301926001928301920161445f565b50505050505050565b600062ffffff808316818114156144a7576144a76144cc565b6001019392505050565b60006000198214156144c5576144c56144cc565b5060010190565b634e487b7160e01b600052601160045260246000fd5b634e487b7160e01b600052604160045260246000fd5b6000813563ffffffff81168114610bdc578182fd5b63ffffffff61451b836144f8565b1663ffffffff198254161780825567ffffffff0000000061453e602085016144f8565b60201b1667ffffffff00000000198216178255506040820135600182015560028101606083013561456e8161477c565b61457881836146cb565b5060808301356145878161477c565b61199681836146de565b813561459c8161477c565b6145a681836146cb565b5060208201356145b58161477c565b6113a881836146de565b8135601e198336030181126145d357600080fd5b8201803567ffffffffffffffff8111156145ec57600080fd5b602091820191818102360383131561460357600080fd5b6801000000000000000082111561461c5761461c6144e2565b83548285558083101561465a5760008581528281208481019083015b808210156146565761464b83848461473a565b600182019150614638565b5050505b506146648461435e565b6000805b8481101561468c5761467c8635838561473a565b9483019460019283019201614668565b50505061469b818601866142b1565b93509150506146ae828260018601614400565b50506146bd60408301836142b1565b611996818360028601614400565b61ffff821661ffff198254161781555050565b805463ffff00008360101b1663ffff0000198216178255505050565b811561471657634e487b7160e01b600052600060045260246000fd5b82356147218161477c565b61472b81836146cb565b5060208301356145878161477c565b805460088302600019811b8086831b1681198416178455505050505050565b6001600160a01b038116811461224657600080fd5b801515811461224657600080fd5b61ffff8116811461224657600080fdfea26469706673582212204cf0e698cdf44cec40c8611b508c0739eaba293a2b7c104036bec1fcac3a97d364736f6c63430008000033",
  "linkReferences": {},
  "deployedLinkReferences": {}
}